{
	"contracts/GetSchiffyGold.sol": {
		"GetSchiffyGold": {
			"abi": [
				{
					"inputs": [
						{
							"internalType": "address payable",
							"name": "playToEarnWallet_",
							"type": "address"
						},
						{
							"internalType": "address",
							"name": "dexRouter_",
							"type": "address"
						}
					],
					"stateMutability": "nonpayable",
					"type": "constructor"
				},
				{
					"anonymous": false,
					"inputs": [
						{
							"indexed": true,
							"internalType": "address",
							"name": "owner",
							"type": "address"
						},
						{
							"indexed": true,
							"internalType": "address",
							"name": "spender",
							"type": "address"
						},
						{
							"indexed": false,
							"internalType": "uint256",
							"name": "value",
							"type": "uint256"
						}
					],
					"name": "Approval",
					"type": "event"
				},
				{
					"anonymous": false,
					"inputs": [
						{
							"indexed": true,
							"internalType": "address",
							"name": "previousOwner",
							"type": "address"
						},
						{
							"indexed": true,
							"internalType": "address",
							"name": "newOwner",
							"type": "address"
						}
					],
					"name": "OwnershipTransferred",
					"type": "event"
				},
				{
					"anonymous": false,
					"inputs": [
						{
							"indexed": true,
							"internalType": "address",
							"name": "from",
							"type": "address"
						},
						{
							"indexed": true,
							"internalType": "address",
							"name": "to",
							"type": "address"
						},
						{
							"indexed": false,
							"internalType": "uint256",
							"name": "value",
							"type": "uint256"
						}
					],
					"name": "Transfer",
					"type": "event"
				},
				{
					"inputs": [],
					"name": "_maxTxAmount",
					"outputs": [
						{
							"internalType": "uint256",
							"name": "",
							"type": "uint256"
						}
					],
					"stateMutability": "view",
					"type": "function"
				},
				{
					"inputs": [
						{
							"internalType": "address",
							"name": "owner",
							"type": "address"
						},
						{
							"internalType": "address",
							"name": "spender",
							"type": "address"
						}
					],
					"name": "allowance",
					"outputs": [
						{
							"internalType": "uint256",
							"name": "",
							"type": "uint256"
						}
					],
					"stateMutability": "view",
					"type": "function"
				},
				{
					"inputs": [
						{
							"internalType": "address",
							"name": "spender",
							"type": "address"
						},
						{
							"internalType": "uint256",
							"name": "amount",
							"type": "uint256"
						}
					],
					"name": "approve",
					"outputs": [
						{
							"internalType": "bool",
							"name": "",
							"type": "bool"
						}
					],
					"stateMutability": "nonpayable",
					"type": "function"
				},
				{
					"inputs": [
						{
							"internalType": "address",
							"name": "account",
							"type": "address"
						}
					],
					"name": "balanceOf",
					"outputs": [
						{
							"internalType": "uint256",
							"name": "",
							"type": "uint256"
						}
					],
					"stateMutability": "view",
					"type": "function"
				},
				{
					"inputs": [
						{
							"internalType": "uint256",
							"name": "holders",
							"type": "uint256"
						},
						{
							"internalType": "uint256",
							"name": "playToEarn",
							"type": "uint256"
						}
					],
					"name": "changeFees",
					"outputs": [],
					"stateMutability": "nonpayable",
					"type": "function"
				},
				{
					"inputs": [],
					"name": "decimals",
					"outputs": [
						{
							"internalType": "uint8",
							"name": "",
							"type": "uint8"
						}
					],
					"stateMutability": "view",
					"type": "function"
				},
				{
					"inputs": [
						{
							"internalType": "address",
							"name": "spender",
							"type": "address"
						},
						{
							"internalType": "uint256",
							"name": "subtractedValue",
							"type": "uint256"
						}
					],
					"name": "decreaseAllowance",
					"outputs": [
						{
							"internalType": "bool",
							"name": "",
							"type": "bool"
						}
					],
					"stateMutability": "nonpayable",
					"type": "function"
				},
				{
					"inputs": [
						{
							"internalType": "uint256",
							"name": "tAmount",
							"type": "uint256"
						}
					],
					"name": "deliver",
					"outputs": [],
					"stateMutability": "nonpayable",
					"type": "function"
				},
				{
					"inputs": [
						{
							"internalType": "address",
							"name": "account",
							"type": "address"
						}
					],
					"name": "excludeFromFee",
					"outputs": [],
					"stateMutability": "nonpayable",
					"type": "function"
				},
				{
					"inputs": [
						{
							"internalType": "address",
							"name": "account",
							"type": "address"
						}
					],
					"name": "excludeFromMaxTx",
					"outputs": [],
					"stateMutability": "nonpayable",
					"type": "function"
				},
				{
					"inputs": [
						{
							"internalType": "address",
							"name": "account",
							"type": "address"
						}
					],
					"name": "excludeFromReward",
					"outputs": [],
					"stateMutability": "nonpayable",
					"type": "function"
				},
				{
					"inputs": [],
					"name": "feeDetails",
					"outputs": [
						{
							"internalType": "uint256",
							"name": "",
							"type": "uint256"
						},
						{
							"internalType": "uint256",
							"name": "",
							"type": "uint256"
						}
					],
					"stateMutability": "view",
					"type": "function"
				},
				{
					"inputs": [],
					"name": "geUnlockTime",
					"outputs": [
						{
							"internalType": "uint256",
							"name": "",
							"type": "uint256"
						}
					],
					"stateMutability": "view",
					"type": "function"
				},
				{
					"inputs": [
						{
							"internalType": "address",
							"name": "account",
							"type": "address"
						}
					],
					"name": "includeInFee",
					"outputs": [],
					"stateMutability": "nonpayable",
					"type": "function"
				},
				{
					"inputs": [
						{
							"internalType": "address",
							"name": "account",
							"type": "address"
						}
					],
					"name": "includeInMaxTx",
					"outputs": [],
					"stateMutability": "nonpayable",
					"type": "function"
				},
				{
					"inputs": [
						{
							"internalType": "address",
							"name": "account",
							"type": "address"
						}
					],
					"name": "includeInReward",
					"outputs": [],
					"stateMutability": "nonpayable",
					"type": "function"
				},
				{
					"inputs": [
						{
							"internalType": "address",
							"name": "spender",
							"type": "address"
						},
						{
							"internalType": "uint256",
							"name": "addedValue",
							"type": "uint256"
						}
					],
					"name": "increaseAllowance",
					"outputs": [
						{
							"internalType": "bool",
							"name": "",
							"type": "bool"
						}
					],
					"stateMutability": "nonpayable",
					"type": "function"
				},
				{
					"inputs": [
						{
							"internalType": "address",
							"name": "account",
							"type": "address"
						}
					],
					"name": "isExcludedFromFee",
					"outputs": [
						{
							"internalType": "bool",
							"name": "",
							"type": "bool"
						}
					],
					"stateMutability": "view",
					"type": "function"
				},
				{
					"inputs": [
						{
							"internalType": "address",
							"name": "account",
							"type": "address"
						}
					],
					"name": "isExcludedFromReward",
					"outputs": [
						{
							"internalType": "bool",
							"name": "",
							"type": "bool"
						}
					],
					"stateMutability": "view",
					"type": "function"
				},
				{
					"inputs": [
						{
							"internalType": "address",
							"name": "account",
							"type": "address"
						}
					],
					"name": "isExludedFromMaxTx",
					"outputs": [
						{
							"internalType": "bool",
							"name": "",
							"type": "bool"
						}
					],
					"stateMutability": "view",
					"type": "function"
				},
				{
					"inputs": [
						{
							"internalType": "uint256",
							"name": "time",
							"type": "uint256"
						}
					],
					"name": "lock",
					"outputs": [],
					"stateMutability": "nonpayable",
					"type": "function"
				},
				{
					"inputs": [],
					"name": "name",
					"outputs": [
						{
							"internalType": "string",
							"name": "",
							"type": "string"
						}
					],
					"stateMutability": "view",
					"type": "function"
				},
				{
					"inputs": [],
					"name": "owner",
					"outputs": [
						{
							"internalType": "address",
							"name": "",
							"type": "address"
						}
					],
					"stateMutability": "view",
					"type": "function"
				},
				{
					"inputs": [
						{
							"internalType": "uint256",
							"name": "tAmount",
							"type": "uint256"
						},
						{
							"internalType": "bool",
							"name": "deductTransferFee",
							"type": "bool"
						}
					],
					"name": "reflectionFromToken",
					"outputs": [
						{
							"internalType": "uint256",
							"name": "",
							"type": "uint256"
						}
					],
					"stateMutability": "view",
					"type": "function"
				},
				{
					"inputs": [],
					"name": "renounceOwnership",
					"outputs": [],
					"stateMutability": "nonpayable",
					"type": "function"
				},
				{
					"inputs": [
						{
							"internalType": "uint256",
							"name": "maxTxPercent",
							"type": "uint256"
						}
					],
					"name": "setMaxTxPercent",
					"outputs": [],
					"stateMutability": "nonpayable",
					"type": "function"
				},
				{
					"inputs": [
						{
							"internalType": "uint256",
							"name": "liquidityFee",
							"type": "uint256"
						}
					],
					"name": "setPlayToEarnFeePercent",
					"outputs": [],
					"stateMutability": "nonpayable",
					"type": "function"
				},
				{
					"inputs": [
						{
							"internalType": "uint256",
							"name": "taxFee",
							"type": "uint256"
						}
					],
					"name": "setTaxFeePercent",
					"outputs": [],
					"stateMutability": "nonpayable",
					"type": "function"
				},
				{
					"inputs": [],
					"name": "symbol",
					"outputs": [
						{
							"internalType": "string",
							"name": "",
							"type": "string"
						}
					],
					"stateMutability": "view",
					"type": "function"
				},
				{
					"inputs": [
						{
							"internalType": "uint256",
							"name": "rAmount",
							"type": "uint256"
						}
					],
					"name": "tokenFromReflection",
					"outputs": [
						{
							"internalType": "uint256",
							"name": "",
							"type": "uint256"
						}
					],
					"stateMutability": "view",
					"type": "function"
				},
				{
					"inputs": [],
					"name": "totalFees",
					"outputs": [
						{
							"internalType": "uint256",
							"name": "",
							"type": "uint256"
						}
					],
					"stateMutability": "view",
					"type": "function"
				},
				{
					"inputs": [],
					"name": "totalSupply",
					"outputs": [
						{
							"internalType": "uint256",
							"name": "",
							"type": "uint256"
						}
					],
					"stateMutability": "view",
					"type": "function"
				},
				{
					"inputs": [
						{
							"internalType": "address",
							"name": "recipient",
							"type": "address"
						},
						{
							"internalType": "uint256",
							"name": "amount",
							"type": "uint256"
						}
					],
					"name": "transfer",
					"outputs": [
						{
							"internalType": "bool",
							"name": "",
							"type": "bool"
						}
					],
					"stateMutability": "nonpayable",
					"type": "function"
				},
				{
					"inputs": [
						{
							"internalType": "address",
							"name": "sender",
							"type": "address"
						},
						{
							"internalType": "address",
							"name": "recipient",
							"type": "address"
						},
						{
							"internalType": "uint256",
							"name": "amount",
							"type": "uint256"
						}
					],
					"name": "transferFrom",
					"outputs": [
						{
							"internalType": "bool",
							"name": "",
							"type": "bool"
						}
					],
					"stateMutability": "nonpayable",
					"type": "function"
				},
				{
					"inputs": [
						{
							"internalType": "address",
							"name": "newOwner",
							"type": "address"
						}
					],
					"name": "transferOwnership",
					"outputs": [],
					"stateMutability": "nonpayable",
					"type": "function"
				},
				{
					"inputs": [],
					"name": "uniswapV2Pair",
					"outputs": [
						{
							"internalType": "address",
							"name": "",
							"type": "address"
						}
					],
					"stateMutability": "view",
					"type": "function"
				},
				{
					"inputs": [],
					"name": "uniswapV2Router",
					"outputs": [
						{
							"internalType": "contract IUniswapV2Router02",
							"name": "",
							"type": "address"
						}
					],
					"stateMutability": "view",
					"type": "function"
				},
				{
					"inputs": [],
					"name": "unlock",
					"outputs": [],
					"stateMutability": "nonpayable",
					"type": "function"
				},
				{
					"stateMutability": "payable",
					"type": "receive"
				}
			],
			"devdoc": {
				"kind": "dev",
				"methods": {
					"allowance(address,address)": {
						"details": "Returns the remaining number of tokens that `spender` will be allowed to spend on behalf of `owner` through {transferFrom}. This is zero by default. This value changes when {approve} or {transferFrom} are called."
					},
					"approve(address,uint256)": {
						"details": "Sets `amount` as the allowance of `spender` over the caller's tokens. Returns a boolean value indicating whether the operation succeeded. IMPORTANT: Beware that changing an allowance with this method brings the risk that someone may use both the old and the new allowance by unfortunate transaction ordering. One possible solution to mitigate this race condition is to first reduce the spender's allowance to 0 and set the desired value afterwards: https://github.com/ethereum/EIPs/issues/20#issuecomment-263524729 Emits an {Approval} event."
					},
					"balanceOf(address)": {
						"details": "Returns the amount of tokens owned by `account`."
					},
					"owner()": {
						"details": "Returns the address of the current owner."
					},
					"renounceOwnership()": {
						"details": "Leaves the contract without owner. It will not be possible to call `onlyOwner` functions anymore. Can only be called by the current owner. NOTE: Renouncing ownership will leave the contract without an owner, thereby removing any functionality that is only available to the owner."
					},
					"transfer(address,uint256)": {
						"details": "Moves `amount` tokens from the caller's account to `recipient`. Returns a boolean value indicating whether the operation succeeded. Emits a {Transfer} event."
					},
					"transferFrom(address,address,uint256)": {
						"details": "Moves `amount` tokens from `sender` to `recipient` using the allowance mechanism. `amount` is then deducted from the caller's allowance. Returns a boolean value indicating whether the operation succeeded. Emits a {Transfer} event."
					},
					"transferOwnership(address)": {
						"details": "Transfers ownership of the contract to a new account (`newOwner`). Can only be called by the current owner."
					}
				},
				"version": 1
			},
			"evm": {
				"assembly": "    /* \"contracts/GetSchiffyGold.sol\":23710:38770  contract GetSchiffyGold is Context, IGOLD, Ownable {... */\n  mstore(0x40, 0xc0)\n    /* \"contracts/GetSchiffyGold.sol\":24283:24302  1 * 10**12 * 10**18 */\n  0x0c9f2c9cd04674edea40000000\n    /* \"contracts/GetSchiffyGold.sol\":24257:24302  uint256 private _tTotal = 1 * 10**12 * 10**18 */\n  0x0a\n  dup2\n  swap1\n  sstore\n    /* \"contracts/GetSchiffyGold.sol\":24342:24355  MAX % _tTotal */\n  tag_1\n  swap1\n  not(0x00)\n  tag_2\n  jump\t// in\ntag_1:\n    /* \"contracts/GetSchiffyGold.sol\":24335:24356  MAX - (MAX % _tTotal) */\n  tag_3\n  swap1\n  not(0x00)\n  tag_4\n  jump\t// in\ntag_3:\n    /* \"contracts/GetSchiffyGold.sol\":24308:24357  uint256 private _rTotal = (MAX - (MAX % _tTotal)) */\n  0x0b\n  sstore\n    /* \"contracts/GetSchiffyGold.sol\":24449:24477  uint8 private _decimals = 18 */\n  0x0f\n  dup1\n  sload\n  not(0xff)\n  and\n    /* \"contracts/GetSchiffyGold.sol\":24475:24477  18 */\n  0x12\n    /* \"contracts/GetSchiffyGold.sol\":24449:24477  uint8 private _decimals = 18 */\n  or\n  swap1\n  sstore\n    /* \"contracts/GetSchiffyGold.sol\":24518:24520  75 */\n  0x4b\n    /* \"contracts/GetSchiffyGold.sol\":24488:24520  uint256 private _playToEarn = 75 */\n  0x10\n  dup2\n  swap1\n  sstore\n    /* \"contracts/GetSchiffyGold.sol\":24526:24575  uint256 private _previousPlayToEarn = _playToEarn */\n  0x11\n  sstore\n    /* \"contracts/GetSchiffyGold.sol\":24449:24477  uint8 private _decimals = 18 */\n  0x00\n    /* \"contracts/GetSchiffyGold.sol\":24628:24655  uint256 private _taxFee = 0 */\n  0x13\n  dup2\n  swap1\n  sstore\n    /* \"contracts/GetSchiffyGold.sol\":24661:24702  uint256 private _previousTaxFee = _taxFee */\n  0x14\n  sstore\n    /* \"contracts/GetSchiffyGold.sol\":24857:25519  constructor(address payable playToEarnWallet_, address dexRouter_)  ... */\n  callvalue\n  dup1\n  iszero\n  tag_5\n  jumpi\n  0x00\n  dup1\n  revert\ntag_5:\n  pop\n  mload(0x40)\n  sub(codesize, bytecodeSize)\n  dup1\n  bytecodeSize\n  dup4\n  codecopy\n  dup2\n  add\n  0x40\n  dup2\n  swap1\n  mstore\n  tag_6\n  swap2\n  tag_7\n  jump\t// in\ntag_6:\n    /* \"contracts/GetSchiffyGold.sol\":13826:13843  address msgSender */\n  0x00\n    /* \"contracts/GetSchiffyGold.sol\":13868:13886  _owner = msgSender */\n  dup1\n  sload\n  not(sub(shl(0xa0, 0x01), 0x01))\n  and\n    /* \"contracts/GetSchiffyGold.sol\":7273:7283  msg.sender */\n  caller\n    /* \"contracts/GetSchiffyGold.sol\":13868:13886  _owner = msgSender */\n  swap1\n  dup2\n  or\n  dup3\n  sstore\n    /* \"contracts/GetSchiffyGold.sol\":13901:13944  OwnershipTransferred(address(0), msgSender) */\n  mload(0x40)\n    /* \"contracts/GetSchiffyGold.sol\":7273:7283  msg.sender */\n  swap1\n  swap2\n  dup3\n  swap2\n    /* \"contracts/GetSchiffyGold.sol\":13901:13944  OwnershipTransferred(address(0), msgSender) */\n  0x8be0079c531659141344cd1fd0a4f28419497f9722a3daafe3b4186f6b6457e0\n  swap1\n    /* \"contracts/GetSchiffyGold.sol\":13826:13843  address msgSender */\n  dup3\n  swap1\n    /* \"contracts/GetSchiffyGold.sol\":13901:13944  OwnershipTransferred(address(0), msgSender) */\n  log3\n  pop\n    /* \"contracts/GetSchiffyGold.sol\":24940:24966  _name = \"Get Schiffy Gold\" */\n  0x40\n  dup1\n  mload\n  dup1\n  dup3\n  add\n  swap1\n  swap2\n  mstore\n  0x10\n  dup1\n  dup3\n  mstore\n  shl(0x82, 0x11d95d0814d8da1a59999e4811dbdb19)\n  0x20\n  swap1\n  swap3\n  add\n  swap2\n  dup3\n  mstore\n  tag_14\n  swap2\n    /* \"contracts/GetSchiffyGold.sol\":24940:24945  _name */\n  0x0d\n  swap2\n    /* \"contracts/GetSchiffyGold.sol\":24940:24966  _name = \"Get Schiffy Gold\" */\n  tag_15\n  jump\t// in\ntag_14:\n  pop\n    /* \"contracts/GetSchiffyGold.sol\":24976:24992  _symbol = \"GOLD\" */\n  0x40\n  dup1\n  mload\n  dup1\n  dup3\n  add\n  swap1\n  swap2\n  mstore\n  0x04\n  dup1\n  dup3\n  mstore\n  shl(0xe2, 0x11d3d311)\n  0x20\n  swap1\n  swap3\n  add\n  swap2\n  dup3\n  mstore\n  tag_16\n  swap2\n    /* \"contracts/GetSchiffyGold.sol\":24976:24983  _symbol */\n  0x0e\n  swap2\n    /* \"contracts/GetSchiffyGold.sol\":24976:24992  _symbol = \"GOLD\" */\n  tag_15\n  jump\t// in\ntag_16:\n  pop\n    /* \"contracts/GetSchiffyGold.sol\":25002:25019  _playToEarnWallet */\n  0x12\n    /* \"contracts/GetSchiffyGold.sol\":25002:25039  _playToEarnWallet = playToEarnWallet_ */\n  dup1\n  sload\n  not(sub(shl(0xa0, 0x01), 0x01))\n  and\n  sub(shl(0xa0, 0x01), 0x01)\n  dup5\n  and\n  or\n  swap1\n  sstore\n    /* \"contracts/GetSchiffyGold.sol\":25064:25071  _tTotal */\n  sload(0x0a)\n    /* \"contracts/GetSchiffyGold.sol\":25064:25089  _tTotal.mul(5).div(10**3) */\n  tag_17\n  swap1\n    /* \"contracts/GetSchiffyGold.sol\":25083:25088  10**3 */\n  0x03e8\n  swap1\n    /* \"contracts/GetSchiffyGold.sol\":25064:25078  _tTotal.mul(5) */\n  tag_18\n  swap1\n    /* \"contracts/GetSchiffyGold.sol\":25076:25077  5 */\n  0x05\n    /* \"contracts/GetSchiffyGold.sol\":25064:25075  _tTotal.mul */\n  tag_19\n  0x20\n  swap1\n  dup2\n  shl\n  tag_0_226\n  or\n    /* \"contracts/GetSchiffyGold.sol\":25064:25078  _tTotal.mul(5) */\n  swap1\n  shr\n  jump\t// in\ntag_18:\n    /* \"contracts/GetSchiffyGold.sol\":25064:25082  _tTotal.mul(5).div */\n  or(tag_0_227, shl(0x20, tag_20))\n  swap1\n    /* \"contracts/GetSchiffyGold.sol\":25064:25089  _tTotal.mul(5).div(10**3) */\n  swap2\n  swap1\n  0x20\n  shr\n  jump\t// in\ntag_17:\n    /* \"contracts/GetSchiffyGold.sol\":25049:25061  _maxTxAmount */\n  0x15\n    /* \"contracts/GetSchiffyGold.sol\":25049:25089  _maxTxAmount = _tTotal.mul(5).div(10**3) */\n  sstore\n    /* \"contracts/GetSchiffyGold.sol\":25123:25130  _rTotal */\n  sload(0x0b)\n    /* \"contracts/GetSchiffyGold.sol\":7273:7283  msg.sender */\n  caller\n    /* \"contracts/GetSchiffyGold.sol\":25099:25120  _rOwned[_msgSender()] */\n  0x00\n  swap1\n  dup2\n  mstore\n    /* \"contracts/GetSchiffyGold.sol\":25099:25106  _rOwned */\n  0x03\n    /* \"contracts/GetSchiffyGold.sol\":25099:25120  _rOwned[_msgSender()] */\n  0x20\n  swap1\n  dup2\n  mstore\n  0x40\n  swap2\n  dup3\n  swap1\n  keccak256\n    /* \"contracts/GetSchiffyGold.sol\":25099:25130  _rOwned[_msgSender()] = _rTotal */\n  swap3\n  swap1\n  swap3\n  sstore\n    /* \"contracts/GetSchiffyGold.sol\":25270:25296  _uniswapV2Router.factory() */\n  dup1\n  mload\n  shl(0xe0, 0xc45a0155)\n  dup2\n  mstore\n  swap1\n  mload\n    /* \"contracts/GetSchiffyGold.sol\":25215:25225  dexRouter_ */\n  dup4\n  swap3\n  sub(shl(0xa0, 0x01), 0x01)\n    /* \"contracts/GetSchiffyGold.sol\":25270:25294  _uniswapV2Router.factory */\n  dup5\n  and\n  swap3\n  0xc45a0155\n  swap3\n    /* \"contracts/GetSchiffyGold.sol\":25270:25296  _uniswapV2Router.factory() */\n  0x04\n  dup1\n  dup4\n  add\n  swap4\n    /* \"contracts/GetSchiffyGold.sol\":25099:25120  _rOwned[_msgSender()] */\n  swap3\n    /* \"contracts/GetSchiffyGold.sol\":25270:25296  _uniswapV2Router.factory() */\n  dup3\n  swap1\n  sub\n  add\n  dup2\n    /* \"contracts/GetSchiffyGold.sol\":25270:25294  _uniswapV2Router.factory */\n  dup7\n    /* \"contracts/GetSchiffyGold.sol\":25270:25296  _uniswapV2Router.factory() */\n  dup1\n  extcodesize\n  iszero\n  dup1\n  iszero\n  tag_22\n  jumpi\n  0x00\n  dup1\n  revert\ntag_22:\n  pop\n  gas\n  staticcall\n  iszero\n  dup1\n  iszero\n  tag_24\n  jumpi\n  returndatasize\n  0x00\n  dup1\n  returndatacopy\n  revert(0x00, returndatasize)\ntag_24:\n  pop\n  pop\n  pop\n  pop\n  mload(0x40)\n  returndatasize\n  not(0x1f)\n  0x1f\n  dup3\n  add\n  and\n  dup3\n  add\n  dup1\n  0x40\n  mstore\n  pop\n  dup2\n  add\n  swap1\n  tag_25\n  swap2\n  swap1\n  tag_26\n  jump\t// in\ntag_25:\n  sub(shl(0xa0, 0x01), 0x01)\n    /* \"contracts/GetSchiffyGold.sol\":25252:25321  IUniswapV2Factory(_uniswapV2Router.factory())... */\n  and\n  0xc9c65396\n    /* \"contracts/GetSchiffyGold.sol\":25330:25334  this */\n  address\n    /* \"contracts/GetSchiffyGold.sol\":25337:25353  _uniswapV2Router */\n  dup4\n  sub(shl(0xa0, 0x01), 0x01)\n    /* \"contracts/GetSchiffyGold.sol\":25337:25358  _uniswapV2Router.WETH */\n  and\n  0xad5c4648\n    /* \"contracts/GetSchiffyGold.sol\":25337:25360  _uniswapV2Router.WETH() */\n  mload(0x40)\n  dup2\n  0xffffffff\n  and\n  0xe0\n  shl\n  dup2\n  mstore\n  0x04\n  add\n  0x20\n  mload(0x40)\n  dup1\n  dup4\n  sub\n  dup2\n  dup7\n  dup1\n  extcodesize\n  iszero\n  dup1\n  iszero\n  tag_27\n  jumpi\n  0x00\n  dup1\n  revert\ntag_27:\n  pop\n  gas\n  staticcall\n  iszero\n  dup1\n  iszero\n  tag_29\n  jumpi\n  returndatasize\n  0x00\n  dup1\n  returndatacopy\n  revert(0x00, returndatasize)\ntag_29:\n  pop\n  pop\n  pop\n  pop\n  mload(0x40)\n  returndatasize\n  not(0x1f)\n  0x1f\n  dup3\n  add\n  and\n  dup3\n  add\n  dup1\n  0x40\n  mstore\n  pop\n  dup2\n  add\n  swap1\n  tag_30\n  swap2\n  swap1\n  tag_26\n  jump\t// in\ntag_30:\n    /* \"contracts/GetSchiffyGold.sol\":25252:25361  IUniswapV2Factory(_uniswapV2Router.factory())... */\n  mload(0x40)\n  not(sub(shl(0xe0, 0x01), 0x01))\n  0xe0\n  dup6\n  swap1\n  shl\n  and\n  dup2\n  mstore\n  sub(shl(0xa0, 0x01), 0x01)\n    /* \"#utility.yul\":898:913   */\n  swap3\n  dup4\n  and\n    /* \"contracts/GetSchiffyGold.sol\":25252:25361  IUniswapV2Factory(_uniswapV2Router.factory())... */\n  0x04\n  dup3\n  add\n    /* \"#utility.yul\":880:914   */\n  mstore\n    /* \"#utility.yul\":950:965   */\n  swap2\n  and\n    /* \"#utility.yul\":930:948   */\n  0x24\n  dup3\n  add\n    /* \"#utility.yul\":923:966   */\n  mstore\n    /* \"#utility.yul\":815:833   */\n  0x44\n  add\n    /* \"contracts/GetSchiffyGold.sol\":25252:25361  IUniswapV2Factory(_uniswapV2Router.factory())... */\n  0x20\n  mload(0x40)\n  dup1\n  dup4\n  sub\n  dup2\n  0x00\n  dup8\n  dup1\n  extcodesize\n  iszero\n  dup1\n  iszero\n  tag_33\n  jumpi\n  0x00\n  dup1\n  revert\ntag_33:\n  pop\n  gas\n  call\n  iszero\n  dup1\n  iszero\n  tag_35\n  jumpi\n  returndatasize\n  0x00\n  dup1\n  returndatacopy\n  revert(0x00, returndatasize)\ntag_35:\n  pop\n  pop\n  pop\n  pop\n  mload(0x40)\n  returndatasize\n  not(0x1f)\n  0x1f\n  dup3\n  add\n  and\n  dup3\n  add\n  dup1\n  0x40\n  mstore\n  pop\n  dup2\n  add\n  swap1\n  tag_36\n  swap2\n  swap1\n  tag_26\n  jump\t// in\ntag_36:\n  not(sub(shl(0x60, 0x01), 0x01))\n    /* \"contracts/GetSchiffyGold.sol\":25236:25361  uniswapV2Pair = IUniswapV2Factory(_uniswapV2Router.factory())... */\n  0x60\n  swap2\n  dup3\n  shl\n  dup2\n  and\n  0xa0\n  mstore\n    /* \"contracts/GetSchiffyGold.sol\":25371:25405  uniswapV2Router = _uniswapV2Router */\n  swap1\n  dup3\n  swap1\n  shl\n  and\n  0x80\n  mstore\n    /* \"contracts/GetSchiffyGold.sol\":25432:25445  setExcludes() */\n  tag_37\n    /* \"contracts/GetSchiffyGold.sol\":25432:25443  setExcludes */\n  tag_38\n    /* \"contracts/GetSchiffyGold.sol\":25432:25445  setExcludes() */\n  jump\t// in\ntag_37:\n    /* \"contracts/GetSchiffyGold.sol\":25504:25511  _tTotal */\n  sload(0x0a)\n    /* \"contracts/GetSchiffyGold.sol\":25469:25512  Transfer(address(0), _msgSender(), _tTotal) */\n  mload(0x40)\n    /* \"#utility.yul\":2127:2152   */\n  swap1\n  dup2\n  mstore\n    /* \"contracts/GetSchiffyGold.sol\":7273:7283  msg.sender */\n  caller\n  swap1\n    /* \"contracts/GetSchiffyGold.sol\":25486:25487  0 */\n  0x00\n  swap1\n    /* \"contracts/GetSchiffyGold.sol\":25469:25512  Transfer(address(0), _msgSender(), _tTotal) */\n  0xddf252ad1be2c89b69c2b068fc378daa952ba7f163c4a11628f55a4df523b3ef\n  swap1\n    /* \"#utility.yul\":2115:2117   */\n  0x20\n    /* \"#utility.yul\":2100:2118   */\n  add\n    /* \"contracts/GetSchiffyGold.sol\":25469:25512  Transfer(address(0), _msgSender(), _tTotal) */\n  mload(0x40)\n  dup1\n  swap2\n  sub\n  swap1\n  log3\n    /* \"contracts/GetSchiffyGold.sol\":24930:25519  {... */\n  pop\n    /* \"contracts/GetSchiffyGold.sol\":24857:25519  constructor(address payable playToEarnWallet_, address dexRouter_)  ... */\n  pop\n  pop\n    /* \"contracts/GetSchiffyGold.sol\":23710:38770  contract GetSchiffyGold is Context, IGOLD, Ownable {... */\n  jump(tag_77)\n    /* \"contracts/GetSchiffyGold.sol\":4124:4583  function mul(uint256 a, uint256 b) internal pure returns (uint256) {... */\ntag_19:\n    /* \"contracts/GetSchiffyGold.sol\":4182:4189  uint256 */\n  0x00\n    /* \"contracts/GetSchiffyGold.sol\":4423:4429  a == 0 */\n  dup3\n    /* \"contracts/GetSchiffyGold.sol\":4419:4464  if (a == 0) {... */\n  tag_45\n  jumpi\n  pop\n    /* \"contracts/GetSchiffyGold.sol\":4452:4453  0 */\n  0x00\n    /* \"contracts/GetSchiffyGold.sol\":4445:4453  return 0 */\n  jump(tag_44)\n    /* \"contracts/GetSchiffyGold.sol\":4419:4464  if (a == 0) {... */\ntag_45:\n    /* \"contracts/GetSchiffyGold.sol\":4474:4483  uint256 c */\n  0x00\n    /* \"contracts/GetSchiffyGold.sol\":4486:4491  a * b */\n  tag_46\n    /* \"contracts/GetSchiffyGold.sol\":4490:4491  b */\n  dup4\n    /* \"contracts/GetSchiffyGold.sol\":4486:4487  a */\n  dup6\n    /* \"contracts/GetSchiffyGold.sol\":4486:4491  a * b */\n  tag_47\n  jump\t// in\ntag_46:\n    /* \"contracts/GetSchiffyGold.sol\":4474:4491  uint256 c = a * b */\n  swap1\n  pop\n    /* \"contracts/GetSchiffyGold.sol\":4518:4519  b */\n  dup3\n    /* \"contracts/GetSchiffyGold.sol\":4509:4514  c / a */\n  tag_48\n    /* \"contracts/GetSchiffyGold.sol\":4513:4514  a */\n  dup6\n    /* \"contracts/GetSchiffyGold.sol\":4474:4491  uint256 c = a * b */\n  dup4\n    /* \"contracts/GetSchiffyGold.sol\":4509:4514  c / a */\n  tag_49\n  jump\t// in\ntag_48:\n    /* \"contracts/GetSchiffyGold.sol\":4509:4519  c / a == b */\n  eq\n    /* \"contracts/GetSchiffyGold.sol\":4501:4557  require(c / a == b, \"SafeMath: multiplication overflow\") */\n  tag_50\n  jumpi\n  mload(0x40)\n  shl(0xe5, 0x461bcd)\n  dup2\n  mstore\n    /* \"#utility.yul\":1781:1783   */\n  0x20\n    /* \"contracts/GetSchiffyGold.sol\":4501:4557  require(c / a == b, \"SafeMath: multiplication overflow\") */\n  0x04\n  dup3\n  add\n    /* \"#utility.yul\":1763:1784   */\n  mstore\n    /* \"#utility.yul\":1820:1822   */\n  0x21\n    /* \"#utility.yul\":1800:1818   */\n  0x24\n  dup3\n  add\n    /* \"#utility.yul\":1793:1823   */\n  mstore\n    /* \"#utility.yul\":1859:1893   */\n  0x536166654d6174683a206d756c7469706c69636174696f6e206f766572666c6f\n    /* \"#utility.yul\":1839:1857   */\n  0x44\n  dup3\n  add\n    /* \"#utility.yul\":1832:1894   */\n  mstore\n  shl(0xf8, 0x77)\n    /* \"#utility.yul\":1910:1928   */\n  0x64\n  dup3\n  add\n    /* \"#utility.yul\":1903:1934   */\n  mstore\n    /* \"#utility.yul\":1951:1970   */\n  0x84\n  add\n    /* \"contracts/GetSchiffyGold.sol\":4501:4557  require(c / a == b, \"SafeMath: multiplication overflow\") */\ntag_51:\n  mload(0x40)\n  dup1\n  swap2\n  sub\n  swap1\n  revert\ntag_50:\n    /* \"contracts/GetSchiffyGold.sol\":4575:4576  c */\n  swap1\n  pop\n    /* \"contracts/GetSchiffyGold.sol\":4124:4583  function mul(uint256 a, uint256 b) internal pure returns (uint256) {... */\ntag_44:\n  swap3\n  swap2\n  pop\n  pop\n  jump\t// out\n    /* \"contracts/GetSchiffyGold.sol\":5045:5175  function div(uint256 a, uint256 b) internal pure returns (uint256) {... */\ntag_20:\n    /* \"contracts/GetSchiffyGold.sol\":5103:5110  uint256 */\n  0x00\n    /* \"contracts/GetSchiffyGold.sol\":5129:5168  div(a, b, \"SafeMath: division by zero\") */\n  tag_50\n    /* \"contracts/GetSchiffyGold.sol\":5133:5134  a */\n  dup4\n    /* \"contracts/GetSchiffyGold.sol\":5136:5137  b */\n  dup4\n    /* \"contracts/GetSchiffyGold.sol\":5129:5168  div(a, b, \"SafeMath: division by zero\") */\n  mload(0x40)\n  dup1\n  0x40\n  add\n  0x40\n  mstore\n  dup1\n  0x1a\n  dup2\n  mstore\n  0x20\n  add\n  0x536166654d6174683a206469766973696f6e206279207a65726f000000000000\n  dup2\n  mstore\n  pop\n    /* \"contracts/GetSchiffyGold.sol\":5129:5132  div */\n  shl(0x20, tag_55)\n    /* \"contracts/GetSchiffyGold.sol\":5129:5168  div(a, b, \"SafeMath: division by zero\") */\n  0x20\n  shr\n  jump\t// in\n    /* \"contracts/GetSchiffyGold.sol\":25525:25874  function setExcludes() private {... */\ntag_38:\n    /* \"contracts/GetSchiffyGold.sol\":25596:25600  true */\n  0x01\n    /* \"contracts/GetSchiffyGold.sol\":25566:25584  _isExcludedFromFee */\n  0x06\n    /* \"contracts/GetSchiffyGold.sol\":25566:25593  _isExcludedFromFee[owner()] */\n  0x00\n    /* \"contracts/GetSchiffyGold.sol\":25585:25592  owner() */\n  tag_57\n    /* \"contracts/GetSchiffyGold.sol\":14065:14072  address */\n  0x00\n    /* \"contracts/GetSchiffyGold.sol\":14091:14097  _owner */\n  sload\n  sub(shl(0xa0, 0x01), 0x01)\n  and\n  swap1\n    /* \"contracts/GetSchiffyGold.sol\":14027:14104  function owner() public view returns (address) {... */\n  jump\n    /* \"contracts/GetSchiffyGold.sol\":25585:25592  owner() */\ntag_57:\n  sub(shl(0xa0, 0x01), 0x01)\n    /* \"contracts/GetSchiffyGold.sol\":25566:25593  _isExcludedFromFee[owner()] */\n  swap1\n  dup2\n  and\n  dup3\n  mstore\n  0x20\n  dup1\n  dup4\n  add\n  swap4\n  swap1\n  swap4\n  mstore\n  0x40\n  swap2\n  dup3\n  add\n  0x00\n  swap1\n  dup2\n  keccak256\n    /* \"contracts/GetSchiffyGold.sol\":25566:25600  _isExcludedFromFee[owner()] = true */\n  dup1\n  sload\n  swap6\n  iszero\n  iszero\n  not(0xff)\n  swap7\n  dup8\n  and\n  or\n  swap1\n  sstore\n    /* \"contracts/GetSchiffyGold.sol\":25637:25641  this */\n  address\n    /* \"contracts/GetSchiffyGold.sol\":25610:25643  _isExcludedFromFee[address(this)] */\n  dup2\n  mstore\n    /* \"contracts/GetSchiffyGold.sol\":25610:25628  _isExcludedFromFee */\n  0x06\n    /* \"contracts/GetSchiffyGold.sol\":25610:25643  _isExcludedFromFee[address(this)] */\n  swap1\n  swap4\n  mstore\n  dup2\n  dup4\n  keccak256\n    /* \"contracts/GetSchiffyGold.sol\":25610:25650  _isExcludedFromFee[address(this)] = true */\n  dup1\n  sload\n  dup6\n  and\n    /* \"contracts/GetSchiffyGold.sol\":25566:25600  _isExcludedFromFee[owner()] = true */\n  0x01\n    /* \"contracts/GetSchiffyGold.sol\":25610:25650  _isExcludedFromFee[address(this)] = true */\n  swap1\n  dup2\n  or\n  swap1\n  swap2\n  sstore\n    /* \"contracts/GetSchiffyGold.sol\":25679:25696  _playToEarnWallet */\n  sload(0x12)\n  swap1\n  swap2\n  and\n    /* \"contracts/GetSchiffyGold.sol\":25660:25697  _isExcludedFromFee[_playToEarnWallet] */\n  dup4\n  mstore\n  swap1\n  dup3\n  keccak256\n    /* \"contracts/GetSchiffyGold.sol\":25660:25704  _isExcludedFromFee[_playToEarnWallet] = true */\n  dup1\n  sload\n  swap1\n  swap4\n  and\n  dup2\n  or\n  swap1\n  swap3\n  sstore\n    /* \"contracts/GetSchiffyGold.sol\":25723:25743  _isExcludedFromMaxTx */\n  0x08\n  swap1\n    /* \"contracts/GetSchiffyGold.sol\":25744:25751  owner() */\n  tag_59\n    /* \"contracts/GetSchiffyGold.sol\":14065:14072  address */\n  0x00\n    /* \"contracts/GetSchiffyGold.sol\":14091:14097  _owner */\n  sload\n  sub(shl(0xa0, 0x01), 0x01)\n  and\n  swap1\n    /* \"contracts/GetSchiffyGold.sol\":14027:14104  function owner() public view returns (address) {... */\n  jump\n    /* \"contracts/GetSchiffyGold.sol\":25744:25751  owner() */\ntag_59:\n  sub(shl(0xa0, 0x01), 0x01)\n    /* \"contracts/GetSchiffyGold.sol\":25723:25752  _isExcludedFromMaxTx[owner()] */\n  swap1\n  dup2\n  and\n  dup3\n  mstore\n  0x20\n  dup1\n  dup4\n  add\n  swap4\n  swap1\n  swap4\n  mstore\n  0x40\n  swap2\n  dup3\n  add\n  0x00\n  swap1\n  dup2\n  keccak256\n    /* \"contracts/GetSchiffyGold.sol\":25723:25759  _isExcludedFromMaxTx[owner()] = true */\n  dup1\n  sload\n  swap6\n  iszero\n  iszero\n  not(0xff)\n  swap7\n  dup8\n  and\n  or\n  swap1\n  sstore\n    /* \"contracts/GetSchiffyGold.sol\":25798:25802  this */\n  address\n    /* \"contracts/GetSchiffyGold.sol\":25769:25804  _isExcludedFromMaxTx[address(this)] */\n  dup2\n  mstore\n    /* \"contracts/GetSchiffyGold.sol\":25769:25789  _isExcludedFromMaxTx */\n  0x08\n    /* \"contracts/GetSchiffyGold.sol\":25769:25804  _isExcludedFromMaxTx[address(this)] */\n  swap1\n  swap4\n  mstore\n  dup2\n  dup4\n  keccak256\n    /* \"contracts/GetSchiffyGold.sol\":25769:25811  _isExcludedFromMaxTx[address(this)] = true */\n  dup1\n  sload\n  dup6\n  and\n    /* \"contracts/GetSchiffyGold.sol\":25723:25759  _isExcludedFromMaxTx[owner()] = true */\n  0x01\n    /* \"contracts/GetSchiffyGold.sol\":25769:25811  _isExcludedFromMaxTx[address(this)] = true */\n  swap1\n  dup2\n  or\n  swap1\n  swap2\n  sstore\n    /* \"contracts/GetSchiffyGold.sol\":25842:25859  _playToEarnWallet */\n  sload(0x12)\n  swap1\n  swap2\n  and\n    /* \"contracts/GetSchiffyGold.sol\":25821:25860  _isExcludedFromMaxTx[_playToEarnWallet] */\n  dup4\n  mstore\n  swap2\n  keccak256\n    /* \"contracts/GetSchiffyGold.sol\":25821:25867  _isExcludedFromMaxTx[_playToEarnWallet] = true */\n  dup1\n  sload\n  swap1\n  swap3\n  and\n  or\n  swap1\n  sstore\n    /* \"contracts/GetSchiffyGold.sol\":25525:25874  function setExcludes() private {... */\n  jump\t// out\n    /* \"contracts/GetSchiffyGold.sol\":5657:5929  function div(uint256 a, uint256 b, string memory errorMessage) internal pure returns (uint256) {... */\ntag_55:\n    /* \"contracts/GetSchiffyGold.sol\":5743:5750  uint256 */\n  0x00\n    /* \"contracts/GetSchiffyGold.sol\":5777:5789  errorMessage */\n  dup2\n    /* \"contracts/GetSchiffyGold.sol\":5770:5775  b > 0 */\n  dup4\n    /* \"contracts/GetSchiffyGold.sol\":5762:5790  require(b > 0, errorMessage) */\n  tag_61\n  jumpi\n  mload(0x40)\n  shl(0xe5, 0x461bcd)\n  dup2\n  mstore\n  0x04\n  add\n  tag_51\n  swap2\n  swap1\n  tag_63\n  jump\t// in\ntag_61:\n  pop\n    /* \"contracts/GetSchiffyGold.sol\":5800:5809  uint256 c */\n  0x00\n    /* \"contracts/GetSchiffyGold.sol\":5812:5817  a / b */\n  tag_64\n    /* \"contracts/GetSchiffyGold.sol\":5816:5817  b */\n  dup5\n    /* \"contracts/GetSchiffyGold.sol\":5812:5813  a */\n  dup7\n    /* \"contracts/GetSchiffyGold.sol\":5812:5817  a / b */\n  tag_49\n  jump\t// in\ntag_64:\n    /* \"contracts/GetSchiffyGold.sol\":5800:5817  uint256 c = a / b */\n  swap6\n    /* \"contracts/GetSchiffyGold.sol\":5657:5929  function div(uint256 a, uint256 b, string memory errorMessage) internal pure returns (uint256) {... */\n  swap5\n  pop\n  pop\n  pop\n  pop\n  pop\n  jump\t// out\n    /* \"contracts/GetSchiffyGold.sol\":23710:38770  contract GetSchiffyGold is Context, IGOLD, Ownable {... */\ntag_15:\n  dup3\n  dup1\n  sload\n  tag_66\n  swap1\n  tag_67\n  jump\t// in\ntag_66:\n  swap1\n  0x00\n  mstore\n  keccak256(0x00, 0x20)\n  swap1\n  0x1f\n  add\n  0x20\n  swap1\n  div\n  dup2\n  add\n  swap3\n  dup3\n  tag_69\n  jumpi\n  0x00\n  dup6\n  sstore\n  jump(tag_72)\ntag_69:\n  dup3\n  0x1f\n  lt\n  tag_70\n  jumpi\n  dup1\n  mload\n  not(0xff)\n  and\n  dup4\n  dup1\n  add\n  or\n  dup6\n  sstore\n  jump(tag_72)\ntag_70:\n  dup3\n  dup1\n  add\n  0x01\n  add\n  dup6\n  sstore\n  dup3\n  iszero\n  tag_72\n  jumpi\n  swap2\n  dup3\n  add\ntag_71:\n  dup3\n  dup2\n  gt\n  iszero\n  tag_72\n  jumpi\n  dup3\n  mload\n  dup3\n  sstore\n  swap2\n  0x20\n  add\n  swap2\n  swap1\n  0x01\n  add\n  swap1\n  jump(tag_71)\ntag_72:\n  pop\n  tag_73\n  swap3\n  swap2\n  pop\n  tag_74\n  jump\t// in\ntag_73:\n  pop\n  swap1\n  jump\t// out\ntag_74:\ntag_75:\n  dup1\n  dup3\n  gt\n  iszero\n  tag_73\n  jumpi\n  0x00\n  dup2\n  sstore\n  0x01\n  add\n  jump(tag_75)\n    /* \"#utility.yul\":14:265   */\ntag_26:\n    /* \"#utility.yul\":84:90   */\n  0x00\n    /* \"#utility.yul\":137:139   */\n  0x20\n    /* \"#utility.yul\":125:134   */\n  dup3\n    /* \"#utility.yul\":116:123   */\n  dup5\n    /* \"#utility.yul\":112:135   */\n  sub\n    /* \"#utility.yul\":108:140   */\n  slt\n    /* \"#utility.yul\":105:157   */\n  iszero\n  tag_79\n  jumpi\n    /* \"#utility.yul\":153:154   */\n  0x00\n    /* \"#utility.yul\":150:151   */\n  dup1\n    /* \"#utility.yul\":143:155   */\n  revert\n    /* \"#utility.yul\":105:157   */\ntag_79:\n    /* \"#utility.yul\":185:194   */\n  dup2\n    /* \"#utility.yul\":179:195   */\n  mload\n    /* \"#utility.yul\":204:235   */\n  tag_50\n    /* \"#utility.yul\":229:234   */\n  dup2\n    /* \"#utility.yul\":204:235   */\n  tag_81\n  jump\t// in\n    /* \"#utility.yul\":270:663   */\ntag_7:\n    /* \"#utility.yul\":357:363   */\n  0x00\n    /* \"#utility.yul\":365:371   */\n  dup1\n    /* \"#utility.yul\":418:420   */\n  0x40\n    /* \"#utility.yul\":406:415   */\n  dup4\n    /* \"#utility.yul\":397:404   */\n  dup6\n    /* \"#utility.yul\":393:416   */\n  sub\n    /* \"#utility.yul\":389:421   */\n  slt\n    /* \"#utility.yul\":386:438   */\n  iszero\n  tag_83\n  jumpi\n    /* \"#utility.yul\":434:435   */\n  0x00\n    /* \"#utility.yul\":431:432   */\n  dup1\n    /* \"#utility.yul\":424:436   */\n  revert\n    /* \"#utility.yul\":386:438   */\ntag_83:\n    /* \"#utility.yul\":466:475   */\n  dup3\n    /* \"#utility.yul\":460:476   */\n  mload\n    /* \"#utility.yul\":485:516   */\n  tag_84\n    /* \"#utility.yul\":510:515   */\n  dup2\n    /* \"#utility.yul\":485:516   */\n  tag_81\n  jump\t// in\ntag_84:\n    /* \"#utility.yul\":585:587   */\n  0x20\n    /* \"#utility.yul\":570:588   */\n  dup5\n  add\n    /* \"#utility.yul\":564:589   */\n  mload\n    /* \"#utility.yul\":535:540   */\n  swap1\n  swap3\n  pop\n    /* \"#utility.yul\":598:631   */\n  tag_85\n    /* \"#utility.yul\":564:589   */\n  dup2\n    /* \"#utility.yul\":598:631   */\n  tag_81\n  jump\t// in\ntag_85:\n    /* \"#utility.yul\":650:657   */\n  dup1\n    /* \"#utility.yul\":640:657   */\n  swap2\n  pop\n  pop\n    /* \"#utility.yul\":270:663   */\n  swap3\n  pop\n  swap3\n  swap1\n  pop\n  jump\t// out\n    /* \"#utility.yul\":977:1574   */\ntag_63:\n    /* \"#utility.yul\":1089:1093   */\n  0x00\n    /* \"#utility.yul\":1118:1120   */\n  0x20\n    /* \"#utility.yul\":1147:1149   */\n  dup1\n    /* \"#utility.yul\":1136:1145   */\n  dup4\n    /* \"#utility.yul\":1129:1150   */\n  mstore\n    /* \"#utility.yul\":1179:1185   */\n  dup4\n    /* \"#utility.yul\":1173:1186   */\n  mload\n    /* \"#utility.yul\":1222:1228   */\n  dup1\n    /* \"#utility.yul\":1217:1219   */\n  dup3\n    /* \"#utility.yul\":1206:1215   */\n  dup6\n    /* \"#utility.yul\":1202:1220   */\n  add\n    /* \"#utility.yul\":1195:1229   */\n  mstore\n    /* \"#utility.yul\":1247:1248   */\n  0x00\n    /* \"#utility.yul\":1257:1397   */\ntag_88:\n    /* \"#utility.yul\":1271:1277   */\n  dup2\n    /* \"#utility.yul\":1268:1269   */\n  dup2\n    /* \"#utility.yul\":1265:1278   */\n  lt\n    /* \"#utility.yul\":1257:1397   */\n  iszero\n  tag_90\n  jumpi\n    /* \"#utility.yul\":1366:1380   */\n  dup6\n  dup2\n  add\n    /* \"#utility.yul\":1362:1385   */\n  dup4\n  add\n    /* \"#utility.yul\":1356:1386   */\n  mload\n    /* \"#utility.yul\":1332:1349   */\n  dup6\n  dup3\n  add\n    /* \"#utility.yul\":1351:1353   */\n  0x40\n    /* \"#utility.yul\":1328:1354   */\n  add\n    /* \"#utility.yul\":1321:1387   */\n  mstore\n    /* \"#utility.yul\":1286:1296   */\n  dup3\n  add\n    /* \"#utility.yul\":1257:1397   */\n  jump(tag_88)\ntag_90:\n    /* \"#utility.yul\":1415:1421   */\n  dup2\n    /* \"#utility.yul\":1412:1413   */\n  dup2\n    /* \"#utility.yul\":1409:1422   */\n  gt\n    /* \"#utility.yul\":1406:1497   */\n  iszero\n  tag_91\n  jumpi\n    /* \"#utility.yul\":1485:1486   */\n  0x00\n    /* \"#utility.yul\":1480:1482   */\n  0x40\n    /* \"#utility.yul\":1471:1477   */\n  dup4\n    /* \"#utility.yul\":1460:1469   */\n  dup8\n    /* \"#utility.yul\":1456:1478   */\n  add\n    /* \"#utility.yul\":1452:1483   */\n  add\n    /* \"#utility.yul\":1445:1487   */\n  mstore\n    /* \"#utility.yul\":1406:1497   */\ntag_91:\n  pop\n    /* \"#utility.yul\":1558:1560   */\n  0x1f\n    /* \"#utility.yul\":1537:1552   */\n  add\n  not(0x1f)\n    /* \"#utility.yul\":1533:1562   */\n  and\n    /* \"#utility.yul\":1518:1563   */\n  swap3\n  swap1\n  swap3\n  add\n    /* \"#utility.yul\":1565:1567   */\n  0x40\n    /* \"#utility.yul\":1514:1568   */\n  add\n  swap4\n    /* \"#utility.yul\":977:1574   */\n  swap3\n  pop\n  pop\n  pop\n  jump\t// out\n    /* \"#utility.yul\":2163:2283   */\ntag_49:\n    /* \"#utility.yul\":2203:2204   */\n  0x00\n    /* \"#utility.yul\":2229:2230   */\n  dup3\n    /* \"#utility.yul\":2219:2254   */\n  tag_96\n  jumpi\n    /* \"#utility.yul\":2234:2252   */\n  tag_96\n  tag_97\n  jump\t// in\ntag_96:\n  pop\n    /* \"#utility.yul\":2268:2277   */\n  div\n  swap1\n    /* \"#utility.yul\":2163:2283   */\n  jump\t// out\n    /* \"#utility.yul\":2288:2456   */\ntag_47:\n    /* \"#utility.yul\":2328:2335   */\n  0x00\n    /* \"#utility.yul\":2394:2395   */\n  dup2\n    /* \"#utility.yul\":2390:2391   */\n  0x00\n    /* \"#utility.yul\":2386:2392   */\n  not\n    /* \"#utility.yul\":2382:2396   */\n  div\n    /* \"#utility.yul\":2379:2380   */\n  dup4\n    /* \"#utility.yul\":2376:2397   */\n  gt\n    /* \"#utility.yul\":2371:2372   */\n  dup3\n    /* \"#utility.yul\":2364:2373   */\n  iszero\n    /* \"#utility.yul\":2357:2374   */\n  iszero\n    /* \"#utility.yul\":2353:2398   */\n  and\n    /* \"#utility.yul\":2350:2421   */\n  iszero\n  tag_100\n  jumpi\n    /* \"#utility.yul\":2401:2419   */\n  tag_100\n  tag_101\n  jump\t// in\ntag_100:\n  pop\n    /* \"#utility.yul\":2441:2450   */\n  mul\n  swap1\n    /* \"#utility.yul\":2288:2456   */\n  jump\t// out\n    /* \"#utility.yul\":2461:2586   */\ntag_4:\n    /* \"#utility.yul\":2501:2505   */\n  0x00\n    /* \"#utility.yul\":2529:2530   */\n  dup3\n    /* \"#utility.yul\":2526:2527   */\n  dup3\n    /* \"#utility.yul\":2523:2531   */\n  lt\n    /* \"#utility.yul\":2520:2554   */\n  iszero\n  tag_104\n  jumpi\n    /* \"#utility.yul\":2534:2552   */\n  tag_104\n  tag_101\n  jump\t// in\ntag_104:\n  pop\n    /* \"#utility.yul\":2571:2580   */\n  sub\n  swap1\n    /* \"#utility.yul\":2461:2586   */\n  jump\t// out\n    /* \"#utility.yul\":2591:2971   */\ntag_67:\n    /* \"#utility.yul\":2670:2671   */\n  0x01\n    /* \"#utility.yul\":2666:2678   */\n  dup2\n  dup2\n  shr\n  swap1\n    /* \"#utility.yul\":2713:2725   */\n  dup3\n  and\n  dup1\n    /* \"#utility.yul\":2734:2795   */\n  tag_106\n  jumpi\n    /* \"#utility.yul\":2788:2792   */\n  0x7f\n    /* \"#utility.yul\":2780:2786   */\n  dup3\n    /* \"#utility.yul\":2776:2793   */\n  and\n    /* \"#utility.yul\":2766:2793   */\n  swap2\n  pop\n    /* \"#utility.yul\":2734:2795   */\ntag_106:\n    /* \"#utility.yul\":2841:2843   */\n  0x20\n    /* \"#utility.yul\":2833:2839   */\n  dup3\n    /* \"#utility.yul\":2830:2844   */\n  lt\n    /* \"#utility.yul\":2810:2828   */\n  dup2\n    /* \"#utility.yul\":2807:2845   */\n  eq\n    /* \"#utility.yul\":2804:2965   */\n  iszero\n  tag_107\n  jumpi\n    /* \"#utility.yul\":2887:2897   */\n  0x4e487b71\n    /* \"#utility.yul\":2882:2885   */\n  0xe0\n    /* \"#utility.yul\":2878:2898   */\n  shl\n    /* \"#utility.yul\":2875:2876   */\n  0x00\n    /* \"#utility.yul\":2868:2899   */\n  mstore\n    /* \"#utility.yul\":2922:2926   */\n  0x22\n    /* \"#utility.yul\":2919:2920   */\n  0x04\n    /* \"#utility.yul\":2912:2927   */\n  mstore\n    /* \"#utility.yul\":2950:2954   */\n  0x24\n    /* \"#utility.yul\":2947:2948   */\n  0x00\n    /* \"#utility.yul\":2940:2955   */\n  revert\n    /* \"#utility.yul\":2804:2965   */\ntag_107:\n  pop\n    /* \"#utility.yul\":2591:2971   */\n  swap2\n  swap1\n  pop\n  jump\t// out\n    /* \"#utility.yul\":2976:3088   */\ntag_2:\n    /* \"#utility.yul\":3008:3009   */\n  0x00\n    /* \"#utility.yul\":3034:3035   */\n  dup3\n    /* \"#utility.yul\":3024:3059   */\n  tag_110\n  jumpi\n    /* \"#utility.yul\":3039:3057   */\n  tag_110\n  tag_97\n  jump\t// in\ntag_110:\n  pop\n    /* \"#utility.yul\":3073:3082   */\n  mod\n  swap1\n    /* \"#utility.yul\":2976:3088   */\n  jump\t// out\n    /* \"#utility.yul\":3093:3220   */\ntag_101:\n    /* \"#utility.yul\":3154:3164   */\n  0x4e487b71\n    /* \"#utility.yul\":3149:3152   */\n  0xe0\n    /* \"#utility.yul\":3145:3165   */\n  shl\n    /* \"#utility.yul\":3142:3143   */\n  0x00\n    /* \"#utility.yul\":3135:3166   */\n  mstore\n    /* \"#utility.yul\":3185:3189   */\n  0x11\n    /* \"#utility.yul\":3182:3183   */\n  0x04\n    /* \"#utility.yul\":3175:3190   */\n  mstore\n    /* \"#utility.yul\":3209:3213   */\n  0x24\n    /* \"#utility.yul\":3206:3207   */\n  0x00\n    /* \"#utility.yul\":3199:3214   */\n  revert\n    /* \"#utility.yul\":3225:3352   */\ntag_97:\n    /* \"#utility.yul\":3286:3296   */\n  0x4e487b71\n    /* \"#utility.yul\":3281:3284   */\n  0xe0\n    /* \"#utility.yul\":3277:3297   */\n  shl\n    /* \"#utility.yul\":3274:3275   */\n  0x00\n    /* \"#utility.yul\":3267:3298   */\n  mstore\n    /* \"#utility.yul\":3317:3321   */\n  0x12\n    /* \"#utility.yul\":3314:3315   */\n  0x04\n    /* \"#utility.yul\":3307:3322   */\n  mstore\n    /* \"#utility.yul\":3341:3345   */\n  0x24\n    /* \"#utility.yul\":3338:3339   */\n  0x00\n    /* \"#utility.yul\":3331:3346   */\n  revert\n    /* \"#utility.yul\":3357:3488   */\ntag_81:\n  sub(shl(0xa0, 0x01), 0x01)\n    /* \"#utility.yul\":3432:3463   */\n  dup2\n  and\n    /* \"#utility.yul\":3422:3464   */\n  dup2\n  eq\n    /* \"#utility.yul\":3412:3482   */\n  tag_114\n  jumpi\n    /* \"#utility.yul\":3478:3479   */\n  0x00\n    /* \"#utility.yul\":3475:3476   */\n  dup1\n    /* \"#utility.yul\":3468:3480   */\n  revert\n    /* \"#utility.yul\":3412:3482   */\ntag_114:\n    /* \"#utility.yul\":3357:3488   */\n  pop\n  jump\t// out\ntag_77:\n    /* \"contracts/GetSchiffyGold.sol\":23710:38770  contract GetSchiffyGold is Context, IGOLD, Ownable {... */\n  shr(0x60, mload(0x80))\n  shr(0x60, mload(0xa0))\n  codecopy(0x00, dataOffset(sub_0), dataSize(sub_0))\n  0x00\n  assignImmutable(\"0x41d84f72f4e08fb5048ebe35bd8cee055087ddda32ae477600d3a68d7d5aa9b4\")\n  0x00\n  assignImmutable(\"0xf3aeaf068a1aefba458b860157c44b7473cc66a981c4afb53e18cbdad279e400\")\n  return(0x00, dataSize(sub_0))\nstop\n\nsub_0: assembly {\n        /* \"contracts/GetSchiffyGold.sol\":23710:38770  contract GetSchiffyGold is Context, IGOLD, Ownable {... */\n      mstore(0x40, 0x80)\n      jumpi(tag_1, lt(calldatasize, 0x04))\n      shr(0xe0, calldataload(0x00))\n      dup1\n      0x5342acb4\n      gt\n      tag_41\n      jumpi\n      dup1\n      0xa69df4b5\n      gt\n      tag_42\n      jumpi\n      dup1\n      0xdb4cf1e0\n      gt\n      tag_43\n      jumpi\n      dup1\n      0xdb4cf1e0\n      eq\n      tag_36\n      jumpi\n      dup1\n      0xdd467064\n      eq\n      tag_37\n      jumpi\n      dup1\n      0xdd62ed3e\n      eq\n      tag_38\n      jumpi\n      dup1\n      0xea2f0b37\n      eq\n      tag_39\n      jumpi\n      dup1\n      0xf2fde38b\n      eq\n      tag_40\n      jumpi\n      0x00\n      dup1\n      revert\n    tag_43:\n      dup1\n      0xa69df4b5\n      eq\n      tag_31\n      jumpi\n      dup1\n      0xa9059cbb\n      eq\n      tag_32\n      jumpi\n      dup1\n      0xb5208d7d\n      eq\n      tag_33\n      jumpi\n      dup1\n      0xb6c52324\n      eq\n      tag_34\n      jumpi\n      dup1\n      0xd543dbeb\n      eq\n      tag_35\n      jumpi\n      0x00\n      dup1\n      revert\n    tag_42:\n      dup1\n      0x7d1db4a5\n      gt\n      tag_44\n      jumpi\n      dup1\n      0x7d1db4a5\n      eq\n      tag_26\n      jumpi\n      dup1\n      0x88f82020\n      eq\n      tag_27\n      jumpi\n      dup1\n      0x8da5cb5b\n      eq\n      tag_28\n      jumpi\n      dup1\n      0x95d89b41\n      eq\n      tag_29\n      jumpi\n      dup1\n      0xa457c2d7\n      eq\n      tag_30\n      jumpi\n      0x00\n      dup1\n      revert\n    tag_44:\n      dup1\n      0x5342acb4\n      eq\n      tag_22\n      jumpi\n      dup1\n      0x53b5693a\n      eq\n      tag_23\n      jumpi\n      dup1\n      0x70a08231\n      eq\n      tag_24\n      jumpi\n      dup1\n      0x715018a6\n      eq\n      tag_25\n      jumpi\n      0x00\n      dup1\n      revert\n    tag_41:\n      dup1\n      0x23b872dd\n      gt\n      tag_45\n      jumpi\n      dup1\n      0x3bd5d173\n      gt\n      tag_46\n      jumpi\n      dup1\n      0x3bd5d173\n      eq\n      tag_17\n      jumpi\n      dup1\n      0x437823ec\n      eq\n      tag_18\n      jumpi\n      dup1\n      0x4549b039\n      eq\n      tag_19\n      jumpi\n      dup1\n      0x49bd5a5e\n      eq\n      tag_20\n      jumpi\n      dup1\n      0x52390c02\n      eq\n      tag_21\n      jumpi\n      0x00\n      dup1\n      revert\n    tag_46:\n      dup1\n      0x23b872dd\n      eq\n      tag_12\n      jumpi\n      dup1\n      0x2d838119\n      eq\n      tag_13\n      jumpi\n      dup1\n      0x313ce567\n      eq\n      tag_14\n      jumpi\n      dup1\n      0x3685d419\n      eq\n      tag_15\n      jumpi\n      dup1\n      0x39509351\n      eq\n      tag_16\n      jumpi\n      0x00\n      dup1\n      revert\n    tag_45:\n      dup1\n      0x1694505e\n      gt\n      tag_47\n      jumpi\n      dup1\n      0x1694505e\n      eq\n      tag_7\n      jumpi\n      dup1\n      0x18160ddd\n      eq\n      tag_8\n      jumpi\n      dup1\n      0x18621fe5\n      eq\n      tag_9\n      jumpi\n      dup1\n      0x1f2c5443\n      eq\n      tag_10\n      jumpi\n      dup1\n      0x21ecff5b\n      eq\n      tag_11\n      jumpi\n      0x00\n      dup1\n      revert\n    tag_47:\n      dup1\n      0x061c82d0\n      eq\n      tag_3\n      jumpi\n      dup1\n      0x06fdde03\n      eq\n      tag_4\n      jumpi\n      dup1\n      0x095ea7b3\n      eq\n      tag_5\n      jumpi\n      dup1\n      0x13114a9d\n      eq\n      tag_6\n      jumpi\n      0x00\n      dup1\n      revert\n    tag_1:\n      jumpi(tag_2, calldatasize)\n      stop\n    tag_2:\n      0x00\n      dup1\n      revert\n        /* \"contracts/GetSchiffyGold.sol\":30704:30800  function setTaxFeePercent(uint256 taxFee) external onlyOwner() {... */\n    tag_3:\n      callvalue\n      dup1\n      iszero\n      tag_50\n      jumpi\n      0x00\n      dup1\n      revert\n    tag_50:\n      pop\n      tag_51\n      tag_52\n      calldatasize\n      0x04\n      tag_53\n      jump\t// in\n    tag_52:\n      tag_54\n      jump\t// in\n    tag_51:\n      stop\n        /* \"contracts/GetSchiffyGold.sol\":25880:25961  function name() public view returns (string memory) {... */\n    tag_4:\n      callvalue\n      dup1\n      iszero\n      tag_55\n      jumpi\n      0x00\n      dup1\n      revert\n    tag_55:\n      pop\n      tag_56\n      tag_57\n      jump\t// in\n    tag_56:\n      mload(0x40)\n      tag_58\n      swap2\n      swap1\n      tag_59\n      jump\t// in\n    tag_58:\n      mload(0x40)\n      dup1\n      swap2\n      sub\n      swap1\n      return\n        /* \"contracts/GetSchiffyGold.sol\":26762:26920  function approve(address spender, uint256 amount) public override returns (bool) {... */\n    tag_5:\n      callvalue\n      dup1\n      iszero\n      tag_60\n      jumpi\n      0x00\n      dup1\n      revert\n    tag_60:\n      pop\n      tag_61\n      tag_62\n      calldatasize\n      0x04\n      tag_63\n      jump\t// in\n    tag_62:\n      tag_64\n      jump\t// in\n    tag_61:\n      mload(0x40)\n        /* \"#utility.yul\":2397:2411   */\n      swap1\n      iszero\n        /* \"#utility.yul\":2390:2412   */\n      iszero\n        /* \"#utility.yul\":2372:2413   */\n      dup2\n      mstore\n        /* \"#utility.yul\":2360:2362   */\n      0x20\n        /* \"#utility.yul\":2345:2363   */\n      add\n        /* \"contracts/GetSchiffyGold.sol\":26762:26920  function approve(address spender, uint256 amount) public override returns (bool) {... */\n      tag_58\n        /* \"#utility.yul\":2232:2419   */\n      jump\n        /* \"contracts/GetSchiffyGold.sol\":27856:27941  function totalFees() public view returns (uint256) {... */\n    tag_6:\n      callvalue\n      dup1\n      iszero\n      tag_67\n      jumpi\n      0x00\n      dup1\n      revert\n    tag_67:\n      pop\n        /* \"contracts/GetSchiffyGold.sol\":27924:27934  _tFeeTotal */\n      sload(0x0c)\n        /* \"contracts/GetSchiffyGold.sol\":27856:27941  function totalFees() public view returns (uint256) {... */\n    tag_68:\n      mload(0x40)\n        /* \"#utility.yul\":10025:10050   */\n      swap1\n      dup2\n      mstore\n        /* \"#utility.yul\":10013:10015   */\n      0x20\n        /* \"#utility.yul\":9998:10016   */\n      add\n        /* \"contracts/GetSchiffyGold.sol\":27856:27941  function totalFees() public view returns (uint256) {... */\n      tag_58\n        /* \"#utility.yul\":9879:10056   */\n      jump\n        /* \"contracts/GetSchiffyGold.sol\":24709:24760  IUniswapV2Router02 public immutable uniswapV2Router */\n    tag_7:\n      callvalue\n      dup1\n      iszero\n      tag_72\n      jumpi\n      0x00\n      dup1\n      revert\n    tag_72:\n      pop\n      tag_73\n      immutable(\"0xf3aeaf068a1aefba458b860157c44b7473cc66a981c4afb53e18cbdad279e400\")\n      dup2\n      jump\n    tag_73:\n      mload(0x40)\n      sub(shl(0xa0, 0x01), 0x01)\n        /* \"#utility.yul\":2188:2220   */\n      swap1\n      swap2\n      and\n        /* \"#utility.yul\":2170:2221   */\n      dup2\n      mstore\n        /* \"#utility.yul\":2158:2160   */\n      0x20\n        /* \"#utility.yul\":2143:2161   */\n      add\n        /* \"contracts/GetSchiffyGold.sol\":24709:24760  IUniswapV2Router02 public immutable uniswapV2Router */\n      tag_58\n        /* \"#utility.yul\":2024:2227   */\n      jump\n        /* \"contracts/GetSchiffyGold.sol\":26145:26238  function totalSupply() public view override returns (uint256) {... */\n    tag_8:\n      callvalue\n      dup1\n      iszero\n      tag_77\n      jumpi\n      0x00\n      dup1\n      revert\n    tag_77:\n      pop\n        /* \"contracts/GetSchiffyGold.sol\":26224:26231  _tTotal */\n      sload(0x0a)\n        /* \"contracts/GetSchiffyGold.sol\":26145:26238  function totalSupply() public view override returns (uint256) {... */\n      jump(tag_68)\n        /* \"contracts/GetSchiffyGold.sol\":38545:38657  function includeInMaxTx(address account) public onlyOwner {... */\n    tag_9:\n      callvalue\n      dup1\n      iszero\n      tag_81\n      jumpi\n      0x00\n      dup1\n      revert\n    tag_81:\n      pop\n      tag_51\n      tag_83\n      calldatasize\n      0x04\n      tag_84\n      jump\t// in\n    tag_83:\n      tag_85\n      jump\t// in\n        /* \"contracts/GetSchiffyGold.sol\":38663:38768  function feeDetails() public view returns(uint256, uint256){... */\n    tag_10:\n      callvalue\n      dup1\n      iszero\n      tag_86\n      jumpi\n      0x00\n      dup1\n      revert\n    tag_86:\n      pop\n        /* \"contracts/GetSchiffyGold.sol\":38740:38747  _taxFee */\n      sload(0x13)\n        /* \"contracts/GetSchiffyGold.sol\":38749:38760  _playToEarn */\n      sload(0x10)\n        /* \"contracts/GetSchiffyGold.sol\":38663:38768  function feeDetails() public view returns(uint256, uint256){... */\n      0x40\n      dup1\n      mload\n        /* \"#utility.yul\":10235:10260   */\n      swap3\n      dup4\n      mstore\n        /* \"#utility.yul\":10291:10293   */\n      0x20\n        /* \"#utility.yul\":10276:10294   */\n      dup4\n      add\n        /* \"#utility.yul\":10269:10303   */\n      swap2\n      swap1\n      swap2\n      mstore\n        /* \"#utility.yul\":10208:10226   */\n      add\n        /* \"contracts/GetSchiffyGold.sol\":38663:38768  function feeDetails() public view returns(uint256, uint256){... */\n      tag_58\n        /* \"#utility.yul\":10061:10309   */\n      jump\n        /* \"contracts/GetSchiffyGold.sol\":34083:34418  function changeFees(uint256 holders, uint256 playToEarn) public onlyOwner {... */\n    tag_11:\n      callvalue\n      dup1\n      iszero\n      tag_91\n      jumpi\n      0x00\n      dup1\n      revert\n    tag_91:\n      pop\n      tag_51\n      tag_93\n      calldatasize\n      0x04\n      tag_94\n      jump\t// in\n    tag_93:\n      tag_95\n      jump\t// in\n        /* \"contracts/GetSchiffyGold.sol\":26926:27234  function transferFrom(address sender, address recipient, uint256 amount) public override returns (bool) {... */\n    tag_12:\n      callvalue\n      dup1\n      iszero\n      tag_96\n      jumpi\n      0x00\n      dup1\n      revert\n    tag_96:\n      pop\n      tag_61\n      tag_98\n      calldatasize\n      0x04\n      tag_99\n      jump\t// in\n    tag_98:\n      tag_100\n      jump\t// in\n        /* \"contracts/GetSchiffyGold.sol\":28756:29005  function tokenFromReflection(uint256 rAmount) public view returns(uint256) {... */\n    tag_13:\n      callvalue\n      dup1\n      iszero\n      tag_102\n      jumpi\n      0x00\n      dup1\n      revert\n    tag_102:\n      pop\n      tag_68\n      tag_104\n      calldatasize\n      0x04\n      tag_53\n      jump\t// in\n    tag_104:\n      tag_105\n      jump\t// in\n        /* \"contracts/GetSchiffyGold.sol\":26058:26139  function decimals() public view returns (uint8) {... */\n    tag_14:\n      callvalue\n      dup1\n      iszero\n      tag_107\n      jumpi\n      0x00\n      dup1\n      revert\n    tag_107:\n      pop\n        /* \"contracts/GetSchiffyGold.sol\":26123:26132  _decimals */\n      sload(0x0f)\n        /* \"contracts/GetSchiffyGold.sol\":26058:26139  function decimals() public view returns (uint8) {... */\n      mload(0x40)\n        /* \"contracts/GetSchiffyGold.sol\":26123:26132  _decimals */\n      0xff\n      swap1\n      swap2\n      and\n        /* \"#utility.yul\":10456:10492   */\n      dup2\n      mstore\n        /* \"#utility.yul\":10444:10446   */\n      0x20\n        /* \"#utility.yul\":10429:10447   */\n      add\n        /* \"contracts/GetSchiffyGold.sol\":26058:26139  function decimals() public view returns (uint8) {... */\n      tag_58\n        /* \"#utility.yul\":10314:10498   */\n      jump\n        /* \"contracts/GetSchiffyGold.sol\":29343:29811  function includeInReward(address account) external onlyOwner() {... */\n    tag_15:\n      callvalue\n      dup1\n      iszero\n      tag_112\n      jumpi\n      0x00\n      dup1\n      revert\n    tag_112:\n      pop\n      tag_51\n      tag_114\n      calldatasize\n      0x04\n      tag_84\n      jump\t// in\n    tag_114:\n      tag_115\n      jump\t// in\n        /* \"contracts/GetSchiffyGold.sol\":27240:27455  function increaseAllowance(address spender, uint256 addedValue) public virtual returns (bool) {... */\n    tag_16:\n      callvalue\n      dup1\n      iszero\n      tag_116\n      jumpi\n      0x00\n      dup1\n      revert\n    tag_116:\n      pop\n      tag_61\n      tag_118\n      calldatasize\n      0x04\n      tag_63\n      jump\t// in\n    tag_118:\n      tag_119\n      jump\t// in\n        /* \"contracts/GetSchiffyGold.sol\":27947:28317  function deliver(uint256 tAmount) public {... */\n    tag_17:\n      callvalue\n      dup1\n      iszero\n      tag_121\n      jumpi\n      0x00\n      dup1\n      revert\n    tag_121:\n      pop\n      tag_51\n      tag_123\n      calldatasize\n      0x04\n      tag_53\n      jump\t// in\n    tag_123:\n      tag_124\n      jump\t// in\n        /* \"contracts/GetSchiffyGold.sol\":30467:30576  function excludeFromFee(address account) public onlyOwner {... */\n    tag_18:\n      callvalue\n      dup1\n      iszero\n      tag_125\n      jumpi\n      0x00\n      dup1\n      revert\n    tag_125:\n      pop\n      tag_51\n      tag_127\n      calldatasize\n      0x04\n      tag_84\n      jump\t// in\n    tag_127:\n      tag_128\n      jump\t// in\n        /* \"contracts/GetSchiffyGold.sol\":28323:28750  function reflectionFromToken(uint256 tAmount, bool deductTransferFee) public view returns(uint256) {... */\n    tag_19:\n      callvalue\n      dup1\n      iszero\n      tag_129\n      jumpi\n      0x00\n      dup1\n      revert\n    tag_129:\n      pop\n      tag_68\n      tag_131\n      calldatasize\n      0x04\n      tag_132\n      jump\t// in\n    tag_131:\n      tag_133\n      jump\t// in\n        /* \"contracts/GetSchiffyGold.sol\":24766:24804  address public immutable uniswapV2Pair */\n    tag_20:\n      callvalue\n      dup1\n      iszero\n      tag_135\n      jumpi\n      0x00\n      dup1\n      revert\n    tag_135:\n      pop\n      tag_73\n      immutable(\"0x41d84f72f4e08fb5048ebe35bd8cee055087ddda32ae477600d3a68d7d5aa9b4\")\n      dup2\n      jump\n        /* \"contracts/GetSchiffyGold.sol\":29011:29337  function excludeFromReward(address account) public onlyOwner() {... */\n    tag_21:\n      callvalue\n      dup1\n      iszero\n      tag_140\n      jumpi\n      0x00\n      dup1\n      revert\n    tag_140:\n      pop\n      tag_51\n      tag_142\n      calldatasize\n      0x04\n      tag_84\n      jump\t// in\n    tag_142:\n      tag_143\n      jump\t// in\n        /* \"contracts/GetSchiffyGold.sol\":34556:34677  function isExcludedFromFee(address account) public view returns(bool) {... */\n    tag_22:\n      callvalue\n      dup1\n      iszero\n      tag_144\n      jumpi\n      0x00\n      dup1\n      revert\n    tag_144:\n      pop\n      tag_61\n      tag_146\n      calldatasize\n      0x04\n      tag_84\n      jump\t// in\n    tag_146:\n      sub(shl(0xa0, 0x01), 0x01)\n        /* \"contracts/GetSchiffyGold.sol\":34643:34670  _isExcludedFromFee[account] */\n      and\n        /* \"contracts/GetSchiffyGold.sol\":34620:34624  bool */\n      0x00\n        /* \"contracts/GetSchiffyGold.sol\":34643:34670  _isExcludedFromFee[account] */\n      swap1\n      dup2\n      mstore\n        /* \"contracts/GetSchiffyGold.sol\":34643:34661  _isExcludedFromFee */\n      0x06\n        /* \"contracts/GetSchiffyGold.sol\":34643:34670  _isExcludedFromFee[account] */\n      0x20\n      mstore\n      0x40\n      swap1\n      keccak256\n      sload\n      0xff\n      and\n      swap1\n        /* \"contracts/GetSchiffyGold.sol\":34556:34677  function isExcludedFromFee(address account) public view returns(bool) {... */\n      jump\n        /* \"contracts/GetSchiffyGold.sol\":38297:38420  function isExludedFromMaxTx(address account) public view returns(bool){... */\n    tag_23:\n      callvalue\n      dup1\n      iszero\n      tag_149\n      jumpi\n      0x00\n      dup1\n      revert\n    tag_149:\n      pop\n      tag_61\n      tag_151\n      calldatasize\n      0x04\n      tag_84\n      jump\t// in\n    tag_151:\n      sub(shl(0xa0, 0x01), 0x01)\n        /* \"contracts/GetSchiffyGold.sol\":38384:38413  _isExcludedFromMaxTx[account] */\n      and\n        /* \"contracts/GetSchiffyGold.sol\":38362:38366  bool */\n      0x00\n        /* \"contracts/GetSchiffyGold.sol\":38384:38413  _isExcludedFromMaxTx[account] */\n      swap1\n      dup2\n      mstore\n        /* \"contracts/GetSchiffyGold.sol\":38384:38404  _isExcludedFromMaxTx */\n      0x08\n        /* \"contracts/GetSchiffyGold.sol\":38384:38413  _isExcludedFromMaxTx[account] */\n      0x20\n      mstore\n      0x40\n      swap1\n      keccak256\n      sload\n      0xff\n      and\n      swap1\n        /* \"contracts/GetSchiffyGold.sol\":38297:38420  function isExludedFromMaxTx(address account) public view returns(bool){... */\n      jump\n        /* \"contracts/GetSchiffyGold.sol\":26244:26439  function balanceOf(address account) public view override returns (uint256) {... */\n    tag_24:\n      callvalue\n      dup1\n      iszero\n      tag_154\n      jumpi\n      0x00\n      dup1\n      revert\n    tag_154:\n      pop\n      tag_68\n      tag_156\n      calldatasize\n      0x04\n      tag_84\n      jump\t// in\n    tag_156:\n      tag_157\n      jump\t// in\n        /* \"contracts/GetSchiffyGold.sol\":14651:14796  function renounceOwnership() public virtual onlyOwner {... */\n    tag_25:\n      callvalue\n      dup1\n      iszero\n      tag_159\n      jumpi\n      0x00\n      dup1\n      revert\n    tag_159:\n      pop\n      tag_51\n      tag_161\n      jump\t// in\n        /* \"contracts/GetSchiffyGold.sol\":24815:24842  uint256 public _maxTxAmount */\n    tag_26:\n      callvalue\n      dup1\n      iszero\n      tag_162\n      jumpi\n      0x00\n      dup1\n      revert\n    tag_162:\n      pop\n      tag_68\n      sload(0x15)\n      dup2\n      jump\n        /* \"contracts/GetSchiffyGold.sol\":27732:27850  function isExcludedFromReward(address account) public view returns (bool) {... */\n    tag_27:\n      callvalue\n      dup1\n      iszero\n      tag_166\n      jumpi\n      0x00\n      dup1\n      revert\n    tag_166:\n      pop\n      tag_61\n      tag_168\n      calldatasize\n      0x04\n      tag_84\n      jump\t// in\n    tag_168:\n      sub(shl(0xa0, 0x01), 0x01)\n        /* \"contracts/GetSchiffyGold.sol\":27823:27843  _isExcluded[account] */\n      and\n        /* \"contracts/GetSchiffyGold.sol\":27800:27804  bool */\n      0x00\n        /* \"contracts/GetSchiffyGold.sol\":27823:27843  _isExcluded[account] */\n      swap1\n      dup2\n      mstore\n        /* \"contracts/GetSchiffyGold.sol\":27823:27834  _isExcluded */\n      0x07\n        /* \"contracts/GetSchiffyGold.sol\":27823:27843  _isExcluded[account] */\n      0x20\n      mstore\n      0x40\n      swap1\n      keccak256\n      sload\n      0xff\n      and\n      swap1\n        /* \"contracts/GetSchiffyGold.sol\":27732:27850  function isExcludedFromReward(address account) public view returns (bool) {... */\n      jump\n        /* \"contracts/GetSchiffyGold.sol\":14027:14104  function owner() public view returns (address) {... */\n    tag_28:\n      callvalue\n      dup1\n      iszero\n      tag_171\n      jumpi\n      0x00\n      dup1\n      revert\n    tag_171:\n      pop\n        /* \"contracts/GetSchiffyGold.sol\":14065:14072  address */\n      0x00\n        /* \"contracts/GetSchiffyGold.sol\":14091:14097  _owner */\n      sload\n      sub(shl(0xa0, 0x01), 0x01)\n      and\n        /* \"contracts/GetSchiffyGold.sol\":14027:14104  function owner() public view returns (address) {... */\n      jump(tag_73)\n        /* \"contracts/GetSchiffyGold.sol\":25967:26052  function symbol() public view returns (string memory) {... */\n    tag_29:\n      callvalue\n      dup1\n      iszero\n      tag_175\n      jumpi\n      0x00\n      dup1\n      revert\n    tag_175:\n      pop\n      tag_56\n      tag_177\n      jump\t// in\n        /* \"contracts/GetSchiffyGold.sol\":27461:27726  function decreaseAllowance(address spender, uint256 subtractedValue) public virtual returns (bool) {... */\n    tag_30:\n      callvalue\n      dup1\n      iszero\n      tag_179\n      jumpi\n      0x00\n      dup1\n      revert\n    tag_179:\n      pop\n      tag_61\n      tag_181\n      calldatasize\n      0x04\n      tag_63\n      jump\t// in\n    tag_181:\n      tag_182\n      jump\t// in\n        /* \"contracts/GetSchiffyGold.sol\":15645:15945  function unlock() public virtual {... */\n    tag_31:\n      callvalue\n      dup1\n      iszero\n      tag_184\n      jumpi\n      0x00\n      dup1\n      revert\n    tag_184:\n      pop\n      tag_51\n      tag_186\n      jump\t// in\n        /* \"contracts/GetSchiffyGold.sol\":26445:26609  function transfer(address recipient, uint256 amount) public override returns (bool) {... */\n    tag_32:\n      callvalue\n      dup1\n      iszero\n      tag_187\n      jumpi\n      0x00\n      dup1\n      revert\n    tag_187:\n      pop\n      tag_61\n      tag_189\n      calldatasize\n      0x04\n      tag_63\n      jump\t// in\n    tag_189:\n      tag_190\n      jump\t// in\n        /* \"contracts/GetSchiffyGold.sol\":30810:30929  function setPlayToEarnFeePercent(uint256 liquidityFee) external onlyOwner() {... */\n    tag_33:\n      callvalue\n      dup1\n      iszero\n      tag_192\n      jumpi\n      0x00\n      dup1\n      revert\n    tag_192:\n      pop\n      tag_51\n      tag_194\n      calldatasize\n      0x04\n      tag_53\n      jump\t// in\n    tag_194:\n      tag_195\n      jump\t// in\n        /* \"contracts/GetSchiffyGold.sol\":15191:15278  function geUnlockTime() public view returns (uint256) {... */\n    tag_34:\n      callvalue\n      dup1\n      iszero\n      tag_196\n      jumpi\n      0x00\n      dup1\n      revert\n    tag_196:\n      pop\n        /* \"contracts/GetSchiffyGold.sol\":15262:15271  _lockTime */\n      sload(0x02)\n        /* \"contracts/GetSchiffyGold.sol\":15191:15278  function geUnlockTime() public view returns (uint256) {... */\n      jump(tag_68)\n        /* \"contracts/GetSchiffyGold.sol\":30938:31074  function setMaxTxPercent(uint256 maxTxPercent) external onlyOwner() {... */\n    tag_35:\n      callvalue\n      dup1\n      iszero\n      tag_200\n      jumpi\n      0x00\n      dup1\n      revert\n    tag_200:\n      pop\n      tag_51\n      tag_202\n      calldatasize\n      0x04\n      tag_53\n      jump\t// in\n    tag_202:\n      tag_203\n      jump\t// in\n        /* \"contracts/GetSchiffyGold.sol\":38426:38539  function excludeFromMaxTx(address account) public onlyOwner {... */\n    tag_36:\n      callvalue\n      dup1\n      iszero\n      tag_204\n      jumpi\n      0x00\n      dup1\n      revert\n    tag_204:\n      pop\n      tag_51\n      tag_206\n      calldatasize\n      0x04\n      tag_84\n      jump\t// in\n    tag_206:\n      tag_207\n      jump\t// in\n        /* \"contracts/GetSchiffyGold.sol\":15351:15572  function lock(uint256 time) public virtual onlyOwner {... */\n    tag_37:\n      callvalue\n      dup1\n      iszero\n      tag_208\n      jumpi\n      0x00\n      dup1\n      revert\n    tag_208:\n      pop\n      tag_51\n      tag_210\n      calldatasize\n      0x04\n      tag_53\n      jump\t// in\n    tag_210:\n      tag_211\n      jump\t// in\n        /* \"contracts/GetSchiffyGold.sol\":26615:26756  function allowance(address owner, address spender) public view override returns (uint256) {... */\n    tag_38:\n      callvalue\n      dup1\n      iszero\n      tag_212\n      jumpi\n      0x00\n      dup1\n      revert\n    tag_212:\n      pop\n      tag_68\n      tag_214\n      calldatasize\n      0x04\n      tag_215\n      jump\t// in\n    tag_214:\n      sub(shl(0xa0, 0x01), 0x01)\n        /* \"contracts/GetSchiffyGold.sol\":26722:26740  _allowances[owner] */\n      swap2\n      dup3\n      and\n        /* \"contracts/GetSchiffyGold.sol\":26696:26703  uint256 */\n      0x00\n        /* \"contracts/GetSchiffyGold.sol\":26722:26740  _allowances[owner] */\n      swap1\n      dup2\n      mstore\n        /* \"contracts/GetSchiffyGold.sol\":26722:26733  _allowances */\n      0x05\n        /* \"contracts/GetSchiffyGold.sol\":26722:26740  _allowances[owner] */\n      0x20\n      swap1\n      dup2\n      mstore\n      0x40\n      dup1\n      dup4\n      keccak256\n        /* \"contracts/GetSchiffyGold.sol\":26722:26749  _allowances[owner][spender] */\n      swap4\n      swap1\n      swap5\n      and\n      dup3\n      mstore\n      swap2\n      swap1\n      swap2\n      mstore\n      keccak256\n      sload\n      swap1\n        /* \"contracts/GetSchiffyGold.sol\":26615:26756  function allowance(address owner, address spender) public view override returns (uint256) {... */\n      jump\n        /* \"contracts/GetSchiffyGold.sol\":30586:30694  function includeInFee(address account) public onlyOwner {... */\n    tag_39:\n      callvalue\n      dup1\n      iszero\n      tag_218\n      jumpi\n      0x00\n      dup1\n      revert\n    tag_218:\n      pop\n      tag_51\n      tag_220\n      calldatasize\n      0x04\n      tag_84\n      jump\t// in\n    tag_220:\n      tag_221\n      jump\t// in\n        /* \"contracts/GetSchiffyGold.sol\":14945:15185  function transferOwnership(address newOwner) public virtual onlyOwner {... */\n    tag_40:\n      callvalue\n      dup1\n      iszero\n      tag_222\n      jumpi\n      0x00\n      dup1\n      revert\n    tag_222:\n      pop\n      tag_51\n      tag_224\n      calldatasize\n      0x04\n      tag_84\n      jump\t// in\n    tag_224:\n      tag_225\n      jump\t// in\n        /* \"contracts/GetSchiffyGold.sol\":30704:30800  function setTaxFeePercent(uint256 taxFee) external onlyOwner() {... */\n    tag_54:\n        /* \"contracts/GetSchiffyGold.sol\":14231:14237  _owner */\n      and(sub(shl(0xa0, 0x01), 0x01), sload(0x00))\n        /* \"contracts/GetSchiffyGold.sol\":7273:7283  msg.sender */\n      caller\n        /* \"contracts/GetSchiffyGold.sol\":14231:14253  _owner == _msgSender() */\n      eq\n        /* \"contracts/GetSchiffyGold.sol\":14223:14290  require(_owner == _msgSender(), \"Ownable: caller is not the owner\") */\n      tag_231\n      jumpi\n      mload(0x40)\n      shl(0xe5, 0x461bcd)\n      dup2\n      mstore\n      0x04\n      add\n      tag_232\n      swap1\n      tag_233\n      jump\t// in\n    tag_232:\n      mload(0x40)\n      dup1\n      swap2\n      sub\n      swap1\n      revert\n    tag_231:\n        /* \"contracts/GetSchiffyGold.sol\":30777:30784  _taxFee */\n      0x13\n        /* \"contracts/GetSchiffyGold.sol\":30777:30793  _taxFee = taxFee */\n      sstore\n        /* \"contracts/GetSchiffyGold.sol\":30704:30800  function setTaxFeePercent(uint256 taxFee) external onlyOwner() {... */\n      jump\t// out\n        /* \"contracts/GetSchiffyGold.sol\":25880:25961  function name() public view returns (string memory) {... */\n    tag_57:\n        /* \"contracts/GetSchiffyGold.sol\":25917:25930  string memory */\n      0x60\n        /* \"contracts/GetSchiffyGold.sol\":25949:25954  _name */\n      0x0d\n        /* \"contracts/GetSchiffyGold.sol\":25942:25954  return _name */\n      dup1\n      sload\n      tag_236\n      swap1\n      tag_237\n      jump\t// in\n    tag_236:\n      dup1\n      0x1f\n      add\n      0x20\n      dup1\n      swap2\n      div\n      mul\n      0x20\n      add\n      mload(0x40)\n      swap1\n      dup2\n      add\n      0x40\n      mstore\n      dup1\n      swap3\n      swap2\n      swap1\n      dup2\n      dup2\n      mstore\n      0x20\n      add\n      dup3\n      dup1\n      sload\n      tag_238\n      swap1\n      tag_237\n      jump\t// in\n    tag_238:\n      dup1\n      iszero\n      tag_239\n      jumpi\n      dup1\n      0x1f\n      lt\n      tag_240\n      jumpi\n      0x0100\n      dup1\n      dup4\n      sload\n      div\n      mul\n      dup4\n      mstore\n      swap2\n      0x20\n      add\n      swap2\n      jump(tag_239)\n    tag_240:\n      dup3\n      add\n      swap2\n      swap1\n      0x00\n      mstore\n      keccak256(0x00, 0x20)\n      swap1\n    tag_241:\n      dup2\n      sload\n      dup2\n      mstore\n      swap1\n      0x01\n      add\n      swap1\n      0x20\n      add\n      dup1\n      dup4\n      gt\n      tag_241\n      jumpi\n      dup3\n      swap1\n      sub\n      0x1f\n      and\n      dup3\n      add\n      swap2\n    tag_239:\n      pop\n      pop\n      pop\n      pop\n      pop\n      swap1\n      pop\n        /* \"contracts/GetSchiffyGold.sol\":25880:25961  function name() public view returns (string memory) {... */\n      swap1\n      jump\t// out\n        /* \"contracts/GetSchiffyGold.sol\":26762:26920  function approve(address spender, uint256 amount) public override returns (bool) {... */\n    tag_64:\n        /* \"contracts/GetSchiffyGold.sol\":26837:26841  bool */\n      0x00\n        /* \"contracts/GetSchiffyGold.sol\":26853:26892  _approve(_msgSender(), spender, amount) */\n      tag_243\n        /* \"contracts/GetSchiffyGold.sol\":7273:7283  msg.sender */\n      caller\n        /* \"contracts/GetSchiffyGold.sol\":26876:26883  spender */\n      dup5\n        /* \"contracts/GetSchiffyGold.sol\":26885:26891  amount */\n      dup5\n        /* \"contracts/GetSchiffyGold.sol\":26853:26861  _approve */\n      tag_245\n        /* \"contracts/GetSchiffyGold.sol\":26853:26892  _approve(_msgSender(), spender, amount) */\n      jump\t// in\n    tag_243:\n      pop\n        /* \"contracts/GetSchiffyGold.sol\":26909:26913  true */\n      0x01\n        /* \"contracts/GetSchiffyGold.sol\":26762:26920  function approve(address spender, uint256 amount) public override returns (bool) {... */\n    tag_242:\n      swap3\n      swap2\n      pop\n      pop\n      jump\t// out\n        /* \"contracts/GetSchiffyGold.sol\":38545:38657  function includeInMaxTx(address account) public onlyOwner {... */\n    tag_85:\n        /* \"contracts/GetSchiffyGold.sol\":14231:14237  _owner */\n      and(sub(shl(0xa0, 0x01), 0x01), sload(0x00))\n        /* \"contracts/GetSchiffyGold.sol\":7273:7283  msg.sender */\n      caller\n        /* \"contracts/GetSchiffyGold.sol\":14231:14253  _owner == _msgSender() */\n      eq\n        /* \"contracts/GetSchiffyGold.sol\":14223:14290  require(_owner == _msgSender(), \"Ownable: caller is not the owner\") */\n      tag_250\n      jumpi\n      mload(0x40)\n      shl(0xe5, 0x461bcd)\n      dup2\n      mstore\n      0x04\n      add\n      tag_232\n      swap1\n      tag_233\n      jump\t// in\n    tag_250:\n      sub(shl(0xa0, 0x01), 0x01)\n        /* \"contracts/GetSchiffyGold.sol\":38613:38642  _isExcludedFromMaxTx[account] */\n      and\n        /* \"contracts/GetSchiffyGold.sol\":38645:38650  false */\n      0x00\n        /* \"contracts/GetSchiffyGold.sol\":38613:38642  _isExcludedFromMaxTx[account] */\n      swap1\n      dup2\n      mstore\n        /* \"contracts/GetSchiffyGold.sol\":38613:38633  _isExcludedFromMaxTx */\n      0x08\n        /* \"contracts/GetSchiffyGold.sol\":38613:38642  _isExcludedFromMaxTx[account] */\n      0x20\n      mstore\n      0x40\n      swap1\n      keccak256\n        /* \"contracts/GetSchiffyGold.sol\":38613:38650  _isExcludedFromMaxTx[account] = false */\n      dup1\n      sload\n      not(0xff)\n      and\n      swap1\n      sstore\n        /* \"contracts/GetSchiffyGold.sol\":38545:38657  function includeInMaxTx(address account) public onlyOwner {... */\n      jump\t// out\n        /* \"contracts/GetSchiffyGold.sol\":34083:34418  function changeFees(uint256 holders, uint256 playToEarn) public onlyOwner {... */\n    tag_95:\n        /* \"contracts/GetSchiffyGold.sol\":14231:14237  _owner */\n      and(sub(shl(0xa0, 0x01), 0x01), sload(0x00))\n        /* \"contracts/GetSchiffyGold.sol\":7273:7283  msg.sender */\n      caller\n        /* \"contracts/GetSchiffyGold.sol\":14231:14253  _owner == _msgSender() */\n      eq\n        /* \"contracts/GetSchiffyGold.sol\":14223:14290  require(_owner == _msgSender(), \"Ownable: caller is not the owner\") */\n      tag_256\n      jumpi\n      mload(0x40)\n      shl(0xe5, 0x461bcd)\n      dup2\n      mstore\n      0x04\n      add\n      tag_232\n      swap1\n      tag_233\n      jump\t// in\n    tag_256:\n        /* \"contracts/GetSchiffyGold.sol\":34186:34188  25 */\n      0x19\n        /* \"contracts/GetSchiffyGold.sol\":34175:34182  holders */\n      dup3\n        /* \"contracts/GetSchiffyGold.sol\":34175:34188  holders <= 25 */\n      gt\n      iszero\n        /* \"contracts/GetSchiffyGold.sol\":34167:34213  require(holders <= 25, \"Fee seems very high.\") */\n      tag_259\n      jumpi\n      mload(0x40)\n      shl(0xe5, 0x461bcd)\n      dup2\n      mstore\n        /* \"#utility.yul\":4637:4639   */\n      0x20\n        /* \"contracts/GetSchiffyGold.sol\":34167:34213  require(holders <= 25, \"Fee seems very high.\") */\n      0x04\n      dup3\n      add\n        /* \"#utility.yul\":4619:4640   */\n      mstore\n        /* \"#utility.yul\":4676:4678   */\n      0x14\n        /* \"#utility.yul\":4656:4674   */\n      0x24\n      dup3\n      add\n        /* \"#utility.yul\":4649:4679   */\n      mstore\n      shl(0x61, 0x2332b29039b2b2b6b9903b32b93c903434b3b417)\n        /* \"#utility.yul\":4695:4713   */\n      0x44\n      dup3\n      add\n        /* \"#utility.yul\":4688:4738   */\n      mstore\n        /* \"#utility.yul\":4755:4773   */\n      0x64\n      add\n        /* \"contracts/GetSchiffyGold.sol\":34167:34213  require(holders <= 25, \"Fee seems very high.\") */\n      tag_232\n        /* \"#utility.yul\":4435:4779   */\n      jump\n        /* \"contracts/GetSchiffyGold.sol\":34167:34213  require(holders <= 25, \"Fee seems very high.\") */\n    tag_259:\n        /* \"contracts/GetSchiffyGold.sol\":34245:34247  25 */\n      0x19\n        /* \"contracts/GetSchiffyGold.sol\":34231:34241  playToEarn */\n      dup2\n        /* \"contracts/GetSchiffyGold.sol\":34231:34247  playToEarn <= 25 */\n      gt\n      iszero\n        /* \"contracts/GetSchiffyGold.sol\":34223:34272  require(playToEarn <= 25, \"Fee seems very high.\") */\n      tag_262\n      jumpi\n      mload(0x40)\n      shl(0xe5, 0x461bcd)\n      dup2\n      mstore\n        /* \"#utility.yul\":4637:4639   */\n      0x20\n        /* \"contracts/GetSchiffyGold.sol\":34223:34272  require(playToEarn <= 25, \"Fee seems very high.\") */\n      0x04\n      dup3\n      add\n        /* \"#utility.yul\":4619:4640   */\n      mstore\n        /* \"#utility.yul\":4676:4678   */\n      0x14\n        /* \"#utility.yul\":4656:4674   */\n      0x24\n      dup3\n      add\n        /* \"#utility.yul\":4649:4679   */\n      mstore\n      shl(0x61, 0x2332b29039b2b2b6b9903b32b93c903434b3b417)\n        /* \"#utility.yul\":4695:4713   */\n      0x44\n      dup3\n      add\n        /* \"#utility.yul\":4688:4738   */\n      mstore\n        /* \"#utility.yul\":4755:4773   */\n      0x64\n      add\n        /* \"contracts/GetSchiffyGold.sol\":34223:34272  require(playToEarn <= 25, \"Fee seems very high.\") */\n      tag_232\n        /* \"#utility.yul\":4435:4779   */\n      jump\n        /* \"contracts/GetSchiffyGold.sol\":34223:34272  require(playToEarn <= 25, \"Fee seems very high.\") */\n    tag_262:\n        /* \"contracts/GetSchiffyGold.sol\":34300:34307  _taxFee */\n      0x13\n      dup1\n      sload\n        /* \"contracts/GetSchiffyGold.sol\":34282:34297  _previousTaxFee */\n      0x14\n        /* \"contracts/GetSchiffyGold.sol\":34282:34307  _previousTaxFee = _taxFee */\n      sstore\n        /* \"contracts/GetSchiffyGold.sol\":34339:34350  _playToEarn */\n      0x10\n      dup1\n      sload\n        /* \"contracts/GetSchiffyGold.sol\":34317:34336  _previousPlayToEarn */\n      0x11\n        /* \"contracts/GetSchiffyGold.sol\":34317:34350  _previousPlayToEarn = _playToEarn */\n      sstore\n        /* \"contracts/GetSchiffyGold.sol\":34360:34377  _taxFee = holders */\n      swap3\n      swap1\n      sstore\n        /* \"contracts/GetSchiffyGold.sol\":34387:34411  _playToEarn = playToEarn */\n      swap1\n      sstore\n        /* \"contracts/GetSchiffyGold.sol\":34083:34418  function changeFees(uint256 holders, uint256 playToEarn) public onlyOwner {... */\n      jump\t// out\n        /* \"contracts/GetSchiffyGold.sol\":26926:27234  function transferFrom(address sender, address recipient, uint256 amount) public override returns (bool) {... */\n    tag_100:\n        /* \"contracts/GetSchiffyGold.sol\":27024:27028  bool */\n      0x00\n        /* \"contracts/GetSchiffyGold.sol\":27040:27076  _transfer(sender, recipient, amount) */\n      tag_265\n        /* \"contracts/GetSchiffyGold.sol\":27050:27056  sender */\n      dup5\n        /* \"contracts/GetSchiffyGold.sol\":27058:27067  recipient */\n      dup5\n        /* \"contracts/GetSchiffyGold.sol\":27069:27075  amount */\n      dup5\n        /* \"contracts/GetSchiffyGold.sol\":27040:27049  _transfer */\n      tag_266\n        /* \"contracts/GetSchiffyGold.sol\":27040:27076  _transfer(sender, recipient, amount) */\n      jump\t// in\n    tag_265:\n        /* \"contracts/GetSchiffyGold.sol\":27086:27206  _approve(sender, _msgSender(), _allowances[sender][_msgSender()].sub(amount, \"GOLD: transfer amount exceeds allowance\")) */\n      tag_267\n        /* \"contracts/GetSchiffyGold.sol\":27095:27101  sender */\n      dup5\n        /* \"contracts/GetSchiffyGold.sol\":7273:7283  msg.sender */\n      caller\n        /* \"contracts/GetSchiffyGold.sol\":27117:27205  _allowances[sender][_msgSender()].sub(amount, \"GOLD: transfer amount exceeds allowance\") */\n      tag_269\n        /* \"contracts/GetSchiffyGold.sol\":27155:27161  amount */\n      dup6\n        /* \"contracts/GetSchiffyGold.sol\":27117:27205  _allowances[sender][_msgSender()].sub(amount, \"GOLD: transfer amount exceeds allowance\") */\n      mload(0x40)\n      dup1\n      0x60\n      add\n      0x40\n      mstore\n      dup1\n      0x27\n      dup2\n      mstore\n      0x20\n      add\n      data_03a6b60b889e4485b3af69467ade7663075427de0f6c7977f035eef67b59252c\n      0x27\n      swap2\n      codecopy\n      sub(shl(0xa0, 0x01), 0x01)\n        /* \"contracts/GetSchiffyGold.sol\":27117:27136  _allowances[sender] */\n      dup11\n      and\n      0x00\n      swap1\n      dup2\n      mstore\n        /* \"contracts/GetSchiffyGold.sol\":27117:27128  _allowances */\n      0x05\n        /* \"contracts/GetSchiffyGold.sol\":27117:27136  _allowances[sender] */\n      0x20\n      swap1\n      dup2\n      mstore\n      0x40\n      dup1\n      dup4\n      keccak256\n        /* \"contracts/GetSchiffyGold.sol\":7273:7283  msg.sender */\n      caller\n        /* \"contracts/GetSchiffyGold.sol\":27117:27150  _allowances[sender][_msgSender()] */\n      dup5\n      mstore\n      swap1\n      swap2\n      mstore\n      swap1\n      keccak256\n      sload\n      swap2\n      swap1\n        /* \"contracts/GetSchiffyGold.sol\":27117:27154  _allowances[sender][_msgSender()].sub */\n      tag_271\n        /* \"contracts/GetSchiffyGold.sol\":27117:27205  _allowances[sender][_msgSender()].sub(amount, \"GOLD: transfer amount exceeds allowance\") */\n      jump\t// in\n    tag_269:\n        /* \"contracts/GetSchiffyGold.sol\":27086:27094  _approve */\n      tag_245\n        /* \"contracts/GetSchiffyGold.sol\":27086:27206  _approve(sender, _msgSender(), _allowances[sender][_msgSender()].sub(amount, \"GOLD: transfer amount exceeds allowance\")) */\n      jump\t// in\n    tag_267:\n      pop\n        /* \"contracts/GetSchiffyGold.sol\":27223:27227  true */\n      0x01\n        /* \"contracts/GetSchiffyGold.sol\":26926:27234  function transferFrom(address sender, address recipient, uint256 amount) public override returns (bool) {... */\n      swap4\n      swap3\n      pop\n      pop\n      pop\n      jump\t// out\n        /* \"contracts/GetSchiffyGold.sol\":28756:29005  function tokenFromReflection(uint256 rAmount) public view returns(uint256) {... */\n    tag_105:\n        /* \"contracts/GetSchiffyGold.sol\":28822:28829  uint256 */\n      0x00\n        /* \"contracts/GetSchiffyGold.sol\":28860:28867  _rTotal */\n      sload(0x0b)\n        /* \"contracts/GetSchiffyGold.sol\":28849:28856  rAmount */\n      dup3\n        /* \"contracts/GetSchiffyGold.sol\":28849:28867  rAmount <= _rTotal */\n      gt\n      iszero\n        /* \"contracts/GetSchiffyGold.sol\":28841:28914  require(rAmount <= _rTotal, \"Amount must be less than total reflections\") */\n      tag_273\n      jumpi\n      mload(0x40)\n      shl(0xe5, 0x461bcd)\n      dup2\n      mstore\n        /* \"#utility.yul\":3463:3465   */\n      0x20\n        /* \"contracts/GetSchiffyGold.sol\":28841:28914  require(rAmount <= _rTotal, \"Amount must be less than total reflections\") */\n      0x04\n      dup3\n      add\n        /* \"#utility.yul\":3445:3466   */\n      mstore\n        /* \"#utility.yul\":3502:3504   */\n      0x2a\n        /* \"#utility.yul\":3482:3500   */\n      0x24\n      dup3\n      add\n        /* \"#utility.yul\":3475:3505   */\n      mstore\n        /* \"#utility.yul\":3541:3575   */\n      0x416d6f756e74206d757374206265206c657373207468616e20746f74616c2072\n        /* \"#utility.yul\":3521:3539   */\n      0x44\n      dup3\n      add\n        /* \"#utility.yul\":3514:3576   */\n      mstore\n      shl(0xb0, 0x65666c656374696f6e73)\n        /* \"#utility.yul\":3592:3610   */\n      0x64\n      dup3\n      add\n        /* \"#utility.yul\":3585:3625   */\n      mstore\n        /* \"#utility.yul\":3642:3661   */\n      0x84\n      add\n        /* \"contracts/GetSchiffyGold.sol\":28841:28914  require(rAmount <= _rTotal, \"Amount must be less than total reflections\") */\n      tag_232\n        /* \"#utility.yul\":3261:3667   */\n      jump\n        /* \"contracts/GetSchiffyGold.sol\":28841:28914  require(rAmount <= _rTotal, \"Amount must be less than total reflections\") */\n    tag_273:\n        /* \"contracts/GetSchiffyGold.sol\":28924:28943  uint256 currentRate */\n      0x00\n        /* \"contracts/GetSchiffyGold.sol\":28947:28957  _getRate() */\n      tag_276\n        /* \"contracts/GetSchiffyGold.sol\":28947:28955  _getRate */\n      tag_277\n        /* \"contracts/GetSchiffyGold.sol\":28947:28957  _getRate() */\n      jump\t// in\n    tag_276:\n        /* \"contracts/GetSchiffyGold.sol\":28924:28957  uint256 currentRate =  _getRate() */\n      swap1\n      pop\n        /* \"contracts/GetSchiffyGold.sol\":28974:28998  rAmount.div(currentRate) */\n      tag_278\n        /* \"contracts/GetSchiffyGold.sol\":28974:28981  rAmount */\n      dup4\n        /* \"contracts/GetSchiffyGold.sol\":28924:28957  uint256 currentRate =  _getRate() */\n      dup3\n        /* \"contracts/GetSchiffyGold.sol\":28974:28985  rAmount.div */\n      tag_227\n        /* \"contracts/GetSchiffyGold.sol\":28974:28998  rAmount.div(currentRate) */\n      jump\t// in\n    tag_278:\n        /* \"contracts/GetSchiffyGold.sol\":28967:28998  return rAmount.div(currentRate) */\n      swap4\n        /* \"contracts/GetSchiffyGold.sol\":28756:29005  function tokenFromReflection(uint256 rAmount) public view returns(uint256) {... */\n      swap3\n      pop\n      pop\n      pop\n      jump\t// out\n        /* \"contracts/GetSchiffyGold.sol\":29343:29811  function includeInReward(address account) external onlyOwner() {... */\n    tag_115:\n        /* \"contracts/GetSchiffyGold.sol\":14231:14237  _owner */\n      and(sub(shl(0xa0, 0x01), 0x01), sload(0x00))\n        /* \"contracts/GetSchiffyGold.sol\":7273:7283  msg.sender */\n      caller\n        /* \"contracts/GetSchiffyGold.sol\":14231:14253  _owner == _msgSender() */\n      eq\n        /* \"contracts/GetSchiffyGold.sol\":14223:14290  require(_owner == _msgSender(), \"Ownable: caller is not the owner\") */\n      tag_282\n      jumpi\n      mload(0x40)\n      shl(0xe5, 0x461bcd)\n      dup2\n      mstore\n      0x04\n      add\n      tag_232\n      swap1\n      tag_233\n      jump\t// in\n    tag_282:\n      sub(shl(0xa0, 0x01), 0x01)\n        /* \"contracts/GetSchiffyGold.sol\":29424:29444  _isExcluded[account] */\n      dup2\n      and\n      0x00\n      swap1\n      dup2\n      mstore\n        /* \"contracts/GetSchiffyGold.sol\":29424:29435  _isExcluded */\n      0x07\n        /* \"contracts/GetSchiffyGold.sol\":29424:29444  _isExcluded[account] */\n      0x20\n      mstore\n      0x40\n      swap1\n      keccak256\n      sload\n      0xff\n      and\n        /* \"contracts/GetSchiffyGold.sol\":29416:29476  require(_isExcluded[account], \"Account is already excluded\") */\n      tag_285\n      jumpi\n      mload(0x40)\n      shl(0xe5, 0x461bcd)\n      dup2\n      mstore\n        /* \"#utility.yul\":4986:4988   */\n      0x20\n        /* \"contracts/GetSchiffyGold.sol\":29416:29476  require(_isExcluded[account], \"Account is already excluded\") */\n      0x04\n      dup3\n      add\n        /* \"#utility.yul\":4968:4989   */\n      mstore\n        /* \"#utility.yul\":5025:5027   */\n      0x1b\n        /* \"#utility.yul\":5005:5023   */\n      0x24\n      dup3\n      add\n        /* \"#utility.yul\":4998:5028   */\n      mstore\n        /* \"#utility.yul\":5064:5093   */\n      0x4163636f756e7420697320616c7265616479206578636c756465640000000000\n        /* \"#utility.yul\":5044:5062   */\n      0x44\n      dup3\n      add\n        /* \"#utility.yul\":5037:5094   */\n      mstore\n        /* \"#utility.yul\":5111:5129   */\n      0x64\n      add\n        /* \"contracts/GetSchiffyGold.sol\":29416:29476  require(_isExcluded[account], \"Account is already excluded\") */\n      tag_232\n        /* \"#utility.yul\":4784:5135   */\n      jump\n        /* \"contracts/GetSchiffyGold.sol\":29416:29476  require(_isExcluded[account], \"Account is already excluded\") */\n    tag_285:\n        /* \"contracts/GetSchiffyGold.sol\":29491:29500  uint256 i */\n      0x00\n        /* \"contracts/GetSchiffyGold.sol\":29486:29805  for (uint256 i = 0; i < _excluded.length; i++) {... */\n    tag_288:\n        /* \"contracts/GetSchiffyGold.sol\":29510:29519  _excluded */\n      0x09\n        /* \"contracts/GetSchiffyGold.sol\":29510:29526  _excluded.length */\n      sload\n        /* \"contracts/GetSchiffyGold.sol\":29506:29526  i < _excluded.length */\n      dup2\n      lt\n        /* \"contracts/GetSchiffyGold.sol\":29486:29805  for (uint256 i = 0; i < _excluded.length; i++) {... */\n      iszero\n      tag_289\n      jumpi\n        /* \"contracts/GetSchiffyGold.sol\":29567:29574  account */\n      dup2\n      sub(shl(0xa0, 0x01), 0x01)\n        /* \"contracts/GetSchiffyGold.sol\":29551:29574  _excluded[i] == account */\n      and\n        /* \"contracts/GetSchiffyGold.sol\":29551:29560  _excluded */\n      0x09\n        /* \"contracts/GetSchiffyGold.sol\":29561:29562  i */\n      dup3\n        /* \"contracts/GetSchiffyGold.sol\":29551:29563  _excluded[i] */\n      dup2\n      sload\n      dup2\n      lt\n      tag_292\n      jumpi\n      tag_292\n      tag_293\n      jump\t// in\n    tag_292:\n      0x00\n      swap2\n      dup3\n      mstore\n      0x20\n      swap1\n      swap2\n      keccak256\n      add\n      sload\n      sub(shl(0xa0, 0x01), 0x01)\n      and\n        /* \"contracts/GetSchiffyGold.sol\":29551:29574  _excluded[i] == account */\n      eq\n        /* \"contracts/GetSchiffyGold.sol\":29547:29795  if (_excluded[i] == account) {... */\n      iszero\n      tag_295\n      jumpi\n        /* \"contracts/GetSchiffyGold.sol\":29609:29618  _excluded */\n      0x09\n        /* \"contracts/GetSchiffyGold.sol\":29619:29635  _excluded.length */\n      dup1\n      sload\n        /* \"contracts/GetSchiffyGold.sol\":29619:29639  _excluded.length - 1 */\n      tag_296\n      swap1\n        /* \"contracts/GetSchiffyGold.sol\":29638:29639  1 */\n      0x01\n      swap1\n        /* \"contracts/GetSchiffyGold.sol\":29619:29639  _excluded.length - 1 */\n      tag_297\n      jump\t// in\n    tag_296:\n        /* \"contracts/GetSchiffyGold.sol\":29609:29640  _excluded[_excluded.length - 1] */\n      dup2\n      sload\n      dup2\n      lt\n      tag_299\n      jumpi\n      tag_299\n      tag_293\n      jump\t// in\n    tag_299:\n      0x00\n      swap2\n      dup3\n      mstore\n      0x20\n      swap1\n      swap2\n      keccak256\n      add\n      sload\n        /* \"contracts/GetSchiffyGold.sol\":29594:29603  _excluded */\n      0x09\n        /* \"contracts/GetSchiffyGold.sol\":29594:29606  _excluded[i] */\n      dup1\n      sload\n      sub(shl(0xa0, 0x01), 0x01)\n        /* \"contracts/GetSchiffyGold.sol\":29609:29640  _excluded[_excluded.length - 1] */\n      swap1\n      swap3\n      and\n      swap2\n        /* \"contracts/GetSchiffyGold.sol\":29604:29605  i */\n      dup4\n      swap1\n        /* \"contracts/GetSchiffyGold.sol\":29594:29606  _excluded[i] */\n      dup2\n      lt\n      tag_302\n      jumpi\n      tag_302\n      tag_293\n      jump\t// in\n    tag_302:\n      0x00\n      swap2\n      dup3\n      mstore\n      0x20\n      dup1\n      dup4\n      keccak256\n      swap2\n      swap1\n      swap2\n      add\n        /* \"contracts/GetSchiffyGold.sol\":29594:29640  _excluded[i] = _excluded[_excluded.length - 1] */\n      dup1\n      sload\n      not(sub(shl(0xa0, 0x01), 0x01))\n      and\n      sub(shl(0xa0, 0x01), 0x01)\n      swap5\n      dup6\n      and\n      or\n      swap1\n      sstore\n        /* \"contracts/GetSchiffyGold.sol\":29658:29674  _tOwned[account] */\n      swap2\n      dup5\n      and\n      dup2\n      mstore\n        /* \"contracts/GetSchiffyGold.sol\":29658:29665  _tOwned */\n      0x04\n        /* \"contracts/GetSchiffyGold.sol\":29658:29674  _tOwned[account] */\n      dup3\n      mstore\n      0x40\n      dup1\n      dup3\n      keccak256\n        /* \"contracts/GetSchiffyGold.sol\":29658:29678  _tOwned[account] = 0 */\n      dup3\n      swap1\n      sstore\n        /* \"contracts/GetSchiffyGold.sol\":29696:29707  _isExcluded */\n      0x07\n        /* \"contracts/GetSchiffyGold.sol\":29696:29716  _isExcluded[account] */\n      swap1\n      swap3\n      mstore\n      keccak256\n        /* \"contracts/GetSchiffyGold.sol\":29696:29724  _isExcluded[account] = false */\n      dup1\n      sload\n      not(0xff)\n      and\n      swap1\n      sstore\n        /* \"contracts/GetSchiffyGold.sol\":29742:29751  _excluded */\n      0x09\n        /* \"contracts/GetSchiffyGold.sol\":29742:29757  _excluded.pop() */\n      dup1\n      sload\n      dup1\n      tag_305\n      jumpi\n      tag_305\n      tag_306\n      jump\t// in\n    tag_305:\n      0x00\n      dup3\n      dup2\n      mstore\n      0x20\n      swap1\n      keccak256\n      dup2\n      add\n      not(0x00)\n      swap1\n      dup2\n      add\n      dup1\n      sload\n      not(sub(shl(0xa0, 0x01), 0x01))\n      and\n      swap1\n      sstore\n      add\n      swap1\n      sstore\n        /* \"contracts/GetSchiffyGold.sol\":29486:29805  for (uint256 i = 0; i < _excluded.length; i++) {... */\n      pop\n        /* \"contracts/GetSchiffyGold.sol\":29343:29811  function includeInReward(address account) external onlyOwner() {... */\n      pop\n      jump\t// out\n        /* \"contracts/GetSchiffyGold.sol\":29547:29795  if (_excluded[i] == account) {... */\n    tag_295:\n        /* \"contracts/GetSchiffyGold.sol\":29528:29531  i++ */\n      dup1\n      tag_308\n      dup2\n      tag_309\n      jump\t// in\n    tag_308:\n      swap2\n      pop\n      pop\n        /* \"contracts/GetSchiffyGold.sol\":29486:29805  for (uint256 i = 0; i < _excluded.length; i++) {... */\n      jump(tag_288)\n    tag_289:\n      pop\n        /* \"contracts/GetSchiffyGold.sol\":29343:29811  function includeInReward(address account) external onlyOwner() {... */\n      pop\n      jump\t// out\n        /* \"contracts/GetSchiffyGold.sol\":27240:27455  function increaseAllowance(address spender, uint256 addedValue) public virtual returns (bool) {... */\n    tag_119:\n        /* \"contracts/GetSchiffyGold.sol\":7273:7283  msg.sender */\n      caller\n        /* \"contracts/GetSchiffyGold.sol\":27328:27332  bool */\n      0x00\n        /* \"contracts/GetSchiffyGold.sol\":27376:27401  _allowances[_msgSender()] */\n      dup2\n      dup2\n      mstore\n        /* \"contracts/GetSchiffyGold.sol\":27376:27387  _allowances */\n      0x05\n        /* \"contracts/GetSchiffyGold.sol\":27376:27401  _allowances[_msgSender()] */\n      0x20\n      swap1\n      dup2\n      mstore\n      0x40\n      dup1\n      dup4\n      keccak256\n      sub(shl(0xa0, 0x01), 0x01)\n        /* \"contracts/GetSchiffyGold.sol\":27376:27410  _allowances[_msgSender()][spender] */\n      dup8\n      and\n      dup5\n      mstore\n      swap1\n      swap2\n      mstore\n      dup2\n      keccak256\n      sload\n        /* \"contracts/GetSchiffyGold.sol\":27328:27332  bool */\n      swap1\n      swap2\n        /* \"contracts/GetSchiffyGold.sol\":27344:27427  _approve(_msgSender(), spender, _allowances[_msgSender()][spender].add(addedValue)) */\n      tag_243\n      swap2\n        /* \"contracts/GetSchiffyGold.sol\":27367:27374  spender */\n      dup6\n      swap1\n        /* \"contracts/GetSchiffyGold.sol\":27376:27426  _allowances[_msgSender()][spender].add(addedValue) */\n      tag_269\n      swap1\n        /* \"contracts/GetSchiffyGold.sol\":27415:27425  addedValue */\n      dup7\n        /* \"contracts/GetSchiffyGold.sol\":27376:27414  _allowances[_msgSender()][spender].add */\n      tag_315\n        /* \"contracts/GetSchiffyGold.sol\":27376:27426  _allowances[_msgSender()][spender].add(addedValue) */\n      jump\t// in\n        /* \"contracts/GetSchiffyGold.sol\":27947:28317  function deliver(uint256 tAmount) public {... */\n    tag_124:\n        /* \"contracts/GetSchiffyGold.sol\":7273:7283  msg.sender */\n      caller\n        /* \"contracts/GetSchiffyGold.sol\":27998:28012  address sender */\n      0x00\n        /* \"contracts/GetSchiffyGold.sol\":28046:28065  _isExcluded[sender] */\n      dup2\n      dup2\n      mstore\n        /* \"contracts/GetSchiffyGold.sol\":28046:28057  _isExcluded */\n      0x07\n        /* \"contracts/GetSchiffyGold.sol\":28046:28065  _isExcluded[sender] */\n      0x20\n      mstore\n      0x40\n      swap1\n      keccak256\n      sload\n      0xff\n      and\n        /* \"contracts/GetSchiffyGold.sol\":28045:28065  !_isExcluded[sender] */\n      iszero\n        /* \"contracts/GetSchiffyGold.sol\":28037:28114  require(!_isExcluded[sender], \"Excluded addresses cannot call this function\") */\n      tag_318\n      jumpi\n      mload(0x40)\n      shl(0xe5, 0x461bcd)\n      dup2\n      mstore\n        /* \"#utility.yul\":9264:9266   */\n      0x20\n        /* \"contracts/GetSchiffyGold.sol\":28037:28114  require(!_isExcluded[sender], \"Excluded addresses cannot call this function\") */\n      0x04\n      dup3\n      add\n        /* \"#utility.yul\":9246:9267   */\n      mstore\n        /* \"#utility.yul\":9303:9305   */\n      0x2c\n        /* \"#utility.yul\":9283:9301   */\n      0x24\n      dup3\n      add\n        /* \"#utility.yul\":9276:9306   */\n      mstore\n        /* \"#utility.yul\":9342:9376   */\n      0x4578636c75646564206164647265737365732063616e6e6f742063616c6c2074\n        /* \"#utility.yul\":9322:9340   */\n      0x44\n      dup3\n      add\n        /* \"#utility.yul\":9315:9377   */\n      mstore\n      shl(0xa1, 0x3434b990333ab731ba34b7b7)\n        /* \"#utility.yul\":9393:9411   */\n      0x64\n      dup3\n      add\n        /* \"#utility.yul\":9386:9428   */\n      mstore\n        /* \"#utility.yul\":9445:9464   */\n      0x84\n      add\n        /* \"contracts/GetSchiffyGold.sol\":28037:28114  require(!_isExcluded[sender], \"Excluded addresses cannot call this function\") */\n      tag_232\n        /* \"#utility.yul\":9062:9470   */\n      jump\n        /* \"contracts/GetSchiffyGold.sol\":28037:28114  require(!_isExcluded[sender], \"Excluded addresses cannot call this function\") */\n    tag_318:\n        /* \"contracts/GetSchiffyGold.sol\":28125:28140  uint256 rAmount */\n      0x00\n        /* \"contracts/GetSchiffyGold.sol\":28149:28168  _getValues(tAmount) */\n      tag_321\n        /* \"contracts/GetSchiffyGold.sol\":28160:28167  tAmount */\n      dup4\n        /* \"contracts/GetSchiffyGold.sol\":28149:28159  _getValues */\n      tag_322\n        /* \"contracts/GetSchiffyGold.sol\":28149:28168  _getValues(tAmount) */\n      jump\t// in\n    tag_321:\n      pop\n      pop\n      pop\n      pop\n      sub(shl(0xa0, 0x01), 0x01)\n        /* \"contracts/GetSchiffyGold.sol\":28196:28211  _rOwned[sender] */\n      dup5\n      and\n      0x00\n      swap1\n      dup2\n      mstore\n        /* \"contracts/GetSchiffyGold.sol\":28196:28203  _rOwned */\n      0x03\n        /* \"contracts/GetSchiffyGold.sol\":28196:28211  _rOwned[sender] */\n      0x20\n      mstore\n      0x40\n      swap1\n      keccak256\n      sload\n        /* \"contracts/GetSchiffyGold.sol\":28124:28168  (uint256 rAmount,,,,,) = _getValues(tAmount) */\n      swap2\n      swap3\n      pop\n        /* \"contracts/GetSchiffyGold.sol\":28196:28224  _rOwned[sender].sub(rAmount) */\n      tag_323\n      swap2\n        /* \"contracts/GetSchiffyGold.sol\":28196:28211  _rOwned[sender] */\n      swap1\n      pop\n        /* \"contracts/GetSchiffyGold.sol\":28124:28168  (uint256 rAmount,,,,,) = _getValues(tAmount) */\n      dup3\n        /* \"contracts/GetSchiffyGold.sol\":28196:28215  _rOwned[sender].sub */\n      tag_324\n        /* \"contracts/GetSchiffyGold.sol\":28196:28224  _rOwned[sender].sub(rAmount) */\n      jump\t// in\n    tag_323:\n      sub(shl(0xa0, 0x01), 0x01)\n        /* \"contracts/GetSchiffyGold.sol\":28178:28193  _rOwned[sender] */\n      dup4\n      and\n      0x00\n      swap1\n      dup2\n      mstore\n        /* \"contracts/GetSchiffyGold.sol\":28178:28185  _rOwned */\n      0x03\n        /* \"contracts/GetSchiffyGold.sol\":28178:28193  _rOwned[sender] */\n      0x20\n      mstore\n      0x40\n      swap1\n      keccak256\n        /* \"contracts/GetSchiffyGold.sol\":28178:28224  _rOwned[sender] = _rOwned[sender].sub(rAmount) */\n      sstore\n        /* \"contracts/GetSchiffyGold.sol\":28244:28251  _rTotal */\n      sload(0x0b)\n        /* \"contracts/GetSchiffyGold.sol\":28244:28264  _rTotal.sub(rAmount) */\n      tag_325\n      swap1\n        /* \"contracts/GetSchiffyGold.sol\":28256:28263  rAmount */\n      dup3\n        /* \"contracts/GetSchiffyGold.sol\":28244:28255  _rTotal.sub */\n      tag_324\n        /* \"contracts/GetSchiffyGold.sol\":28244:28264  _rTotal.sub(rAmount) */\n      jump\t// in\n    tag_325:\n        /* \"contracts/GetSchiffyGold.sol\":28234:28241  _rTotal */\n      0x0b\n        /* \"contracts/GetSchiffyGold.sol\":28234:28264  _rTotal = _rTotal.sub(rAmount) */\n      sstore\n        /* \"contracts/GetSchiffyGold.sol\":28287:28297  _tFeeTotal */\n      sload(0x0c)\n        /* \"contracts/GetSchiffyGold.sol\":28287:28310  _tFeeTotal.add(tAmount) */\n      tag_326\n      swap1\n        /* \"contracts/GetSchiffyGold.sol\":28302:28309  tAmount */\n      dup5\n        /* \"contracts/GetSchiffyGold.sol\":28287:28301  _tFeeTotal.add */\n      tag_315\n        /* \"contracts/GetSchiffyGold.sol\":28287:28310  _tFeeTotal.add(tAmount) */\n      jump\t// in\n    tag_326:\n        /* \"contracts/GetSchiffyGold.sol\":28274:28284  _tFeeTotal */\n      0x0c\n        /* \"contracts/GetSchiffyGold.sol\":28274:28310  _tFeeTotal = _tFeeTotal.add(tAmount) */\n      sstore\n      pop\n      pop\n      pop\n        /* \"contracts/GetSchiffyGold.sol\":27947:28317  function deliver(uint256 tAmount) public {... */\n      jump\t// out\n        /* \"contracts/GetSchiffyGold.sol\":30467:30576  function excludeFromFee(address account) public onlyOwner {... */\n    tag_128:\n        /* \"contracts/GetSchiffyGold.sol\":14231:14237  _owner */\n      and(sub(shl(0xa0, 0x01), 0x01), sload(0x00))\n        /* \"contracts/GetSchiffyGold.sol\":7273:7283  msg.sender */\n      caller\n        /* \"contracts/GetSchiffyGold.sol\":14231:14253  _owner == _msgSender() */\n      eq\n        /* \"contracts/GetSchiffyGold.sol\":14223:14290  require(_owner == _msgSender(), \"Ownable: caller is not the owner\") */\n      tag_329\n      jumpi\n      mload(0x40)\n      shl(0xe5, 0x461bcd)\n      dup2\n      mstore\n      0x04\n      add\n      tag_232\n      swap1\n      tag_233\n      jump\t// in\n    tag_329:\n      sub(shl(0xa0, 0x01), 0x01)\n        /* \"contracts/GetSchiffyGold.sol\":30535:30562  _isExcludedFromFee[account] */\n      and\n      0x00\n      swap1\n      dup2\n      mstore\n        /* \"contracts/GetSchiffyGold.sol\":30535:30553  _isExcludedFromFee */\n      0x06\n        /* \"contracts/GetSchiffyGold.sol\":30535:30562  _isExcludedFromFee[account] */\n      0x20\n      mstore\n      0x40\n      swap1\n      keccak256\n        /* \"contracts/GetSchiffyGold.sol\":30535:30569  _isExcludedFromFee[account] = true */\n      dup1\n      sload\n      not(0xff)\n      and\n        /* \"contracts/GetSchiffyGold.sol\":30565:30569  true */\n      0x01\n        /* \"contracts/GetSchiffyGold.sol\":30535:30569  _isExcludedFromFee[account] = true */\n      or\n      swap1\n      sstore\n        /* \"contracts/GetSchiffyGold.sol\":30467:30576  function excludeFromFee(address account) public onlyOwner {... */\n      jump\t// out\n        /* \"contracts/GetSchiffyGold.sol\":28323:28750  function reflectionFromToken(uint256 tAmount, bool deductTransferFee) public view returns(uint256) {... */\n    tag_133:\n        /* \"contracts/GetSchiffyGold.sol\":28413:28420  uint256 */\n      0x00\n        /* \"contracts/GetSchiffyGold.sol\":28451:28458  _tTotal */\n      sload(0x0a)\n        /* \"contracts/GetSchiffyGold.sol\":28440:28447  tAmount */\n      dup4\n        /* \"contracts/GetSchiffyGold.sol\":28440:28458  tAmount <= _tTotal */\n      gt\n      iszero\n        /* \"contracts/GetSchiffyGold.sol\":28432:28494  require(tAmount <= _tTotal, \"Amount must be less than supply\") */\n      tag_333\n      jumpi\n      mload(0x40)\n      shl(0xe5, 0x461bcd)\n      dup2\n      mstore\n        /* \"#utility.yul\":6554:6556   */\n      0x20\n        /* \"contracts/GetSchiffyGold.sol\":28432:28494  require(tAmount <= _tTotal, \"Amount must be less than supply\") */\n      0x04\n      dup3\n      add\n        /* \"#utility.yul\":6536:6557   */\n      mstore\n        /* \"#utility.yul\":6593:6595   */\n      0x1f\n        /* \"#utility.yul\":6573:6591   */\n      0x24\n      dup3\n      add\n        /* \"#utility.yul\":6566:6596   */\n      mstore\n        /* \"#utility.yul\":6632:6665   */\n      0x416d6f756e74206d757374206265206c657373207468616e20737570706c7900\n        /* \"#utility.yul\":6612:6630   */\n      0x44\n      dup3\n      add\n        /* \"#utility.yul\":6605:6666   */\n      mstore\n        /* \"#utility.yul\":6683:6701   */\n      0x64\n      add\n        /* \"contracts/GetSchiffyGold.sol\":28432:28494  require(tAmount <= _tTotal, \"Amount must be less than supply\") */\n      tag_232\n        /* \"#utility.yul\":6352:6707   */\n      jump\n        /* \"contracts/GetSchiffyGold.sol\":28432:28494  require(tAmount <= _tTotal, \"Amount must be less than supply\") */\n    tag_333:\n        /* \"contracts/GetSchiffyGold.sol\":28509:28526  deductTransferFee */\n      dup2\n        /* \"contracts/GetSchiffyGold.sol\":28504:28744  if (!deductTransferFee) {... */\n      tag_336\n      jumpi\n        /* \"contracts/GetSchiffyGold.sol\":28543:28558  uint256 rAmount */\n      0x00\n        /* \"contracts/GetSchiffyGold.sol\":28567:28586  _getValues(tAmount) */\n      tag_337\n        /* \"contracts/GetSchiffyGold.sol\":28578:28585  tAmount */\n      dup5\n        /* \"contracts/GetSchiffyGold.sol\":28567:28577  _getValues */\n      tag_322\n        /* \"contracts/GetSchiffyGold.sol\":28567:28586  _getValues(tAmount) */\n      jump\t// in\n    tag_337:\n      pop\n        /* \"contracts/GetSchiffyGold.sol\":28542:28586  (uint256 rAmount,,,,,) = _getValues(tAmount) */\n      swap4\n      swap6\n      pop\n        /* \"contracts/GetSchiffyGold.sol\":28600:28614  return rAmount */\n      tag_242\n      swap5\n      pop\n      pop\n      pop\n      pop\n      pop\n      jump\n        /* \"contracts/GetSchiffyGold.sol\":28504:28744  if (!deductTransferFee) {... */\n    tag_336:\n        /* \"contracts/GetSchiffyGold.sol\":28647:28670  uint256 rTransferAmount */\n      0x00\n        /* \"contracts/GetSchiffyGold.sol\":28678:28697  _getValues(tAmount) */\n      tag_339\n        /* \"contracts/GetSchiffyGold.sol\":28689:28696  tAmount */\n      dup5\n        /* \"contracts/GetSchiffyGold.sol\":28678:28688  _getValues */\n      tag_322\n        /* \"contracts/GetSchiffyGold.sol\":28678:28697  _getValues(tAmount) */\n      jump\t// in\n    tag_339:\n      pop\n        /* \"contracts/GetSchiffyGold.sol\":28645:28697  (,uint256 rTransferAmount,,,,) = _getValues(tAmount) */\n      swap3\n      swap6\n      pop\n        /* \"contracts/GetSchiffyGold.sol\":28711:28733  return rTransferAmount */\n      tag_242\n      swap5\n      pop\n      pop\n      pop\n      pop\n      pop\n      jump\n        /* \"contracts/GetSchiffyGold.sol\":29011:29337  function excludeFromReward(address account) public onlyOwner() {... */\n    tag_143:\n        /* \"contracts/GetSchiffyGold.sol\":14231:14237  _owner */\n      and(sub(shl(0xa0, 0x01), 0x01), sload(0x00))\n        /* \"contracts/GetSchiffyGold.sol\":7273:7283  msg.sender */\n      caller\n        /* \"contracts/GetSchiffyGold.sol\":14231:14253  _owner == _msgSender() */\n      eq\n        /* \"contracts/GetSchiffyGold.sol\":14223:14290  require(_owner == _msgSender(), \"Ownable: caller is not the owner\") */\n      tag_342\n      jumpi\n      mload(0x40)\n      shl(0xe5, 0x461bcd)\n      dup2\n      mstore\n      0x04\n      add\n      tag_232\n      swap1\n      tag_233\n      jump\t// in\n    tag_342:\n      sub(shl(0xa0, 0x01), 0x01)\n        /* \"contracts/GetSchiffyGold.sol\":29093:29113  _isExcluded[account] */\n      dup2\n      and\n      0x00\n      swap1\n      dup2\n      mstore\n        /* \"contracts/GetSchiffyGold.sol\":29093:29104  _isExcluded */\n      0x07\n        /* \"contracts/GetSchiffyGold.sol\":29093:29113  _isExcluded[account] */\n      0x20\n      mstore\n      0x40\n      swap1\n      keccak256\n      sload\n      0xff\n      and\n        /* \"contracts/GetSchiffyGold.sol\":29092:29113  !_isExcluded[account] */\n      iszero\n        /* \"contracts/GetSchiffyGold.sol\":29084:29145  require(!_isExcluded[account], \"Account is already excluded\") */\n      tag_345\n      jumpi\n      mload(0x40)\n      shl(0xe5, 0x461bcd)\n      dup2\n      mstore\n        /* \"#utility.yul\":4986:4988   */\n      0x20\n        /* \"contracts/GetSchiffyGold.sol\":29084:29145  require(!_isExcluded[account], \"Account is already excluded\") */\n      0x04\n      dup3\n      add\n        /* \"#utility.yul\":4968:4989   */\n      mstore\n        /* \"#utility.yul\":5025:5027   */\n      0x1b\n        /* \"#utility.yul\":5005:5023   */\n      0x24\n      dup3\n      add\n        /* \"#utility.yul\":4998:5028   */\n      mstore\n        /* \"#utility.yul\":5064:5093   */\n      0x4163636f756e7420697320616c7265616479206578636c756465640000000000\n        /* \"#utility.yul\":5044:5062   */\n      0x44\n      dup3\n      add\n        /* \"#utility.yul\":5037:5094   */\n      mstore\n        /* \"#utility.yul\":5111:5129   */\n      0x64\n      add\n        /* \"contracts/GetSchiffyGold.sol\":29084:29145  require(!_isExcluded[account], \"Account is already excluded\") */\n      tag_232\n        /* \"#utility.yul\":4784:5135   */\n      jump\n        /* \"contracts/GetSchiffyGold.sol\":29084:29145  require(!_isExcluded[account], \"Account is already excluded\") */\n    tag_345:\n      sub(shl(0xa0, 0x01), 0x01)\n        /* \"contracts/GetSchiffyGold.sol\":29158:29174  _rOwned[account] */\n      dup2\n      and\n        /* \"contracts/GetSchiffyGold.sol\":29177:29178  0 */\n      0x00\n        /* \"contracts/GetSchiffyGold.sol\":29158:29174  _rOwned[account] */\n      swap1\n      dup2\n      mstore\n        /* \"contracts/GetSchiffyGold.sol\":29158:29165  _rOwned */\n      0x03\n        /* \"contracts/GetSchiffyGold.sol\":29158:29174  _rOwned[account] */\n      0x20\n      mstore\n      0x40\n      swap1\n      keccak256\n      sload\n        /* \"contracts/GetSchiffyGold.sol\":29158:29178  _rOwned[account] > 0 */\n      iszero\n        /* \"contracts/GetSchiffyGold.sol\":29155:29261  if(_rOwned[account] > 0) {... */\n      tag_347\n      jumpi\n      sub(shl(0xa0, 0x01), 0x01)\n        /* \"contracts/GetSchiffyGold.sol\":29233:29249  _rOwned[account] */\n      dup2\n      and\n      0x00\n      swap1\n      dup2\n      mstore\n        /* \"contracts/GetSchiffyGold.sol\":29233:29240  _rOwned */\n      0x03\n        /* \"contracts/GetSchiffyGold.sol\":29233:29249  _rOwned[account] */\n      0x20\n      mstore\n      0x40\n      swap1\n      keccak256\n      sload\n        /* \"contracts/GetSchiffyGold.sol\":29213:29250  tokenFromReflection(_rOwned[account]) */\n      tag_348\n      swap1\n        /* \"contracts/GetSchiffyGold.sol\":29213:29232  tokenFromReflection */\n      tag_105\n        /* \"contracts/GetSchiffyGold.sol\":29213:29250  tokenFromReflection(_rOwned[account]) */\n      jump\t// in\n    tag_348:\n      sub(shl(0xa0, 0x01), 0x01)\n        /* \"contracts/GetSchiffyGold.sol\":29194:29210  _tOwned[account] */\n      dup3\n      and\n      0x00\n      swap1\n      dup2\n      mstore\n        /* \"contracts/GetSchiffyGold.sol\":29194:29201  _tOwned */\n      0x04\n        /* \"contracts/GetSchiffyGold.sol\":29194:29210  _tOwned[account] */\n      0x20\n      mstore\n      0x40\n      swap1\n      keccak256\n        /* \"contracts/GetSchiffyGold.sol\":29194:29250  _tOwned[account] = tokenFromReflection(_rOwned[account]) */\n      sstore\n        /* \"contracts/GetSchiffyGold.sol\":29155:29261  if(_rOwned[account] > 0) {... */\n    tag_347:\n      sub(shl(0xa0, 0x01), 0x01)\n        /* \"contracts/GetSchiffyGold.sol\":29270:29290  _isExcluded[account] */\n      and\n      0x00\n      dup2\n      dup2\n      mstore\n        /* \"contracts/GetSchiffyGold.sol\":29270:29281  _isExcluded */\n      0x07\n        /* \"contracts/GetSchiffyGold.sol\":29270:29290  _isExcluded[account] */\n      0x20\n      mstore\n      0x40\n      dup2\n      keccak256\n        /* \"contracts/GetSchiffyGold.sol\":29270:29297  _isExcluded[account] = true */\n      dup1\n      sload\n      not(0xff)\n      and\n        /* \"contracts/GetSchiffyGold.sol\":29293:29297  true */\n      0x01\n        /* \"contracts/GetSchiffyGold.sol\":29270:29297  _isExcluded[account] = true */\n      swap1\n      dup2\n      or\n      swap1\n      swap2\n      sstore\n        /* \"contracts/GetSchiffyGold.sol\":29307:29316  _excluded */\n      0x09\n        /* \"contracts/GetSchiffyGold.sol\":29307:29330  _excluded.push(account) */\n      dup1\n      sload\n      swap2\n      dup3\n      add\n      dup2\n      sstore\n      swap1\n      swap2\n      mstore\n      0x6e1540171b6c0c960b71a7020d9f60077f6af931a8bbf590da0223dacf75c7af\n      add\n      dup1\n      sload\n      not(sub(shl(0xa0, 0x01), 0x01))\n      and\n      swap1\n      swap2\n      or\n      swap1\n      sstore\n        /* \"contracts/GetSchiffyGold.sol\":29011:29337  function excludeFromReward(address account) public onlyOwner() {... */\n      jump\t// out\n        /* \"contracts/GetSchiffyGold.sol\":26244:26439  function balanceOf(address account) public view override returns (uint256) {... */\n    tag_157:\n      sub(shl(0xa0, 0x01), 0x01)\n        /* \"contracts/GetSchiffyGold.sol\":26333:26353  _isExcluded[account] */\n      dup2\n      and\n        /* \"contracts/GetSchiffyGold.sol\":26310:26317  uint256 */\n      0x00\n        /* \"contracts/GetSchiffyGold.sol\":26333:26353  _isExcluded[account] */\n      swap1\n      dup2\n      mstore\n        /* \"contracts/GetSchiffyGold.sol\":26333:26344  _isExcluded */\n      0x07\n        /* \"contracts/GetSchiffyGold.sol\":26333:26353  _isExcluded[account] */\n      0x20\n      mstore\n      0x40\n      dup2\n      keccak256\n      sload\n      0xff\n      and\n        /* \"contracts/GetSchiffyGold.sol\":26329:26378  if (_isExcluded[account]) return _tOwned[account] */\n      iszero\n      tag_353\n      jumpi\n      pop\n      sub(shl(0xa0, 0x01), 0x01)\n        /* \"contracts/GetSchiffyGold.sol\":26362:26378  _tOwned[account] */\n      and\n      0x00\n      swap1\n      dup2\n      mstore\n        /* \"contracts/GetSchiffyGold.sol\":26362:26369  _tOwned */\n      0x04\n        /* \"contracts/GetSchiffyGold.sol\":26362:26378  _tOwned[account] */\n      0x20\n      mstore\n      0x40\n      swap1\n      keccak256\n      sload\n      swap1\n        /* \"contracts/GetSchiffyGold.sol\":26244:26439  function balanceOf(address account) public view override returns (uint256) {... */\n      jump\t// out\n        /* \"contracts/GetSchiffyGold.sol\":26329:26378  if (_isExcluded[account]) return _tOwned[account] */\n    tag_353:\n      sub(shl(0xa0, 0x01), 0x01)\n        /* \"contracts/GetSchiffyGold.sol\":26415:26431  _rOwned[account] */\n      dup3\n      and\n      0x00\n      swap1\n      dup2\n      mstore\n        /* \"contracts/GetSchiffyGold.sol\":26415:26422  _rOwned */\n      0x03\n        /* \"contracts/GetSchiffyGold.sol\":26415:26431  _rOwned[account] */\n      0x20\n      mstore\n      0x40\n      swap1\n      keccak256\n      sload\n        /* \"contracts/GetSchiffyGold.sol\":26395:26432  tokenFromReflection(_rOwned[account]) */\n      tag_242\n      swap1\n        /* \"contracts/GetSchiffyGold.sol\":26395:26414  tokenFromReflection */\n      tag_105\n        /* \"contracts/GetSchiffyGold.sol\":26395:26432  tokenFromReflection(_rOwned[account]) */\n      jump\t// in\n        /* \"contracts/GetSchiffyGold.sol\":14651:14796  function renounceOwnership() public virtual onlyOwner {... */\n    tag_161:\n        /* \"contracts/GetSchiffyGold.sol\":14231:14237  _owner */\n      and(sub(shl(0xa0, 0x01), 0x01), sload(0x00))\n        /* \"contracts/GetSchiffyGold.sol\":7273:7283  msg.sender */\n      caller\n        /* \"contracts/GetSchiffyGold.sol\":14231:14253  _owner == _msgSender() */\n      eq\n        /* \"contracts/GetSchiffyGold.sol\":14223:14290  require(_owner == _msgSender(), \"Ownable: caller is not the owner\") */\n      tag_357\n      jumpi\n      mload(0x40)\n      shl(0xe5, 0x461bcd)\n      dup2\n      mstore\n      0x04\n      add\n      tag_232\n      swap1\n      tag_233\n      jump\t// in\n    tag_357:\n        /* \"contracts/GetSchiffyGold.sol\":14757:14758  0 */\n      0x00\n        /* \"contracts/GetSchiffyGold.sol\":14741:14747  _owner */\n      dup1\n      sload\n        /* \"contracts/GetSchiffyGold.sol\":14720:14760  OwnershipTransferred(_owner, address(0)) */\n      mload(0x40)\n      sub(shl(0xa0, 0x01), 0x01)\n        /* \"contracts/GetSchiffyGold.sol\":14741:14747  _owner */\n      swap1\n      swap2\n      and\n      swap1\n      0x00\n      dup1\n      mload\n      0x20\n      data_9c064737b570a74c2bac5d21056d93ac53115214216cd14d4a0fc9b60be81231\n      dup4\n      codecopy\n      dup2\n      mload\n      swap2\n      mstore\n        /* \"contracts/GetSchiffyGold.sol\":14720:14760  OwnershipTransferred(_owner, address(0)) */\n      swap1\n        /* \"contracts/GetSchiffyGold.sol\":14757:14758  0 */\n      dup4\n      swap1\n        /* \"contracts/GetSchiffyGold.sol\":14720:14760  OwnershipTransferred(_owner, address(0)) */\n      log3\n        /* \"contracts/GetSchiffyGold.sol\":14787:14788  0 */\n      0x00\n        /* \"contracts/GetSchiffyGold.sol\":14770:14789  _owner = address(0) */\n      dup1\n      sload\n      not(sub(shl(0xa0, 0x01), 0x01))\n      and\n      swap1\n      sstore\n        /* \"contracts/GetSchiffyGold.sol\":14651:14796  function renounceOwnership() public virtual onlyOwner {... */\n      jump\t// out\n        /* \"contracts/GetSchiffyGold.sol\":25967:26052  function symbol() public view returns (string memory) {... */\n    tag_177:\n        /* \"contracts/GetSchiffyGold.sol\":26006:26019  string memory */\n      0x60\n        /* \"contracts/GetSchiffyGold.sol\":26038:26045  _symbol */\n      0x0e\n        /* \"contracts/GetSchiffyGold.sol\":26031:26045  return _symbol */\n      dup1\n      sload\n      tag_236\n      swap1\n      tag_237\n      jump\t// in\n        /* \"contracts/GetSchiffyGold.sol\":27461:27726  function decreaseAllowance(address spender, uint256 subtractedValue) public virtual returns (bool) {... */\n    tag_182:\n        /* \"contracts/GetSchiffyGold.sol\":27554:27558  bool */\n      0x00\n        /* \"contracts/GetSchiffyGold.sol\":27570:27698  _approve(_msgSender(), spender, _allowances[_msgSender()][spender].sub(subtractedValue, \"GOLD: decreased allowance below zero\")) */\n      tag_243\n        /* \"contracts/GetSchiffyGold.sol\":7273:7283  msg.sender */\n      caller\n        /* \"contracts/GetSchiffyGold.sol\":27593:27600  spender */\n      dup5\n        /* \"contracts/GetSchiffyGold.sol\":27602:27697  _allowances[_msgSender()][spender].sub(subtractedValue, \"GOLD: decreased allowance below zero\") */\n      tag_269\n        /* \"contracts/GetSchiffyGold.sol\":27641:27656  subtractedValue */\n      dup6\n        /* \"contracts/GetSchiffyGold.sol\":27602:27697  _allowances[_msgSender()][spender].sub(subtractedValue, \"GOLD: decreased allowance below zero\") */\n      mload(0x40)\n      dup1\n      0x60\n      add\n      0x40\n      mstore\n      dup1\n      0x24\n      dup2\n      mstore\n      0x20\n      add\n      data_6d96cc426a305ee3332fdd52990f80ebac5803c48a5ab67b22562ed47b5013f2\n      0x24\n      swap2\n      codecopy\n        /* \"contracts/GetSchiffyGold.sol\":7273:7283  msg.sender */\n      caller\n        /* \"contracts/GetSchiffyGold.sol\":27602:27627  _allowances[_msgSender()] */\n      0x00\n      swap1\n      dup2\n      mstore\n        /* \"contracts/GetSchiffyGold.sol\":27602:27613  _allowances */\n      0x05\n        /* \"contracts/GetSchiffyGold.sol\":27602:27627  _allowances[_msgSender()] */\n      0x20\n      swap1\n      dup2\n      mstore\n      0x40\n      dup1\n      dup4\n      keccak256\n      sub(shl(0xa0, 0x01), 0x01)\n        /* \"contracts/GetSchiffyGold.sol\":27602:27636  _allowances[_msgSender()][spender] */\n      dup14\n      and\n      dup5\n      mstore\n      swap1\n      swap2\n      mstore\n      swap1\n      keccak256\n      sload\n      swap2\n      swap1\n        /* \"contracts/GetSchiffyGold.sol\":27602:27640  _allowances[_msgSender()][spender].sub */\n      tag_271\n        /* \"contracts/GetSchiffyGold.sol\":27602:27697  _allowances[_msgSender()][spender].sub(subtractedValue, \"GOLD: decreased allowance below zero\") */\n      jump\t// in\n        /* \"contracts/GetSchiffyGold.sol\":15645:15945  function unlock() public virtual {... */\n    tag_186:\n        /* \"contracts/GetSchiffyGold.sol\":15696:15710  _previousOwner */\n      and(sub(shl(0xa0, 0x01), 0x01), sload(0x01))\n        /* \"contracts/GetSchiffyGold.sol\":15714:15724  msg.sender */\n      caller\n        /* \"contracts/GetSchiffyGold.sol\":15696:15724  _previousOwner == msg.sender */\n      eq\n        /* \"contracts/GetSchiffyGold.sol\":15688:15764  require(_previousOwner == msg.sender, \"You don't have permission to unlock\") */\n      tag_374\n      jumpi\n      mload(0x40)\n      shl(0xe5, 0x461bcd)\n      dup2\n      mstore\n        /* \"#utility.yul\":9677:9679   */\n      0x20\n        /* \"contracts/GetSchiffyGold.sol\":15688:15764  require(_previousOwner == msg.sender, \"You don't have permission to unlock\") */\n      0x04\n      dup3\n      add\n        /* \"#utility.yul\":9659:9680   */\n      mstore\n        /* \"#utility.yul\":9716:9718   */\n      0x23\n        /* \"#utility.yul\":9696:9714   */\n      0x24\n      dup3\n      add\n        /* \"#utility.yul\":9689:9719   */\n      mstore\n        /* \"#utility.yul\":9755:9789   */\n      0x596f7520646f6e27742068617665207065726d697373696f6e20746f20756e6c\n        /* \"#utility.yul\":9735:9753   */\n      0x44\n      dup3\n      add\n        /* \"#utility.yul\":9728:9790   */\n      mstore\n      shl(0xe8, 0x6f636b)\n        /* \"#utility.yul\":9806:9824   */\n      0x64\n      dup3\n      add\n        /* \"#utility.yul\":9799:9832   */\n      mstore\n        /* \"#utility.yul\":9849:9868   */\n      0x84\n      add\n        /* \"contracts/GetSchiffyGold.sol\":15688:15764  require(_previousOwner == msg.sender, \"You don't have permission to unlock\") */\n      tag_232\n        /* \"#utility.yul\":9475:9874   */\n      jump\n        /* \"contracts/GetSchiffyGold.sol\":15688:15764  require(_previousOwner == msg.sender, \"You don't have permission to unlock\") */\n    tag_374:\n        /* \"contracts/GetSchiffyGold.sol\":15800:15809  _lockTime */\n      sload(0x02)\n        /* \"contracts/GetSchiffyGold.sol\":15782:15797  block.timestamp */\n      timestamp\n        /* \"contracts/GetSchiffyGold.sol\":15782:15809  block.timestamp > _lockTime */\n      gt\n        /* \"contracts/GetSchiffyGold.sol\":15774:15846  require(block.timestamp > _lockTime , \"Contract is locked until 7 days\") */\n      tag_377\n      jumpi\n      mload(0x40)\n      shl(0xe5, 0x461bcd)\n      dup2\n      mstore\n        /* \"#utility.yul\":8904:8906   */\n      0x20\n        /* \"contracts/GetSchiffyGold.sol\":15774:15846  require(block.timestamp > _lockTime , \"Contract is locked until 7 days\") */\n      0x04\n      dup3\n      add\n        /* \"#utility.yul\":8886:8907   */\n      mstore\n        /* \"#utility.yul\":8943:8945   */\n      0x1f\n        /* \"#utility.yul\":8923:8941   */\n      0x24\n      dup3\n      add\n        /* \"#utility.yul\":8916:8946   */\n      mstore\n        /* \"#utility.yul\":8982:9015   */\n      0x436f6e7472616374206973206c6f636b656420756e74696c2037206461797300\n        /* \"#utility.yul\":8962:8980   */\n      0x44\n      dup3\n      add\n        /* \"#utility.yul\":8955:9016   */\n      mstore\n        /* \"#utility.yul\":9033:9051   */\n      0x64\n      add\n        /* \"contracts/GetSchiffyGold.sol\":15774:15846  require(block.timestamp > _lockTime , \"Contract is locked until 7 days\") */\n      tag_232\n        /* \"#utility.yul\":8702:9057   */\n      jump\n        /* \"contracts/GetSchiffyGold.sol\":15774:15846  require(block.timestamp > _lockTime , \"Contract is locked until 7 days\") */\n    tag_377:\n        /* \"contracts/GetSchiffyGold.sol\":15890:15904  _previousOwner */\n      sload(0x01)\n      0x00\n        /* \"contracts/GetSchiffyGold.sol\":15882:15888  _owner */\n      dup1\n      sload\n        /* \"contracts/GetSchiffyGold.sol\":15861:15905  OwnershipTransferred(_owner, _previousOwner) */\n      mload(0x40)\n      sub(shl(0xa0, 0x01), 0x01)\n        /* \"contracts/GetSchiffyGold.sol\":15890:15904  _previousOwner */\n      swap4\n      dup5\n      and\n      swap4\n        /* \"contracts/GetSchiffyGold.sol\":15882:15888  _owner */\n      swap1\n      swap2\n      and\n      swap2\n      0x00\n      dup1\n      mload\n      0x20\n      data_9c064737b570a74c2bac5d21056d93ac53115214216cd14d4a0fc9b60be81231\n      dup4\n      codecopy\n      dup2\n      mload\n      swap2\n      mstore\n        /* \"contracts/GetSchiffyGold.sol\":15861:15905  OwnershipTransferred(_owner, _previousOwner) */\n      swap2\n      log3\n        /* \"contracts/GetSchiffyGold.sol\":15924:15938  _previousOwner */\n      sload(0x01)\n      0x00\n        /* \"contracts/GetSchiffyGold.sol\":15915:15938  _owner = _previousOwner */\n      dup1\n      sload\n      not(sub(shl(0xa0, 0x01), 0x01))\n      and\n      sub(shl(0xa0, 0x01), 0x01)\n        /* \"contracts/GetSchiffyGold.sol\":15924:15938  _previousOwner */\n      swap1\n      swap3\n      and\n        /* \"contracts/GetSchiffyGold.sol\":15915:15938  _owner = _previousOwner */\n      swap2\n      swap1\n      swap2\n      or\n      swap1\n      sstore\n        /* \"contracts/GetSchiffyGold.sol\":15645:15945  function unlock() public virtual {... */\n      jump\t// out\n        /* \"contracts/GetSchiffyGold.sol\":26445:26609  function transfer(address recipient, uint256 amount) public override returns (bool) {... */\n    tag_190:\n        /* \"contracts/GetSchiffyGold.sol\":26523:26527  bool */\n      0x00\n        /* \"contracts/GetSchiffyGold.sol\":26539:26581  _transfer(_msgSender(), recipient, amount) */\n      tag_243\n        /* \"contracts/GetSchiffyGold.sol\":7273:7283  msg.sender */\n      caller\n        /* \"contracts/GetSchiffyGold.sol\":26563:26572  recipient */\n      dup5\n        /* \"contracts/GetSchiffyGold.sol\":26574:26580  amount */\n      dup5\n        /* \"contracts/GetSchiffyGold.sol\":26539:26548  _transfer */\n      tag_266\n        /* \"contracts/GetSchiffyGold.sol\":26539:26581  _transfer(_msgSender(), recipient, amount) */\n      jump\t// in\n        /* \"contracts/GetSchiffyGold.sol\":30810:30929  function setPlayToEarnFeePercent(uint256 liquidityFee) external onlyOwner() {... */\n    tag_195:\n        /* \"contracts/GetSchiffyGold.sol\":14231:14237  _owner */\n      and(sub(shl(0xa0, 0x01), 0x01), sload(0x00))\n        /* \"contracts/GetSchiffyGold.sol\":7273:7283  msg.sender */\n      caller\n        /* \"contracts/GetSchiffyGold.sol\":14231:14253  _owner == _msgSender() */\n      eq\n        /* \"contracts/GetSchiffyGold.sol\":14223:14290  require(_owner == _msgSender(), \"Ownable: caller is not the owner\") */\n      tag_385\n      jumpi\n      mload(0x40)\n      shl(0xe5, 0x461bcd)\n      dup2\n      mstore\n      0x04\n      add\n      tag_232\n      swap1\n      tag_233\n      jump\t// in\n    tag_385:\n        /* \"contracts/GetSchiffyGold.sol\":30896:30907  _playToEarn */\n      0x10\n        /* \"contracts/GetSchiffyGold.sol\":30896:30922  _playToEarn = liquidityFee */\n      sstore\n        /* \"contracts/GetSchiffyGold.sol\":30810:30929  function setPlayToEarnFeePercent(uint256 liquidityFee) external onlyOwner() {... */\n      jump\t// out\n        /* \"contracts/GetSchiffyGold.sol\":30938:31074  function setMaxTxPercent(uint256 maxTxPercent) external onlyOwner() {... */\n    tag_203:\n        /* \"contracts/GetSchiffyGold.sol\":14231:14237  _owner */\n      and(sub(shl(0xa0, 0x01), 0x01), sload(0x00))\n        /* \"contracts/GetSchiffyGold.sol\":7273:7283  msg.sender */\n      caller\n        /* \"contracts/GetSchiffyGold.sol\":14231:14253  _owner == _msgSender() */\n      eq\n        /* \"contracts/GetSchiffyGold.sol\":14223:14290  require(_owner == _msgSender(), \"Ownable: caller is not the owner\") */\n      tag_391\n      jumpi\n      mload(0x40)\n      shl(0xe5, 0x461bcd)\n      dup2\n      mstore\n      0x04\n      add\n      tag_232\n      swap1\n      tag_233\n      jump\t// in\n    tag_391:\n        /* \"contracts/GetSchiffyGold.sol\":31031:31067  _tTotal.mul(maxTxPercent).div(10**2) */\n      tag_394\n        /* \"contracts/GetSchiffyGold.sol\":31061:31066  10**2 */\n      0x64\n        /* \"contracts/GetSchiffyGold.sol\":31031:31056  _tTotal.mul(maxTxPercent) */\n      tag_395\n        /* \"contracts/GetSchiffyGold.sol\":31043:31055  maxTxPercent */\n      dup4\n        /* \"contracts/GetSchiffyGold.sol\":31031:31038  _tTotal */\n      sload(0x0a)\n        /* \"contracts/GetSchiffyGold.sol\":31031:31042  _tTotal.mul */\n      tag_226\n      swap1\n        /* \"contracts/GetSchiffyGold.sol\":31031:31056  _tTotal.mul(maxTxPercent) */\n      swap2\n      swap1\n      0xffffffff\n      and\n      jump\t// in\n    tag_395:\n        /* \"contracts/GetSchiffyGold.sol\":31031:31060  _tTotal.mul(maxTxPercent).div */\n      swap1\n      tag_227\n        /* \"contracts/GetSchiffyGold.sol\":31031:31067  _tTotal.mul(maxTxPercent).div(10**2) */\n      jump\t// in\n    tag_394:\n        /* \"contracts/GetSchiffyGold.sol\":31016:31028  _maxTxAmount */\n      0x15\n        /* \"contracts/GetSchiffyGold.sol\":31016:31067  _maxTxAmount = _tTotal.mul(maxTxPercent).div(10**2) */\n      sstore\n      pop\n        /* \"contracts/GetSchiffyGold.sol\":30938:31074  function setMaxTxPercent(uint256 maxTxPercent) external onlyOwner() {... */\n      jump\t// out\n        /* \"contracts/GetSchiffyGold.sol\":38426:38539  function excludeFromMaxTx(address account) public onlyOwner {... */\n    tag_207:\n        /* \"contracts/GetSchiffyGold.sol\":14231:14237  _owner */\n      and(sub(shl(0xa0, 0x01), 0x01), sload(0x00))\n        /* \"contracts/GetSchiffyGold.sol\":7273:7283  msg.sender */\n      caller\n        /* \"contracts/GetSchiffyGold.sol\":14231:14253  _owner == _msgSender() */\n      eq\n        /* \"contracts/GetSchiffyGold.sol\":14223:14290  require(_owner == _msgSender(), \"Ownable: caller is not the owner\") */\n      tag_398\n      jumpi\n      mload(0x40)\n      shl(0xe5, 0x461bcd)\n      dup2\n      mstore\n      0x04\n      add\n      tag_232\n      swap1\n      tag_233\n      jump\t// in\n    tag_398:\n      sub(shl(0xa0, 0x01), 0x01)\n        /* \"contracts/GetSchiffyGold.sol\":38496:38525  _isExcludedFromMaxTx[account] */\n      and\n      0x00\n      swap1\n      dup2\n      mstore\n        /* \"contracts/GetSchiffyGold.sol\":38496:38516  _isExcludedFromMaxTx */\n      0x08\n        /* \"contracts/GetSchiffyGold.sol\":38496:38525  _isExcludedFromMaxTx[account] */\n      0x20\n      mstore\n      0x40\n      swap1\n      keccak256\n        /* \"contracts/GetSchiffyGold.sol\":38496:38532  _isExcludedFromMaxTx[account] = true */\n      dup1\n      sload\n      not(0xff)\n      and\n        /* \"contracts/GetSchiffyGold.sol\":38528:38532  true */\n      0x01\n        /* \"contracts/GetSchiffyGold.sol\":38496:38532  _isExcludedFromMaxTx[account] = true */\n      or\n      swap1\n      sstore\n        /* \"contracts/GetSchiffyGold.sol\":38426:38539  function excludeFromMaxTx(address account) public onlyOwner {... */\n      jump\t// out\n        /* \"contracts/GetSchiffyGold.sol\":15351:15572  function lock(uint256 time) public virtual onlyOwner {... */\n    tag_211:\n        /* \"contracts/GetSchiffyGold.sol\":14231:14237  _owner */\n      and(sub(shl(0xa0, 0x01), 0x01), sload(0x00))\n        /* \"contracts/GetSchiffyGold.sol\":7273:7283  msg.sender */\n      caller\n        /* \"contracts/GetSchiffyGold.sol\":14231:14253  _owner == _msgSender() */\n      eq\n        /* \"contracts/GetSchiffyGold.sol\":14223:14290  require(_owner == _msgSender(), \"Ownable: caller is not the owner\") */\n      tag_403\n      jumpi\n      mload(0x40)\n      shl(0xe5, 0x461bcd)\n      dup2\n      mstore\n      0x04\n      add\n      tag_232\n      swap1\n      tag_233\n      jump\t// in\n    tag_403:\n        /* \"contracts/GetSchiffyGold.sol\":15431:15437  _owner */\n      0x00\n      dup1\n      sload\n      0x01\n        /* \"contracts/GetSchiffyGold.sol\":15414:15437  _previousOwner = _owner */\n      dup1\n      sload\n      not(sub(shl(0xa0, 0x01), 0x01))\n      swap1\n      dup2\n      and\n      sub(shl(0xa0, 0x01), 0x01)\n        /* \"contracts/GetSchiffyGold.sol\":15431:15437  _owner */\n      dup5\n      and\n        /* \"contracts/GetSchiffyGold.sol\":15414:15437  _previousOwner = _owner */\n      or\n      swap1\n      swap2\n      sstore\n        /* \"contracts/GetSchiffyGold.sol\":15447:15466  _owner = address(0) */\n      and\n      swap1\n      sstore\n        /* \"contracts/GetSchiffyGold.sol\":15488:15510  block.timestamp + time */\n      tag_406\n        /* \"contracts/GetSchiffyGold.sol\":15506:15510  time */\n      dup2\n        /* \"contracts/GetSchiffyGold.sol\":15488:15503  block.timestamp */\n      timestamp\n        /* \"contracts/GetSchiffyGold.sol\":15488:15510  block.timestamp + time */\n      tag_407\n      jump\t// in\n    tag_406:\n        /* \"contracts/GetSchiffyGold.sol\":15476:15485  _lockTime */\n      0x02\n        /* \"contracts/GetSchiffyGold.sol\":15476:15510  _lockTime = block.timestamp + time */\n      sstore\n        /* \"contracts/GetSchiffyGold.sol\":15562:15563  0 */\n      0x00\n        /* \"contracts/GetSchiffyGold.sol\":15546:15552  _owner */\n      dup1\n      sload\n        /* \"contracts/GetSchiffyGold.sol\":15525:15565  OwnershipTransferred(_owner, address(0)) */\n      mload(0x40)\n      sub(shl(0xa0, 0x01), 0x01)\n        /* \"contracts/GetSchiffyGold.sol\":15546:15552  _owner */\n      swap1\n      swap2\n      and\n      swap1\n      0x00\n      dup1\n      mload\n      0x20\n      data_9c064737b570a74c2bac5d21056d93ac53115214216cd14d4a0fc9b60be81231\n      dup4\n      codecopy\n      dup2\n      mload\n      swap2\n      mstore\n        /* \"contracts/GetSchiffyGold.sol\":15525:15565  OwnershipTransferred(_owner, address(0)) */\n      swap1\n        /* \"contracts/GetSchiffyGold.sol\":15562:15563  0 */\n      dup4\n      swap1\n        /* \"contracts/GetSchiffyGold.sol\":15525:15565  OwnershipTransferred(_owner, address(0)) */\n      log3\n        /* \"contracts/GetSchiffyGold.sol\":15351:15572  function lock(uint256 time) public virtual onlyOwner {... */\n      pop\n      jump\t// out\n        /* \"contracts/GetSchiffyGold.sol\":30586:30694  function includeInFee(address account) public onlyOwner {... */\n    tag_221:\n        /* \"contracts/GetSchiffyGold.sol\":14231:14237  _owner */\n      and(sub(shl(0xa0, 0x01), 0x01), sload(0x00))\n        /* \"contracts/GetSchiffyGold.sol\":7273:7283  msg.sender */\n      caller\n        /* \"contracts/GetSchiffyGold.sol\":14231:14253  _owner == _msgSender() */\n      eq\n        /* \"contracts/GetSchiffyGold.sol\":14223:14290  require(_owner == _msgSender(), \"Ownable: caller is not the owner\") */\n      tag_411\n      jumpi\n      mload(0x40)\n      shl(0xe5, 0x461bcd)\n      dup2\n      mstore\n      0x04\n      add\n      tag_232\n      swap1\n      tag_233\n      jump\t// in\n    tag_411:\n      sub(shl(0xa0, 0x01), 0x01)\n        /* \"contracts/GetSchiffyGold.sol\":30652:30679  _isExcludedFromFee[account] */\n      and\n        /* \"contracts/GetSchiffyGold.sol\":30682:30687  false */\n      0x00\n        /* \"contracts/GetSchiffyGold.sol\":30652:30679  _isExcludedFromFee[account] */\n      swap1\n      dup2\n      mstore\n        /* \"contracts/GetSchiffyGold.sol\":30652:30670  _isExcludedFromFee */\n      0x06\n        /* \"contracts/GetSchiffyGold.sol\":30652:30679  _isExcludedFromFee[account] */\n      0x20\n      mstore\n      0x40\n      swap1\n      keccak256\n        /* \"contracts/GetSchiffyGold.sol\":30652:30687  _isExcludedFromFee[account] = false */\n      dup1\n      sload\n      not(0xff)\n      and\n      swap1\n      sstore\n        /* \"contracts/GetSchiffyGold.sol\":30586:30694  function includeInFee(address account) public onlyOwner {... */\n      jump\t// out\n        /* \"contracts/GetSchiffyGold.sol\":14945:15185  function transferOwnership(address newOwner) public virtual onlyOwner {... */\n    tag_225:\n        /* \"contracts/GetSchiffyGold.sol\":14231:14237  _owner */\n      and(sub(shl(0xa0, 0x01), 0x01), sload(0x00))\n        /* \"contracts/GetSchiffyGold.sol\":7273:7283  msg.sender */\n      caller\n        /* \"contracts/GetSchiffyGold.sol\":14231:14253  _owner == _msgSender() */\n      eq\n        /* \"contracts/GetSchiffyGold.sol\":14223:14290  require(_owner == _msgSender(), \"Ownable: caller is not the owner\") */\n      tag_416\n      jumpi\n      mload(0x40)\n      shl(0xe5, 0x461bcd)\n      dup2\n      mstore\n      0x04\n      add\n      tag_232\n      swap1\n      tag_233\n      jump\t// in\n    tag_416:\n      sub(shl(0xa0, 0x01), 0x01)\n        /* \"contracts/GetSchiffyGold.sol\":15033:15055  newOwner != address(0) */\n      dup2\n      and\n        /* \"contracts/GetSchiffyGold.sol\":15025:15098  require(newOwner != address(0), \"Ownable: new owner is the zero address\") */\n      tag_419\n      jumpi\n      mload(0x40)\n      shl(0xe5, 0x461bcd)\n      dup2\n      mstore\n        /* \"#utility.yul\":3874:3876   */\n      0x20\n        /* \"contracts/GetSchiffyGold.sol\":15025:15098  require(newOwner != address(0), \"Ownable: new owner is the zero address\") */\n      0x04\n      dup3\n      add\n        /* \"#utility.yul\":3856:3877   */\n      mstore\n        /* \"#utility.yul\":3913:3915   */\n      0x26\n        /* \"#utility.yul\":3893:3911   */\n      0x24\n      dup3\n      add\n        /* \"#utility.yul\":3886:3916   */\n      mstore\n        /* \"#utility.yul\":3952:3986   */\n      0x4f776e61626c653a206e6577206f776e657220697320746865207a65726f2061\n        /* \"#utility.yul\":3932:3950   */\n      0x44\n      dup3\n      add\n        /* \"#utility.yul\":3925:3987   */\n      mstore\n      shl(0xd0, 0x646472657373)\n        /* \"#utility.yul\":4003:4021   */\n      0x64\n      dup3\n      add\n        /* \"#utility.yul\":3996:4032   */\n      mstore\n        /* \"#utility.yul\":4049:4068   */\n      0x84\n      add\n        /* \"contracts/GetSchiffyGold.sol\":15025:15098  require(newOwner != address(0), \"Ownable: new owner is the zero address\") */\n      tag_232\n        /* \"#utility.yul\":3672:4074   */\n      jump\n        /* \"contracts/GetSchiffyGold.sol\":15025:15098  require(newOwner != address(0), \"Ownable: new owner is the zero address\") */\n    tag_419:\n        /* \"contracts/GetSchiffyGold.sol\":15134:15140  _owner */\n      0x00\n      dup1\n      sload\n        /* \"contracts/GetSchiffyGold.sol\":15113:15151  OwnershipTransferred(_owner, newOwner) */\n      mload(0x40)\n      sub(shl(0xa0, 0x01), 0x01)\n      dup1\n      dup6\n      and\n      swap4\n        /* \"contracts/GetSchiffyGold.sol\":15134:15140  _owner */\n      swap3\n      and\n      swap2\n      0x00\n      dup1\n      mload\n      0x20\n      data_9c064737b570a74c2bac5d21056d93ac53115214216cd14d4a0fc9b60be81231\n      dup4\n      codecopy\n      dup2\n      mload\n      swap2\n      mstore\n        /* \"contracts/GetSchiffyGold.sol\":15113:15151  OwnershipTransferred(_owner, newOwner) */\n      swap2\n      log3\n        /* \"contracts/GetSchiffyGold.sol\":15161:15167  _owner */\n      0x00\n        /* \"contracts/GetSchiffyGold.sol\":15161:15178  _owner = newOwner */\n      dup1\n      sload\n      not(sub(shl(0xa0, 0x01), 0x01))\n      and\n      sub(shl(0xa0, 0x01), 0x01)\n      swap3\n      swap1\n      swap3\n      and\n      swap2\n      swap1\n      swap2\n      or\n      swap1\n      sstore\n        /* \"contracts/GetSchiffyGold.sol\":14945:15185  function transferOwnership(address newOwner) public virtual onlyOwner {... */\n      jump\t// out\n        /* \"contracts/GetSchiffyGold.sol\":4124:4583  function mul(uint256 a, uint256 b) internal pure returns (uint256) {... */\n    tag_226:\n        /* \"contracts/GetSchiffyGold.sol\":4182:4189  uint256 */\n      0x00\n        /* \"contracts/GetSchiffyGold.sol\":4423:4429  a == 0 */\n      dup3\n        /* \"contracts/GetSchiffyGold.sol\":4419:4464  if (a == 0) {... */\n      tag_423\n      jumpi\n      pop\n        /* \"contracts/GetSchiffyGold.sol\":4452:4453  0 */\n      0x00\n        /* \"contracts/GetSchiffyGold.sol\":4445:4453  return 0 */\n      jump(tag_242)\n        /* \"contracts/GetSchiffyGold.sol\":4419:4464  if (a == 0) {... */\n    tag_423:\n        /* \"contracts/GetSchiffyGold.sol\":4474:4483  uint256 c */\n      0x00\n        /* \"contracts/GetSchiffyGold.sol\":4486:4491  a * b */\n      tag_424\n        /* \"contracts/GetSchiffyGold.sol\":4490:4491  b */\n      dup4\n        /* \"contracts/GetSchiffyGold.sol\":4486:4487  a */\n      dup6\n        /* \"contracts/GetSchiffyGold.sol\":4486:4491  a * b */\n      tag_425\n      jump\t// in\n    tag_424:\n        /* \"contracts/GetSchiffyGold.sol\":4474:4491  uint256 c = a * b */\n      swap1\n      pop\n        /* \"contracts/GetSchiffyGold.sol\":4518:4519  b */\n      dup3\n        /* \"contracts/GetSchiffyGold.sol\":4509:4514  c / a */\n      tag_426\n        /* \"contracts/GetSchiffyGold.sol\":4513:4514  a */\n      dup6\n        /* \"contracts/GetSchiffyGold.sol\":4474:4491  uint256 c = a * b */\n      dup4\n        /* \"contracts/GetSchiffyGold.sol\":4509:4514  c / a */\n      tag_427\n      jump\t// in\n    tag_426:\n        /* \"contracts/GetSchiffyGold.sol\":4509:4519  c / a == b */\n      eq\n        /* \"contracts/GetSchiffyGold.sol\":4501:4557  require(c / a == b, \"SafeMath: multiplication overflow\") */\n      tag_278\n      jumpi\n      mload(0x40)\n      shl(0xe5, 0x461bcd)\n      dup2\n      mstore\n        /* \"#utility.yul\":6914:6916   */\n      0x20\n        /* \"contracts/GetSchiffyGold.sol\":4501:4557  require(c / a == b, \"SafeMath: multiplication overflow\") */\n      0x04\n      dup3\n      add\n        /* \"#utility.yul\":6896:6917   */\n      mstore\n        /* \"#utility.yul\":6953:6955   */\n      0x21\n        /* \"#utility.yul\":6933:6951   */\n      0x24\n      dup3\n      add\n        /* \"#utility.yul\":6926:6956   */\n      mstore\n        /* \"#utility.yul\":6992:7026   */\n      0x536166654d6174683a206d756c7469706c69636174696f6e206f766572666c6f\n        /* \"#utility.yul\":6972:6990   */\n      0x44\n      dup3\n      add\n        /* \"#utility.yul\":6965:7027   */\n      mstore\n      shl(0xf8, 0x77)\n        /* \"#utility.yul\":7043:7061   */\n      0x64\n      dup3\n      add\n        /* \"#utility.yul\":7036:7067   */\n      mstore\n        /* \"#utility.yul\":7084:7103   */\n      0x84\n      add\n        /* \"contracts/GetSchiffyGold.sol\":4501:4557  require(c / a == b, \"SafeMath: multiplication overflow\") */\n      tag_232\n        /* \"#utility.yul\":6712:7109   */\n      jump\n        /* \"contracts/GetSchiffyGold.sol\":5045:5175  function div(uint256 a, uint256 b) internal pure returns (uint256) {... */\n    tag_227:\n        /* \"contracts/GetSchiffyGold.sol\":5103:5110  uint256 */\n      0x00\n        /* \"contracts/GetSchiffyGold.sol\":5129:5168  div(a, b, \"SafeMath: division by zero\") */\n      tag_278\n        /* \"contracts/GetSchiffyGold.sol\":5133:5134  a */\n      dup4\n        /* \"contracts/GetSchiffyGold.sol\":5136:5137  b */\n      dup4\n        /* \"contracts/GetSchiffyGold.sol\":5129:5168  div(a, b, \"SafeMath: division by zero\") */\n      mload(0x40)\n      dup1\n      0x40\n      add\n      0x40\n      mstore\n      dup1\n      0x1a\n      dup2\n      mstore\n      0x20\n      add\n      0x536166654d6174683a206469766973696f6e206279207a65726f000000000000\n      dup2\n      mstore\n      pop\n        /* \"contracts/GetSchiffyGold.sol\":5129:5132  div */\n      tag_433\n        /* \"contracts/GetSchiffyGold.sol\":5129:5168  div(a, b, \"SafeMath: division by zero\") */\n      jump\t// in\n        /* \"contracts/GetSchiffyGold.sol\":34683:35012  function _approve(address owner, address spender, uint256 amount) private {... */\n    tag_245:\n      sub(shl(0xa0, 0x01), 0x01)\n        /* \"contracts/GetSchiffyGold.sol\":34775:34794  owner != address(0) */\n      dup4\n      and\n        /* \"contracts/GetSchiffyGold.sol\":34767:34834  require(owner != address(0), \"GOLD: approve from the zero address\") */\n      tag_436\n      jumpi\n      mload(0x40)\n      shl(0xe5, 0x461bcd)\n      dup2\n      mstore\n        /* \"#utility.yul\":5342:5344   */\n      0x20\n        /* \"contracts/GetSchiffyGold.sol\":34767:34834  require(owner != address(0), \"GOLD: approve from the zero address\") */\n      0x04\n      dup3\n      add\n        /* \"#utility.yul\":5324:5345   */\n      mstore\n        /* \"#utility.yul\":5381:5383   */\n      0x23\n        /* \"#utility.yul\":5361:5379   */\n      0x24\n      dup3\n      add\n        /* \"#utility.yul\":5354:5384   */\n      mstore\n        /* \"#utility.yul\":5420:5454   */\n      0x474f4c443a20617070726f76652066726f6d20746865207a65726f2061646472\n        /* \"#utility.yul\":5400:5418   */\n      0x44\n      dup3\n      add\n        /* \"#utility.yul\":5393:5455   */\n      mstore\n      shl(0xe8, 0x657373)\n        /* \"#utility.yul\":5471:5489   */\n      0x64\n      dup3\n      add\n        /* \"#utility.yul\":5464:5497   */\n      mstore\n        /* \"#utility.yul\":5514:5533   */\n      0x84\n      add\n        /* \"contracts/GetSchiffyGold.sol\":34767:34834  require(owner != address(0), \"GOLD: approve from the zero address\") */\n      tag_232\n        /* \"#utility.yul\":5140:5539   */\n      jump\n        /* \"contracts/GetSchiffyGold.sol\":34767:34834  require(owner != address(0), \"GOLD: approve from the zero address\") */\n    tag_436:\n      sub(shl(0xa0, 0x01), 0x01)\n        /* \"contracts/GetSchiffyGold.sol\":34852:34873  spender != address(0) */\n      dup3\n      and\n        /* \"contracts/GetSchiffyGold.sol\":34844:34911  require(spender != address(0), \"GOLD: approve to the zero address\") */\n      tag_439\n      jumpi\n      mload(0x40)\n      shl(0xe5, 0x461bcd)\n      dup2\n      mstore\n        /* \"#utility.yul\":8502:8504   */\n      0x20\n        /* \"contracts/GetSchiffyGold.sol\":34844:34911  require(spender != address(0), \"GOLD: approve to the zero address\") */\n      0x04\n      dup3\n      add\n        /* \"#utility.yul\":8484:8505   */\n      mstore\n        /* \"#utility.yul\":8541:8543   */\n      0x21\n        /* \"#utility.yul\":8521:8539   */\n      0x24\n      dup3\n      add\n        /* \"#utility.yul\":8514:8544   */\n      mstore\n        /* \"#utility.yul\":8580:8614   */\n      0x474f4c443a20617070726f766520746f20746865207a65726f20616464726573\n        /* \"#utility.yul\":8560:8578   */\n      0x44\n      dup3\n      add\n        /* \"#utility.yul\":8553:8615   */\n      mstore\n      shl(0xf8, 0x73)\n        /* \"#utility.yul\":8631:8649   */\n      0x64\n      dup3\n      add\n        /* \"#utility.yul\":8624:8655   */\n      mstore\n        /* \"#utility.yul\":8672:8691   */\n      0x84\n      add\n        /* \"contracts/GetSchiffyGold.sol\":34844:34911  require(spender != address(0), \"GOLD: approve to the zero address\") */\n      tag_232\n        /* \"#utility.yul\":8300:8697   */\n      jump\n        /* \"contracts/GetSchiffyGold.sol\":34844:34911  require(spender != address(0), \"GOLD: approve to the zero address\") */\n    tag_439:\n      sub(shl(0xa0, 0x01), 0x01)\n        /* \"contracts/GetSchiffyGold.sol\":34922:34940  _allowances[owner] */\n      dup4\n      dup2\n      and\n      0x00\n      dup2\n      dup2\n      mstore\n        /* \"contracts/GetSchiffyGold.sol\":34922:34933  _allowances */\n      0x05\n        /* \"contracts/GetSchiffyGold.sol\":34922:34940  _allowances[owner] */\n      0x20\n      swap1\n      dup2\n      mstore\n      0x40\n      dup1\n      dup4\n      keccak256\n        /* \"contracts/GetSchiffyGold.sol\":34922:34949  _allowances[owner][spender] */\n      swap5\n      dup8\n      and\n      dup1\n      dup5\n      mstore\n      swap5\n      dup3\n      mstore\n      swap2\n      dup3\n      swap1\n      keccak256\n        /* \"contracts/GetSchiffyGold.sol\":34922:34958  _allowances[owner][spender] = amount */\n      dup6\n      swap1\n      sstore\n        /* \"contracts/GetSchiffyGold.sol\":34973:35005  Approval(owner, spender, amount) */\n      swap1\n      mload\n        /* \"#utility.yul\":10025:10050   */\n      dup5\n      dup2\n      mstore\n        /* \"contracts/GetSchiffyGold.sol\":34973:35005  Approval(owner, spender, amount) */\n      0x8c5be1e5ebec7d5bd14f71427d1e84f3dd0314c0f7b2291e5b200ac8c7c3b925\n      swap2\n        /* \"#utility.yul\":9998:10016   */\n      add\n        /* \"contracts/GetSchiffyGold.sol\":34973:35005  Approval(owner, spender, amount) */\n      mload(0x40)\n      dup1\n      swap2\n      sub\n      swap1\n      log3\n        /* \"contracts/GetSchiffyGold.sol\":34683:35012  function _approve(address owner, address spender, uint256 amount) private {... */\n      pop\n      pop\n      pop\n      jump\t// out\n        /* \"contracts/GetSchiffyGold.sol\":35018:35789  function _transfer(... */\n    tag_266:\n      sub(shl(0xa0, 0x01), 0x01)\n        /* \"contracts/GetSchiffyGold.sol\":35135:35153  from != address(0) */\n      dup4\n      and\n        /* \"contracts/GetSchiffyGold.sol\":35127:35194  require(from != address(0), \"GOLD: transfer from the zero address\") */\n      tag_444\n      jumpi\n      mload(0x40)\n      shl(0xe5, 0x461bcd)\n      dup2\n      mstore\n        /* \"#utility.yul\":6149:6151   */\n      0x20\n        /* \"contracts/GetSchiffyGold.sol\":35127:35194  require(from != address(0), \"GOLD: transfer from the zero address\") */\n      0x04\n      dup3\n      add\n        /* \"#utility.yul\":6131:6152   */\n      mstore\n        /* \"#utility.yul\":6188:6190   */\n      0x24\n        /* \"#utility.yul\":6168:6186   */\n      dup1\n      dup3\n      add\n        /* \"#utility.yul\":6161:6191   */\n      mstore\n        /* \"#utility.yul\":6227:6261   */\n      0x474f4c443a207472616e736665722066726f6d20746865207a65726f20616464\n        /* \"#utility.yul\":6207:6225   */\n      0x44\n      dup3\n      add\n        /* \"#utility.yul\":6200:6262   */\n      mstore\n      shl(0xe0, 0x72657373)\n        /* \"#utility.yul\":6278:6296   */\n      0x64\n      dup3\n      add\n        /* \"#utility.yul\":6271:6305   */\n      mstore\n        /* \"#utility.yul\":6322:6341   */\n      0x84\n      add\n        /* \"contracts/GetSchiffyGold.sol\":35127:35194  require(from != address(0), \"GOLD: transfer from the zero address\") */\n      tag_232\n        /* \"#utility.yul\":5947:6347   */\n      jump\n        /* \"contracts/GetSchiffyGold.sol\":35127:35194  require(from != address(0), \"GOLD: transfer from the zero address\") */\n    tag_444:\n      sub(shl(0xa0, 0x01), 0x01)\n        /* \"contracts/GetSchiffyGold.sol\":35212:35228  to != address(0) */\n      dup3\n      and\n        /* \"contracts/GetSchiffyGold.sol\":35204:35267  require(to != address(0), \"GOLD: transfer to the zero address\") */\n      tag_447\n      jumpi\n      mload(0x40)\n      shl(0xe5, 0x461bcd)\n      dup2\n      mstore\n        /* \"#utility.yul\":5746:5748   */\n      0x20\n        /* \"contracts/GetSchiffyGold.sol\":35204:35267  require(to != address(0), \"GOLD: transfer to the zero address\") */\n      0x04\n      dup3\n      add\n        /* \"#utility.yul\":5728:5749   */\n      mstore\n        /* \"#utility.yul\":5785:5787   */\n      0x22\n        /* \"#utility.yul\":5765:5783   */\n      0x24\n      dup3\n      add\n        /* \"#utility.yul\":5758:5788   */\n      mstore\n        /* \"#utility.yul\":5824:5858   */\n      0x474f4c443a207472616e7366657220746f20746865207a65726f206164647265\n        /* \"#utility.yul\":5804:5822   */\n      0x44\n      dup3\n      add\n        /* \"#utility.yul\":5797:5859   */\n      mstore\n      shl(0xf0, 0x7373)\n        /* \"#utility.yul\":5875:5893   */\n      0x64\n      dup3\n      add\n        /* \"#utility.yul\":5868:5900   */\n      mstore\n        /* \"#utility.yul\":5917:5936   */\n      0x84\n      add\n        /* \"contracts/GetSchiffyGold.sol\":35204:35267  require(to != address(0), \"GOLD: transfer to the zero address\") */\n      tag_232\n        /* \"#utility.yul\":5544:5942   */\n      jump\n        /* \"contracts/GetSchiffyGold.sol\":35204:35267  require(to != address(0), \"GOLD: transfer to the zero address\") */\n    tag_447:\n        /* \"contracts/GetSchiffyGold.sol\":35294:35295  0 */\n      0x00\n        /* \"contracts/GetSchiffyGold.sol\":35285:35291  amount */\n      dup2\n        /* \"contracts/GetSchiffyGold.sol\":35285:35295  amount > 0 */\n      gt\n        /* \"contracts/GetSchiffyGold.sol\":35277:35341  require(amount > 0, \"Transfer amount must be greater than zero\") */\n      tag_450\n      jumpi\n      mload(0x40)\n      shl(0xe5, 0x461bcd)\n      dup2\n      mstore\n        /* \"#utility.yul\":7677:7679   */\n      0x20\n        /* \"contracts/GetSchiffyGold.sol\":35277:35341  require(amount > 0, \"Transfer amount must be greater than zero\") */\n      0x04\n      dup3\n      add\n        /* \"#utility.yul\":7659:7680   */\n      mstore\n        /* \"#utility.yul\":7716:7718   */\n      0x29\n        /* \"#utility.yul\":7696:7714   */\n      0x24\n      dup3\n      add\n        /* \"#utility.yul\":7689:7719   */\n      mstore\n        /* \"#utility.yul\":7755:7789   */\n      0x5472616e7366657220616d6f756e74206d757374206265206772656174657220\n        /* \"#utility.yul\":7735:7753   */\n      0x44\n      dup3\n      add\n        /* \"#utility.yul\":7728:7790   */\n      mstore\n      shl(0xb8, 0x7468616e207a65726f)\n        /* \"#utility.yul\":7806:7824   */\n      0x64\n      dup3\n      add\n        /* \"#utility.yul\":7799:7838   */\n      mstore\n        /* \"#utility.yul\":7855:7874   */\n      0x84\n      add\n        /* \"contracts/GetSchiffyGold.sol\":35277:35341  require(amount > 0, \"Transfer amount must be greater than zero\") */\n      tag_232\n        /* \"#utility.yul\":7475:7880   */\n      jump\n        /* \"contracts/GetSchiffyGold.sol\":35277:35341  require(amount > 0, \"Transfer amount must be greater than zero\") */\n    tag_450:\n        /* \"contracts/GetSchiffyGold.sol\":14065:14072  address */\n      0x00\n        /* \"contracts/GetSchiffyGold.sol\":14091:14097  _owner */\n      sload\n      sub(shl(0xa0, 0x01), 0x01)\n        /* \"contracts/GetSchiffyGold.sol\":35354:35369  from != owner() */\n      dup5\n      dup2\n      and\n        /* \"contracts/GetSchiffyGold.sol\":14091:14097  _owner */\n      swap2\n      and\n        /* \"contracts/GetSchiffyGold.sol\":35354:35369  from != owner() */\n      eq\n      dup1\n      iszero\n      swap1\n        /* \"contracts/GetSchiffyGold.sol\":35354:35386  from != owner() && to != owner() */\n      tag_454\n      jumpi\n      pop\n        /* \"contracts/GetSchiffyGold.sol\":14065:14072  address */\n      0x00\n        /* \"contracts/GetSchiffyGold.sol\":14091:14097  _owner */\n      sload\n      sub(shl(0xa0, 0x01), 0x01)\n        /* \"contracts/GetSchiffyGold.sol\":35373:35386  to != owner() */\n      dup4\n      dup2\n      and\n        /* \"contracts/GetSchiffyGold.sol\":14091:14097  _owner */\n      swap2\n      and\n        /* \"contracts/GetSchiffyGold.sol\":35373:35386  to != owner() */\n      eq\n      iszero\n        /* \"contracts/GetSchiffyGold.sol\":35354:35386  from != owner() && to != owner() */\n    tag_454:\n        /* \"contracts/GetSchiffyGold.sol\":35351:35585  if(from != owner() && to != owner()){... */\n      iszero\n      tag_459\n      jumpi\n      sub(shl(0xa0, 0x01), 0x01)\n        /* \"contracts/GetSchiffyGold.sol\":35405:35431  _isExcludedFromMaxTx[from] */\n      dup4\n      and\n      0x00\n      swap1\n      dup2\n      mstore\n        /* \"contracts/GetSchiffyGold.sol\":35405:35425  _isExcludedFromMaxTx */\n      0x08\n        /* \"contracts/GetSchiffyGold.sol\":35405:35431  _isExcludedFromMaxTx[from] */\n      0x20\n      mstore\n      0x40\n      swap1\n      keccak256\n      sload\n      0xff\n      and\n        /* \"contracts/GetSchiffyGold.sol\":35404:35431  !_isExcludedFromMaxTx[from] */\n      iszero\n        /* \"contracts/GetSchiffyGold.sol\":35404:35460  !_isExcludedFromMaxTx[from] && !_isExcludedFromMaxTx[to] */\n      dup1\n      iszero\n      tag_457\n      jumpi\n      pop\n      sub(shl(0xa0, 0x01), 0x01)\n        /* \"contracts/GetSchiffyGold.sol\":35436:35460  _isExcludedFromMaxTx[to] */\n      dup3\n      and\n      0x00\n      swap1\n      dup2\n      mstore\n        /* \"contracts/GetSchiffyGold.sol\":35436:35456  _isExcludedFromMaxTx */\n      0x08\n        /* \"contracts/GetSchiffyGold.sol\":35436:35460  _isExcludedFromMaxTx[to] */\n      0x20\n      mstore\n      0x40\n      swap1\n      keccak256\n      sload\n      0xff\n      and\n        /* \"contracts/GetSchiffyGold.sol\":35435:35460  !_isExcludedFromMaxTx[to] */\n      iszero\n        /* \"contracts/GetSchiffyGold.sol\":35404:35460  !_isExcludedFromMaxTx[from] && !_isExcludedFromMaxTx[to] */\n    tag_457:\n        /* \"contracts/GetSchiffyGold.sol\":35401:35575  if(!_isExcludedFromMaxTx[from] && !_isExcludedFromMaxTx[to]){... */\n      iszero\n      tag_459\n      jumpi\n        /* \"contracts/GetSchiffyGold.sol\":35497:35509  _maxTxAmount */\n      sload(0x15)\n        /* \"contracts/GetSchiffyGold.sol\":35487:35493  amount */\n      dup2\n        /* \"contracts/GetSchiffyGold.sol\":35487:35509  amount <= _maxTxAmount */\n      gt\n      iszero\n        /* \"contracts/GetSchiffyGold.sol\":35479:35560  require(amount <= _maxTxAmount, \"GOLD: Transfer amount exceeds the maxTxAmount.\") */\n      tag_459\n      jumpi\n      mload(0x40)\n      shl(0xe5, 0x461bcd)\n      dup2\n      mstore\n        /* \"#utility.yul\":8087:8089   */\n      0x20\n        /* \"contracts/GetSchiffyGold.sol\":35479:35560  require(amount <= _maxTxAmount, \"GOLD: Transfer amount exceeds the maxTxAmount.\") */\n      0x04\n      dup3\n      add\n        /* \"#utility.yul\":8069:8090   */\n      mstore\n        /* \"#utility.yul\":8126:8128   */\n      0x2e\n        /* \"#utility.yul\":8106:8124   */\n      0x24\n      dup3\n      add\n        /* \"#utility.yul\":8099:8129   */\n      mstore\n        /* \"#utility.yul\":8165:8199   */\n      0x474f4c443a205472616e7366657220616d6f756e742065786365656473207468\n        /* \"#utility.yul\":8145:8163   */\n      0x44\n      dup3\n      add\n        /* \"#utility.yul\":8138:8200   */\n      mstore\n      shl(0x91, 0x329036b0bc2a3c20b6b7bab73a17)\n        /* \"#utility.yul\":8216:8234   */\n      0x64\n      dup3\n      add\n        /* \"#utility.yul\":8209:8253   */\n      mstore\n        /* \"#utility.yul\":8270:8289   */\n      0x84\n      add\n        /* \"contracts/GetSchiffyGold.sol\":35479:35560  require(amount <= _maxTxAmount, \"GOLD: Transfer amount exceeds the maxTxAmount.\") */\n      tag_232\n        /* \"#utility.yul\":7885:8295   */\n      jump\n        /* \"contracts/GetSchiffyGold.sol\":35479:35560  require(amount <= _maxTxAmount, \"GOLD: Transfer amount exceeds the maxTxAmount.\") */\n    tag_459:\n      sub(shl(0xa0, 0x01), 0x01)\n        /* \"contracts/GetSchiffyGold.sol\":35636:35660  _isExcludedFromFee[from] */\n      dup4\n      and\n        /* \"contracts/GetSchiffyGold.sol\":35595:35607  bool takeFee */\n      0x00\n        /* \"contracts/GetSchiffyGold.sol\":35636:35660  _isExcludedFromFee[from] */\n      swap1\n      dup2\n      mstore\n        /* \"contracts/GetSchiffyGold.sol\":35636:35654  _isExcludedFromFee */\n      0x06\n        /* \"contracts/GetSchiffyGold.sol\":35636:35660  _isExcludedFromFee[from] */\n      0x20\n      mstore\n      0x40\n      swap1\n      keccak256\n      sload\n        /* \"contracts/GetSchiffyGold.sol\":35610:35614  true */\n      0x01\n      swap1\n        /* \"contracts/GetSchiffyGold.sol\":35636:35660  _isExcludedFromFee[from] */\n      0xff\n      and\n      dup1\n        /* \"contracts/GetSchiffyGold.sol\":35636:35686  _isExcludedFromFee[from] || _isExcludedFromFee[to] */\n      tag_462\n      jumpi\n      pop\n      sub(shl(0xa0, 0x01), 0x01)\n        /* \"contracts/GetSchiffyGold.sol\":35664:35686  _isExcludedFromFee[to] */\n      dup4\n      and\n      0x00\n      swap1\n      dup2\n      mstore\n        /* \"contracts/GetSchiffyGold.sol\":35664:35682  _isExcludedFromFee */\n      0x06\n        /* \"contracts/GetSchiffyGold.sol\":35664:35686  _isExcludedFromFee[to] */\n      0x20\n      mstore\n      0x40\n      swap1\n      keccak256\n      sload\n      0xff\n      and\n        /* \"contracts/GetSchiffyGold.sol\":35636:35686  _isExcludedFromFee[from] || _isExcludedFromFee[to] */\n    tag_462:\n        /* \"contracts/GetSchiffyGold.sol\":35633:35727  if(_isExcludedFromFee[from] || _isExcludedFromFee[to]){... */\n      iszero\n      tag_463\n      jumpi\n      pop\n        /* \"contracts/GetSchiffyGold.sol\":35711:35716  false */\n      0x00\n        /* \"contracts/GetSchiffyGold.sol\":35633:35727  if(_isExcludedFromFee[from] || _isExcludedFromFee[to]){... */\n    tag_463:\n        /* \"contracts/GetSchiffyGold.sol\":35744:35782  _tokenTransfer(from,to,amount,takeFee) */\n      tag_464\n        /* \"contracts/GetSchiffyGold.sol\":35759:35763  from */\n      dup5\n        /* \"contracts/GetSchiffyGold.sol\":35764:35766  to */\n      dup5\n        /* \"contracts/GetSchiffyGold.sol\":35767:35773  amount */\n      dup5\n        /* \"contracts/GetSchiffyGold.sol\":35774:35781  takeFee */\n      dup5\n        /* \"contracts/GetSchiffyGold.sol\":35744:35758  _tokenTransfer */\n      tag_465\n        /* \"contracts/GetSchiffyGold.sol\":35744:35782  _tokenTransfer(from,to,amount,takeFee) */\n      jump\t// in\n    tag_464:\n        /* \"contracts/GetSchiffyGold.sol\":35117:35789  {... */\n      pop\n        /* \"contracts/GetSchiffyGold.sol\":35018:35789  function _transfer(... */\n      pop\n      pop\n      pop\n      jump\t// out\n        /* \"contracts/GetSchiffyGold.sol\":3690:3877  function sub(uint256 a, uint256 b, string memory errorMessage) internal pure returns (uint256) {... */\n    tag_271:\n        /* \"contracts/GetSchiffyGold.sol\":3776:3783  uint256 */\n      0x00\n        /* \"contracts/GetSchiffyGold.sol\":3811:3823  errorMessage */\n      dup2\n        /* \"contracts/GetSchiffyGold.sol\":3803:3809  b <= a */\n      dup5\n      dup5\n      gt\n      iszero\n        /* \"contracts/GetSchiffyGold.sol\":3795:3824  require(b <= a, errorMessage) */\n      tag_467\n      jumpi\n      mload(0x40)\n      shl(0xe5, 0x461bcd)\n      dup2\n      mstore\n      0x04\n      add\n      tag_232\n      swap2\n      swap1\n      tag_59\n      jump\t// in\n    tag_467:\n      pop\n        /* \"contracts/GetSchiffyGold.sol\":3834:3843  uint256 c */\n      0x00\n        /* \"contracts/GetSchiffyGold.sol\":3846:3851  a - b */\n      tag_469\n        /* \"contracts/GetSchiffyGold.sol\":3850:3851  b */\n      dup5\n        /* \"contracts/GetSchiffyGold.sol\":3846:3847  a */\n      dup7\n        /* \"contracts/GetSchiffyGold.sol\":3846:3851  a - b */\n      tag_297\n      jump\t// in\n    tag_469:\n        /* \"contracts/GetSchiffyGold.sol\":3834:3851  uint256 c = a - b */\n      swap6\n        /* \"contracts/GetSchiffyGold.sol\":3690:3877  function sub(uint256 a, uint256 b, string memory errorMessage) internal pure returns (uint256) {... */\n      swap5\n      pop\n      pop\n      pop\n      pop\n      pop\n      jump\t// out\n        /* \"contracts/GetSchiffyGold.sol\":32458:32618  function _getRate() private view returns(uint256) {... */\n    tag_277:\n        /* \"contracts/GetSchiffyGold.sol\":32499:32506  uint256 */\n      0x00\n        /* \"contracts/GetSchiffyGold.sol\":32519:32534  uint256 rSupply */\n      dup1\n        /* \"contracts/GetSchiffyGold.sol\":32536:32551  uint256 tSupply */\n      0x00\n        /* \"contracts/GetSchiffyGold.sol\":32555:32574  _getCurrentSupply() */\n      tag_471\n        /* \"contracts/GetSchiffyGold.sol\":32555:32572  _getCurrentSupply */\n      tag_472\n        /* \"contracts/GetSchiffyGold.sol\":32555:32574  _getCurrentSupply() */\n      jump\t// in\n    tag_471:\n        /* \"contracts/GetSchiffyGold.sol\":32518:32574  (uint256 rSupply, uint256 tSupply) = _getCurrentSupply() */\n      swap1\n      swap3\n      pop\n      swap1\n      pop\n        /* \"contracts/GetSchiffyGold.sol\":32591:32611  rSupply.div(tSupply) */\n      tag_473\n        /* \"contracts/GetSchiffyGold.sol\":32518:32574  (uint256 rSupply, uint256 tSupply) = _getCurrentSupply() */\n      dup3\n      dup3\n        /* \"contracts/GetSchiffyGold.sol\":32591:32602  rSupply.div */\n      tag_227\n        /* \"contracts/GetSchiffyGold.sol\":32591:32611  rSupply.div(tSupply) */\n      jump\t// in\n    tag_473:\n        /* \"contracts/GetSchiffyGold.sol\":32584:32611  return rSupply.div(tSupply) */\n      swap3\n      pop\n      pop\n      pop\n        /* \"contracts/GetSchiffyGold.sol\":32458:32618  function _getRate() private view returns(uint256) {... */\n      swap1\n      jump\t// out\n        /* \"contracts/GetSchiffyGold.sol\":2818:2994  function add(uint256 a, uint256 b) internal pure returns (uint256) {... */\n    tag_315:\n        /* \"contracts/GetSchiffyGold.sol\":2876:2883  uint256 */\n      0x00\n      dup1\n        /* \"contracts/GetSchiffyGold.sol\":2907:2912  a + b */\n      tag_475\n        /* \"contracts/GetSchiffyGold.sol\":2911:2912  b */\n      dup4\n        /* \"contracts/GetSchiffyGold.sol\":2907:2908  a */\n      dup6\n        /* \"contracts/GetSchiffyGold.sol\":2907:2912  a + b */\n      tag_407\n      jump\t// in\n    tag_475:\n        /* \"contracts/GetSchiffyGold.sol\":2895:2912  uint256 c = a + b */\n      swap1\n      pop\n        /* \"contracts/GetSchiffyGold.sol\":2935:2936  a */\n      dup4\n        /* \"contracts/GetSchiffyGold.sol\":2930:2931  c */\n      dup2\n        /* \"contracts/GetSchiffyGold.sol\":2930:2936  c >= a */\n      lt\n      iszero\n        /* \"contracts/GetSchiffyGold.sol\":2922:2968  require(c >= a, \"SafeMath: addition overflow\") */\n      tag_278\n      jumpi\n      mload(0x40)\n      shl(0xe5, 0x461bcd)\n      dup2\n      mstore\n        /* \"#utility.yul\":4281:4283   */\n      0x20\n        /* \"contracts/GetSchiffyGold.sol\":2922:2968  require(c >= a, \"SafeMath: addition overflow\") */\n      0x04\n      dup3\n      add\n        /* \"#utility.yul\":4263:4284   */\n      mstore\n        /* \"#utility.yul\":4320:4322   */\n      0x1b\n        /* \"#utility.yul\":4300:4318   */\n      0x24\n      dup3\n      add\n        /* \"#utility.yul\":4293:4323   */\n      mstore\n        /* \"#utility.yul\":4359:4388   */\n      0x536166654d6174683a206164646974696f6e206f766572666c6f770000000000\n        /* \"#utility.yul\":4339:4357   */\n      0x44\n      dup3\n      add\n        /* \"#utility.yul\":4332:4389   */\n      mstore\n        /* \"#utility.yul\":4406:4424   */\n      0x64\n      add\n        /* \"contracts/GetSchiffyGold.sol\":2922:2968  require(c >= a, \"SafeMath: addition overflow\") */\n      tag_232\n        /* \"#utility.yul\":4079:4430   */\n      jump\n        /* \"contracts/GetSchiffyGold.sol\":31269:31687  function _getValues(uint256 tAmount) private view returns (uint256, uint256, uint256, uint256, uint256, uint256) {... */\n    tag_322:\n        /* \"contracts/GetSchiffyGold.sol\":31328:31335  uint256 */\n      0x00\n        /* \"contracts/GetSchiffyGold.sol\":31337:31344  uint256 */\n      dup1\n        /* \"contracts/GetSchiffyGold.sol\":31346:31353  uint256 */\n      0x00\n        /* \"contracts/GetSchiffyGold.sol\":31355:31362  uint256 */\n      dup1\n        /* \"contracts/GetSchiffyGold.sol\":31364:31371  uint256 */\n      0x00\n        /* \"contracts/GetSchiffyGold.sol\":31373:31380  uint256 */\n      dup1\n        /* \"contracts/GetSchiffyGold.sol\":31393:31416  uint256 tTransferAmount */\n      0x00\n        /* \"contracts/GetSchiffyGold.sol\":31418:31430  uint256 tFee */\n      dup1\n        /* \"contracts/GetSchiffyGold.sol\":31432:31451  uint256 tPlayToEarn */\n      0x00\n        /* \"contracts/GetSchiffyGold.sol\":31455:31475  _getTValues(tAmount) */\n      tag_480\n        /* \"contracts/GetSchiffyGold.sol\":31467:31474  tAmount */\n      dup11\n        /* \"contracts/GetSchiffyGold.sol\":31455:31466  _getTValues */\n      tag_481\n        /* \"contracts/GetSchiffyGold.sol\":31455:31475  _getTValues(tAmount) */\n      jump\t// in\n    tag_480:\n        /* \"contracts/GetSchiffyGold.sol\":31392:31475  (uint256 tTransferAmount, uint256 tFee, uint256 tPlayToEarn) = _getTValues(tAmount) */\n      swap3\n      pop\n      swap3\n      pop\n      swap3\n      pop\n        /* \"contracts/GetSchiffyGold.sol\":31486:31501  uint256 rAmount */\n      0x00\n        /* \"contracts/GetSchiffyGold.sol\":31503:31526  uint256 rTransferAmount */\n      dup1\n        /* \"contracts/GetSchiffyGold.sol\":31528:31540  uint256 rFee */\n      0x00\n        /* \"contracts/GetSchiffyGold.sol\":31544:31595  _getRValues(tAmount, tFee, tPlayToEarn, _getRate()) */\n      tag_482\n        /* \"contracts/GetSchiffyGold.sol\":31556:31563  tAmount */\n      dup14\n        /* \"contracts/GetSchiffyGold.sol\":31565:31569  tFee */\n      dup7\n        /* \"contracts/GetSchiffyGold.sol\":31571:31582  tPlayToEarn */\n      dup7\n        /* \"contracts/GetSchiffyGold.sol\":31584:31594  _getRate() */\n      tag_483\n        /* \"contracts/GetSchiffyGold.sol\":31584:31592  _getRate */\n      tag_277\n        /* \"contracts/GetSchiffyGold.sol\":31584:31594  _getRate() */\n      jump\t// in\n    tag_483:\n        /* \"contracts/GetSchiffyGold.sol\":31544:31555  _getRValues */\n      tag_484\n        /* \"contracts/GetSchiffyGold.sol\":31544:31595  _getRValues(tAmount, tFee, tPlayToEarn, _getRate()) */\n      jump\t// in\n    tag_482:\n        /* \"contracts/GetSchiffyGold.sol\":31485:31595  (uint256 rAmount, uint256 rTransferAmount, uint256 rFee) = _getRValues(tAmount, tFee, tPlayToEarn, _getRate()) */\n      swap2\n      swap16\n      swap1\n      swap15\n      pop\n      swap1\n      swap13\n      pop\n        /* \"contracts/GetSchiffyGold.sol\":31645:31660  tTransferAmount */\n      swap6\n      swap11\n      pop\n        /* \"contracts/GetSchiffyGold.sol\":31662:31666  tFee */\n      swap4\n      swap9\n      pop\n        /* \"contracts/GetSchiffyGold.sol\":31668:31679  tPlayToEarn */\n      swap2\n      swap7\n      pop\n        /* \"contracts/GetSchiffyGold.sol\":31269:31687  function _getValues(uint256 tAmount) private view returns (uint256, uint256, uint256, uint256, uint256, uint256) {... */\n      swap3\n      swap5\n      pop\n      pop\n      pop\n      pop\n      pop\n      jump\t// out\n        /* \"contracts/GetSchiffyGold.sol\":3265:3399  function sub(uint256 a, uint256 b) internal pure returns (uint256) {... */\n    tag_324:\n        /* \"contracts/GetSchiffyGold.sol\":3323:3330  uint256 */\n      0x00\n        /* \"contracts/GetSchiffyGold.sol\":3349:3392  sub(a, b, \"SafeMath: subtraction overflow\") */\n      tag_278\n        /* \"contracts/GetSchiffyGold.sol\":3353:3354  a */\n      dup4\n        /* \"contracts/GetSchiffyGold.sol\":3356:3357  b */\n      dup4\n        /* \"contracts/GetSchiffyGold.sol\":3349:3392  sub(a, b, \"SafeMath: subtraction overflow\") */\n      mload(0x40)\n      dup1\n      0x40\n      add\n      0x40\n      mstore\n      dup1\n      0x1e\n      dup2\n      mstore\n      0x20\n      add\n      0x536166654d6174683a207375627472616374696f6e206f766572666c6f770000\n      dup2\n      mstore\n      pop\n        /* \"contracts/GetSchiffyGold.sol\":3349:3352  sub */\n      tag_271\n        /* \"contracts/GetSchiffyGold.sol\":3349:3392  sub(a, b, \"SafeMath: subtraction overflow\") */\n      jump\t// in\n        /* \"contracts/GetSchiffyGold.sol\":5657:5929  function div(uint256 a, uint256 b, string memory errorMessage) internal pure returns (uint256) {... */\n    tag_433:\n        /* \"contracts/GetSchiffyGold.sol\":5743:5750  uint256 */\n      0x00\n        /* \"contracts/GetSchiffyGold.sol\":5777:5789  errorMessage */\n      dup2\n        /* \"contracts/GetSchiffyGold.sol\":5770:5775  b > 0 */\n      dup4\n        /* \"contracts/GetSchiffyGold.sol\":5762:5790  require(b > 0, errorMessage) */\n      tag_488\n      jumpi\n      mload(0x40)\n      shl(0xe5, 0x461bcd)\n      dup2\n      mstore\n      0x04\n      add\n      tag_232\n      swap2\n      swap1\n      tag_59\n      jump\t// in\n    tag_488:\n      pop\n        /* \"contracts/GetSchiffyGold.sol\":5800:5809  uint256 c */\n      0x00\n        /* \"contracts/GetSchiffyGold.sol\":5812:5817  a / b */\n      tag_469\n        /* \"contracts/GetSchiffyGold.sol\":5816:5817  b */\n      dup5\n        /* \"contracts/GetSchiffyGold.sol\":5812:5813  a */\n      dup7\n        /* \"contracts/GetSchiffyGold.sol\":5812:5817  a / b */\n      tag_427\n      jump\t// in\n        /* \"contracts/GetSchiffyGold.sol\":35795:36633  function _tokenTransfer(address sender, address recipient, uint256 amount,bool takeFee) private {... */\n    tag_465:\n        /* \"contracts/GetSchiffyGold.sol\":35905:35912  takeFee */\n      dup1\n        /* \"contracts/GetSchiffyGold.sol\":35901:35960  if(!takeFee){... */\n      tag_493\n      jumpi\n        /* \"contracts/GetSchiffyGold.sol\":35927:35941  removeAllFee() */\n      tag_493\n        /* \"contracts/GetSchiffyGold.sol\":35927:35939  removeAllFee */\n      tag_494\n        /* \"contracts/GetSchiffyGold.sol\":35927:35941  removeAllFee() */\n      jump\t// in\n    tag_493:\n      sub(shl(0xa0, 0x01), 0x01)\n        /* \"contracts/GetSchiffyGold.sol\":35974:35993  _isExcluded[sender] */\n      dup5\n      and\n      0x00\n      swap1\n      dup2\n      mstore\n        /* \"contracts/GetSchiffyGold.sol\":35974:35985  _isExcluded */\n      0x07\n        /* \"contracts/GetSchiffyGold.sol\":35974:35993  _isExcluded[sender] */\n      0x20\n      mstore\n      0x40\n      swap1\n      keccak256\n      sload\n      0xff\n      and\n        /* \"contracts/GetSchiffyGold.sol\":35974:36020  _isExcluded[sender] && !_isExcluded[recipient] */\n      dup1\n      iszero\n      tag_495\n      jumpi\n      pop\n      sub(shl(0xa0, 0x01), 0x01)\n        /* \"contracts/GetSchiffyGold.sol\":35998:36020  _isExcluded[recipient] */\n      dup4\n      and\n      0x00\n      swap1\n      dup2\n      mstore\n        /* \"contracts/GetSchiffyGold.sol\":35998:36009  _isExcluded */\n      0x07\n        /* \"contracts/GetSchiffyGold.sol\":35998:36020  _isExcluded[recipient] */\n      0x20\n      mstore\n      0x40\n      swap1\n      keccak256\n      sload\n      0xff\n      and\n        /* \"contracts/GetSchiffyGold.sol\":35997:36020  !_isExcluded[recipient] */\n      iszero\n        /* \"contracts/GetSchiffyGold.sol\":35974:36020  _isExcluded[sender] && !_isExcluded[recipient] */\n    tag_495:\n        /* \"contracts/GetSchiffyGold.sol\":35970:36557  if (_isExcluded[sender] && !_isExcluded[recipient]) {... */\n      iszero\n      tag_496\n      jumpi\n        /* \"contracts/GetSchiffyGold.sol\":36036:36084  _transferFromExcluded(sender, recipient, amount) */\n      tag_497\n        /* \"contracts/GetSchiffyGold.sol\":36058:36064  sender */\n      dup5\n        /* \"contracts/GetSchiffyGold.sol\":36066:36075  recipient */\n      dup5\n        /* \"contracts/GetSchiffyGold.sol\":36077:36083  amount */\n      dup5\n        /* \"contracts/GetSchiffyGold.sol\":36036:36057  _transferFromExcluded */\n      tag_498\n        /* \"contracts/GetSchiffyGold.sol\":36036:36084  _transferFromExcluded(sender, recipient, amount) */\n      jump\t// in\n    tag_497:\n        /* \"contracts/GetSchiffyGold.sol\":35970:36557  if (_isExcluded[sender] && !_isExcluded[recipient]) {... */\n      jump(tag_515)\n    tag_496:\n      sub(shl(0xa0, 0x01), 0x01)\n        /* \"contracts/GetSchiffyGold.sol\":36106:36125  _isExcluded[sender] */\n      dup5\n      and\n      0x00\n      swap1\n      dup2\n      mstore\n        /* \"contracts/GetSchiffyGold.sol\":36106:36117  _isExcluded */\n      0x07\n        /* \"contracts/GetSchiffyGold.sol\":36106:36125  _isExcluded[sender] */\n      0x20\n      mstore\n      0x40\n      swap1\n      keccak256\n      sload\n      0xff\n      and\n        /* \"contracts/GetSchiffyGold.sol\":36105:36125  !_isExcluded[sender] */\n      iszero\n        /* \"contracts/GetSchiffyGold.sol\":36105:36151  !_isExcluded[sender] && _isExcluded[recipient] */\n      dup1\n      iszero\n      tag_500\n      jumpi\n      pop\n      sub(shl(0xa0, 0x01), 0x01)\n        /* \"contracts/GetSchiffyGold.sol\":36129:36151  _isExcluded[recipient] */\n      dup4\n      and\n      0x00\n      swap1\n      dup2\n      mstore\n        /* \"contracts/GetSchiffyGold.sol\":36129:36140  _isExcluded */\n      0x07\n        /* \"contracts/GetSchiffyGold.sol\":36129:36151  _isExcluded[recipient] */\n      0x20\n      mstore\n      0x40\n      swap1\n      keccak256\n      sload\n      0xff\n      and\n        /* \"contracts/GetSchiffyGold.sol\":36105:36151  !_isExcluded[sender] && _isExcluded[recipient] */\n    tag_500:\n        /* \"contracts/GetSchiffyGold.sol\":36101:36557  if (!_isExcluded[sender] && _isExcluded[recipient]) {... */\n      iszero\n      tag_501\n      jumpi\n        /* \"contracts/GetSchiffyGold.sol\":36167:36213  _transferToExcluded(sender, recipient, amount) */\n      tag_497\n        /* \"contracts/GetSchiffyGold.sol\":36187:36193  sender */\n      dup5\n        /* \"contracts/GetSchiffyGold.sol\":36195:36204  recipient */\n      dup5\n        /* \"contracts/GetSchiffyGold.sol\":36206:36212  amount */\n      dup5\n        /* \"contracts/GetSchiffyGold.sol\":36167:36186  _transferToExcluded */\n      tag_503\n        /* \"contracts/GetSchiffyGold.sol\":36167:36213  _transferToExcluded(sender, recipient, amount) */\n      jump\t// in\n        /* \"contracts/GetSchiffyGold.sol\":36101:36557  if (!_isExcluded[sender] && _isExcluded[recipient]) {... */\n    tag_501:\n      sub(shl(0xa0, 0x01), 0x01)\n        /* \"contracts/GetSchiffyGold.sol\":36235:36254  _isExcluded[sender] */\n      dup5\n      and\n      0x00\n      swap1\n      dup2\n      mstore\n        /* \"contracts/GetSchiffyGold.sol\":36235:36246  _isExcluded */\n      0x07\n        /* \"contracts/GetSchiffyGold.sol\":36235:36254  _isExcluded[sender] */\n      0x20\n      mstore\n      0x40\n      swap1\n      keccak256\n      sload\n      0xff\n      and\n        /* \"contracts/GetSchiffyGold.sol\":36234:36254  !_isExcluded[sender] */\n      iszero\n        /* \"contracts/GetSchiffyGold.sol\":36234:36281  !_isExcluded[sender] && !_isExcluded[recipient] */\n      dup1\n      iszero\n      tag_505\n      jumpi\n      pop\n      sub(shl(0xa0, 0x01), 0x01)\n        /* \"contracts/GetSchiffyGold.sol\":36259:36281  _isExcluded[recipient] */\n      dup4\n      and\n      0x00\n      swap1\n      dup2\n      mstore\n        /* \"contracts/GetSchiffyGold.sol\":36259:36270  _isExcluded */\n      0x07\n        /* \"contracts/GetSchiffyGold.sol\":36259:36281  _isExcluded[recipient] */\n      0x20\n      mstore\n      0x40\n      swap1\n      keccak256\n      sload\n      0xff\n      and\n        /* \"contracts/GetSchiffyGold.sol\":36258:36281  !_isExcluded[recipient] */\n      iszero\n        /* \"contracts/GetSchiffyGold.sol\":36234:36281  !_isExcluded[sender] && !_isExcluded[recipient] */\n    tag_505:\n        /* \"contracts/GetSchiffyGold.sol\":36230:36557  if (!_isExcluded[sender] && !_isExcluded[recipient]) {... */\n      iszero\n      tag_506\n      jumpi\n        /* \"contracts/GetSchiffyGold.sol\":36297:36341  _transferStandard(sender, recipient, amount) */\n      tag_497\n        /* \"contracts/GetSchiffyGold.sol\":36315:36321  sender */\n      dup5\n        /* \"contracts/GetSchiffyGold.sol\":36323:36332  recipient */\n      dup5\n        /* \"contracts/GetSchiffyGold.sol\":36334:36340  amount */\n      dup5\n        /* \"contracts/GetSchiffyGold.sol\":36297:36314  _transferStandard */\n      tag_508\n        /* \"contracts/GetSchiffyGold.sol\":36297:36341  _transferStandard(sender, recipient, amount) */\n      jump\t// in\n        /* \"contracts/GetSchiffyGold.sol\":36230:36557  if (!_isExcluded[sender] && !_isExcluded[recipient]) {... */\n    tag_506:\n      sub(shl(0xa0, 0x01), 0x01)\n        /* \"contracts/GetSchiffyGold.sol\":36362:36381  _isExcluded[sender] */\n      dup5\n      and\n      0x00\n      swap1\n      dup2\n      mstore\n        /* \"contracts/GetSchiffyGold.sol\":36362:36373  _isExcluded */\n      0x07\n        /* \"contracts/GetSchiffyGold.sol\":36362:36381  _isExcluded[sender] */\n      0x20\n      mstore\n      0x40\n      swap1\n      keccak256\n      sload\n      0xff\n      and\n        /* \"contracts/GetSchiffyGold.sol\":36362:36407  _isExcluded[sender] && _isExcluded[recipient] */\n      dup1\n      iszero\n      tag_510\n      jumpi\n      pop\n      sub(shl(0xa0, 0x01), 0x01)\n        /* \"contracts/GetSchiffyGold.sol\":36385:36407  _isExcluded[recipient] */\n      dup4\n      and\n      0x00\n      swap1\n      dup2\n      mstore\n        /* \"contracts/GetSchiffyGold.sol\":36385:36396  _isExcluded */\n      0x07\n        /* \"contracts/GetSchiffyGold.sol\":36385:36407  _isExcluded[recipient] */\n      0x20\n      mstore\n      0x40\n      swap1\n      keccak256\n      sload\n      0xff\n      and\n        /* \"contracts/GetSchiffyGold.sol\":36362:36407  _isExcluded[sender] && _isExcluded[recipient] */\n    tag_510:\n        /* \"contracts/GetSchiffyGold.sol\":36358:36557  if (_isExcluded[sender] && _isExcluded[recipient]) {... */\n      iszero\n      tag_511\n      jumpi\n        /* \"contracts/GetSchiffyGold.sol\":36423:36471  _transferBothExcluded(sender, recipient, amount) */\n      tag_497\n        /* \"contracts/GetSchiffyGold.sol\":36445:36451  sender */\n      dup5\n        /* \"contracts/GetSchiffyGold.sol\":36453:36462  recipient */\n      dup5\n        /* \"contracts/GetSchiffyGold.sol\":36464:36470  amount */\n      dup5\n        /* \"contracts/GetSchiffyGold.sol\":36423:36444  _transferBothExcluded */\n      tag_513\n        /* \"contracts/GetSchiffyGold.sol\":36423:36471  _transferBothExcluded(sender, recipient, amount) */\n      jump\t// in\n        /* \"contracts/GetSchiffyGold.sol\":36358:36557  if (_isExcluded[sender] && _isExcluded[recipient]) {... */\n    tag_511:\n        /* \"contracts/GetSchiffyGold.sol\":36502:36546  _transferStandard(sender, recipient, amount) */\n      tag_515\n        /* \"contracts/GetSchiffyGold.sol\":36520:36526  sender */\n      dup5\n        /* \"contracts/GetSchiffyGold.sol\":36528:36537  recipient */\n      dup5\n        /* \"contracts/GetSchiffyGold.sol\":36539:36545  amount */\n      dup5\n        /* \"contracts/GetSchiffyGold.sol\":36502:36519  _transferStandard */\n      tag_508\n        /* \"contracts/GetSchiffyGold.sol\":36502:36546  _transferStandard(sender, recipient, amount) */\n      jump\t// in\n    tag_515:\n        /* \"contracts/GetSchiffyGold.sol\":36579:36586  takeFee */\n      dup1\n        /* \"contracts/GetSchiffyGold.sol\":36575:36627  if(!takeFee){... */\n      tag_464\n      jumpi\n        /* \"contracts/GetSchiffyGold.sol\":36601:36616  restoreAllFee() */\n      tag_464\n        /* \"contracts/GetSchiffyGold.sol\":34481:34496  _previousTaxFee */\n      sload(0x14)\n        /* \"contracts/GetSchiffyGold.sol\":34471:34478  _taxFee */\n      0x13\n        /* \"contracts/GetSchiffyGold.sol\":34471:34496  _taxFee = _previousTaxFee */\n      sstore\n        /* \"contracts/GetSchiffyGold.sol\":34520:34539  _previousPlayToEarn */\n      sload(0x11)\n        /* \"contracts/GetSchiffyGold.sol\":34506:34517  _playToEarn */\n      0x10\n        /* \"contracts/GetSchiffyGold.sol\":34506:34539  _playToEarn = _previousPlayToEarn */\n      sstore\n        /* \"contracts/GetSchiffyGold.sol\":34428:34546  function restoreAllFee() private {... */\n      jump\n        /* \"contracts/GetSchiffyGold.sol\":32624:33175  function _getCurrentSupply() private view returns(uint256, uint256) {... */\n    tag_472:\n        /* \"contracts/GetSchiffyGold.sol\":32720:32727  _rTotal */\n      sload(0x0b)\n        /* \"contracts/GetSchiffyGold.sol\":32755:32762  _tTotal */\n      sload(0x0a)\n        /* \"contracts/GetSchiffyGold.sol\":32674:32681  uint256 */\n      0x00\n      swap2\n      dup3\n      swap2\n      dup3\n        /* \"contracts/GetSchiffyGold.sol\":32778:33063  for (uint256 i = 0; i < _excluded.length; i++) {... */\n    tag_520:\n        /* \"contracts/GetSchiffyGold.sol\":32802:32811  _excluded */\n      0x09\n        /* \"contracts/GetSchiffyGold.sol\":32802:32818  _excluded.length */\n      sload\n        /* \"contracts/GetSchiffyGold.sol\":32798:32818  i < _excluded.length */\n      dup2\n      lt\n        /* \"contracts/GetSchiffyGold.sol\":32778:33063  for (uint256 i = 0; i < _excluded.length; i++) {... */\n      iszero\n      tag_521\n      jumpi\n        /* \"contracts/GetSchiffyGold.sol\":32867:32874  rSupply */\n      dup3\n        /* \"contracts/GetSchiffyGold.sol\":32843:32850  _rOwned */\n      0x03\n        /* \"contracts/GetSchiffyGold.sol\":32843:32864  _rOwned[_excluded[i]] */\n      0x00\n        /* \"contracts/GetSchiffyGold.sol\":32851:32860  _excluded */\n      0x09\n        /* \"contracts/GetSchiffyGold.sol\":32861:32862  i */\n      dup5\n        /* \"contracts/GetSchiffyGold.sol\":32851:32863  _excluded[i] */\n      dup2\n      sload\n      dup2\n      lt\n      tag_524\n      jumpi\n      tag_524\n      tag_293\n      jump\t// in\n    tag_524:\n      0x00\n      swap2\n      dup3\n      mstore\n      0x20\n      dup1\n      dup4\n      keccak256\n      swap1\n      swap2\n      add\n      sload\n      sub(shl(0xa0, 0x01), 0x01)\n      and\n        /* \"contracts/GetSchiffyGold.sol\":32843:32864  _rOwned[_excluded[i]] */\n      dup4\n      mstore\n      dup3\n      add\n      swap3\n      swap1\n      swap3\n      mstore\n      0x40\n      add\n      swap1\n      keccak256\n      sload\n        /* \"contracts/GetSchiffyGold.sol\":32843:32874  _rOwned[_excluded[i]] > rSupply */\n      gt\n      dup1\n        /* \"contracts/GetSchiffyGold.sol\":32843:32909  _rOwned[_excluded[i]] > rSupply || _tOwned[_excluded[i]] > tSupply */\n      tag_526\n      jumpi\n      pop\n        /* \"contracts/GetSchiffyGold.sol\":32902:32909  tSupply */\n      dup2\n        /* \"contracts/GetSchiffyGold.sol\":32878:32885  _tOwned */\n      0x04\n        /* \"contracts/GetSchiffyGold.sol\":32878:32899  _tOwned[_excluded[i]] */\n      0x00\n        /* \"contracts/GetSchiffyGold.sol\":32886:32895  _excluded */\n      0x09\n        /* \"contracts/GetSchiffyGold.sol\":32896:32897  i */\n      dup5\n        /* \"contracts/GetSchiffyGold.sol\":32886:32898  _excluded[i] */\n      dup2\n      sload\n      dup2\n      lt\n      tag_528\n      jumpi\n      tag_528\n      tag_293\n      jump\t// in\n    tag_528:\n      0x00\n      swap2\n      dup3\n      mstore\n      0x20\n      dup1\n      dup4\n      keccak256\n      swap1\n      swap2\n      add\n      sload\n      sub(shl(0xa0, 0x01), 0x01)\n      and\n        /* \"contracts/GetSchiffyGold.sol\":32878:32899  _tOwned[_excluded[i]] */\n      dup4\n      mstore\n      dup3\n      add\n      swap3\n      swap1\n      swap3\n      mstore\n      0x40\n      add\n      swap1\n      keccak256\n      sload\n        /* \"contracts/GetSchiffyGold.sol\":32878:32909  _tOwned[_excluded[i]] > tSupply */\n      gt\n        /* \"contracts/GetSchiffyGold.sol\":32843:32909  _rOwned[_excluded[i]] > rSupply || _tOwned[_excluded[i]] > tSupply */\n    tag_526:\n        /* \"contracts/GetSchiffyGold.sol\":32839:32936  if (_rOwned[_excluded[i]] > rSupply || _tOwned[_excluded[i]] > tSupply) return (_rTotal, _tTotal) */\n      iszero\n      tag_530\n      jumpi\n        /* \"contracts/GetSchiffyGold.sol\":32919:32926  _rTotal */\n      sload(0x0b)\n        /* \"contracts/GetSchiffyGold.sol\":32928:32935  _tTotal */\n      sload(0x0a)\n        /* \"contracts/GetSchiffyGold.sol\":32911:32936  return (_rTotal, _tTotal) */\n      swap5\n      pop\n      swap5\n      pop\n      pop\n      pop\n      pop\n        /* \"contracts/GetSchiffyGold.sol\":32624:33175  function _getCurrentSupply() private view returns(uint256, uint256) {... */\n      swap1\n      swap2\n      jump\t// out\n        /* \"contracts/GetSchiffyGold.sol\":32839:32936  if (_rOwned[_excluded[i]] > rSupply || _tOwned[_excluded[i]] > tSupply) return (_rTotal, _tTotal) */\n    tag_530:\n        /* \"contracts/GetSchiffyGold.sol\":32960:32994  rSupply.sub(_rOwned[_excluded[i]]) */\n      tag_531\n        /* \"contracts/GetSchiffyGold.sol\":32972:32979  _rOwned */\n      0x03\n        /* \"contracts/GetSchiffyGold.sol\":32972:32993  _rOwned[_excluded[i]] */\n      0x00\n        /* \"contracts/GetSchiffyGold.sol\":32980:32989  _excluded */\n      0x09\n        /* \"contracts/GetSchiffyGold.sol\":32990:32991  i */\n      dup5\n        /* \"contracts/GetSchiffyGold.sol\":32980:32992  _excluded[i] */\n      dup2\n      sload\n      dup2\n      lt\n      tag_533\n      jumpi\n      tag_533\n      tag_293\n      jump\t// in\n    tag_533:\n      0x00\n      swap2\n      dup3\n      mstore\n      0x20\n      dup1\n      dup4\n      keccak256\n      swap1\n      swap2\n      add\n      sload\n      sub(shl(0xa0, 0x01), 0x01)\n      and\n        /* \"contracts/GetSchiffyGold.sol\":32972:32993  _rOwned[_excluded[i]] */\n      dup4\n      mstore\n      dup3\n      add\n      swap3\n      swap1\n      swap3\n      mstore\n      0x40\n      add\n      swap1\n      keccak256\n      sload\n        /* \"contracts/GetSchiffyGold.sol\":32960:32967  rSupply */\n      dup5\n      swap1\n        /* \"contracts/GetSchiffyGold.sol\":32960:32971  rSupply.sub */\n      tag_324\n        /* \"contracts/GetSchiffyGold.sol\":32960:32994  rSupply.sub(_rOwned[_excluded[i]]) */\n      jump\t// in\n    tag_531:\n        /* \"contracts/GetSchiffyGold.sol\":32950:32994  rSupply = rSupply.sub(_rOwned[_excluded[i]]) */\n      swap3\n      pop\n        /* \"contracts/GetSchiffyGold.sol\":33018:33052  tSupply.sub(_tOwned[_excluded[i]]) */\n      tag_535\n        /* \"contracts/GetSchiffyGold.sol\":33030:33037  _tOwned */\n      0x04\n        /* \"contracts/GetSchiffyGold.sol\":33030:33051  _tOwned[_excluded[i]] */\n      0x00\n        /* \"contracts/GetSchiffyGold.sol\":33038:33047  _excluded */\n      0x09\n        /* \"contracts/GetSchiffyGold.sol\":33048:33049  i */\n      dup5\n        /* \"contracts/GetSchiffyGold.sol\":33038:33050  _excluded[i] */\n      dup2\n      sload\n      dup2\n      lt\n      tag_537\n      jumpi\n      tag_537\n      tag_293\n      jump\t// in\n    tag_537:\n      0x00\n      swap2\n      dup3\n      mstore\n      0x20\n      dup1\n      dup4\n      keccak256\n      swap1\n      swap2\n      add\n      sload\n      sub(shl(0xa0, 0x01), 0x01)\n      and\n        /* \"contracts/GetSchiffyGold.sol\":33030:33051  _tOwned[_excluded[i]] */\n      dup4\n      mstore\n      dup3\n      add\n      swap3\n      swap1\n      swap3\n      mstore\n      0x40\n      add\n      swap1\n      keccak256\n      sload\n        /* \"contracts/GetSchiffyGold.sol\":33018:33025  tSupply */\n      dup4\n      swap1\n        /* \"contracts/GetSchiffyGold.sol\":33018:33029  tSupply.sub */\n      tag_324\n        /* \"contracts/GetSchiffyGold.sol\":33018:33052  tSupply.sub(_tOwned[_excluded[i]]) */\n      jump\t// in\n    tag_535:\n        /* \"contracts/GetSchiffyGold.sol\":33008:33052  tSupply = tSupply.sub(_tOwned[_excluded[i]]) */\n      swap2\n      pop\n        /* \"contracts/GetSchiffyGold.sol\":32820:32823  i++ */\n      dup1\n      tag_539\n      dup2\n      tag_309\n      jump\t// in\n    tag_539:\n      swap2\n      pop\n      pop\n        /* \"contracts/GetSchiffyGold.sol\":32778:33063  for (uint256 i = 0; i < _excluded.length; i++) {... */\n      jump(tag_520)\n    tag_521:\n      pop\n        /* \"contracts/GetSchiffyGold.sol\":33098:33105  _tTotal */\n      sload(0x0a)\n        /* \"contracts/GetSchiffyGold.sol\":33086:33093  _rTotal */\n      sload(0x0b)\n        /* \"contracts/GetSchiffyGold.sol\":33086:33106  _rTotal.div(_tTotal) */\n      tag_540\n      swap2\n        /* \"contracts/GetSchiffyGold.sol\":33086:33097  _rTotal.div */\n      tag_227\n        /* \"contracts/GetSchiffyGold.sol\":33086:33106  _rTotal.div(_tTotal) */\n      jump\t// in\n    tag_540:\n        /* \"contracts/GetSchiffyGold.sol\":33076:33083  rSupply */\n      dup3\n        /* \"contracts/GetSchiffyGold.sol\":33076:33106  rSupply < _rTotal.div(_tTotal) */\n      lt\n        /* \"contracts/GetSchiffyGold.sol\":33072:33133  if (rSupply < _rTotal.div(_tTotal)) return (_rTotal, _tTotal) */\n      iszero\n      tag_541\n      jumpi\n        /* \"contracts/GetSchiffyGold.sol\":33116:33123  _rTotal */\n      sload(0x0b)\n        /* \"contracts/GetSchiffyGold.sol\":33125:33132  _tTotal */\n      sload(0x0a)\n        /* \"contracts/GetSchiffyGold.sol\":33108:33133  return (_rTotal, _tTotal) */\n      swap4\n      pop\n      swap4\n      pop\n      pop\n      pop\n        /* \"contracts/GetSchiffyGold.sol\":32624:33175  function _getCurrentSupply() private view returns(uint256, uint256) {... */\n      swap1\n      swap2\n      jump\t// out\n        /* \"contracts/GetSchiffyGold.sol\":33072:33133  if (rSupply < _rTotal.div(_tTotal)) return (_rTotal, _tTotal) */\n    tag_541:\n        /* \"contracts/GetSchiffyGold.sol\":33151:33158  rSupply */\n      swap1\n      swap4\n        /* \"contracts/GetSchiffyGold.sol\":33160:33167  tSupply */\n      swap1\n      swap3\n      pop\n        /* \"contracts/GetSchiffyGold.sol\":32624:33175  function _getCurrentSupply() private view returns(uint256, uint256) {... */\n      swap1\n      pop\n      jump\t// out\n        /* \"contracts/GetSchiffyGold.sol\":31693:32019  function _getTValues(uint256 tAmount) private view returns (uint256, uint256, uint256) {... */\n    tag_481:\n        /* \"contracts/GetSchiffyGold.sol\":31753:31760  uint256 */\n      0x00\n        /* \"contracts/GetSchiffyGold.sol\":31762:31769  uint256 */\n      dup1\n        /* \"contracts/GetSchiffyGold.sol\":31771:31778  uint256 */\n      0x00\n        /* \"contracts/GetSchiffyGold.sol\":31790:31802  uint256 tFee */\n      dup1\n        /* \"contracts/GetSchiffyGold.sol\":31805:31829  calculateTaxFee(tAmount) */\n      tag_543\n        /* \"contracts/GetSchiffyGold.sol\":31821:31828  tAmount */\n      dup6\n        /* \"contracts/GetSchiffyGold.sol\":31805:31820  calculateTaxFee */\n      tag_544\n        /* \"contracts/GetSchiffyGold.sol\":31805:31829  calculateTaxFee(tAmount) */\n      jump\t// in\n    tag_543:\n        /* \"contracts/GetSchiffyGold.sol\":31790:31829  uint256 tFee = calculateTaxFee(tAmount) */\n      swap1\n      pop\n        /* \"contracts/GetSchiffyGold.sol\":31839:31858  uint256 tPlayToEarn */\n      0x00\n        /* \"contracts/GetSchiffyGold.sol\":31861:31889  calculatePlayToEarn(tAmount) */\n      tag_545\n        /* \"contracts/GetSchiffyGold.sol\":31881:31888  tAmount */\n      dup7\n        /* \"contracts/GetSchiffyGold.sol\":31861:31880  calculatePlayToEarn */\n      tag_546\n        /* \"contracts/GetSchiffyGold.sol\":31861:31889  calculatePlayToEarn(tAmount) */\n      jump\t// in\n    tag_545:\n        /* \"contracts/GetSchiffyGold.sol\":31839:31889  uint256 tPlayToEarn = calculatePlayToEarn(tAmount) */\n      swap1\n      pop\n        /* \"contracts/GetSchiffyGold.sol\":31899:31922  uint256 tTransferAmount */\n      0x00\n        /* \"contracts/GetSchiffyGold.sol\":31925:31959  tAmount.sub(tFee).sub(tPlayToEarn) */\n      tag_547\n        /* \"contracts/GetSchiffyGold.sol\":31839:31889  uint256 tPlayToEarn = calculatePlayToEarn(tAmount) */\n      dup3\n        /* \"contracts/GetSchiffyGold.sol\":31925:31942  tAmount.sub(tFee) */\n      tag_548\n        /* \"contracts/GetSchiffyGold.sol\":31925:31932  tAmount */\n      dup10\n        /* \"contracts/GetSchiffyGold.sol\":31937:31941  tFee */\n      dup7\n        /* \"contracts/GetSchiffyGold.sol\":31925:31936  tAmount.sub */\n      tag_324\n        /* \"contracts/GetSchiffyGold.sol\":31925:31942  tAmount.sub(tFee) */\n      jump\t// in\n    tag_548:\n        /* \"contracts/GetSchiffyGold.sol\":31925:31946  tAmount.sub(tFee).sub */\n      swap1\n      tag_324\n        /* \"contracts/GetSchiffyGold.sol\":31925:31959  tAmount.sub(tFee).sub(tPlayToEarn) */\n      jump\t// in\n    tag_547:\n        /* \"contracts/GetSchiffyGold.sol\":31899:31959  uint256 tTransferAmount = tAmount.sub(tFee).sub(tPlayToEarn) */\n      swap8\n        /* \"contracts/GetSchiffyGold.sol\":31994:31998  tFee */\n      swap3\n      swap7\n      pop\n        /* \"contracts/GetSchiffyGold.sol\":32000:32011  tPlayToEarn */\n      swap1\n      swap5\n      pop\n        /* \"contracts/GetSchiffyGold.sol\":31693:32019  function _getTValues(uint256 tAmount) private view returns (uint256, uint256, uint256) {... */\n      swap1\n      swap3\n      pop\n      pop\n      pop\n      jump\t// out\n        /* \"contracts/GetSchiffyGold.sol\":32025:32452  function _getRValues(uint256 tAmount, uint256 tFee, uint256 tPlayToEarn, uint256 currentRate) private pure returns (uint256, uint256, uint256) {... */\n    tag_484:\n        /* \"contracts/GetSchiffyGold.sol\":32141:32148  uint256 */\n      0x00\n      dup1\n      dup1\n      dup1\n        /* \"contracts/GetSchiffyGold.sol\":32196:32220  tAmount.mul(currentRate) */\n      tag_550\n        /* \"contracts/GetSchiffyGold.sol\":32196:32203  tAmount */\n      dup9\n        /* \"contracts/GetSchiffyGold.sol\":32208:32219  currentRate */\n      dup7\n        /* \"contracts/GetSchiffyGold.sol\":32196:32207  tAmount.mul */\n      tag_226\n        /* \"contracts/GetSchiffyGold.sol\":32196:32220  tAmount.mul(currentRate) */\n      jump\t// in\n    tag_550:\n        /* \"contracts/GetSchiffyGold.sol\":32178:32220  uint256 rAmount = tAmount.mul(currentRate) */\n      swap1\n      pop\n        /* \"contracts/GetSchiffyGold.sol\":32230:32242  uint256 rFee */\n      0x00\n        /* \"contracts/GetSchiffyGold.sol\":32245:32266  tFee.mul(currentRate) */\n      tag_551\n        /* \"contracts/GetSchiffyGold.sol\":32245:32249  tFee */\n      dup9\n        /* \"contracts/GetSchiffyGold.sol\":32254:32265  currentRate */\n      dup8\n        /* \"contracts/GetSchiffyGold.sol\":32245:32253  tFee.mul */\n      tag_226\n        /* \"contracts/GetSchiffyGold.sol\":32245:32266  tFee.mul(currentRate) */\n      jump\t// in\n    tag_551:\n        /* \"contracts/GetSchiffyGold.sol\":32230:32266  uint256 rFee = tFee.mul(currentRate) */\n      swap1\n      pop\n        /* \"contracts/GetSchiffyGold.sol\":32276:32295  uint256 rPlayToEarn */\n      0x00\n        /* \"contracts/GetSchiffyGold.sol\":32298:32326  tPlayToEarn.mul(currentRate) */\n      tag_552\n        /* \"contracts/GetSchiffyGold.sol\":32298:32309  tPlayToEarn */\n      dup9\n        /* \"contracts/GetSchiffyGold.sol\":32314:32325  currentRate */\n      dup9\n        /* \"contracts/GetSchiffyGold.sol\":32298:32313  tPlayToEarn.mul */\n      tag_226\n        /* \"contracts/GetSchiffyGold.sol\":32298:32326  tPlayToEarn.mul(currentRate) */\n      jump\t// in\n    tag_552:\n        /* \"contracts/GetSchiffyGold.sol\":32276:32326  uint256 rPlayToEarn = tPlayToEarn.mul(currentRate) */\n      swap1\n      pop\n        /* \"contracts/GetSchiffyGold.sol\":32336:32359  uint256 rTransferAmount */\n      0x00\n        /* \"contracts/GetSchiffyGold.sol\":32362:32396  rAmount.sub(rFee).sub(rPlayToEarn) */\n      tag_553\n        /* \"contracts/GetSchiffyGold.sol\":32276:32326  uint256 rPlayToEarn = tPlayToEarn.mul(currentRate) */\n      dup3\n        /* \"contracts/GetSchiffyGold.sol\":32362:32379  rAmount.sub(rFee) */\n      tag_548\n        /* \"contracts/GetSchiffyGold.sol\":32362:32369  rAmount */\n      dup7\n        /* \"contracts/GetSchiffyGold.sol\":32374:32378  rFee */\n      dup7\n        /* \"contracts/GetSchiffyGold.sol\":32362:32373  rAmount.sub */\n      tag_324\n        /* \"contracts/GetSchiffyGold.sol\":32362:32379  rAmount.sub(rFee) */\n      jump\t// in\n        /* \"contracts/GetSchiffyGold.sol\":32362:32396  rAmount.sub(rFee).sub(rPlayToEarn) */\n    tag_553:\n        /* \"contracts/GetSchiffyGold.sol\":32414:32421  rAmount */\n      swap4\n      swap12\n      swap4\n      swap11\n      pop\n        /* \"contracts/GetSchiffyGold.sol\":32440:32444  rFee */\n      swap2\n      swap9\n      pop\n        /* \"contracts/GetSchiffyGold.sol\":32025:32452  function _getRValues(uint256 tAmount, uint256 tFee, uint256 tPlayToEarn, uint256 currentRate) private pure returns (uint256, uint256, uint256) {... */\n      swap2\n      swap7\n      pop\n      pop\n      pop\n      pop\n      pop\n      pop\n      pop\n      jump\t// out\n        /* \"contracts/GetSchiffyGold.sol\":33861:34077  function removeAllFee() private {... */\n    tag_494:\n        /* \"contracts/GetSchiffyGold.sol\":33906:33913  _taxFee */\n      sload(0x13)\n        /* \"contracts/GetSchiffyGold.sol\":33906:33918  _taxFee == 0 */\n      iszero\n        /* \"contracts/GetSchiffyGold.sol\":33906:33938  _taxFee == 0 && _playToEarn == 0 */\n      dup1\n      iszero\n      tag_556\n      jumpi\n      pop\n        /* \"contracts/GetSchiffyGold.sol\":33922:33933  _playToEarn */\n      sload(0x10)\n        /* \"contracts/GetSchiffyGold.sol\":33922:33938  _playToEarn == 0 */\n      iszero\n        /* \"contracts/GetSchiffyGold.sol\":33906:33938  _taxFee == 0 && _playToEarn == 0 */\n    tag_556:\n        /* \"contracts/GetSchiffyGold.sol\":33903:33947  if(_taxFee == 0 && _playToEarn == 0) return; */\n      iszero\n      tag_557\n      jumpi\n        /* \"contracts/GetSchiffyGold.sol\":33861:34077  function removeAllFee() private {... */\n      jump\t// out\n        /* \"contracts/GetSchiffyGold.sol\":33903:33947  if(_taxFee == 0 && _playToEarn == 0) return; */\n    tag_557:\n        /* \"contracts/GetSchiffyGold.sol\":33974:33981  _taxFee */\n      0x13\n      dup1\n      sload\n        /* \"contracts/GetSchiffyGold.sol\":33956:33971  _previousTaxFee */\n      0x14\n        /* \"contracts/GetSchiffyGold.sol\":33956:33981  _previousTaxFee = _taxFee */\n      sstore\n        /* \"contracts/GetSchiffyGold.sol\":34013:34024  _playToEarn */\n      0x10\n      dup1\n      sload\n        /* \"contracts/GetSchiffyGold.sol\":33991:34010  _previousPlayToEarn */\n      0x11\n        /* \"contracts/GetSchiffyGold.sol\":33991:34024  _previousPlayToEarn = _playToEarn */\n      sstore\n      0x00\n        /* \"contracts/GetSchiffyGold.sol\":34034:34045  _taxFee = 0 */\n      swap2\n      dup3\n      swap1\n      sstore\n        /* \"contracts/GetSchiffyGold.sol\":34055:34070  _playToEarn = 0 */\n      sstore\n        /* \"contracts/GetSchiffyGold.sol\":33861:34077  function removeAllFee() private {... */\n      jump\t// out\n        /* \"contracts/GetSchiffyGold.sol\":37730:38291  function _transferFromExcluded(address sender, address recipient, uint256 tAmount) private {... */\n    tag_498:\n        /* \"contracts/GetSchiffyGold.sol\":37832:37847  uint256 rAmount */\n      0x00\n        /* \"contracts/GetSchiffyGold.sol\":37849:37872  uint256 rTransferAmount */\n      dup1\n        /* \"contracts/GetSchiffyGold.sol\":37874:37886  uint256 rFee */\n      0x00\n        /* \"contracts/GetSchiffyGold.sol\":37888:37911  uint256 tTransferAmount */\n      dup1\n        /* \"contracts/GetSchiffyGold.sol\":37913:37925  uint256 tFee */\n      0x00\n        /* \"contracts/GetSchiffyGold.sol\":37927:37946  uint256 tPlayToEarn */\n      dup1\n        /* \"contracts/GetSchiffyGold.sol\":37950:37969  _getValues(tAmount) */\n      tag_559\n        /* \"contracts/GetSchiffyGold.sol\":37961:37968  tAmount */\n      dup8\n        /* \"contracts/GetSchiffyGold.sol\":37950:37960  _getValues */\n      tag_322\n        /* \"contracts/GetSchiffyGold.sol\":37950:37969  _getValues(tAmount) */\n      jump\t// in\n    tag_559:\n      sub(shl(0xa0, 0x01), 0x01)\n        /* \"contracts/GetSchiffyGold.sol\":37997:38012  _tOwned[sender] */\n      dup16\n      and\n      0x00\n      swap1\n      dup2\n      mstore\n        /* \"contracts/GetSchiffyGold.sol\":37997:38004  _tOwned */\n      0x04\n        /* \"contracts/GetSchiffyGold.sol\":37997:38012  _tOwned[sender] */\n      0x20\n      mstore\n      0x40\n      swap1\n      keccak256\n      sload\n        /* \"contracts/GetSchiffyGold.sol\":37831:37969  (uint256 rAmount, uint256 rTransferAmount, uint256 rFee, uint256 tTransferAmount, uint256 tFee, uint256 tPlayToEarn) = _getValues(tAmount) */\n      swap6\n      swap12\n      pop\n      swap4\n      swap10\n      pop\n      swap2\n      swap8\n      pop\n      swap6\n      pop\n      swap4\n      pop\n      swap2\n      pop\n        /* \"contracts/GetSchiffyGold.sol\":37997:38025  _tOwned[sender].sub(tAmount) */\n      tag_560\n      swap1\n        /* \"contracts/GetSchiffyGold.sol\":38017:38024  tAmount */\n      dup9\n        /* \"contracts/GetSchiffyGold.sol\":37997:38016  _tOwned[sender].sub */\n      tag_324\n        /* \"contracts/GetSchiffyGold.sol\":37997:38025  _tOwned[sender].sub(tAmount) */\n      jump\t// in\n    tag_560:\n      sub(shl(0xa0, 0x01), 0x01)\n        /* \"contracts/GetSchiffyGold.sol\":37979:37994  _tOwned[sender] */\n      dup11\n      and\n      0x00\n      swap1\n      dup2\n      mstore\n        /* \"contracts/GetSchiffyGold.sol\":37979:37986  _tOwned */\n      0x04\n        /* \"contracts/GetSchiffyGold.sol\":37979:37994  _tOwned[sender] */\n      0x20\n      swap1\n      dup2\n      mstore\n      0x40\n      dup1\n      dup4\n      keccak256\n        /* \"contracts/GetSchiffyGold.sol\":37979:38025  _tOwned[sender] = _tOwned[sender].sub(tAmount) */\n      swap4\n      swap1\n      swap4\n      sstore\n        /* \"contracts/GetSchiffyGold.sol\":38053:38060  _rOwned */\n      0x03\n        /* \"contracts/GetSchiffyGold.sol\":38053:38068  _rOwned[sender] */\n      swap1\n      mstore\n      keccak256\n      sload\n        /* \"contracts/GetSchiffyGold.sol\":38053:38081  _rOwned[sender].sub(rAmount) */\n      tag_561\n      swap1\n        /* \"contracts/GetSchiffyGold.sol\":38073:38080  rAmount */\n      dup8\n        /* \"contracts/GetSchiffyGold.sol\":38053:38072  _rOwned[sender].sub */\n      tag_324\n        /* \"contracts/GetSchiffyGold.sol\":38053:38081  _rOwned[sender].sub(rAmount) */\n      jump\t// in\n    tag_561:\n      sub(shl(0xa0, 0x01), 0x01)\n        /* \"contracts/GetSchiffyGold.sol\":38035:38050  _rOwned[sender] */\n      dup1\n      dup12\n      and\n      0x00\n      swap1\n      dup2\n      mstore\n        /* \"contracts/GetSchiffyGold.sol\":38035:38042  _rOwned */\n      0x03\n        /* \"contracts/GetSchiffyGold.sol\":38035:38050  _rOwned[sender] */\n      0x20\n      mstore\n      0x40\n      dup1\n      dup3\n      keccak256\n        /* \"contracts/GetSchiffyGold.sol\":38035:38081  _rOwned[sender] = _rOwned[sender].sub(rAmount) */\n      swap4\n      swap1\n      swap4\n      sstore\n        /* \"contracts/GetSchiffyGold.sol\":38112:38130  _rOwned[recipient] */\n      swap1\n      dup11\n      and\n      dup2\n      mstore\n      keccak256\n      sload\n        /* \"contracts/GetSchiffyGold.sol\":38112:38151  _rOwned[recipient].add(rTransferAmount) */\n      tag_562\n      swap1\n        /* \"contracts/GetSchiffyGold.sol\":38135:38150  rTransferAmount */\n      dup7\n        /* \"contracts/GetSchiffyGold.sol\":38112:38134  _rOwned[recipient].add */\n      tag_315\n        /* \"contracts/GetSchiffyGold.sol\":38112:38151  _rOwned[recipient].add(rTransferAmount) */\n      jump\t// in\n    tag_562:\n      sub(shl(0xa0, 0x01), 0x01)\n        /* \"contracts/GetSchiffyGold.sol\":38091:38109  _rOwned[recipient] */\n      dup10\n      and\n      0x00\n      swap1\n      dup2\n      mstore\n        /* \"contracts/GetSchiffyGold.sol\":38091:38098  _rOwned */\n      0x03\n        /* \"contracts/GetSchiffyGold.sol\":38091:38109  _rOwned[recipient] */\n      0x20\n      mstore\n      0x40\n      swap1\n      keccak256\n        /* \"contracts/GetSchiffyGold.sol\":38091:38151  _rOwned[recipient] = _rOwned[recipient].add(rTransferAmount) */\n      sstore\n        /* \"contracts/GetSchiffyGold.sol\":38164:38192  _takePlayToEarn(tPlayToEarn) */\n      tag_563\n        /* \"contracts/GetSchiffyGold.sol\":38180:38191  tPlayToEarn */\n      dup2\n        /* \"contracts/GetSchiffyGold.sol\":38164:38179  _takePlayToEarn */\n      tag_564\n        /* \"contracts/GetSchiffyGold.sol\":38164:38192  _takePlayToEarn(tPlayToEarn) */\n      jump\t// in\n    tag_563:\n        /* \"contracts/GetSchiffyGold.sol\":38202:38225  _reflectFee(rFee, tFee) */\n      tag_565\n        /* \"contracts/GetSchiffyGold.sol\":38214:38218  rFee */\n      dup5\n        /* \"contracts/GetSchiffyGold.sol\":38220:38224  tFee */\n      dup4\n        /* \"contracts/GetSchiffyGold.sol\":38202:38213  _reflectFee */\n      tag_566\n        /* \"contracts/GetSchiffyGold.sol\":38202:38225  _reflectFee(rFee, tFee) */\n      jump\t// in\n    tag_565:\n        /* \"contracts/GetSchiffyGold.sol\":38257:38266  recipient */\n      dup8\n      sub(shl(0xa0, 0x01), 0x01)\n        /* \"contracts/GetSchiffyGold.sol\":38240:38284  Transfer(sender, recipient, tTransferAmount) */\n      and\n        /* \"contracts/GetSchiffyGold.sol\":38249:38255  sender */\n      dup10\n      sub(shl(0xa0, 0x01), 0x01)\n        /* \"contracts/GetSchiffyGold.sol\":38240:38284  Transfer(sender, recipient, tTransferAmount) */\n      and\n      0xddf252ad1be2c89b69c2b068fc378daa952ba7f163c4a11628f55a4df523b3ef\n        /* \"contracts/GetSchiffyGold.sol\":38268:38283  tTransferAmount */\n      dup6\n        /* \"contracts/GetSchiffyGold.sol\":38240:38284  Transfer(sender, recipient, tTransferAmount) */\n      mload(0x40)\n      tag_567\n      swap2\n        /* \"#utility.yul\":10025:10050   */\n      dup2\n      mstore\n        /* \"#utility.yul\":10013:10015   */\n      0x20\n        /* \"#utility.yul\":9998:10016   */\n      add\n      swap1\n        /* \"#utility.yul\":9879:10056   */\n      jump\n        /* \"contracts/GetSchiffyGold.sol\":38240:38284  Transfer(sender, recipient, tTransferAmount) */\n    tag_567:\n      mload(0x40)\n      dup1\n      swap2\n      sub\n      swap1\n      log3\n        /* \"contracts/GetSchiffyGold.sol\":37821:38291  {... */\n      pop\n      pop\n      pop\n      pop\n      pop\n      pop\n        /* \"contracts/GetSchiffyGold.sol\":37730:38291  function _transferFromExcluded(address sender, address recipient, uint256 tAmount) private {... */\n      pop\n      pop\n      pop\n      jump\t// out\n        /* \"contracts/GetSchiffyGold.sol\":37143:37724  function _transferToExcluded(address sender, address recipient, uint256 tAmount) private {... */\n    tag_503:\n        /* \"contracts/GetSchiffyGold.sol\":37243:37258  uint256 rAmount */\n      0x00\n        /* \"contracts/GetSchiffyGold.sol\":37260:37283  uint256 rTransferAmount */\n      dup1\n        /* \"contracts/GetSchiffyGold.sol\":37285:37297  uint256 rFee */\n      0x00\n        /* \"contracts/GetSchiffyGold.sol\":37299:37322  uint256 tTransferAmount */\n      dup1\n        /* \"contracts/GetSchiffyGold.sol\":37324:37336  uint256 tFee */\n      0x00\n        /* \"contracts/GetSchiffyGold.sol\":37338:37357  uint256 tPlayToEarn */\n      dup1\n        /* \"contracts/GetSchiffyGold.sol\":37361:37380  _getValues(tAmount) */\n      tag_569\n        /* \"contracts/GetSchiffyGold.sol\":37372:37379  tAmount */\n      dup8\n        /* \"contracts/GetSchiffyGold.sol\":37361:37371  _getValues */\n      tag_322\n        /* \"contracts/GetSchiffyGold.sol\":37361:37380  _getValues(tAmount) */\n      jump\t// in\n    tag_569:\n      sub(shl(0xa0, 0x01), 0x01)\n        /* \"contracts/GetSchiffyGold.sol\":37408:37423  _rOwned[sender] */\n      dup16\n      and\n      0x00\n      swap1\n      dup2\n      mstore\n        /* \"contracts/GetSchiffyGold.sol\":37408:37415  _rOwned */\n      0x03\n        /* \"contracts/GetSchiffyGold.sol\":37408:37423  _rOwned[sender] */\n      0x20\n      mstore\n      0x40\n      swap1\n      keccak256\n      sload\n        /* \"contracts/GetSchiffyGold.sol\":37242:37380  (uint256 rAmount, uint256 rTransferAmount, uint256 rFee, uint256 tTransferAmount, uint256 tFee, uint256 tPlayToEarn) = _getValues(tAmount) */\n      swap6\n      swap12\n      pop\n      swap4\n      swap10\n      pop\n      swap2\n      swap8\n      pop\n      swap6\n      pop\n      swap4\n      pop\n      swap2\n      pop\n        /* \"contracts/GetSchiffyGold.sol\":37408:37436  _rOwned[sender].sub(rAmount) */\n      tag_570\n      swap1\n        /* \"contracts/GetSchiffyGold.sol\":37242:37380  (uint256 rAmount, uint256 rTransferAmount, uint256 rFee, uint256 tTransferAmount, uint256 tFee, uint256 tPlayToEarn) = _getValues(tAmount) */\n      dup8\n        /* \"contracts/GetSchiffyGold.sol\":37408:37427  _rOwned[sender].sub */\n      tag_324\n        /* \"contracts/GetSchiffyGold.sol\":37408:37436  _rOwned[sender].sub(rAmount) */\n      jump\t// in\n    tag_570:\n      sub(shl(0xa0, 0x01), 0x01)\n        /* \"contracts/GetSchiffyGold.sol\":37390:37405  _rOwned[sender] */\n      dup1\n      dup12\n      and\n      0x00\n      swap1\n      dup2\n      mstore\n        /* \"contracts/GetSchiffyGold.sol\":37390:37397  _rOwned */\n      0x03\n        /* \"contracts/GetSchiffyGold.sol\":37390:37405  _rOwned[sender] */\n      0x20\n      swap1\n      dup2\n      mstore\n      0x40\n      dup1\n      dup4\n      keccak256\n        /* \"contracts/GetSchiffyGold.sol\":37390:37436  _rOwned[sender] = _rOwned[sender].sub(rAmount) */\n      swap5\n      swap1\n      swap5\n      sstore\n        /* \"contracts/GetSchiffyGold.sol\":37467:37485  _tOwned[recipient] */\n      swap2\n      dup12\n      and\n      dup2\n      mstore\n        /* \"contracts/GetSchiffyGold.sol\":37467:37474  _tOwned */\n      0x04\n        /* \"contracts/GetSchiffyGold.sol\":37467:37485  _tOwned[recipient] */\n      swap1\n      swap2\n      mstore\n      keccak256\n      sload\n        /* \"contracts/GetSchiffyGold.sol\":37467:37506  _tOwned[recipient].add(tTransferAmount) */\n      tag_571\n      swap1\n        /* \"contracts/GetSchiffyGold.sol\":37490:37505  tTransferAmount */\n      dup5\n        /* \"contracts/GetSchiffyGold.sol\":37467:37489  _tOwned[recipient].add */\n      tag_315\n        /* \"contracts/GetSchiffyGold.sol\":37467:37506  _tOwned[recipient].add(tTransferAmount) */\n      jump\t// in\n    tag_571:\n      sub(shl(0xa0, 0x01), 0x01)\n        /* \"contracts/GetSchiffyGold.sol\":37446:37464  _tOwned[recipient] */\n      dup10\n      and\n      0x00\n      swap1\n      dup2\n      mstore\n        /* \"contracts/GetSchiffyGold.sol\":37446:37453  _tOwned */\n      0x04\n        /* \"contracts/GetSchiffyGold.sol\":37446:37464  _tOwned[recipient] */\n      0x20\n      swap1\n      dup2\n      mstore\n      0x40\n      dup1\n      dup4\n      keccak256\n        /* \"contracts/GetSchiffyGold.sol\":37446:37506  _tOwned[recipient] = _tOwned[recipient].add(tTransferAmount) */\n      swap4\n      swap1\n      swap4\n      sstore\n        /* \"contracts/GetSchiffyGold.sol\":37537:37544  _rOwned */\n      0x03\n        /* \"contracts/GetSchiffyGold.sol\":37537:37555  _rOwned[recipient] */\n      swap1\n      mstore\n      keccak256\n      sload\n        /* \"contracts/GetSchiffyGold.sol\":37537:37576  _rOwned[recipient].add(rTransferAmount) */\n      tag_562\n      swap1\n        /* \"contracts/GetSchiffyGold.sol\":37560:37575  rTransferAmount */\n      dup7\n        /* \"contracts/GetSchiffyGold.sol\":37537:37559  _rOwned[recipient].add */\n      tag_315\n        /* \"contracts/GetSchiffyGold.sol\":37537:37576  _rOwned[recipient].add(rTransferAmount) */\n      jump\t// in\n        /* \"contracts/GetSchiffyGold.sol\":36639:37137  function _transferStandard(address sender, address recipient, uint256 tAmount) private {... */\n    tag_508:\n        /* \"contracts/GetSchiffyGold.sol\":36737:36752  uint256 rAmount */\n      0x00\n        /* \"contracts/GetSchiffyGold.sol\":36754:36777  uint256 rTransferAmount */\n      dup1\n        /* \"contracts/GetSchiffyGold.sol\":36779:36791  uint256 rFee */\n      0x00\n        /* \"contracts/GetSchiffyGold.sol\":36793:36816  uint256 tTransferAmount */\n      dup1\n        /* \"contracts/GetSchiffyGold.sol\":36818:36830  uint256 tFee */\n      0x00\n        /* \"contracts/GetSchiffyGold.sol\":36832:36851  uint256 tPlayToEarn */\n      dup1\n        /* \"contracts/GetSchiffyGold.sol\":36855:36874  _getValues(tAmount) */\n      tag_577\n        /* \"contracts/GetSchiffyGold.sol\":36866:36873  tAmount */\n      dup8\n        /* \"contracts/GetSchiffyGold.sol\":36855:36865  _getValues */\n      tag_322\n        /* \"contracts/GetSchiffyGold.sol\":36855:36874  _getValues(tAmount) */\n      jump\t// in\n    tag_577:\n      sub(shl(0xa0, 0x01), 0x01)\n        /* \"contracts/GetSchiffyGold.sol\":36902:36917  _rOwned[sender] */\n      dup16\n      and\n      0x00\n      swap1\n      dup2\n      mstore\n        /* \"contracts/GetSchiffyGold.sol\":36902:36909  _rOwned */\n      0x03\n        /* \"contracts/GetSchiffyGold.sol\":36902:36917  _rOwned[sender] */\n      0x20\n      mstore\n      0x40\n      swap1\n      keccak256\n      sload\n        /* \"contracts/GetSchiffyGold.sol\":36736:36874  (uint256 rAmount, uint256 rTransferAmount, uint256 rFee, uint256 tTransferAmount, uint256 tFee, uint256 tPlayToEarn) = _getValues(tAmount) */\n      swap6\n      swap12\n      pop\n      swap4\n      swap10\n      pop\n      swap2\n      swap8\n      pop\n      swap6\n      pop\n      swap4\n      pop\n      swap2\n      pop\n        /* \"contracts/GetSchiffyGold.sol\":36902:36930  _rOwned[sender].sub(rAmount) */\n      tag_561\n      swap1\n        /* \"contracts/GetSchiffyGold.sol\":36736:36874  (uint256 rAmount, uint256 rTransferAmount, uint256 rFee, uint256 tTransferAmount, uint256 tFee, uint256 tPlayToEarn) = _getValues(tAmount) */\n      dup8\n        /* \"contracts/GetSchiffyGold.sol\":36902:36921  _rOwned[sender].sub */\n      tag_324\n        /* \"contracts/GetSchiffyGold.sol\":36902:36930  _rOwned[sender].sub(rAmount) */\n      jump\t// in\n        /* \"contracts/GetSchiffyGold.sol\":29821:30457  function _transferBothExcluded(address sender, address recipient, uint256 tAmount) private {... */\n    tag_513:\n        /* \"contracts/GetSchiffyGold.sol\":29923:29938  uint256 rAmount */\n      0x00\n        /* \"contracts/GetSchiffyGold.sol\":29940:29963  uint256 rTransferAmount */\n      dup1\n        /* \"contracts/GetSchiffyGold.sol\":29965:29977  uint256 rFee */\n      0x00\n        /* \"contracts/GetSchiffyGold.sol\":29979:30002  uint256 tTransferAmount */\n      dup1\n        /* \"contracts/GetSchiffyGold.sol\":30004:30016  uint256 tFee */\n      0x00\n        /* \"contracts/GetSchiffyGold.sol\":30018:30037  uint256 tPlayToEarn */\n      dup1\n        /* \"contracts/GetSchiffyGold.sol\":30041:30060  _getValues(tAmount) */\n      tag_584\n        /* \"contracts/GetSchiffyGold.sol\":30052:30059  tAmount */\n      dup8\n        /* \"contracts/GetSchiffyGold.sol\":30041:30051  _getValues */\n      tag_322\n        /* \"contracts/GetSchiffyGold.sol\":30041:30060  _getValues(tAmount) */\n      jump\t// in\n    tag_584:\n      sub(shl(0xa0, 0x01), 0x01)\n        /* \"contracts/GetSchiffyGold.sol\":30088:30103  _tOwned[sender] */\n      dup16\n      and\n      0x00\n      swap1\n      dup2\n      mstore\n        /* \"contracts/GetSchiffyGold.sol\":30088:30095  _tOwned */\n      0x04\n        /* \"contracts/GetSchiffyGold.sol\":30088:30103  _tOwned[sender] */\n      0x20\n      mstore\n      0x40\n      swap1\n      keccak256\n      sload\n        /* \"contracts/GetSchiffyGold.sol\":29922:30060  (uint256 rAmount, uint256 rTransferAmount, uint256 rFee, uint256 tTransferAmount, uint256 tFee, uint256 tPlayToEarn) = _getValues(tAmount) */\n      swap6\n      swap12\n      pop\n      swap4\n      swap10\n      pop\n      swap2\n      swap8\n      pop\n      swap6\n      pop\n      swap4\n      pop\n      swap2\n      pop\n        /* \"contracts/GetSchiffyGold.sol\":30088:30116  _tOwned[sender].sub(tAmount) */\n      tag_585\n      swap1\n        /* \"contracts/GetSchiffyGold.sol\":30108:30115  tAmount */\n      dup9\n        /* \"contracts/GetSchiffyGold.sol\":30088:30107  _tOwned[sender].sub */\n      tag_324\n        /* \"contracts/GetSchiffyGold.sol\":30088:30116  _tOwned[sender].sub(tAmount) */\n      jump\t// in\n    tag_585:\n      sub(shl(0xa0, 0x01), 0x01)\n        /* \"contracts/GetSchiffyGold.sol\":30070:30085  _tOwned[sender] */\n      dup11\n      and\n      0x00\n      swap1\n      dup2\n      mstore\n        /* \"contracts/GetSchiffyGold.sol\":30070:30077  _tOwned */\n      0x04\n        /* \"contracts/GetSchiffyGold.sol\":30070:30085  _tOwned[sender] */\n      0x20\n      swap1\n      dup2\n      mstore\n      0x40\n      dup1\n      dup4\n      keccak256\n        /* \"contracts/GetSchiffyGold.sol\":30070:30116  _tOwned[sender] = _tOwned[sender].sub(tAmount) */\n      swap4\n      swap1\n      swap4\n      sstore\n        /* \"contracts/GetSchiffyGold.sol\":30144:30151  _rOwned */\n      0x03\n        /* \"contracts/GetSchiffyGold.sol\":30144:30159  _rOwned[sender] */\n      swap1\n      mstore\n      keccak256\n      sload\n        /* \"contracts/GetSchiffyGold.sol\":30144:30172  _rOwned[sender].sub(rAmount) */\n      tag_570\n      swap1\n        /* \"contracts/GetSchiffyGold.sol\":30164:30171  rAmount */\n      dup8\n        /* \"contracts/GetSchiffyGold.sol\":30144:30163  _rOwned[sender].sub */\n      tag_324\n        /* \"contracts/GetSchiffyGold.sol\":30144:30172  _rOwned[sender].sub(rAmount) */\n      jump\t// in\n        /* \"contracts/GetSchiffyGold.sol\":33581:33709  function calculateTaxFee(uint256 _amount) private view returns (uint256) {... */\n    tag_544:\n        /* \"contracts/GetSchiffyGold.sol\":33645:33652  uint256 */\n      0x00\n        /* \"contracts/GetSchiffyGold.sol\":33671:33702  _amount.mul(_taxFee).div(10**3) */\n      tag_242\n        /* \"contracts/GetSchiffyGold.sol\":33696:33701  10**3 */\n      0x03e8\n        /* \"contracts/GetSchiffyGold.sol\":33671:33691  _amount.mul(_taxFee) */\n      tag_395\n        /* \"contracts/GetSchiffyGold.sol\":33683:33690  _taxFee */\n      sload(0x13)\n        /* \"contracts/GetSchiffyGold.sol\":33671:33678  _amount */\n      dup6\n        /* \"contracts/GetSchiffyGold.sol\":33671:33682  _amount.mul */\n      tag_226\n      swap1\n        /* \"contracts/GetSchiffyGold.sol\":33671:33691  _amount.mul(_taxFee) */\n      swap2\n      swap1\n      0xffffffff\n      and\n      jump\t// in\n        /* \"contracts/GetSchiffyGold.sol\":33715:33851  function calculatePlayToEarn(uint256 _amount) private view returns (uint256) {... */\n    tag_546:\n        /* \"contracts/GetSchiffyGold.sol\":33783:33790  uint256 */\n      0x00\n        /* \"contracts/GetSchiffyGold.sol\":33809:33844  _amount.mul(_playToEarn).div(10**3) */\n      tag_242\n        /* \"contracts/GetSchiffyGold.sol\":33838:33843  10**3 */\n      0x03e8\n        /* \"contracts/GetSchiffyGold.sol\":33809:33833  _amount.mul(_playToEarn) */\n      tag_395\n        /* \"contracts/GetSchiffyGold.sol\":33821:33832  _playToEarn */\n      sload(0x10)\n        /* \"contracts/GetSchiffyGold.sol\":33809:33816  _amount */\n      dup6\n        /* \"contracts/GetSchiffyGold.sol\":33809:33820  _amount.mul */\n      tag_226\n      swap1\n        /* \"contracts/GetSchiffyGold.sol\":33809:33833  _amount.mul(_playToEarn) */\n      swap2\n      swap1\n      0xffffffff\n      and\n      jump\t// in\n        /* \"contracts/GetSchiffyGold.sol\":33185:33571  function _takePlayToEarn(uint256 tPlayToEarn) private {... */\n    tag_564:\n        /* \"contracts/GetSchiffyGold.sol\":33249:33268  uint256 currentRate */\n      0x00\n        /* \"contracts/GetSchiffyGold.sol\":33272:33282  _getRate() */\n      tag_600\n        /* \"contracts/GetSchiffyGold.sol\":33272:33280  _getRate */\n      tag_277\n        /* \"contracts/GetSchiffyGold.sol\":33272:33282  _getRate() */\n      jump\t// in\n    tag_600:\n        /* \"contracts/GetSchiffyGold.sol\":33249:33282  uint256 currentRate =  _getRate() */\n      swap1\n      pop\n        /* \"contracts/GetSchiffyGold.sol\":33292:33311  uint256 rPlayToEarn */\n      0x00\n        /* \"contracts/GetSchiffyGold.sol\":33314:33342  tPlayToEarn.mul(currentRate) */\n      tag_601\n        /* \"contracts/GetSchiffyGold.sol\":33314:33325  tPlayToEarn */\n      dup4\n        /* \"contracts/GetSchiffyGold.sol\":33249:33282  uint256 currentRate =  _getRate() */\n      dup4\n        /* \"contracts/GetSchiffyGold.sol\":33314:33329  tPlayToEarn.mul */\n      tag_226\n        /* \"contracts/GetSchiffyGold.sol\":33314:33342  tPlayToEarn.mul(currentRate) */\n      jump\t// in\n    tag_601:\n        /* \"contracts/GetSchiffyGold.sol\":33389:33406  _playToEarnWallet */\n      and(sub(shl(0xa0, 0x01), 0x01), sload(0x12))\n        /* \"contracts/GetSchiffyGold.sol\":33381:33407  _rOwned[_playToEarnWallet] */\n      0x00\n      swap1\n      dup2\n      mstore\n        /* \"contracts/GetSchiffyGold.sol\":33381:33388  _rOwned */\n      0x03\n        /* \"contracts/GetSchiffyGold.sol\":33381:33407  _rOwned[_playToEarnWallet] */\n      0x20\n      mstore\n      0x40\n      swap1\n      keccak256\n      sload\n        /* \"contracts/GetSchiffyGold.sol\":33292:33342  uint256 rPlayToEarn = tPlayToEarn.mul(currentRate) */\n      swap1\n      swap2\n      pop\n        /* \"contracts/GetSchiffyGold.sol\":33381:33424  _rOwned[_playToEarnWallet].add(rPlayToEarn) */\n      tag_602\n      swap1\n        /* \"contracts/GetSchiffyGold.sol\":33292:33342  uint256 rPlayToEarn = tPlayToEarn.mul(currentRate) */\n      dup3\n        /* \"contracts/GetSchiffyGold.sol\":33381:33411  _rOwned[_playToEarnWallet].add */\n      tag_315\n        /* \"contracts/GetSchiffyGold.sol\":33381:33424  _rOwned[_playToEarnWallet].add(rPlayToEarn) */\n      jump\t// in\n    tag_602:\n        /* \"contracts/GetSchiffyGold.sol\":33360:33377  _playToEarnWallet */\n      0x12\n      dup1\n      sload\n      sub(shl(0xa0, 0x01), 0x01)\n      swap1\n      dup2\n      and\n        /* \"contracts/GetSchiffyGold.sol\":33352:33378  _rOwned[_playToEarnWallet] */\n      0x00\n      swap1\n      dup2\n      mstore\n        /* \"contracts/GetSchiffyGold.sol\":33352:33359  _rOwned */\n      0x03\n        /* \"contracts/GetSchiffyGold.sol\":33352:33378  _rOwned[_playToEarnWallet] */\n      0x20\n      swap1\n      dup2\n      mstore\n      0x40\n      dup1\n      dup4\n      keccak256\n        /* \"contracts/GetSchiffyGold.sol\":33352:33424  _rOwned[_playToEarnWallet] = _rOwned[_playToEarnWallet].add(rPlayToEarn) */\n      swap6\n      swap1\n      swap6\n      sstore\n        /* \"contracts/GetSchiffyGold.sol\":33449:33466  _playToEarnWallet */\n      swap3\n      sload\n      swap1\n      swap2\n      and\n        /* \"contracts/GetSchiffyGold.sol\":33437:33467  _isExcluded[_playToEarnWallet] */\n      dup2\n      mstore\n        /* \"contracts/GetSchiffyGold.sol\":33437:33448  _isExcluded */\n      0x07\n        /* \"contracts/GetSchiffyGold.sol\":33437:33467  _isExcluded[_playToEarnWallet] */\n      swap1\n      swap2\n      mstore\n      keccak256\n      sload\n      0xff\n      and\n        /* \"contracts/GetSchiffyGold.sol\":33434:33565  if(_isExcluded[_playToEarnWallet]){... */\n      iszero\n      tag_603\n      jumpi\n        /* \"contracts/GetSchiffyGold.sol\":33519:33536  _playToEarnWallet */\n      and(sub(shl(0xa0, 0x01), 0x01), sload(0x12))\n        /* \"contracts/GetSchiffyGold.sol\":33511:33537  _tOwned[_playToEarnWallet] */\n      0x00\n      swap1\n      dup2\n      mstore\n        /* \"contracts/GetSchiffyGold.sol\":33511:33518  _tOwned */\n      0x04\n        /* \"contracts/GetSchiffyGold.sol\":33511:33537  _tOwned[_playToEarnWallet] */\n      0x20\n      mstore\n      0x40\n      swap1\n      keccak256\n      sload\n        /* \"contracts/GetSchiffyGold.sol\":33511:33554  _tOwned[_playToEarnWallet].add(tPlayToEarn) */\n      tag_604\n      swap1\n        /* \"contracts/GetSchiffyGold.sol\":33542:33553  tPlayToEarn */\n      dup5\n        /* \"contracts/GetSchiffyGold.sol\":33511:33541  _tOwned[_playToEarnWallet].add */\n      tag_315\n        /* \"contracts/GetSchiffyGold.sol\":33511:33554  _tOwned[_playToEarnWallet].add(tPlayToEarn) */\n      jump\t// in\n    tag_604:\n        /* \"contracts/GetSchiffyGold.sol\":33490:33507  _playToEarnWallet */\n      and(sub(shl(0xa0, 0x01), 0x01), sload(0x12))\n        /* \"contracts/GetSchiffyGold.sol\":33482:33508  _tOwned[_playToEarnWallet] */\n      0x00\n      swap1\n      dup2\n      mstore\n        /* \"contracts/GetSchiffyGold.sol\":33482:33489  _tOwned */\n      0x04\n        /* \"contracts/GetSchiffyGold.sol\":33482:33508  _tOwned[_playToEarnWallet] */\n      0x20\n      mstore\n      0x40\n      swap1\n      keccak256\n        /* \"contracts/GetSchiffyGold.sol\":33482:33554  _tOwned[_playToEarnWallet] = _tOwned[_playToEarnWallet].add(tPlayToEarn) */\n      sstore\n        /* \"contracts/GetSchiffyGold.sol\":33434:33565  if(_isExcluded[_playToEarnWallet]){... */\n    tag_603:\n        /* \"contracts/GetSchiffyGold.sol\":33239:33571  {... */\n      pop\n      pop\n        /* \"contracts/GetSchiffyGold.sol\":33185:33571  function _takePlayToEarn(uint256 tPlayToEarn) private {... */\n      pop\n      jump\t// out\n        /* \"contracts/GetSchiffyGold.sol\":31119:31263  function _reflectFee(uint256 rFee, uint256 tFee) private {... */\n    tag_566:\n        /* \"contracts/GetSchiffyGold.sol\":31196:31203  _rTotal */\n      sload(0x0b)\n        /* \"contracts/GetSchiffyGold.sol\":31196:31213  _rTotal.sub(rFee) */\n      tag_606\n      swap1\n        /* \"contracts/GetSchiffyGold.sol\":31208:31212  rFee */\n      dup4\n        /* \"contracts/GetSchiffyGold.sol\":31196:31207  _rTotal.sub */\n      tag_324\n        /* \"contracts/GetSchiffyGold.sol\":31196:31213  _rTotal.sub(rFee) */\n      jump\t// in\n    tag_606:\n        /* \"contracts/GetSchiffyGold.sol\":31186:31193  _rTotal */\n      0x0b\n        /* \"contracts/GetSchiffyGold.sol\":31186:31213  _rTotal = _rTotal.sub(rFee) */\n      sstore\n        /* \"contracts/GetSchiffyGold.sol\":31236:31246  _tFeeTotal */\n      sload(0x0c)\n        /* \"contracts/GetSchiffyGold.sol\":31236:31256  _tFeeTotal.add(tFee) */\n      tag_607\n      swap1\n        /* \"contracts/GetSchiffyGold.sol\":31251:31255  tFee */\n      dup3\n        /* \"contracts/GetSchiffyGold.sol\":31236:31250  _tFeeTotal.add */\n      tag_315\n        /* \"contracts/GetSchiffyGold.sol\":31236:31256  _tFeeTotal.add(tFee) */\n      jump\t// in\n    tag_607:\n        /* \"contracts/GetSchiffyGold.sol\":31223:31233  _tFeeTotal */\n      0x0c\n        /* \"contracts/GetSchiffyGold.sol\":31223:31256  _tFeeTotal = _tFeeTotal.add(tFee) */\n      sstore\n      pop\n      pop\n        /* \"contracts/GetSchiffyGold.sol\":31119:31263  function _reflectFee(uint256 rFee, uint256 tFee) private {... */\n      jump\t// out\n        /* \"#utility.yul\":14:187   */\n    tag_609:\n        /* \"#utility.yul\":82:102   */\n      dup1\n      calldataload\n      sub(shl(0xa0, 0x01), 0x01)\n        /* \"#utility.yul\":131:162   */\n      dup2\n      and\n        /* \"#utility.yul\":121:163   */\n      dup2\n      eq\n        /* \"#utility.yul\":111:181   */\n      tag_611\n      jumpi\n        /* \"#utility.yul\":177:178   */\n      0x00\n        /* \"#utility.yul\":174:175   */\n      dup1\n        /* \"#utility.yul\":167:179   */\n      revert\n        /* \"#utility.yul\":111:181   */\n    tag_611:\n        /* \"#utility.yul\":14:187   */\n      swap2\n      swap1\n      pop\n      jump\t// out\n        /* \"#utility.yul\":192:378   */\n    tag_84:\n        /* \"#utility.yul\":251:257   */\n      0x00\n        /* \"#utility.yul\":304:306   */\n      0x20\n        /* \"#utility.yul\":292:301   */\n      dup3\n        /* \"#utility.yul\":283:290   */\n      dup5\n        /* \"#utility.yul\":279:302   */\n      sub\n        /* \"#utility.yul\":275:307   */\n      slt\n        /* \"#utility.yul\":272:324   */\n      iszero\n      tag_613\n      jumpi\n        /* \"#utility.yul\":320:321   */\n      0x00\n        /* \"#utility.yul\":317:318   */\n      dup1\n        /* \"#utility.yul\":310:322   */\n      revert\n        /* \"#utility.yul\":272:324   */\n    tag_613:\n        /* \"#utility.yul\":343:372   */\n      tag_278\n        /* \"#utility.yul\":362:371   */\n      dup3\n        /* \"#utility.yul\":343:372   */\n      tag_609\n      jump\t// in\n        /* \"#utility.yul\":383:643   */\n    tag_215:\n        /* \"#utility.yul\":451:457   */\n      0x00\n        /* \"#utility.yul\":459:465   */\n      dup1\n        /* \"#utility.yul\":512:514   */\n      0x40\n        /* \"#utility.yul\":500:509   */\n      dup4\n        /* \"#utility.yul\":491:498   */\n      dup6\n        /* \"#utility.yul\":487:510   */\n      sub\n        /* \"#utility.yul\":483:515   */\n      slt\n        /* \"#utility.yul\":480:532   */\n      iszero\n      tag_616\n      jumpi\n        /* \"#utility.yul\":528:529   */\n      0x00\n        /* \"#utility.yul\":525:526   */\n      dup1\n        /* \"#utility.yul\":518:530   */\n      revert\n        /* \"#utility.yul\":480:532   */\n    tag_616:\n        /* \"#utility.yul\":551:580   */\n      tag_617\n        /* \"#utility.yul\":570:579   */\n      dup4\n        /* \"#utility.yul\":551:580   */\n      tag_609\n      jump\t// in\n    tag_617:\n        /* \"#utility.yul\":541:580   */\n      swap2\n      pop\n        /* \"#utility.yul\":599:637   */\n      tag_618\n        /* \"#utility.yul\":633:635   */\n      0x20\n        /* \"#utility.yul\":622:631   */\n      dup5\n        /* \"#utility.yul\":618:636   */\n      add\n        /* \"#utility.yul\":599:637   */\n      tag_609\n      jump\t// in\n    tag_618:\n        /* \"#utility.yul\":589:637   */\n      swap1\n      pop\n        /* \"#utility.yul\":383:643   */\n      swap3\n      pop\n      swap3\n      swap1\n      pop\n      jump\t// out\n        /* \"#utility.yul\":648:976   */\n    tag_99:\n        /* \"#utility.yul\":725:731   */\n      0x00\n        /* \"#utility.yul\":733:739   */\n      dup1\n        /* \"#utility.yul\":741:747   */\n      0x00\n        /* \"#utility.yul\":794:796   */\n      0x60\n        /* \"#utility.yul\":782:791   */\n      dup5\n        /* \"#utility.yul\":773:780   */\n      dup7\n        /* \"#utility.yul\":769:792   */\n      sub\n        /* \"#utility.yul\":765:797   */\n      slt\n        /* \"#utility.yul\":762:814   */\n      iszero\n      tag_620\n      jumpi\n        /* \"#utility.yul\":810:811   */\n      0x00\n        /* \"#utility.yul\":807:808   */\n      dup1\n        /* \"#utility.yul\":800:812   */\n      revert\n        /* \"#utility.yul\":762:814   */\n    tag_620:\n        /* \"#utility.yul\":833:862   */\n      tag_621\n        /* \"#utility.yul\":852:861   */\n      dup5\n        /* \"#utility.yul\":833:862   */\n      tag_609\n      jump\t// in\n    tag_621:\n        /* \"#utility.yul\":823:862   */\n      swap3\n      pop\n        /* \"#utility.yul\":881:919   */\n      tag_622\n        /* \"#utility.yul\":915:917   */\n      0x20\n        /* \"#utility.yul\":904:913   */\n      dup6\n        /* \"#utility.yul\":900:918   */\n      add\n        /* \"#utility.yul\":881:919   */\n      tag_609\n      jump\t// in\n    tag_622:\n        /* \"#utility.yul\":871:919   */\n      swap2\n      pop\n        /* \"#utility.yul\":966:968   */\n      0x40\n        /* \"#utility.yul\":955:964   */\n      dup5\n        /* \"#utility.yul\":951:969   */\n      add\n        /* \"#utility.yul\":938:970   */\n      calldataload\n        /* \"#utility.yul\":928:970   */\n      swap1\n      pop\n        /* \"#utility.yul\":648:976   */\n      swap3\n      pop\n      swap3\n      pop\n      swap3\n      jump\t// out\n        /* \"#utility.yul\":981:1235   */\n    tag_63:\n        /* \"#utility.yul\":1049:1055   */\n      0x00\n        /* \"#utility.yul\":1057:1063   */\n      dup1\n        /* \"#utility.yul\":1110:1112   */\n      0x40\n        /* \"#utility.yul\":1098:1107   */\n      dup4\n        /* \"#utility.yul\":1089:1096   */\n      dup6\n        /* \"#utility.yul\":1085:1108   */\n      sub\n        /* \"#utility.yul\":1081:1113   */\n      slt\n        /* \"#utility.yul\":1078:1130   */\n      iszero\n      tag_624\n      jumpi\n        /* \"#utility.yul\":1126:1127   */\n      0x00\n        /* \"#utility.yul\":1123:1124   */\n      dup1\n        /* \"#utility.yul\":1116:1128   */\n      revert\n        /* \"#utility.yul\":1078:1130   */\n    tag_624:\n        /* \"#utility.yul\":1149:1178   */\n      tag_625\n        /* \"#utility.yul\":1168:1177   */\n      dup4\n        /* \"#utility.yul\":1149:1178   */\n      tag_609\n      jump\t// in\n    tag_625:\n        /* \"#utility.yul\":1139:1178   */\n      swap5\n        /* \"#utility.yul\":1225:1227   */\n      0x20\n        /* \"#utility.yul\":1210:1228   */\n      swap4\n      swap1\n      swap4\n      add\n        /* \"#utility.yul\":1197:1229   */\n      calldataload\n      swap4\n      pop\n      pop\n      pop\n        /* \"#utility.yul\":981:1235   */\n      jump\t// out\n        /* \"#utility.yul\":1240:1420   */\n    tag_53:\n        /* \"#utility.yul\":1299:1305   */\n      0x00\n        /* \"#utility.yul\":1352:1354   */\n      0x20\n        /* \"#utility.yul\":1340:1349   */\n      dup3\n        /* \"#utility.yul\":1331:1338   */\n      dup5\n        /* \"#utility.yul\":1327:1350   */\n      sub\n        /* \"#utility.yul\":1323:1355   */\n      slt\n        /* \"#utility.yul\":1320:1372   */\n      iszero\n      tag_627\n      jumpi\n        /* \"#utility.yul\":1368:1369   */\n      0x00\n        /* \"#utility.yul\":1365:1366   */\n      dup1\n        /* \"#utility.yul\":1358:1370   */\n      revert\n        /* \"#utility.yul\":1320:1372   */\n    tag_627:\n      pop\n        /* \"#utility.yul\":1391:1414   */\n      calldataload\n      swap2\n        /* \"#utility.yul\":1240:1420   */\n      swap1\n      pop\n      jump\t// out\n        /* \"#utility.yul\":1425:1766   */\n    tag_132:\n        /* \"#utility.yul\":1490:1496   */\n      0x00\n        /* \"#utility.yul\":1498:1504   */\n      dup1\n        /* \"#utility.yul\":1551:1553   */\n      0x40\n        /* \"#utility.yul\":1539:1548   */\n      dup4\n        /* \"#utility.yul\":1530:1537   */\n      dup6\n        /* \"#utility.yul\":1526:1549   */\n      sub\n        /* \"#utility.yul\":1522:1554   */\n      slt\n        /* \"#utility.yul\":1519:1571   */\n      iszero\n      tag_629\n      jumpi\n        /* \"#utility.yul\":1567:1568   */\n      0x00\n        /* \"#utility.yul\":1564:1565   */\n      dup1\n        /* \"#utility.yul\":1557:1569   */\n      revert\n        /* \"#utility.yul\":1519:1571   */\n    tag_629:\n        /* \"#utility.yul\":1603:1612   */\n      dup3\n        /* \"#utility.yul\":1590:1613   */\n      calldataload\n        /* \"#utility.yul\":1580:1613   */\n      swap2\n      pop\n        /* \"#utility.yul\":1663:1665   */\n      0x20\n        /* \"#utility.yul\":1652:1661   */\n      dup4\n        /* \"#utility.yul\":1648:1666   */\n      add\n        /* \"#utility.yul\":1635:1667   */\n      calldataload\n        /* \"#utility.yul\":1710:1715   */\n      dup1\n        /* \"#utility.yul\":1703:1716   */\n      iszero\n        /* \"#utility.yul\":1696:1717   */\n      iszero\n        /* \"#utility.yul\":1689:1694   */\n      dup2\n        /* \"#utility.yul\":1686:1718   */\n      eq\n        /* \"#utility.yul\":1676:1736   */\n      tag_630\n      jumpi\n        /* \"#utility.yul\":1732:1733   */\n      0x00\n        /* \"#utility.yul\":1729:1730   */\n      dup1\n        /* \"#utility.yul\":1722:1734   */\n      revert\n        /* \"#utility.yul\":1676:1736   */\n    tag_630:\n        /* \"#utility.yul\":1755:1760   */\n      dup1\n        /* \"#utility.yul\":1745:1760   */\n      swap2\n      pop\n      pop\n        /* \"#utility.yul\":1425:1766   */\n      swap3\n      pop\n      swap3\n      swap1\n      pop\n      jump\t// out\n        /* \"#utility.yul\":1771:2019   */\n    tag_94:\n        /* \"#utility.yul\":1839:1845   */\n      0x00\n        /* \"#utility.yul\":1847:1853   */\n      dup1\n        /* \"#utility.yul\":1900:1902   */\n      0x40\n        /* \"#utility.yul\":1888:1897   */\n      dup4\n        /* \"#utility.yul\":1879:1886   */\n      dup6\n        /* \"#utility.yul\":1875:1898   */\n      sub\n        /* \"#utility.yul\":1871:1903   */\n      slt\n        /* \"#utility.yul\":1868:1920   */\n      iszero\n      tag_632\n      jumpi\n        /* \"#utility.yul\":1916:1917   */\n      0x00\n        /* \"#utility.yul\":1913:1914   */\n      dup1\n        /* \"#utility.yul\":1906:1918   */\n      revert\n        /* \"#utility.yul\":1868:1920   */\n    tag_632:\n      pop\n      pop\n        /* \"#utility.yul\":1939:1962   */\n      dup1\n      calldataload\n      swap3\n        /* \"#utility.yul\":2009:2011   */\n      0x20\n        /* \"#utility.yul\":1994:2012   */\n      swap1\n      swap2\n      add\n        /* \"#utility.yul\":1981:2013   */\n      calldataload\n      swap2\n      pop\n        /* \"#utility.yul\":1771:2019   */\n      jump\t// out\n        /* \"#utility.yul\":2659:3256   */\n    tag_59:\n        /* \"#utility.yul\":2771:2775   */\n      0x00\n        /* \"#utility.yul\":2800:2802   */\n      0x20\n        /* \"#utility.yul\":2829:2831   */\n      dup1\n        /* \"#utility.yul\":2818:2827   */\n      dup4\n        /* \"#utility.yul\":2811:2832   */\n      mstore\n        /* \"#utility.yul\":2861:2867   */\n      dup4\n        /* \"#utility.yul\":2855:2868   */\n      mload\n        /* \"#utility.yul\":2904:2910   */\n      dup1\n        /* \"#utility.yul\":2899:2901   */\n      dup3\n        /* \"#utility.yul\":2888:2897   */\n      dup6\n        /* \"#utility.yul\":2884:2902   */\n      add\n        /* \"#utility.yul\":2877:2911   */\n      mstore\n        /* \"#utility.yul\":2929:2930   */\n      0x00\n        /* \"#utility.yul\":2939:3079   */\n    tag_637:\n        /* \"#utility.yul\":2953:2959   */\n      dup2\n        /* \"#utility.yul\":2950:2951   */\n      dup2\n        /* \"#utility.yul\":2947:2960   */\n      lt\n        /* \"#utility.yul\":2939:3079   */\n      iszero\n      tag_639\n      jumpi\n        /* \"#utility.yul\":3048:3062   */\n      dup6\n      dup2\n      add\n        /* \"#utility.yul\":3044:3067   */\n      dup4\n      add\n        /* \"#utility.yul\":3038:3068   */\n      mload\n        /* \"#utility.yul\":3014:3031   */\n      dup6\n      dup3\n      add\n        /* \"#utility.yul\":3033:3035   */\n      0x40\n        /* \"#utility.yul\":3010:3036   */\n      add\n        /* \"#utility.yul\":3003:3069   */\n      mstore\n        /* \"#utility.yul\":2968:2978   */\n      dup3\n      add\n        /* \"#utility.yul\":2939:3079   */\n      jump(tag_637)\n    tag_639:\n        /* \"#utility.yul\":3097:3103   */\n      dup2\n        /* \"#utility.yul\":3094:3095   */\n      dup2\n        /* \"#utility.yul\":3091:3104   */\n      gt\n        /* \"#utility.yul\":3088:3179   */\n      iszero\n      tag_640\n      jumpi\n        /* \"#utility.yul\":3167:3168   */\n      0x00\n        /* \"#utility.yul\":3162:3164   */\n      0x40\n        /* \"#utility.yul\":3153:3159   */\n      dup4\n        /* \"#utility.yul\":3142:3151   */\n      dup8\n        /* \"#utility.yul\":3138:3160   */\n      add\n        /* \"#utility.yul\":3134:3165   */\n      add\n        /* \"#utility.yul\":3127:3169   */\n      mstore\n        /* \"#utility.yul\":3088:3179   */\n    tag_640:\n      pop\n        /* \"#utility.yul\":3240:3242   */\n      0x1f\n        /* \"#utility.yul\":3219:3234   */\n      add\n      not(0x1f)\n        /* \"#utility.yul\":3215:3244   */\n      and\n        /* \"#utility.yul\":3200:3245   */\n      swap3\n      swap1\n      swap3\n      add\n        /* \"#utility.yul\":3247:3249   */\n      0x40\n        /* \"#utility.yul\":3196:3250   */\n      add\n      swap4\n        /* \"#utility.yul\":2659:3256   */\n      swap3\n      pop\n      pop\n      pop\n      jump\t// out\n        /* \"#utility.yul\":7114:7470   */\n    tag_233:\n        /* \"#utility.yul\":7316:7318   */\n      0x20\n        /* \"#utility.yul\":7298:7319   */\n      dup1\n      dup3\n      mstore\n        /* \"#utility.yul\":7335:7353   */\n      dup2\n      dup2\n      add\n        /* \"#utility.yul\":7328:7358   */\n      mstore\n        /* \"#utility.yul\":7394:7428   */\n      0x4f776e61626c653a2063616c6c6572206973206e6f7420746865206f776e6572\n        /* \"#utility.yul\":7389:7391   */\n      0x40\n        /* \"#utility.yul\":7374:7392   */\n      dup3\n      add\n        /* \"#utility.yul\":7367:7429   */\n      mstore\n        /* \"#utility.yul\":7461:7463   */\n      0x60\n        /* \"#utility.yul\":7446:7464   */\n      add\n      swap1\n        /* \"#utility.yul\":7114:7470   */\n      jump\t// out\n        /* \"#utility.yul\":10503:10631   */\n    tag_407:\n        /* \"#utility.yul\":10543:10546   */\n      0x00\n        /* \"#utility.yul\":10574:10575   */\n      dup3\n        /* \"#utility.yul\":10570:10576   */\n      not\n        /* \"#utility.yul\":10567:10568   */\n      dup3\n        /* \"#utility.yul\":10564:10577   */\n      gt\n        /* \"#utility.yul\":10561:10600   */\n      iszero\n      tag_663\n      jumpi\n        /* \"#utility.yul\":10580:10598   */\n      tag_663\n      tag_664\n      jump\t// in\n    tag_663:\n      pop\n        /* \"#utility.yul\":10616:10625   */\n      add\n      swap1\n        /* \"#utility.yul\":10503:10631   */\n      jump\t// out\n        /* \"#utility.yul\":10636:10853   */\n    tag_427:\n        /* \"#utility.yul\":10676:10677   */\n      0x00\n        /* \"#utility.yul\":10702:10703   */\n      dup3\n        /* \"#utility.yul\":10692:10824   */\n      tag_666\n      jumpi\n        /* \"#utility.yul\":10746:10756   */\n      0x4e487b71\n        /* \"#utility.yul\":10741:10744   */\n      0xe0\n        /* \"#utility.yul\":10737:10757   */\n      shl\n        /* \"#utility.yul\":10734:10735   */\n      0x00\n        /* \"#utility.yul\":10727:10758   */\n      mstore\n        /* \"#utility.yul\":10781:10785   */\n      0x12\n        /* \"#utility.yul\":10778:10779   */\n      0x04\n        /* \"#utility.yul\":10771:10786   */\n      mstore\n        /* \"#utility.yul\":10809:10813   */\n      0x24\n        /* \"#utility.yul\":10806:10807   */\n      0x00\n        /* \"#utility.yul\":10799:10814   */\n      revert\n        /* \"#utility.yul\":10692:10824   */\n    tag_666:\n      pop\n        /* \"#utility.yul\":10838:10847   */\n      div\n      swap1\n        /* \"#utility.yul\":10636:10853   */\n      jump\t// out\n        /* \"#utility.yul\":10858:11026   */\n    tag_425:\n        /* \"#utility.yul\":10898:10905   */\n      0x00\n        /* \"#utility.yul\":10964:10965   */\n      dup2\n        /* \"#utility.yul\":10960:10961   */\n      0x00\n        /* \"#utility.yul\":10956:10962   */\n      not\n        /* \"#utility.yul\":10952:10966   */\n      div\n        /* \"#utility.yul\":10949:10950   */\n      dup4\n        /* \"#utility.yul\":10946:10967   */\n      gt\n        /* \"#utility.yul\":10941:10942   */\n      dup3\n        /* \"#utility.yul\":10934:10943   */\n      iszero\n        /* \"#utility.yul\":10927:10944   */\n      iszero\n        /* \"#utility.yul\":10923:10968   */\n      and\n        /* \"#utility.yul\":10920:10991   */\n      iszero\n      tag_669\n      jumpi\n        /* \"#utility.yul\":10971:10989   */\n      tag_669\n      tag_664\n      jump\t// in\n    tag_669:\n      pop\n        /* \"#utility.yul\":11011:11020   */\n      mul\n      swap1\n        /* \"#utility.yul\":10858:11026   */\n      jump\t// out\n        /* \"#utility.yul\":11031:11156   */\n    tag_297:\n        /* \"#utility.yul\":11071:11075   */\n      0x00\n        /* \"#utility.yul\":11099:11100   */\n      dup3\n        /* \"#utility.yul\":11096:11097   */\n      dup3\n        /* \"#utility.yul\":11093:11101   */\n      lt\n        /* \"#utility.yul\":11090:11124   */\n      iszero\n      tag_672\n      jumpi\n        /* \"#utility.yul\":11104:11122   */\n      tag_672\n      tag_664\n      jump\t// in\n    tag_672:\n      pop\n        /* \"#utility.yul\":11141:11150   */\n      sub\n      swap1\n        /* \"#utility.yul\":11031:11156   */\n      jump\t// out\n        /* \"#utility.yul\":11161:11541   */\n    tag_237:\n        /* \"#utility.yul\":11240:11241   */\n      0x01\n        /* \"#utility.yul\":11236:11248   */\n      dup2\n      dup2\n      shr\n      swap1\n        /* \"#utility.yul\":11283:11295   */\n      dup3\n      and\n      dup1\n        /* \"#utility.yul\":11304:11365   */\n      tag_674\n      jumpi\n        /* \"#utility.yul\":11358:11362   */\n      0x7f\n        /* \"#utility.yul\":11350:11356   */\n      dup3\n        /* \"#utility.yul\":11346:11363   */\n      and\n        /* \"#utility.yul\":11336:11363   */\n      swap2\n      pop\n        /* \"#utility.yul\":11304:11365   */\n    tag_674:\n        /* \"#utility.yul\":11411:11413   */\n      0x20\n        /* \"#utility.yul\":11403:11409   */\n      dup3\n        /* \"#utility.yul\":11400:11414   */\n      lt\n        /* \"#utility.yul\":11380:11398   */\n      dup2\n        /* \"#utility.yul\":11377:11415   */\n      eq\n        /* \"#utility.yul\":11374:11535   */\n      iszero\n      tag_675\n      jumpi\n        /* \"#utility.yul\":11457:11467   */\n      0x4e487b71\n        /* \"#utility.yul\":11452:11455   */\n      0xe0\n        /* \"#utility.yul\":11448:11468   */\n      shl\n        /* \"#utility.yul\":11445:11446   */\n      0x00\n        /* \"#utility.yul\":11438:11469   */\n      mstore\n        /* \"#utility.yul\":11492:11496   */\n      0x22\n        /* \"#utility.yul\":11489:11490   */\n      0x04\n        /* \"#utility.yul\":11482:11497   */\n      mstore\n        /* \"#utility.yul\":11520:11524   */\n      0x24\n        /* \"#utility.yul\":11517:11518   */\n      0x00\n        /* \"#utility.yul\":11510:11525   */\n      revert\n        /* \"#utility.yul\":11374:11535   */\n    tag_675:\n      pop\n        /* \"#utility.yul\":11161:11541   */\n      swap2\n      swap1\n      pop\n      jump\t// out\n        /* \"#utility.yul\":11546:11681   */\n    tag_309:\n        /* \"#utility.yul\":11585:11588   */\n      0x00\n      not(0x00)\n        /* \"#utility.yul\":11606:11623   */\n      dup3\n      eq\n        /* \"#utility.yul\":11603:11646   */\n      iszero\n      tag_678\n      jumpi\n        /* \"#utility.yul\":11626:11644   */\n      tag_678\n      tag_664\n      jump\t// in\n    tag_678:\n      pop\n        /* \"#utility.yul\":11673:11674   */\n      0x01\n        /* \"#utility.yul\":11662:11675   */\n      add\n      swap1\n        /* \"#utility.yul\":11546:11681   */\n      jump\t// out\n        /* \"#utility.yul\":11686:11813   */\n    tag_664:\n        /* \"#utility.yul\":11747:11757   */\n      0x4e487b71\n        /* \"#utility.yul\":11742:11745   */\n      0xe0\n        /* \"#utility.yul\":11738:11758   */\n      shl\n        /* \"#utility.yul\":11735:11736   */\n      0x00\n        /* \"#utility.yul\":11728:11759   */\n      mstore\n        /* \"#utility.yul\":11778:11782   */\n      0x11\n        /* \"#utility.yul\":11775:11776   */\n      0x04\n        /* \"#utility.yul\":11768:11783   */\n      mstore\n        /* \"#utility.yul\":11802:11806   */\n      0x24\n        /* \"#utility.yul\":11799:11800   */\n      0x00\n        /* \"#utility.yul\":11792:11807   */\n      revert\n        /* \"#utility.yul\":11818:11945   */\n    tag_306:\n        /* \"#utility.yul\":11879:11889   */\n      0x4e487b71\n        /* \"#utility.yul\":11874:11877   */\n      0xe0\n        /* \"#utility.yul\":11870:11890   */\n      shl\n        /* \"#utility.yul\":11867:11868   */\n      0x00\n        /* \"#utility.yul\":11860:11891   */\n      mstore\n        /* \"#utility.yul\":11910:11914   */\n      0x31\n        /* \"#utility.yul\":11907:11908   */\n      0x04\n        /* \"#utility.yul\":11900:11915   */\n      mstore\n        /* \"#utility.yul\":11934:11938   */\n      0x24\n        /* \"#utility.yul\":11931:11932   */\n      0x00\n        /* \"#utility.yul\":11924:11939   */\n      revert\n        /* \"#utility.yul\":11950:12077   */\n    tag_293:\n        /* \"#utility.yul\":12011:12021   */\n      0x4e487b71\n        /* \"#utility.yul\":12006:12009   */\n      0xe0\n        /* \"#utility.yul\":12002:12022   */\n      shl\n        /* \"#utility.yul\":11999:12000   */\n      0x00\n        /* \"#utility.yul\":11992:12023   */\n      mstore\n        /* \"#utility.yul\":12042:12046   */\n      0x32\n        /* \"#utility.yul\":12039:12040   */\n      0x04\n        /* \"#utility.yul\":12032:12047   */\n      mstore\n        /* \"#utility.yul\":12066:12070   */\n      0x24\n        /* \"#utility.yul\":12063:12064   */\n      0x00\n        /* \"#utility.yul\":12056:12071   */\n      revert\n    stop\n    data_03a6b60b889e4485b3af69467ade7663075427de0f6c7977f035eef67b59252c 474f4c443a207472616e7366657220616d6f756e74206578636565647320616c6c6f77616e6365\n    data_6d96cc426a305ee3332fdd52990f80ebac5803c48a5ab67b22562ed47b5013f2 474f4c443a2064656372656173656420616c6c6f77616e63652062656c6f77207a65726f\n    data_9c064737b570a74c2bac5d21056d93ac53115214216cd14d4a0fc9b60be81231 8be0079c531659141344cd1fd0a4f28419497f9722a3daafe3b4186f6b6457e0\n\n    auxdata: 0xa264697066735822122086fa31fbb2be78e782d6b08b39838b7b13f0a1e8cd7e16274e51af5ada8d58e064736f6c63430008070033\n}\n",
				"bytecode": {
					"linkReferences": {},
					"object": "60c06040526c0c9f2c9cd04674edea40000000600a819055620000259060001962000773565b62000033906000196200071c565b600b55600f805460ff19166012179055604b6010819055601155600060138190556014553480156200006457600080fd5b5060405162002caa38038062002caa83398101604081905262000087916200064c565b600080546001600160a01b031916339081178255604051909182917f8be0079c531659141344cd1fd0a4f28419497f9722a3daafe3b4186f6b6457e0908290a3506040805180820190915260108082526f11d95d0814d8da1a59999e4811dbdb1960821b60209092019182526200010191600d9162000586565b506040805180820190915260048082526311d3d31160e21b60209092019182526200012f91600e9162000586565b50601280546001600160a01b0319166001600160a01b038416179055600a5462000184906103e890620001709060056200038a602090811b6200141d17901c565b6200041e60201b6200149c1790919060201c565b601555600b543360009081526003602090815260409182902092909255805163c45a015560e01b8152905183926001600160a01b0384169263c45a01559260048083019392829003018186803b158015620001de57600080fd5b505afa158015620001f3573d6000803e3d6000fd5b505050506040513d601f19601f820116820180604052508101906200021991906200062c565b6001600160a01b031663c9c6539630836001600160a01b031663ad5c46486040518163ffffffff1660e01b815260040160206040518083038186803b1580156200026257600080fd5b505afa15801562000277573d6000803e3d6000fd5b505050506040513d601f19601f820116820180604052508101906200029d91906200062c565b6040516001600160e01b031960e085901b1681526001600160a01b03928316600482015291166024820152604401602060405180830381600087803b158015620002e657600080fd5b505af1158015620002fb573d6000803e3d6000fd5b505050506040513d601f19601f820116820180604052508101906200032191906200062c565b6001600160601b0319606091821b811660a0529082901b166080526200034662000468565b600a5460405190815233906000907fddf252ad1be2c89b69c2b068fc378daa952ba7f163c4a11628f55a4df523b3ef9060200160405180910390a3505050620007cf565b6000826200039b5750600062000418565b6000620003a98385620006fa565b905082620003b88583620006e3565b14620004155760405162461bcd60e51b815260206004820152602160248201527f536166654d6174683a206d756c7469706c69636174696f6e206f766572666c6f6044820152607760f81b60648201526084015b60405180910390fd5b90505b92915050565b60006200041583836040518060400160405280601a81526020017f536166654d6174683a206469766973696f6e206279207a65726f0000000000008152506200054a60201b60201c565b600160066000620004816000546001600160a01b031690565b6001600160a01b03908116825260208083019390935260409182016000908120805495151560ff199687161790553081526006909352818320805485166001908117909155601254909116835290822080549093168117909255600890620004f16000546001600160a01b031690565b6001600160a01b03908116825260208083019390935260409182016000908120805495151560ff199687161790553081526008909352818320805485166001908117909155601254909116835291208054909216179055565b600081836200056e5760405162461bcd60e51b81526004016200040c91906200068b565b5060006200057d8486620006e3565b95945050505050565b828054620005949062000736565b90600052602060002090601f016020900481019282620005b8576000855562000603565b82601f10620005d357805160ff191683800117855562000603565b8280016001018555821562000603579182015b8281111562000603578251825591602001919060010190620005e6565b506200061192915062000615565b5090565b5b8082111562000611576000815560010162000616565b6000602082840312156200063f57600080fd5b81516200041581620007b6565b600080604083850312156200066057600080fd5b82516200066d81620007b6565b60208401519092506200068081620007b6565b809150509250929050565b600060208083528351808285015260005b81811015620006ba578581018301518582016040015282016200069c565b81811115620006cd576000604083870101525b50601f01601f1916929092016040019392505050565b600082620006f557620006f5620007a0565b500490565b60008160001904831182151516156200071757620007176200078a565b500290565b6000828210156200073157620007316200078a565b500390565b600181811c908216806200074b57607f821691505b602082108114156200076d57634e487b7160e01b600052602260045260246000fd5b50919050565b600082620007855762000785620007a0565b500690565b634e487b7160e01b600052601160045260246000fd5b634e487b7160e01b600052601260045260246000fd5b6001600160a01b0381168114620007cc57600080fd5b50565b60805160601c60a05160601c6124af620007fb60003960006104ae015260006102e301526124af6000f3fe6080604052600436106102295760003560e01c80635342acb411610123578063a69df4b5116100ab578063db4cf1e01161006f578063db4cf1e0146106c3578063dd467064146106e3578063dd62ed3e14610703578063ea2f0b3714610749578063f2fde38b1461076957600080fd5b8063a69df4b514610639578063a9059cbb1461064e578063b5208d7d1461066e578063b6c523241461068e578063d543dbeb146106a357600080fd5b80637d1db4a5116100f25780637d1db4a51461059757806388f82020146105ad5780638da5cb5b146105e657806395d89b4114610604578063a457c2d71461061957600080fd5b80635342acb4146104f057806353b5693a1461052957806370a0823114610562578063715018a61461058257600080fd5b806323b872dd116101b15780633bd5d173116101755780633bd5d1731461043c578063437823ec1461045c5780634549b0391461047c57806349bd5a5e1461049c57806352390c02146104d057600080fd5b806323b872dd1461039a5780632d838119146103ba578063313ce567146103da5780633685d419146103fc578063395093511461041c57600080fd5b80631694505e116101f85780631694505e146102d157806318160ddd1461031d57806318621fe5146103325780631f2c54431461035257806321ecff5b1461037a57600080fd5b8063061c82d01461023557806306fdde0314610257578063095ea7b31461028257806313114a9d146102b257600080fd5b3661023057005b600080fd5b34801561024157600080fd5b5061025561025036600461220c565b610789565b005b34801561026357600080fd5b5061026c6107c1565b604051610279919061227c565b60405180910390f35b34801561028e57600080fd5b506102a261029d3660046121e2565b610853565b6040519015158152602001610279565b3480156102be57600080fd5b50600c545b604051908152602001610279565b3480156102dd57600080fd5b506103057f000000000000000000000000000000000000000000000000000000000000000081565b6040516001600160a01b039091168152602001610279565b34801561032957600080fd5b50600a546102c3565b34801561033e57600080fd5b5061025561034d366004612158565b61086a565b34801561035e57600080fd5b5060135460105460408051928352602083019190915201610279565b34801561038657600080fd5b5061025561039536600461225a565b6108b5565b3480156103a657600080fd5b506102a26103b53660046121a6565b610984565b3480156103c657600080fd5b506102c36103d536600461220c565b6109ed565b3480156103e657600080fd5b50600f5460405160ff9091168152602001610279565b34801561040857600080fd5b50610255610417366004612158565b610a71565b34801561042857600080fd5b506102a26104373660046121e2565b610c28565b34801561044857600080fd5b5061025561045736600461220c565b610c5e565b34801561046857600080fd5b50610255610477366004612158565b610d48565b34801561048857600080fd5b506102c3610497366004612225565b610d96565b3480156104a857600080fd5b506103057f000000000000000000000000000000000000000000000000000000000000000081565b3480156104dc57600080fd5b506102556104eb366004612158565b610e23565b3480156104fc57600080fd5b506102a261050b366004612158565b6001600160a01b031660009081526006602052604090205460ff1690565b34801561053557600080fd5b506102a2610544366004612158565b6001600160a01b031660009081526008602052604090205460ff1690565b34801561056e57600080fd5b506102c361057d366004612158565b610f76565b34801561058e57600080fd5b50610255610fd5565b3480156105a357600080fd5b506102c360155481565b3480156105b957600080fd5b506102a26105c8366004612158565b6001600160a01b031660009081526007602052604090205460ff1690565b3480156105f257600080fd5b506000546001600160a01b0316610305565b34801561061057600080fd5b5061026c611037565b34801561062557600080fd5b506102a26106343660046121e2565b611046565b34801561064557600080fd5b50610255611095565b34801561065a57600080fd5b506102a26106693660046121e2565b61119b565b34801561067a57600080fd5b5061025561068936600461220c565b6111a8565b34801561069a57600080fd5b506002546102c3565b3480156106af57600080fd5b506102556106be36600461220c565b6111d7565b3480156106cf57600080fd5b506102556106de366004612158565b611227565b3480156106ef57600080fd5b506102556106fe36600461220c565b611275565b34801561070f57600080fd5b506102c361071e366004612173565b6001600160a01b03918216600090815260056020908152604080832093909416825291909152205490565b34801561075557600080fd5b50610255610764366004612158565b6112fa565b34801561077557600080fd5b50610255610784366004612158565b611345565b6000546001600160a01b031633146107bc5760405162461bcd60e51b81526004016107b3906122d1565b60405180910390fd5b601355565b6060600d80546107d090612376565b80601f01602080910402602001604051908101604052809291908181526020018280546107fc90612376565b80156108495780601f1061081e57610100808354040283529160200191610849565b820191906000526020600020905b81548152906001019060200180831161082c57829003601f168201915b5050505050905090565b60006108603384846114de565b5060015b92915050565b6000546001600160a01b031633146108945760405162461bcd60e51b81526004016107b3906122d1565b6001600160a01b03166000908152600860205260409020805460ff19169055565b6000546001600160a01b031633146108df5760405162461bcd60e51b81526004016107b3906122d1565b60198211156109275760405162461bcd60e51b81526020600482015260146024820152732332b29039b2b2b6b9903b32b93c903434b3b41760611b60448201526064016107b3565b601981111561096f5760405162461bcd60e51b81526020600482015260146024820152732332b29039b2b2b6b9903b32b93c903434b3b41760611b60448201526064016107b3565b60138054601455601080546011559290559055565b6000610991848484611601565b6109e384336109de8560405180606001604052806027815260200161240f602791396001600160a01b038a1660009081526005602090815260408083203384529091529020549190611864565b6114de565b5060019392505050565b6000600b54821115610a545760405162461bcd60e51b815260206004820152602a60248201527f416d6f756e74206d757374206265206c657373207468616e20746f74616c207260448201526965666c656374696f6e7360b01b60648201526084016107b3565b6000610a5e61189e565b9050610a6a838261149c565b9392505050565b6000546001600160a01b03163314610a9b5760405162461bcd60e51b81526004016107b3906122d1565b6001600160a01b03811660009081526007602052604090205460ff16610b035760405162461bcd60e51b815260206004820152601b60248201527f4163636f756e7420697320616c7265616479206578636c75646564000000000060448201526064016107b3565b60005b600954811015610c2457816001600160a01b031660098281548110610b2d57610b2d6123f8565b6000918252602090912001546001600160a01b03161415610c125760098054610b589060019061235f565b81548110610b6857610b686123f8565b600091825260209091200154600980546001600160a01b039092169183908110610b9457610b946123f8565b600091825260208083209190910180546001600160a01b0319166001600160a01b039485161790559184168152600482526040808220829055600790925220805460ff191690556009805480610bec57610bec6123e2565b600082815260209020810160001990810180546001600160a01b03191690550190555050565b80610c1c816123b1565b915050610b06565b5050565b3360008181526005602090815260408083206001600160a01b038716845290915281205490916108609185906109de90866118c1565b3360008181526007602052604090205460ff1615610cd35760405162461bcd60e51b815260206004820152602c60248201527f4578636c75646564206164647265737365732063616e6e6f742063616c6c207460448201526b3434b990333ab731ba34b7b760a11b60648201526084016107b3565b6000610cde83611920565b505050506001600160a01b038416600090815260036020526040902054919250610d0a9190508261196f565b6001600160a01b038316600090815260036020526040902055600b54610d30908261196f565b600b55600c54610d4090846118c1565b600c55505050565b6000546001600160a01b03163314610d725760405162461bcd60e51b81526004016107b3906122d1565b6001600160a01b03166000908152600660205260409020805460ff19166001179055565b6000600a54831115610dea5760405162461bcd60e51b815260206004820152601f60248201527f416d6f756e74206d757374206265206c657373207468616e20737570706c790060448201526064016107b3565b81610e09576000610dfa84611920565b50939550610864945050505050565b6000610e1484611920565b50929550610864945050505050565b6000546001600160a01b03163314610e4d5760405162461bcd60e51b81526004016107b3906122d1565b6001600160a01b03811660009081526007602052604090205460ff1615610eb65760405162461bcd60e51b815260206004820152601b60248201527f4163636f756e7420697320616c7265616479206578636c75646564000000000060448201526064016107b3565b6001600160a01b03811660009081526003602052604090205415610f10576001600160a01b038116600090815260036020526040902054610ef6906109ed565b6001600160a01b0382166000908152600460205260409020555b6001600160a01b03166000818152600760205260408120805460ff191660019081179091556009805491820181559091527f6e1540171b6c0c960b71a7020d9f60077f6af931a8bbf590da0223dacf75c7af0180546001600160a01b0319169091179055565b6001600160a01b03811660009081526007602052604081205460ff1615610fb357506001600160a01b031660009081526004602052604090205490565b6001600160a01b038216600090815260036020526040902054610864906109ed565b6000546001600160a01b03163314610fff5760405162461bcd60e51b81526004016107b3906122d1565b600080546040516001600160a01b039091169060008051602061245a833981519152908390a3600080546001600160a01b0319169055565b6060600e80546107d090612376565b600061086033846109de85604051806060016040528060248152602001612436602491393360009081526005602090815260408083206001600160a01b038d1684529091529020549190611864565b6001546001600160a01b031633146110fb5760405162461bcd60e51b815260206004820152602360248201527f596f7520646f6e27742068617665207065726d697373696f6e20746f20756e6c6044820152626f636b60e81b60648201526084016107b3565b600254421161114c5760405162461bcd60e51b815260206004820152601f60248201527f436f6e7472616374206973206c6f636b656420756e74696c203720646179730060448201526064016107b3565b600154600080546040516001600160a01b03938416939091169160008051602061245a83398151915291a3600154600080546001600160a01b0319166001600160a01b03909216919091179055565b6000610860338484611601565b6000546001600160a01b031633146111d25760405162461bcd60e51b81526004016107b3906122d1565b601055565b6000546001600160a01b031633146112015760405162461bcd60e51b81526004016107b3906122d1565b611221606461121b83600a5461141d90919063ffffffff16565b9061149c565b60155550565b6000546001600160a01b031633146112515760405162461bcd60e51b81526004016107b3906122d1565b6001600160a01b03166000908152600860205260409020805460ff19166001179055565b6000546001600160a01b0316331461129f5760405162461bcd60e51b81526004016107b3906122d1565b60008054600180546001600160a01b03199081166001600160a01b038416179091551690556112ce8142612306565b600255600080546040516001600160a01b039091169060008051602061245a833981519152908390a350565b6000546001600160a01b031633146113245760405162461bcd60e51b81526004016107b3906122d1565b6001600160a01b03166000908152600660205260409020805460ff19169055565b6000546001600160a01b0316331461136f5760405162461bcd60e51b81526004016107b3906122d1565b6001600160a01b0381166113d45760405162461bcd60e51b815260206004820152602660248201527f4f776e61626c653a206e6577206f776e657220697320746865207a65726f206160448201526564647265737360d01b60648201526084016107b3565b600080546040516001600160a01b038085169392169160008051602061245a83398151915291a3600080546001600160a01b0319166001600160a01b0392909216919091179055565b60008261142c57506000610864565b60006114388385612340565b905082611445858361231e565b14610a6a5760405162461bcd60e51b815260206004820152602160248201527f536166654d6174683a206d756c7469706c69636174696f6e206f766572666c6f6044820152607760f81b60648201526084016107b3565b6000610a6a83836040518060400160405280601a81526020017f536166654d6174683a206469766973696f6e206279207a65726f0000000000008152506119b1565b6001600160a01b0383166115405760405162461bcd60e51b815260206004820152602360248201527f474f4c443a20617070726f76652066726f6d20746865207a65726f206164647260448201526265737360e81b60648201526084016107b3565b6001600160a01b0382166115a05760405162461bcd60e51b815260206004820152602160248201527f474f4c443a20617070726f766520746f20746865207a65726f206164647265736044820152607360f81b60648201526084016107b3565b6001600160a01b0383811660008181526005602090815260408083209487168084529482529182902085905590518481527f8c5be1e5ebec7d5bd14f71427d1e84f3dd0314c0f7b2291e5b200ac8c7c3b925910160405180910390a3505050565b6001600160a01b0383166116635760405162461bcd60e51b8152602060048201526024808201527f474f4c443a207472616e736665722066726f6d20746865207a65726f206164646044820152637265737360e01b60648201526084016107b3565b6001600160a01b0382166116c45760405162461bcd60e51b815260206004820152602260248201527f474f4c443a207472616e7366657220746f20746865207a65726f206164647265604482015261737360f01b60648201526084016107b3565b600081116117265760405162461bcd60e51b815260206004820152602960248201527f5472616e7366657220616d6f756e74206d7573742062652067726561746572206044820152687468616e207a65726f60b81b60648201526084016107b3565b6000546001600160a01b0384811691161480159061175257506000546001600160a01b03838116911614155b15611807576001600160a01b03831660009081526008602052604090205460ff1615801561179957506001600160a01b03821660009081526008602052604090205460ff16155b15611807576015548111156118075760405162461bcd60e51b815260206004820152602e60248201527f474f4c443a205472616e7366657220616d6f756e74206578636565647320746860448201526d329036b0bc2a3c20b6b7bab73a1760911b60648201526084016107b3565b6001600160a01b03831660009081526006602052604090205460019060ff168061184957506001600160a01b03831660009081526006602052604090205460ff165b15611852575060005b61185e848484846119df565b50505050565b600081848411156118885760405162461bcd60e51b81526004016107b3919061227c565b506000611895848661235f565b95945050505050565b60008060006118ab611b56565b90925090506118ba828261149c565b9250505090565b6000806118ce8385612306565b905083811015610a6a5760405162461bcd60e51b815260206004820152601b60248201527f536166654d6174683a206164646974696f6e206f766572666c6f77000000000060448201526064016107b3565b60008060008060008060008060006119378a611cd8565b92509250925060008060006119558d868661195061189e565b611d1a565b919f909e50909c50959a5093985091965092945050505050565b6000610a6a83836040518060400160405280601e81526020017f536166654d6174683a207375627472616374696f6e206f766572666c6f770000815250611864565b600081836119d25760405162461bcd60e51b81526004016107b3919061227c565b506000611895848661231e565b806119ec576119ec611d6a565b6001600160a01b03841660009081526007602052604090205460ff168015611a2d57506001600160a01b03831660009081526007602052604090205460ff16155b15611a4257611a3d848484611d98565b611b40565b6001600160a01b03841660009081526007602052604090205460ff16158015611a8357506001600160a01b03831660009081526007602052604090205460ff165b15611a9357611a3d848484611ebe565b6001600160a01b03841660009081526007602052604090205460ff16158015611ad557506001600160a01b03831660009081526007602052604090205460ff16155b15611ae557611a3d848484611f67565b6001600160a01b03841660009081526007602052604090205460ff168015611b2557506001600160a01b03831660009081526007602052604090205460ff165b15611b3557611a3d848484611fab565b611b40848484611f67565b8061185e5761185e601454601355601154601055565b600b54600a546000918291825b600954811015611ca857826003600060098481548110611b8557611b856123f8565b60009182526020808320909101546001600160a01b031683528201929092526040019020541180611bf05750816004600060098481548110611bc957611bc96123f8565b60009182526020808320909101546001600160a01b03168352820192909252604001902054115b15611c0657600b54600a54945094505050509091565b611c4c6003600060098481548110611c2057611c206123f8565b60009182526020808320909101546001600160a01b03168352820192909252604001902054849061196f565b9250611c946004600060098481548110611c6857611c686123f8565b60009182526020808320909101546001600160a01b03168352820192909252604001902054839061196f565b915080611ca0816123b1565b915050611b63565b50600a54600b54611cb89161149c565b821015611ccf57600b54600a549350935050509091565b90939092509050565b600080600080611ce78561201e565b90506000611cf48661203b565b90506000611d0c82611d06898661196f565b9061196f565b979296509094509092505050565b6000808080611d29888661141d565b90506000611d37888761141d565b90506000611d45888861141d565b90506000611d5782611d06868661196f565b939b939a50919850919650505050505050565b601354158015611d7a5750601054155b15611d8157565b601380546014556010805460115560009182905555565b600080600080600080611daa87611920565b6001600160a01b038f16600090815260046020526040902054959b50939950919750955093509150611ddc908861196f565b6001600160a01b038a16600090815260046020908152604080832093909355600390522054611e0b908761196f565b6001600160a01b03808b1660009081526003602052604080822093909355908a1681522054611e3a90866118c1565b6001600160a01b038916600090815260036020526040902055611e5c81612058565b611e668483612118565b876001600160a01b0316896001600160a01b03167fddf252ad1be2c89b69c2b068fc378daa952ba7f163c4a11628f55a4df523b3ef85604051611eab91815260200190565b60405180910390a3505050505050505050565b600080600080600080611ed087611920565b6001600160a01b038f16600090815260036020526040902054959b50939950919750955093509150611f02908761196f565b6001600160a01b03808b16600090815260036020908152604080832094909455918b16815260049091522054611f3890846118c1565b6001600160a01b038916600090815260046020908152604080832093909355600390522054611e3a90866118c1565b600080600080600080611f7987611920565b6001600160a01b038f16600090815260036020526040902054959b50939950919750955093509150611e0b908761196f565b600080600080600080611fbd87611920565b6001600160a01b038f16600090815260046020526040902054959b50939950919750955093509150611fef908861196f565b6001600160a01b038a16600090815260046020908152604080832093909355600390522054611f02908761196f565b60006108646103e861121b6013548561141d90919063ffffffff16565b60006108646103e861121b6010548561141d90919063ffffffff16565b600061206261189e565b90506000612070838361141d565b6012546001600160a01b031660009081526003602052604090205490915061209890826118c1565b601280546001600160a01b03908116600090815260036020908152604080832095909555925490911681526007909152205460ff1615612113576012546001600160a01b03166000908152600460205260409020546120f790846118c1565b6012546001600160a01b03166000908152600460205260409020555b505050565b600b54612125908361196f565b600b55600c5461213590826118c1565b600c555050565b80356001600160a01b038116811461215357600080fd5b919050565b60006020828403121561216a57600080fd5b610a6a8261213c565b6000806040838503121561218657600080fd5b61218f8361213c565b915061219d6020840161213c565b90509250929050565b6000806000606084860312156121bb57600080fd5b6121c48461213c565b92506121d26020850161213c565b9150604084013590509250925092565b600080604083850312156121f557600080fd5b6121fe8361213c565b946020939093013593505050565b60006020828403121561221e57600080fd5b5035919050565b6000806040838503121561223857600080fd5b823591506020830135801515811461224f57600080fd5b809150509250929050565b6000806040838503121561226d57600080fd5b50508035926020909101359150565b600060208083528351808285015260005b818110156122a95785810183015185820160400152820161228d565b818111156122bb576000604083870101525b50601f01601f1916929092016040019392505050565b6020808252818101527f4f776e61626c653a2063616c6c6572206973206e6f7420746865206f776e6572604082015260600190565b60008219821115612319576123196123cc565b500190565b60008261233b57634e487b7160e01b600052601260045260246000fd5b500490565b600081600019048311821515161561235a5761235a6123cc565b500290565b600082821015612371576123716123cc565b500390565b600181811c9082168061238a57607f821691505b602082108114156123ab57634e487b7160e01b600052602260045260246000fd5b50919050565b60006000198214156123c5576123c56123cc565b5060010190565b634e487b7160e01b600052601160045260246000fd5b634e487b7160e01b600052603160045260246000fd5b634e487b7160e01b600052603260045260246000fdfe474f4c443a207472616e7366657220616d6f756e74206578636565647320616c6c6f77616e6365474f4c443a2064656372656173656420616c6c6f77616e63652062656c6f77207a65726f8be0079c531659141344cd1fd0a4f28419497f9722a3daafe3b4186f6b6457e0a264697066735822122086fa31fbb2be78e782d6b08b39838b7b13f0a1e8cd7e16274e51af5ada8d58e064736f6c63430008070033",
					"opcodes": "PUSH1 0xC0 PUSH1 0x40 MSTORE PUSH13 0xC9F2C9CD04674EDEA40000000 PUSH1 0xA DUP2 SWAP1 SSTORE PUSH3 0x25 SWAP1 PUSH1 0x0 NOT PUSH3 0x773 JUMP JUMPDEST PUSH3 0x33 SWAP1 PUSH1 0x0 NOT PUSH3 0x71C JUMP JUMPDEST PUSH1 0xB SSTORE PUSH1 0xF DUP1 SLOAD PUSH1 0xFF NOT AND PUSH1 0x12 OR SWAP1 SSTORE PUSH1 0x4B PUSH1 0x10 DUP2 SWAP1 SSTORE PUSH1 0x11 SSTORE PUSH1 0x0 PUSH1 0x13 DUP2 SWAP1 SSTORE PUSH1 0x14 SSTORE CALLVALUE DUP1 ISZERO PUSH3 0x64 JUMPI PUSH1 0x0 DUP1 REVERT JUMPDEST POP PUSH1 0x40 MLOAD PUSH3 0x2CAA CODESIZE SUB DUP1 PUSH3 0x2CAA DUP4 CODECOPY DUP2 ADD PUSH1 0x40 DUP2 SWAP1 MSTORE PUSH3 0x87 SWAP2 PUSH3 0x64C JUMP JUMPDEST PUSH1 0x0 DUP1 SLOAD PUSH1 0x1 PUSH1 0x1 PUSH1 0xA0 SHL SUB NOT AND CALLER SWAP1 DUP2 OR DUP3 SSTORE PUSH1 0x40 MLOAD SWAP1 SWAP2 DUP3 SWAP2 PUSH32 0x8BE0079C531659141344CD1FD0A4F28419497F9722A3DAAFE3B4186F6B6457E0 SWAP1 DUP3 SWAP1 LOG3 POP PUSH1 0x40 DUP1 MLOAD DUP1 DUP3 ADD SWAP1 SWAP2 MSTORE PUSH1 0x10 DUP1 DUP3 MSTORE PUSH16 0x11D95D0814D8DA1A59999E4811DBDB19 PUSH1 0x82 SHL PUSH1 0x20 SWAP1 SWAP3 ADD SWAP2 DUP3 MSTORE PUSH3 0x101 SWAP2 PUSH1 0xD SWAP2 PUSH3 0x586 JUMP JUMPDEST POP PUSH1 0x40 DUP1 MLOAD DUP1 DUP3 ADD SWAP1 SWAP2 MSTORE PUSH1 0x4 DUP1 DUP3 MSTORE PUSH4 0x11D3D311 PUSH1 0xE2 SHL PUSH1 0x20 SWAP1 SWAP3 ADD SWAP2 DUP3 MSTORE PUSH3 0x12F SWAP2 PUSH1 0xE SWAP2 PUSH3 0x586 JUMP JUMPDEST POP PUSH1 0x12 DUP1 SLOAD PUSH1 0x1 PUSH1 0x1 PUSH1 0xA0 SHL SUB NOT AND PUSH1 0x1 PUSH1 0x1 PUSH1 0xA0 SHL SUB DUP5 AND OR SWAP1 SSTORE PUSH1 0xA SLOAD PUSH3 0x184 SWAP1 PUSH2 0x3E8 SWAP1 PUSH3 0x170 SWAP1 PUSH1 0x5 PUSH3 0x38A PUSH1 0x20 SWAP1 DUP2 SHL PUSH3 0x141D OR SWAP1 SHR JUMP JUMPDEST PUSH3 0x41E PUSH1 0x20 SHL PUSH3 0x149C OR SWAP1 SWAP2 SWAP1 PUSH1 0x20 SHR JUMP JUMPDEST PUSH1 0x15 SSTORE PUSH1 0xB SLOAD CALLER PUSH1 0x0 SWAP1 DUP2 MSTORE PUSH1 0x3 PUSH1 0x20 SWAP1 DUP2 MSTORE PUSH1 0x40 SWAP2 DUP3 SWAP1 KECCAK256 SWAP3 SWAP1 SWAP3 SSTORE DUP1 MLOAD PUSH4 0xC45A0155 PUSH1 0xE0 SHL DUP2 MSTORE SWAP1 MLOAD DUP4 SWAP3 PUSH1 0x1 PUSH1 0x1 PUSH1 0xA0 SHL SUB DUP5 AND SWAP3 PUSH4 0xC45A0155 SWAP3 PUSH1 0x4 DUP1 DUP4 ADD SWAP4 SWAP3 DUP3 SWAP1 SUB ADD DUP2 DUP7 DUP1 EXTCODESIZE ISZERO DUP1 ISZERO PUSH3 0x1DE JUMPI PUSH1 0x0 DUP1 REVERT JUMPDEST POP GAS STATICCALL ISZERO DUP1 ISZERO PUSH3 0x1F3 JUMPI RETURNDATASIZE PUSH1 0x0 DUP1 RETURNDATACOPY RETURNDATASIZE PUSH1 0x0 REVERT JUMPDEST POP POP POP POP PUSH1 0x40 MLOAD RETURNDATASIZE PUSH1 0x1F NOT PUSH1 0x1F DUP3 ADD AND DUP3 ADD DUP1 PUSH1 0x40 MSTORE POP DUP2 ADD SWAP1 PUSH3 0x219 SWAP2 SWAP1 PUSH3 0x62C JUMP JUMPDEST PUSH1 0x1 PUSH1 0x1 PUSH1 0xA0 SHL SUB AND PUSH4 0xC9C65396 ADDRESS DUP4 PUSH1 0x1 PUSH1 0x1 PUSH1 0xA0 SHL SUB AND PUSH4 0xAD5C4648 PUSH1 0x40 MLOAD DUP2 PUSH4 0xFFFFFFFF AND PUSH1 0xE0 SHL DUP2 MSTORE PUSH1 0x4 ADD PUSH1 0x20 PUSH1 0x40 MLOAD DUP1 DUP4 SUB DUP2 DUP7 DUP1 EXTCODESIZE ISZERO DUP1 ISZERO PUSH3 0x262 JUMPI PUSH1 0x0 DUP1 REVERT JUMPDEST POP GAS STATICCALL ISZERO DUP1 ISZERO PUSH3 0x277 JUMPI RETURNDATASIZE PUSH1 0x0 DUP1 RETURNDATACOPY RETURNDATASIZE PUSH1 0x0 REVERT JUMPDEST POP POP POP POP PUSH1 0x40 MLOAD RETURNDATASIZE PUSH1 0x1F NOT PUSH1 0x1F DUP3 ADD AND DUP3 ADD DUP1 PUSH1 0x40 MSTORE POP DUP2 ADD SWAP1 PUSH3 0x29D SWAP2 SWAP1 PUSH3 0x62C JUMP JUMPDEST PUSH1 0x40 MLOAD PUSH1 0x1 PUSH1 0x1 PUSH1 0xE0 SHL SUB NOT PUSH1 0xE0 DUP6 SWAP1 SHL AND DUP2 MSTORE PUSH1 0x1 PUSH1 0x1 PUSH1 0xA0 SHL SUB SWAP3 DUP4 AND PUSH1 0x4 DUP3 ADD MSTORE SWAP2 AND PUSH1 0x24 DUP3 ADD MSTORE PUSH1 0x44 ADD PUSH1 0x20 PUSH1 0x40 MLOAD DUP1 DUP4 SUB DUP2 PUSH1 0x0 DUP8 DUP1 EXTCODESIZE ISZERO DUP1 ISZERO PUSH3 0x2E6 JUMPI PUSH1 0x0 DUP1 REVERT JUMPDEST POP GAS CALL ISZERO DUP1 ISZERO PUSH3 0x2FB JUMPI RETURNDATASIZE PUSH1 0x0 DUP1 RETURNDATACOPY RETURNDATASIZE PUSH1 0x0 REVERT JUMPDEST POP POP POP POP PUSH1 0x40 MLOAD RETURNDATASIZE PUSH1 0x1F NOT PUSH1 0x1F DUP3 ADD AND DUP3 ADD DUP1 PUSH1 0x40 MSTORE POP DUP2 ADD SWAP1 PUSH3 0x321 SWAP2 SWAP1 PUSH3 0x62C JUMP JUMPDEST PUSH1 0x1 PUSH1 0x1 PUSH1 0x60 SHL SUB NOT PUSH1 0x60 SWAP2 DUP3 SHL DUP2 AND PUSH1 0xA0 MSTORE SWAP1 DUP3 SWAP1 SHL AND PUSH1 0x80 MSTORE PUSH3 0x346 PUSH3 0x468 JUMP JUMPDEST PUSH1 0xA SLOAD PUSH1 0x40 MLOAD SWAP1 DUP2 MSTORE CALLER SWAP1 PUSH1 0x0 SWAP1 PUSH32 0xDDF252AD1BE2C89B69C2B068FC378DAA952BA7F163C4A11628F55A4DF523B3EF SWAP1 PUSH1 0x20 ADD PUSH1 0x40 MLOAD DUP1 SWAP2 SUB SWAP1 LOG3 POP POP POP PUSH3 0x7CF JUMP JUMPDEST PUSH1 0x0 DUP3 PUSH3 0x39B JUMPI POP PUSH1 0x0 PUSH3 0x418 JUMP JUMPDEST PUSH1 0x0 PUSH3 0x3A9 DUP4 DUP6 PUSH3 0x6FA JUMP JUMPDEST SWAP1 POP DUP3 PUSH3 0x3B8 DUP6 DUP4 PUSH3 0x6E3 JUMP JUMPDEST EQ PUSH3 0x415 JUMPI PUSH1 0x40 MLOAD PUSH3 0x461BCD PUSH1 0xE5 SHL DUP2 MSTORE PUSH1 0x20 PUSH1 0x4 DUP3 ADD MSTORE PUSH1 0x21 PUSH1 0x24 DUP3 ADD MSTORE PUSH32 0x536166654D6174683A206D756C7469706C69636174696F6E206F766572666C6F PUSH1 0x44 DUP3 ADD MSTORE PUSH1 0x77 PUSH1 0xF8 SHL PUSH1 0x64 DUP3 ADD MSTORE PUSH1 0x84 ADD JUMPDEST PUSH1 0x40 MLOAD DUP1 SWAP2 SUB SWAP1 REVERT JUMPDEST SWAP1 POP JUMPDEST SWAP3 SWAP2 POP POP JUMP JUMPDEST PUSH1 0x0 PUSH3 0x415 DUP4 DUP4 PUSH1 0x40 MLOAD DUP1 PUSH1 0x40 ADD PUSH1 0x40 MSTORE DUP1 PUSH1 0x1A DUP2 MSTORE PUSH1 0x20 ADD PUSH32 0x536166654D6174683A206469766973696F6E206279207A65726F000000000000 DUP2 MSTORE POP PUSH3 0x54A PUSH1 0x20 SHL PUSH1 0x20 SHR JUMP JUMPDEST PUSH1 0x1 PUSH1 0x6 PUSH1 0x0 PUSH3 0x481 PUSH1 0x0 SLOAD PUSH1 0x1 PUSH1 0x1 PUSH1 0xA0 SHL SUB AND SWAP1 JUMP JUMPDEST PUSH1 0x1 PUSH1 0x1 PUSH1 0xA0 SHL SUB SWAP1 DUP2 AND DUP3 MSTORE PUSH1 0x20 DUP1 DUP4 ADD SWAP4 SWAP1 SWAP4 MSTORE PUSH1 0x40 SWAP2 DUP3 ADD PUSH1 0x0 SWAP1 DUP2 KECCAK256 DUP1 SLOAD SWAP6 ISZERO ISZERO PUSH1 0xFF NOT SWAP7 DUP8 AND OR SWAP1 SSTORE ADDRESS DUP2 MSTORE PUSH1 0x6 SWAP1 SWAP4 MSTORE DUP2 DUP4 KECCAK256 DUP1 SLOAD DUP6 AND PUSH1 0x1 SWAP1 DUP2 OR SWAP1 SWAP2 SSTORE PUSH1 0x12 SLOAD SWAP1 SWAP2 AND DUP4 MSTORE SWAP1 DUP3 KECCAK256 DUP1 SLOAD SWAP1 SWAP4 AND DUP2 OR SWAP1 SWAP3 SSTORE PUSH1 0x8 SWAP1 PUSH3 0x4F1 PUSH1 0x0 SLOAD PUSH1 0x1 PUSH1 0x1 PUSH1 0xA0 SHL SUB AND SWAP1 JUMP JUMPDEST PUSH1 0x1 PUSH1 0x1 PUSH1 0xA0 SHL SUB SWAP1 DUP2 AND DUP3 MSTORE PUSH1 0x20 DUP1 DUP4 ADD SWAP4 SWAP1 SWAP4 MSTORE PUSH1 0x40 SWAP2 DUP3 ADD PUSH1 0x0 SWAP1 DUP2 KECCAK256 DUP1 SLOAD SWAP6 ISZERO ISZERO PUSH1 0xFF NOT SWAP7 DUP8 AND OR SWAP1 SSTORE ADDRESS DUP2 MSTORE PUSH1 0x8 SWAP1 SWAP4 MSTORE DUP2 DUP4 KECCAK256 DUP1 SLOAD DUP6 AND PUSH1 0x1 SWAP1 DUP2 OR SWAP1 SWAP2 SSTORE PUSH1 0x12 SLOAD SWAP1 SWAP2 AND DUP4 MSTORE SWAP2 KECCAK256 DUP1 SLOAD SWAP1 SWAP3 AND OR SWAP1 SSTORE JUMP JUMPDEST PUSH1 0x0 DUP2 DUP4 PUSH3 0x56E JUMPI PUSH1 0x40 MLOAD PUSH3 0x461BCD PUSH1 0xE5 SHL DUP2 MSTORE PUSH1 0x4 ADD PUSH3 0x40C SWAP2 SWAP1 PUSH3 0x68B JUMP JUMPDEST POP PUSH1 0x0 PUSH3 0x57D DUP5 DUP7 PUSH3 0x6E3 JUMP JUMPDEST SWAP6 SWAP5 POP POP POP POP POP JUMP JUMPDEST DUP3 DUP1 SLOAD PUSH3 0x594 SWAP1 PUSH3 0x736 JUMP JUMPDEST SWAP1 PUSH1 0x0 MSTORE PUSH1 0x20 PUSH1 0x0 KECCAK256 SWAP1 PUSH1 0x1F ADD PUSH1 0x20 SWAP1 DIV DUP2 ADD SWAP3 DUP3 PUSH3 0x5B8 JUMPI PUSH1 0x0 DUP6 SSTORE PUSH3 0x603 JUMP JUMPDEST DUP3 PUSH1 0x1F LT PUSH3 0x5D3 JUMPI DUP1 MLOAD PUSH1 0xFF NOT AND DUP4 DUP1 ADD OR DUP6 SSTORE PUSH3 0x603 JUMP JUMPDEST DUP3 DUP1 ADD PUSH1 0x1 ADD DUP6 SSTORE DUP3 ISZERO PUSH3 0x603 JUMPI SWAP2 DUP3 ADD JUMPDEST DUP3 DUP2 GT ISZERO PUSH3 0x603 JUMPI DUP3 MLOAD DUP3 SSTORE SWAP2 PUSH1 0x20 ADD SWAP2 SWAP1 PUSH1 0x1 ADD SWAP1 PUSH3 0x5E6 JUMP JUMPDEST POP PUSH3 0x611 SWAP3 SWAP2 POP PUSH3 0x615 JUMP JUMPDEST POP SWAP1 JUMP JUMPDEST JUMPDEST DUP1 DUP3 GT ISZERO PUSH3 0x611 JUMPI PUSH1 0x0 DUP2 SSTORE PUSH1 0x1 ADD PUSH3 0x616 JUMP JUMPDEST PUSH1 0x0 PUSH1 0x20 DUP3 DUP5 SUB SLT ISZERO PUSH3 0x63F JUMPI PUSH1 0x0 DUP1 REVERT JUMPDEST DUP2 MLOAD PUSH3 0x415 DUP2 PUSH3 0x7B6 JUMP JUMPDEST PUSH1 0x0 DUP1 PUSH1 0x40 DUP4 DUP6 SUB SLT ISZERO PUSH3 0x660 JUMPI PUSH1 0x0 DUP1 REVERT JUMPDEST DUP3 MLOAD PUSH3 0x66D DUP2 PUSH3 0x7B6 JUMP JUMPDEST PUSH1 0x20 DUP5 ADD MLOAD SWAP1 SWAP3 POP PUSH3 0x680 DUP2 PUSH3 0x7B6 JUMP JUMPDEST DUP1 SWAP2 POP POP SWAP3 POP SWAP3 SWAP1 POP JUMP JUMPDEST PUSH1 0x0 PUSH1 0x20 DUP1 DUP4 MSTORE DUP4 MLOAD DUP1 DUP3 DUP6 ADD MSTORE PUSH1 0x0 JUMPDEST DUP2 DUP2 LT ISZERO PUSH3 0x6BA JUMPI DUP6 DUP2 ADD DUP4 ADD MLOAD DUP6 DUP3 ADD PUSH1 0x40 ADD MSTORE DUP3 ADD PUSH3 0x69C JUMP JUMPDEST DUP2 DUP2 GT ISZERO PUSH3 0x6CD JUMPI PUSH1 0x0 PUSH1 0x40 DUP4 DUP8 ADD ADD MSTORE JUMPDEST POP PUSH1 0x1F ADD PUSH1 0x1F NOT AND SWAP3 SWAP1 SWAP3 ADD PUSH1 0x40 ADD SWAP4 SWAP3 POP POP POP JUMP JUMPDEST PUSH1 0x0 DUP3 PUSH3 0x6F5 JUMPI PUSH3 0x6F5 PUSH3 0x7A0 JUMP JUMPDEST POP DIV SWAP1 JUMP JUMPDEST PUSH1 0x0 DUP2 PUSH1 0x0 NOT DIV DUP4 GT DUP3 ISZERO ISZERO AND ISZERO PUSH3 0x717 JUMPI PUSH3 0x717 PUSH3 0x78A JUMP JUMPDEST POP MUL SWAP1 JUMP JUMPDEST PUSH1 0x0 DUP3 DUP3 LT ISZERO PUSH3 0x731 JUMPI PUSH3 0x731 PUSH3 0x78A JUMP JUMPDEST POP SUB SWAP1 JUMP JUMPDEST PUSH1 0x1 DUP2 DUP2 SHR SWAP1 DUP3 AND DUP1 PUSH3 0x74B JUMPI PUSH1 0x7F DUP3 AND SWAP2 POP JUMPDEST PUSH1 0x20 DUP3 LT DUP2 EQ ISZERO PUSH3 0x76D JUMPI PUSH4 0x4E487B71 PUSH1 0xE0 SHL PUSH1 0x0 MSTORE PUSH1 0x22 PUSH1 0x4 MSTORE PUSH1 0x24 PUSH1 0x0 REVERT JUMPDEST POP SWAP2 SWAP1 POP JUMP JUMPDEST PUSH1 0x0 DUP3 PUSH3 0x785 JUMPI PUSH3 0x785 PUSH3 0x7A0 JUMP JUMPDEST POP MOD SWAP1 JUMP JUMPDEST PUSH4 0x4E487B71 PUSH1 0xE0 SHL PUSH1 0x0 MSTORE PUSH1 0x11 PUSH1 0x4 MSTORE PUSH1 0x24 PUSH1 0x0 REVERT JUMPDEST PUSH4 0x4E487B71 PUSH1 0xE0 SHL PUSH1 0x0 MSTORE PUSH1 0x12 PUSH1 0x4 MSTORE PUSH1 0x24 PUSH1 0x0 REVERT JUMPDEST PUSH1 0x1 PUSH1 0x1 PUSH1 0xA0 SHL SUB DUP2 AND DUP2 EQ PUSH3 0x7CC JUMPI PUSH1 0x0 DUP1 REVERT JUMPDEST POP JUMP JUMPDEST PUSH1 0x80 MLOAD PUSH1 0x60 SHR PUSH1 0xA0 MLOAD PUSH1 0x60 SHR PUSH2 0x24AF PUSH3 0x7FB PUSH1 0x0 CODECOPY PUSH1 0x0 PUSH2 0x4AE ADD MSTORE PUSH1 0x0 PUSH2 0x2E3 ADD MSTORE PUSH2 0x24AF PUSH1 0x0 RETURN INVALID PUSH1 0x80 PUSH1 0x40 MSTORE PUSH1 0x4 CALLDATASIZE LT PUSH2 0x229 JUMPI PUSH1 0x0 CALLDATALOAD PUSH1 0xE0 SHR DUP1 PUSH4 0x5342ACB4 GT PUSH2 0x123 JUMPI DUP1 PUSH4 0xA69DF4B5 GT PUSH2 0xAB JUMPI DUP1 PUSH4 0xDB4CF1E0 GT PUSH2 0x6F JUMPI DUP1 PUSH4 0xDB4CF1E0 EQ PUSH2 0x6C3 JUMPI DUP1 PUSH4 0xDD467064 EQ PUSH2 0x6E3 JUMPI DUP1 PUSH4 0xDD62ED3E EQ PUSH2 0x703 JUMPI DUP1 PUSH4 0xEA2F0B37 EQ PUSH2 0x749 JUMPI DUP1 PUSH4 0xF2FDE38B EQ PUSH2 0x769 JUMPI PUSH1 0x0 DUP1 REVERT JUMPDEST DUP1 PUSH4 0xA69DF4B5 EQ PUSH2 0x639 JUMPI DUP1 PUSH4 0xA9059CBB EQ PUSH2 0x64E JUMPI DUP1 PUSH4 0xB5208D7D EQ PUSH2 0x66E JUMPI DUP1 PUSH4 0xB6C52324 EQ PUSH2 0x68E JUMPI DUP1 PUSH4 0xD543DBEB EQ PUSH2 0x6A3 JUMPI PUSH1 0x0 DUP1 REVERT JUMPDEST DUP1 PUSH4 0x7D1DB4A5 GT PUSH2 0xF2 JUMPI DUP1 PUSH4 0x7D1DB4A5 EQ PUSH2 0x597 JUMPI DUP1 PUSH4 0x88F82020 EQ PUSH2 0x5AD JUMPI DUP1 PUSH4 0x8DA5CB5B EQ PUSH2 0x5E6 JUMPI DUP1 PUSH4 0x95D89B41 EQ PUSH2 0x604 JUMPI DUP1 PUSH4 0xA457C2D7 EQ PUSH2 0x619 JUMPI PUSH1 0x0 DUP1 REVERT JUMPDEST DUP1 PUSH4 0x5342ACB4 EQ PUSH2 0x4F0 JUMPI DUP1 PUSH4 0x53B5693A EQ PUSH2 0x529 JUMPI DUP1 PUSH4 0x70A08231 EQ PUSH2 0x562 JUMPI DUP1 PUSH4 0x715018A6 EQ PUSH2 0x582 JUMPI PUSH1 0x0 DUP1 REVERT JUMPDEST DUP1 PUSH4 0x23B872DD GT PUSH2 0x1B1 JUMPI DUP1 PUSH4 0x3BD5D173 GT PUSH2 0x175 JUMPI DUP1 PUSH4 0x3BD5D173 EQ PUSH2 0x43C JUMPI DUP1 PUSH4 0x437823EC EQ PUSH2 0x45C JUMPI DUP1 PUSH4 0x4549B039 EQ PUSH2 0x47C JUMPI DUP1 PUSH4 0x49BD5A5E EQ PUSH2 0x49C JUMPI DUP1 PUSH4 0x52390C02 EQ PUSH2 0x4D0 JUMPI PUSH1 0x0 DUP1 REVERT JUMPDEST DUP1 PUSH4 0x23B872DD EQ PUSH2 0x39A JUMPI DUP1 PUSH4 0x2D838119 EQ PUSH2 0x3BA JUMPI DUP1 PUSH4 0x313CE567 EQ PUSH2 0x3DA JUMPI DUP1 PUSH4 0x3685D419 EQ PUSH2 0x3FC JUMPI DUP1 PUSH4 0x39509351 EQ PUSH2 0x41C JUMPI PUSH1 0x0 DUP1 REVERT JUMPDEST DUP1 PUSH4 0x1694505E GT PUSH2 0x1F8 JUMPI DUP1 PUSH4 0x1694505E EQ PUSH2 0x2D1 JUMPI DUP1 PUSH4 0x18160DDD EQ PUSH2 0x31D JUMPI DUP1 PUSH4 0x18621FE5 EQ PUSH2 0x332 JUMPI DUP1 PUSH4 0x1F2C5443 EQ PUSH2 0x352 JUMPI DUP1 PUSH4 0x21ECFF5B EQ PUSH2 0x37A JUMPI PUSH1 0x0 DUP1 REVERT JUMPDEST DUP1 PUSH4 0x61C82D0 EQ PUSH2 0x235 JUMPI DUP1 PUSH4 0x6FDDE03 EQ PUSH2 0x257 JUMPI DUP1 PUSH4 0x95EA7B3 EQ PUSH2 0x282 JUMPI DUP1 PUSH4 0x13114A9D EQ PUSH2 0x2B2 JUMPI PUSH1 0x0 DUP1 REVERT JUMPDEST CALLDATASIZE PUSH2 0x230 JUMPI STOP JUMPDEST PUSH1 0x0 DUP1 REVERT JUMPDEST CALLVALUE DUP1 ISZERO PUSH2 0x241 JUMPI PUSH1 0x0 DUP1 REVERT JUMPDEST POP PUSH2 0x255 PUSH2 0x250 CALLDATASIZE PUSH1 0x4 PUSH2 0x220C JUMP JUMPDEST PUSH2 0x789 JUMP JUMPDEST STOP JUMPDEST CALLVALUE DUP1 ISZERO PUSH2 0x263 JUMPI PUSH1 0x0 DUP1 REVERT JUMPDEST POP PUSH2 0x26C PUSH2 0x7C1 JUMP JUMPDEST PUSH1 0x40 MLOAD PUSH2 0x279 SWAP2 SWAP1 PUSH2 0x227C JUMP JUMPDEST PUSH1 0x40 MLOAD DUP1 SWAP2 SUB SWAP1 RETURN JUMPDEST CALLVALUE DUP1 ISZERO PUSH2 0x28E JUMPI PUSH1 0x0 DUP1 REVERT JUMPDEST POP PUSH2 0x2A2 PUSH2 0x29D CALLDATASIZE PUSH1 0x4 PUSH2 0x21E2 JUMP JUMPDEST PUSH2 0x853 JUMP JUMPDEST PUSH1 0x40 MLOAD SWAP1 ISZERO ISZERO DUP2 MSTORE PUSH1 0x20 ADD PUSH2 0x279 JUMP JUMPDEST CALLVALUE DUP1 ISZERO PUSH2 0x2BE JUMPI PUSH1 0x0 DUP1 REVERT JUMPDEST POP PUSH1 0xC SLOAD JUMPDEST PUSH1 0x40 MLOAD SWAP1 DUP2 MSTORE PUSH1 0x20 ADD PUSH2 0x279 JUMP JUMPDEST CALLVALUE DUP1 ISZERO PUSH2 0x2DD JUMPI PUSH1 0x0 DUP1 REVERT JUMPDEST POP PUSH2 0x305 PUSH32 0x0 DUP2 JUMP JUMPDEST PUSH1 0x40 MLOAD PUSH1 0x1 PUSH1 0x1 PUSH1 0xA0 SHL SUB SWAP1 SWAP2 AND DUP2 MSTORE PUSH1 0x20 ADD PUSH2 0x279 JUMP JUMPDEST CALLVALUE DUP1 ISZERO PUSH2 0x329 JUMPI PUSH1 0x0 DUP1 REVERT JUMPDEST POP PUSH1 0xA SLOAD PUSH2 0x2C3 JUMP JUMPDEST CALLVALUE DUP1 ISZERO PUSH2 0x33E JUMPI PUSH1 0x0 DUP1 REVERT JUMPDEST POP PUSH2 0x255 PUSH2 0x34D CALLDATASIZE PUSH1 0x4 PUSH2 0x2158 JUMP JUMPDEST PUSH2 0x86A JUMP JUMPDEST CALLVALUE DUP1 ISZERO PUSH2 0x35E JUMPI PUSH1 0x0 DUP1 REVERT JUMPDEST POP PUSH1 0x13 SLOAD PUSH1 0x10 SLOAD PUSH1 0x40 DUP1 MLOAD SWAP3 DUP4 MSTORE PUSH1 0x20 DUP4 ADD SWAP2 SWAP1 SWAP2 MSTORE ADD PUSH2 0x279 JUMP JUMPDEST CALLVALUE DUP1 ISZERO PUSH2 0x386 JUMPI PUSH1 0x0 DUP1 REVERT JUMPDEST POP PUSH2 0x255 PUSH2 0x395 CALLDATASIZE PUSH1 0x4 PUSH2 0x225A JUMP JUMPDEST PUSH2 0x8B5 JUMP JUMPDEST CALLVALUE DUP1 ISZERO PUSH2 0x3A6 JUMPI PUSH1 0x0 DUP1 REVERT JUMPDEST POP PUSH2 0x2A2 PUSH2 0x3B5 CALLDATASIZE PUSH1 0x4 PUSH2 0x21A6 JUMP JUMPDEST PUSH2 0x984 JUMP JUMPDEST CALLVALUE DUP1 ISZERO PUSH2 0x3C6 JUMPI PUSH1 0x0 DUP1 REVERT JUMPDEST POP PUSH2 0x2C3 PUSH2 0x3D5 CALLDATASIZE PUSH1 0x4 PUSH2 0x220C JUMP JUMPDEST PUSH2 0x9ED JUMP JUMPDEST CALLVALUE DUP1 ISZERO PUSH2 0x3E6 JUMPI PUSH1 0x0 DUP1 REVERT JUMPDEST POP PUSH1 0xF SLOAD PUSH1 0x40 MLOAD PUSH1 0xFF SWAP1 SWAP2 AND DUP2 MSTORE PUSH1 0x20 ADD PUSH2 0x279 JUMP JUMPDEST CALLVALUE DUP1 ISZERO PUSH2 0x408 JUMPI PUSH1 0x0 DUP1 REVERT JUMPDEST POP PUSH2 0x255 PUSH2 0x417 CALLDATASIZE PUSH1 0x4 PUSH2 0x2158 JUMP JUMPDEST PUSH2 0xA71 JUMP JUMPDEST CALLVALUE DUP1 ISZERO PUSH2 0x428 JUMPI PUSH1 0x0 DUP1 REVERT JUMPDEST POP PUSH2 0x2A2 PUSH2 0x437 CALLDATASIZE PUSH1 0x4 PUSH2 0x21E2 JUMP JUMPDEST PUSH2 0xC28 JUMP JUMPDEST CALLVALUE DUP1 ISZERO PUSH2 0x448 JUMPI PUSH1 0x0 DUP1 REVERT JUMPDEST POP PUSH2 0x255 PUSH2 0x457 CALLDATASIZE PUSH1 0x4 PUSH2 0x220C JUMP JUMPDEST PUSH2 0xC5E JUMP JUMPDEST CALLVALUE DUP1 ISZERO PUSH2 0x468 JUMPI PUSH1 0x0 DUP1 REVERT JUMPDEST POP PUSH2 0x255 PUSH2 0x477 CALLDATASIZE PUSH1 0x4 PUSH2 0x2158 JUMP JUMPDEST PUSH2 0xD48 JUMP JUMPDEST CALLVALUE DUP1 ISZERO PUSH2 0x488 JUMPI PUSH1 0x0 DUP1 REVERT JUMPDEST POP PUSH2 0x2C3 PUSH2 0x497 CALLDATASIZE PUSH1 0x4 PUSH2 0x2225 JUMP JUMPDEST PUSH2 0xD96 JUMP JUMPDEST CALLVALUE DUP1 ISZERO PUSH2 0x4A8 JUMPI PUSH1 0x0 DUP1 REVERT JUMPDEST POP PUSH2 0x305 PUSH32 0x0 DUP2 JUMP JUMPDEST CALLVALUE DUP1 ISZERO PUSH2 0x4DC JUMPI PUSH1 0x0 DUP1 REVERT JUMPDEST POP PUSH2 0x255 PUSH2 0x4EB CALLDATASIZE PUSH1 0x4 PUSH2 0x2158 JUMP JUMPDEST PUSH2 0xE23 JUMP JUMPDEST CALLVALUE DUP1 ISZERO PUSH2 0x4FC JUMPI PUSH1 0x0 DUP1 REVERT JUMPDEST POP PUSH2 0x2A2 PUSH2 0x50B CALLDATASIZE PUSH1 0x4 PUSH2 0x2158 JUMP JUMPDEST PUSH1 0x1 PUSH1 0x1 PUSH1 0xA0 SHL SUB AND PUSH1 0x0 SWAP1 DUP2 MSTORE PUSH1 0x6 PUSH1 0x20 MSTORE PUSH1 0x40 SWAP1 KECCAK256 SLOAD PUSH1 0xFF AND SWAP1 JUMP JUMPDEST CALLVALUE DUP1 ISZERO PUSH2 0x535 JUMPI PUSH1 0x0 DUP1 REVERT JUMPDEST POP PUSH2 0x2A2 PUSH2 0x544 CALLDATASIZE PUSH1 0x4 PUSH2 0x2158 JUMP JUMPDEST PUSH1 0x1 PUSH1 0x1 PUSH1 0xA0 SHL SUB AND PUSH1 0x0 SWAP1 DUP2 MSTORE PUSH1 0x8 PUSH1 0x20 MSTORE PUSH1 0x40 SWAP1 KECCAK256 SLOAD PUSH1 0xFF AND SWAP1 JUMP JUMPDEST CALLVALUE DUP1 ISZERO PUSH2 0x56E JUMPI PUSH1 0x0 DUP1 REVERT JUMPDEST POP PUSH2 0x2C3 PUSH2 0x57D CALLDATASIZE PUSH1 0x4 PUSH2 0x2158 JUMP JUMPDEST PUSH2 0xF76 JUMP JUMPDEST CALLVALUE DUP1 ISZERO PUSH2 0x58E JUMPI PUSH1 0x0 DUP1 REVERT JUMPDEST POP PUSH2 0x255 PUSH2 0xFD5 JUMP JUMPDEST CALLVALUE DUP1 ISZERO PUSH2 0x5A3 JUMPI PUSH1 0x0 DUP1 REVERT JUMPDEST POP PUSH2 0x2C3 PUSH1 0x15 SLOAD DUP2 JUMP JUMPDEST CALLVALUE DUP1 ISZERO PUSH2 0x5B9 JUMPI PUSH1 0x0 DUP1 REVERT JUMPDEST POP PUSH2 0x2A2 PUSH2 0x5C8 CALLDATASIZE PUSH1 0x4 PUSH2 0x2158 JUMP JUMPDEST PUSH1 0x1 PUSH1 0x1 PUSH1 0xA0 SHL SUB AND PUSH1 0x0 SWAP1 DUP2 MSTORE PUSH1 0x7 PUSH1 0x20 MSTORE PUSH1 0x40 SWAP1 KECCAK256 SLOAD PUSH1 0xFF AND SWAP1 JUMP JUMPDEST CALLVALUE DUP1 ISZERO PUSH2 0x5F2 JUMPI PUSH1 0x0 DUP1 REVERT JUMPDEST POP PUSH1 0x0 SLOAD PUSH1 0x1 PUSH1 0x1 PUSH1 0xA0 SHL SUB AND PUSH2 0x305 JUMP JUMPDEST CALLVALUE DUP1 ISZERO PUSH2 0x610 JUMPI PUSH1 0x0 DUP1 REVERT JUMPDEST POP PUSH2 0x26C PUSH2 0x1037 JUMP JUMPDEST CALLVALUE DUP1 ISZERO PUSH2 0x625 JUMPI PUSH1 0x0 DUP1 REVERT JUMPDEST POP PUSH2 0x2A2 PUSH2 0x634 CALLDATASIZE PUSH1 0x4 PUSH2 0x21E2 JUMP JUMPDEST PUSH2 0x1046 JUMP JUMPDEST CALLVALUE DUP1 ISZERO PUSH2 0x645 JUMPI PUSH1 0x0 DUP1 REVERT JUMPDEST POP PUSH2 0x255 PUSH2 0x1095 JUMP JUMPDEST CALLVALUE DUP1 ISZERO PUSH2 0x65A JUMPI PUSH1 0x0 DUP1 REVERT JUMPDEST POP PUSH2 0x2A2 PUSH2 0x669 CALLDATASIZE PUSH1 0x4 PUSH2 0x21E2 JUMP JUMPDEST PUSH2 0x119B JUMP JUMPDEST CALLVALUE DUP1 ISZERO PUSH2 0x67A JUMPI PUSH1 0x0 DUP1 REVERT JUMPDEST POP PUSH2 0x255 PUSH2 0x689 CALLDATASIZE PUSH1 0x4 PUSH2 0x220C JUMP JUMPDEST PUSH2 0x11A8 JUMP JUMPDEST CALLVALUE DUP1 ISZERO PUSH2 0x69A JUMPI PUSH1 0x0 DUP1 REVERT JUMPDEST POP PUSH1 0x2 SLOAD PUSH2 0x2C3 JUMP JUMPDEST CALLVALUE DUP1 ISZERO PUSH2 0x6AF JUMPI PUSH1 0x0 DUP1 REVERT JUMPDEST POP PUSH2 0x255 PUSH2 0x6BE CALLDATASIZE PUSH1 0x4 PUSH2 0x220C JUMP JUMPDEST PUSH2 0x11D7 JUMP JUMPDEST CALLVALUE DUP1 ISZERO PUSH2 0x6CF JUMPI PUSH1 0x0 DUP1 REVERT JUMPDEST POP PUSH2 0x255 PUSH2 0x6DE CALLDATASIZE PUSH1 0x4 PUSH2 0x2158 JUMP JUMPDEST PUSH2 0x1227 JUMP JUMPDEST CALLVALUE DUP1 ISZERO PUSH2 0x6EF JUMPI PUSH1 0x0 DUP1 REVERT JUMPDEST POP PUSH2 0x255 PUSH2 0x6FE CALLDATASIZE PUSH1 0x4 PUSH2 0x220C JUMP JUMPDEST PUSH2 0x1275 JUMP JUMPDEST CALLVALUE DUP1 ISZERO PUSH2 0x70F JUMPI PUSH1 0x0 DUP1 REVERT JUMPDEST POP PUSH2 0x2C3 PUSH2 0x71E CALLDATASIZE PUSH1 0x4 PUSH2 0x2173 JUMP JUMPDEST PUSH1 0x1 PUSH1 0x1 PUSH1 0xA0 SHL SUB SWAP2 DUP3 AND PUSH1 0x0 SWAP1 DUP2 MSTORE PUSH1 0x5 PUSH1 0x20 SWAP1 DUP2 MSTORE PUSH1 0x40 DUP1 DUP4 KECCAK256 SWAP4 SWAP1 SWAP5 AND DUP3 MSTORE SWAP2 SWAP1 SWAP2 MSTORE KECCAK256 SLOAD SWAP1 JUMP JUMPDEST CALLVALUE DUP1 ISZERO PUSH2 0x755 JUMPI PUSH1 0x0 DUP1 REVERT JUMPDEST POP PUSH2 0x255 PUSH2 0x764 CALLDATASIZE PUSH1 0x4 PUSH2 0x2158 JUMP JUMPDEST PUSH2 0x12FA JUMP JUMPDEST CALLVALUE DUP1 ISZERO PUSH2 0x775 JUMPI PUSH1 0x0 DUP1 REVERT JUMPDEST POP PUSH2 0x255 PUSH2 0x784 CALLDATASIZE PUSH1 0x4 PUSH2 0x2158 JUMP JUMPDEST PUSH2 0x1345 JUMP JUMPDEST PUSH1 0x0 SLOAD PUSH1 0x1 PUSH1 0x1 PUSH1 0xA0 SHL SUB AND CALLER EQ PUSH2 0x7BC JUMPI PUSH1 0x40 MLOAD PUSH3 0x461BCD PUSH1 0xE5 SHL DUP2 MSTORE PUSH1 0x4 ADD PUSH2 0x7B3 SWAP1 PUSH2 0x22D1 JUMP JUMPDEST PUSH1 0x40 MLOAD DUP1 SWAP2 SUB SWAP1 REVERT JUMPDEST PUSH1 0x13 SSTORE JUMP JUMPDEST PUSH1 0x60 PUSH1 0xD DUP1 SLOAD PUSH2 0x7D0 SWAP1 PUSH2 0x2376 JUMP JUMPDEST DUP1 PUSH1 0x1F ADD PUSH1 0x20 DUP1 SWAP2 DIV MUL PUSH1 0x20 ADD PUSH1 0x40 MLOAD SWAP1 DUP2 ADD PUSH1 0x40 MSTORE DUP1 SWAP3 SWAP2 SWAP1 DUP2 DUP2 MSTORE PUSH1 0x20 ADD DUP3 DUP1 SLOAD PUSH2 0x7FC SWAP1 PUSH2 0x2376 JUMP JUMPDEST DUP1 ISZERO PUSH2 0x849 JUMPI DUP1 PUSH1 0x1F LT PUSH2 0x81E JUMPI PUSH2 0x100 DUP1 DUP4 SLOAD DIV MUL DUP4 MSTORE SWAP2 PUSH1 0x20 ADD SWAP2 PUSH2 0x849 JUMP JUMPDEST DUP3 ADD SWAP2 SWAP1 PUSH1 0x0 MSTORE PUSH1 0x20 PUSH1 0x0 KECCAK256 SWAP1 JUMPDEST DUP2 SLOAD DUP2 MSTORE SWAP1 PUSH1 0x1 ADD SWAP1 PUSH1 0x20 ADD DUP1 DUP4 GT PUSH2 0x82C JUMPI DUP3 SWAP1 SUB PUSH1 0x1F AND DUP3 ADD SWAP2 JUMPDEST POP POP POP POP POP SWAP1 POP SWAP1 JUMP JUMPDEST PUSH1 0x0 PUSH2 0x860 CALLER DUP5 DUP5 PUSH2 0x14DE JUMP JUMPDEST POP PUSH1 0x1 JUMPDEST SWAP3 SWAP2 POP POP JUMP JUMPDEST PUSH1 0x0 SLOAD PUSH1 0x1 PUSH1 0x1 PUSH1 0xA0 SHL SUB AND CALLER EQ PUSH2 0x894 JUMPI PUSH1 0x40 MLOAD PUSH3 0x461BCD PUSH1 0xE5 SHL DUP2 MSTORE PUSH1 0x4 ADD PUSH2 0x7B3 SWAP1 PUSH2 0x22D1 JUMP JUMPDEST PUSH1 0x1 PUSH1 0x1 PUSH1 0xA0 SHL SUB AND PUSH1 0x0 SWAP1 DUP2 MSTORE PUSH1 0x8 PUSH1 0x20 MSTORE PUSH1 0x40 SWAP1 KECCAK256 DUP1 SLOAD PUSH1 0xFF NOT AND SWAP1 SSTORE JUMP JUMPDEST PUSH1 0x0 SLOAD PUSH1 0x1 PUSH1 0x1 PUSH1 0xA0 SHL SUB AND CALLER EQ PUSH2 0x8DF JUMPI PUSH1 0x40 MLOAD PUSH3 0x461BCD PUSH1 0xE5 SHL DUP2 MSTORE PUSH1 0x4 ADD PUSH2 0x7B3 SWAP1 PUSH2 0x22D1 JUMP JUMPDEST PUSH1 0x19 DUP3 GT ISZERO PUSH2 0x927 JUMPI PUSH1 0x40 MLOAD PUSH3 0x461BCD PUSH1 0xE5 SHL DUP2 MSTORE PUSH1 0x20 PUSH1 0x4 DUP3 ADD MSTORE PUSH1 0x14 PUSH1 0x24 DUP3 ADD MSTORE PUSH20 0x2332B29039B2B2B6B9903B32B93C903434B3B417 PUSH1 0x61 SHL PUSH1 0x44 DUP3 ADD MSTORE PUSH1 0x64 ADD PUSH2 0x7B3 JUMP JUMPDEST PUSH1 0x19 DUP2 GT ISZERO PUSH2 0x96F JUMPI PUSH1 0x40 MLOAD PUSH3 0x461BCD PUSH1 0xE5 SHL DUP2 MSTORE PUSH1 0x20 PUSH1 0x4 DUP3 ADD MSTORE PUSH1 0x14 PUSH1 0x24 DUP3 ADD MSTORE PUSH20 0x2332B29039B2B2B6B9903B32B93C903434B3B417 PUSH1 0x61 SHL PUSH1 0x44 DUP3 ADD MSTORE PUSH1 0x64 ADD PUSH2 0x7B3 JUMP JUMPDEST PUSH1 0x13 DUP1 SLOAD PUSH1 0x14 SSTORE PUSH1 0x10 DUP1 SLOAD PUSH1 0x11 SSTORE SWAP3 SWAP1 SSTORE SWAP1 SSTORE JUMP JUMPDEST PUSH1 0x0 PUSH2 0x991 DUP5 DUP5 DUP5 PUSH2 0x1601 JUMP JUMPDEST PUSH2 0x9E3 DUP5 CALLER PUSH2 0x9DE DUP6 PUSH1 0x40 MLOAD DUP1 PUSH1 0x60 ADD PUSH1 0x40 MSTORE DUP1 PUSH1 0x27 DUP2 MSTORE PUSH1 0x20 ADD PUSH2 0x240F PUSH1 0x27 SWAP2 CODECOPY PUSH1 0x1 PUSH1 0x1 PUSH1 0xA0 SHL SUB DUP11 AND PUSH1 0x0 SWAP1 DUP2 MSTORE PUSH1 0x5 PUSH1 0x20 SWAP1 DUP2 MSTORE PUSH1 0x40 DUP1 DUP4 KECCAK256 CALLER DUP5 MSTORE SWAP1 SWAP2 MSTORE SWAP1 KECCAK256 SLOAD SWAP2 SWAP1 PUSH2 0x1864 JUMP JUMPDEST PUSH2 0x14DE JUMP JUMPDEST POP PUSH1 0x1 SWAP4 SWAP3 POP POP POP JUMP JUMPDEST PUSH1 0x0 PUSH1 0xB SLOAD DUP3 GT ISZERO PUSH2 0xA54 JUMPI PUSH1 0x40 MLOAD PUSH3 0x461BCD PUSH1 0xE5 SHL DUP2 MSTORE PUSH1 0x20 PUSH1 0x4 DUP3 ADD MSTORE PUSH1 0x2A PUSH1 0x24 DUP3 ADD MSTORE PUSH32 0x416D6F756E74206D757374206265206C657373207468616E20746F74616C2072 PUSH1 0x44 DUP3 ADD MSTORE PUSH10 0x65666C656374696F6E73 PUSH1 0xB0 SHL PUSH1 0x64 DUP3 ADD MSTORE PUSH1 0x84 ADD PUSH2 0x7B3 JUMP JUMPDEST PUSH1 0x0 PUSH2 0xA5E PUSH2 0x189E JUMP JUMPDEST SWAP1 POP PUSH2 0xA6A DUP4 DUP3 PUSH2 0x149C JUMP JUMPDEST SWAP4 SWAP3 POP POP POP JUMP JUMPDEST PUSH1 0x0 SLOAD PUSH1 0x1 PUSH1 0x1 PUSH1 0xA0 SHL SUB AND CALLER EQ PUSH2 0xA9B JUMPI PUSH1 0x40 MLOAD PUSH3 0x461BCD PUSH1 0xE5 SHL DUP2 MSTORE PUSH1 0x4 ADD PUSH2 0x7B3 SWAP1 PUSH2 0x22D1 JUMP JUMPDEST PUSH1 0x1 PUSH1 0x1 PUSH1 0xA0 SHL SUB DUP2 AND PUSH1 0x0 SWAP1 DUP2 MSTORE PUSH1 0x7 PUSH1 0x20 MSTORE PUSH1 0x40 SWAP1 KECCAK256 SLOAD PUSH1 0xFF AND PUSH2 0xB03 JUMPI PUSH1 0x40 MLOAD PUSH3 0x461BCD PUSH1 0xE5 SHL DUP2 MSTORE PUSH1 0x20 PUSH1 0x4 DUP3 ADD MSTORE PUSH1 0x1B PUSH1 0x24 DUP3 ADD MSTORE PUSH32 0x4163636F756E7420697320616C7265616479206578636C756465640000000000 PUSH1 0x44 DUP3 ADD MSTORE PUSH1 0x64 ADD PUSH2 0x7B3 JUMP JUMPDEST PUSH1 0x0 JUMPDEST PUSH1 0x9 SLOAD DUP2 LT ISZERO PUSH2 0xC24 JUMPI DUP2 PUSH1 0x1 PUSH1 0x1 PUSH1 0xA0 SHL SUB AND PUSH1 0x9 DUP3 DUP2 SLOAD DUP2 LT PUSH2 0xB2D JUMPI PUSH2 0xB2D PUSH2 0x23F8 JUMP JUMPDEST PUSH1 0x0 SWAP2 DUP3 MSTORE PUSH1 0x20 SWAP1 SWAP2 KECCAK256 ADD SLOAD PUSH1 0x1 PUSH1 0x1 PUSH1 0xA0 SHL SUB AND EQ ISZERO PUSH2 0xC12 JUMPI PUSH1 0x9 DUP1 SLOAD PUSH2 0xB58 SWAP1 PUSH1 0x1 SWAP1 PUSH2 0x235F JUMP JUMPDEST DUP2 SLOAD DUP2 LT PUSH2 0xB68 JUMPI PUSH2 0xB68 PUSH2 0x23F8 JUMP JUMPDEST PUSH1 0x0 SWAP2 DUP3 MSTORE PUSH1 0x20 SWAP1 SWAP2 KECCAK256 ADD SLOAD PUSH1 0x9 DUP1 SLOAD PUSH1 0x1 PUSH1 0x1 PUSH1 0xA0 SHL SUB SWAP1 SWAP3 AND SWAP2 DUP4 SWAP1 DUP2 LT PUSH2 0xB94 JUMPI PUSH2 0xB94 PUSH2 0x23F8 JUMP JUMPDEST PUSH1 0x0 SWAP2 DUP3 MSTORE PUSH1 0x20 DUP1 DUP4 KECCAK256 SWAP2 SWAP1 SWAP2 ADD DUP1 SLOAD PUSH1 0x1 PUSH1 0x1 PUSH1 0xA0 SHL SUB NOT AND PUSH1 0x1 PUSH1 0x1 PUSH1 0xA0 SHL SUB SWAP5 DUP6 AND OR SWAP1 SSTORE SWAP2 DUP5 AND DUP2 MSTORE PUSH1 0x4 DUP3 MSTORE PUSH1 0x40 DUP1 DUP3 KECCAK256 DUP3 SWAP1 SSTORE PUSH1 0x7 SWAP1 SWAP3 MSTORE KECCAK256 DUP1 SLOAD PUSH1 0xFF NOT AND SWAP1 SSTORE PUSH1 0x9 DUP1 SLOAD DUP1 PUSH2 0xBEC JUMPI PUSH2 0xBEC PUSH2 0x23E2 JUMP JUMPDEST PUSH1 0x0 DUP3 DUP2 MSTORE PUSH1 0x20 SWAP1 KECCAK256 DUP2 ADD PUSH1 0x0 NOT SWAP1 DUP2 ADD DUP1 SLOAD PUSH1 0x1 PUSH1 0x1 PUSH1 0xA0 SHL SUB NOT AND SWAP1 SSTORE ADD SWAP1 SSTORE POP POP JUMP JUMPDEST DUP1 PUSH2 0xC1C DUP2 PUSH2 0x23B1 JUMP JUMPDEST SWAP2 POP POP PUSH2 0xB06 JUMP JUMPDEST POP POP JUMP JUMPDEST CALLER PUSH1 0x0 DUP2 DUP2 MSTORE PUSH1 0x5 PUSH1 0x20 SWAP1 DUP2 MSTORE PUSH1 0x40 DUP1 DUP4 KECCAK256 PUSH1 0x1 PUSH1 0x1 PUSH1 0xA0 SHL SUB DUP8 AND DUP5 MSTORE SWAP1 SWAP2 MSTORE DUP2 KECCAK256 SLOAD SWAP1 SWAP2 PUSH2 0x860 SWAP2 DUP6 SWAP1 PUSH2 0x9DE SWAP1 DUP7 PUSH2 0x18C1 JUMP JUMPDEST CALLER PUSH1 0x0 DUP2 DUP2 MSTORE PUSH1 0x7 PUSH1 0x20 MSTORE PUSH1 0x40 SWAP1 KECCAK256 SLOAD PUSH1 0xFF AND ISZERO PUSH2 0xCD3 JUMPI PUSH1 0x40 MLOAD PUSH3 0x461BCD PUSH1 0xE5 SHL DUP2 MSTORE PUSH1 0x20 PUSH1 0x4 DUP3 ADD MSTORE PUSH1 0x2C PUSH1 0x24 DUP3 ADD MSTORE PUSH32 0x4578636C75646564206164647265737365732063616E6E6F742063616C6C2074 PUSH1 0x44 DUP3 ADD MSTORE PUSH12 0x3434B990333AB731BA34B7B7 PUSH1 0xA1 SHL PUSH1 0x64 DUP3 ADD MSTORE PUSH1 0x84 ADD PUSH2 0x7B3 JUMP JUMPDEST PUSH1 0x0 PUSH2 0xCDE DUP4 PUSH2 0x1920 JUMP JUMPDEST POP POP POP POP PUSH1 0x1 PUSH1 0x1 PUSH1 0xA0 SHL SUB DUP5 AND PUSH1 0x0 SWAP1 DUP2 MSTORE PUSH1 0x3 PUSH1 0x20 MSTORE PUSH1 0x40 SWAP1 KECCAK256 SLOAD SWAP2 SWAP3 POP PUSH2 0xD0A SWAP2 SWAP1 POP DUP3 PUSH2 0x196F JUMP JUMPDEST PUSH1 0x1 PUSH1 0x1 PUSH1 0xA0 SHL SUB DUP4 AND PUSH1 0x0 SWAP1 DUP2 MSTORE PUSH1 0x3 PUSH1 0x20 MSTORE PUSH1 0x40 SWAP1 KECCAK256 SSTORE PUSH1 0xB SLOAD PUSH2 0xD30 SWAP1 DUP3 PUSH2 0x196F JUMP JUMPDEST PUSH1 0xB SSTORE PUSH1 0xC SLOAD PUSH2 0xD40 SWAP1 DUP5 PUSH2 0x18C1 JUMP JUMPDEST PUSH1 0xC SSTORE POP POP POP JUMP JUMPDEST PUSH1 0x0 SLOAD PUSH1 0x1 PUSH1 0x1 PUSH1 0xA0 SHL SUB AND CALLER EQ PUSH2 0xD72 JUMPI PUSH1 0x40 MLOAD PUSH3 0x461BCD PUSH1 0xE5 SHL DUP2 MSTORE PUSH1 0x4 ADD PUSH2 0x7B3 SWAP1 PUSH2 0x22D1 JUMP JUMPDEST PUSH1 0x1 PUSH1 0x1 PUSH1 0xA0 SHL SUB AND PUSH1 0x0 SWAP1 DUP2 MSTORE PUSH1 0x6 PUSH1 0x20 MSTORE PUSH1 0x40 SWAP1 KECCAK256 DUP1 SLOAD PUSH1 0xFF NOT AND PUSH1 0x1 OR SWAP1 SSTORE JUMP JUMPDEST PUSH1 0x0 PUSH1 0xA SLOAD DUP4 GT ISZERO PUSH2 0xDEA JUMPI PUSH1 0x40 MLOAD PUSH3 0x461BCD PUSH1 0xE5 SHL DUP2 MSTORE PUSH1 0x20 PUSH1 0x4 DUP3 ADD MSTORE PUSH1 0x1F PUSH1 0x24 DUP3 ADD MSTORE PUSH32 0x416D6F756E74206D757374206265206C657373207468616E20737570706C7900 PUSH1 0x44 DUP3 ADD MSTORE PUSH1 0x64 ADD PUSH2 0x7B3 JUMP JUMPDEST DUP2 PUSH2 0xE09 JUMPI PUSH1 0x0 PUSH2 0xDFA DUP5 PUSH2 0x1920 JUMP JUMPDEST POP SWAP4 SWAP6 POP PUSH2 0x864 SWAP5 POP POP POP POP POP JUMP JUMPDEST PUSH1 0x0 PUSH2 0xE14 DUP5 PUSH2 0x1920 JUMP JUMPDEST POP SWAP3 SWAP6 POP PUSH2 0x864 SWAP5 POP POP POP POP POP JUMP JUMPDEST PUSH1 0x0 SLOAD PUSH1 0x1 PUSH1 0x1 PUSH1 0xA0 SHL SUB AND CALLER EQ PUSH2 0xE4D JUMPI PUSH1 0x40 MLOAD PUSH3 0x461BCD PUSH1 0xE5 SHL DUP2 MSTORE PUSH1 0x4 ADD PUSH2 0x7B3 SWAP1 PUSH2 0x22D1 JUMP JUMPDEST PUSH1 0x1 PUSH1 0x1 PUSH1 0xA0 SHL SUB DUP2 AND PUSH1 0x0 SWAP1 DUP2 MSTORE PUSH1 0x7 PUSH1 0x20 MSTORE PUSH1 0x40 SWAP1 KECCAK256 SLOAD PUSH1 0xFF AND ISZERO PUSH2 0xEB6 JUMPI PUSH1 0x40 MLOAD PUSH3 0x461BCD PUSH1 0xE5 SHL DUP2 MSTORE PUSH1 0x20 PUSH1 0x4 DUP3 ADD MSTORE PUSH1 0x1B PUSH1 0x24 DUP3 ADD MSTORE PUSH32 0x4163636F756E7420697320616C7265616479206578636C756465640000000000 PUSH1 0x44 DUP3 ADD MSTORE PUSH1 0x64 ADD PUSH2 0x7B3 JUMP JUMPDEST PUSH1 0x1 PUSH1 0x1 PUSH1 0xA0 SHL SUB DUP2 AND PUSH1 0x0 SWAP1 DUP2 MSTORE PUSH1 0x3 PUSH1 0x20 MSTORE PUSH1 0x40 SWAP1 KECCAK256 SLOAD ISZERO PUSH2 0xF10 JUMPI PUSH1 0x1 PUSH1 0x1 PUSH1 0xA0 SHL SUB DUP2 AND PUSH1 0x0 SWAP1 DUP2 MSTORE PUSH1 0x3 PUSH1 0x20 MSTORE PUSH1 0x40 SWAP1 KECCAK256 SLOAD PUSH2 0xEF6 SWAP1 PUSH2 0x9ED JUMP JUMPDEST PUSH1 0x1 PUSH1 0x1 PUSH1 0xA0 SHL SUB DUP3 AND PUSH1 0x0 SWAP1 DUP2 MSTORE PUSH1 0x4 PUSH1 0x20 MSTORE PUSH1 0x40 SWAP1 KECCAK256 SSTORE JUMPDEST PUSH1 0x1 PUSH1 0x1 PUSH1 0xA0 SHL SUB AND PUSH1 0x0 DUP2 DUP2 MSTORE PUSH1 0x7 PUSH1 0x20 MSTORE PUSH1 0x40 DUP2 KECCAK256 DUP1 SLOAD PUSH1 0xFF NOT AND PUSH1 0x1 SWAP1 DUP2 OR SWAP1 SWAP2 SSTORE PUSH1 0x9 DUP1 SLOAD SWAP2 DUP3 ADD DUP2 SSTORE SWAP1 SWAP2 MSTORE PUSH32 0x6E1540171B6C0C960B71A7020D9F60077F6AF931A8BBF590DA0223DACF75C7AF ADD DUP1 SLOAD PUSH1 0x1 PUSH1 0x1 PUSH1 0xA0 SHL SUB NOT AND SWAP1 SWAP2 OR SWAP1 SSTORE JUMP JUMPDEST PUSH1 0x1 PUSH1 0x1 PUSH1 0xA0 SHL SUB DUP2 AND PUSH1 0x0 SWAP1 DUP2 MSTORE PUSH1 0x7 PUSH1 0x20 MSTORE PUSH1 0x40 DUP2 KECCAK256 SLOAD PUSH1 0xFF AND ISZERO PUSH2 0xFB3 JUMPI POP PUSH1 0x1 PUSH1 0x1 PUSH1 0xA0 SHL SUB AND PUSH1 0x0 SWAP1 DUP2 MSTORE PUSH1 0x4 PUSH1 0x20 MSTORE PUSH1 0x40 SWAP1 KECCAK256 SLOAD SWAP1 JUMP JUMPDEST PUSH1 0x1 PUSH1 0x1 PUSH1 0xA0 SHL SUB DUP3 AND PUSH1 0x0 SWAP1 DUP2 MSTORE PUSH1 0x3 PUSH1 0x20 MSTORE PUSH1 0x40 SWAP1 KECCAK256 SLOAD PUSH2 0x864 SWAP1 PUSH2 0x9ED JUMP JUMPDEST PUSH1 0x0 SLOAD PUSH1 0x1 PUSH1 0x1 PUSH1 0xA0 SHL SUB AND CALLER EQ PUSH2 0xFFF JUMPI PUSH1 0x40 MLOAD PUSH3 0x461BCD PUSH1 0xE5 SHL DUP2 MSTORE PUSH1 0x4 ADD PUSH2 0x7B3 SWAP1 PUSH2 0x22D1 JUMP JUMPDEST PUSH1 0x0 DUP1 SLOAD PUSH1 0x40 MLOAD PUSH1 0x1 PUSH1 0x1 PUSH1 0xA0 SHL SUB SWAP1 SWAP2 AND SWAP1 PUSH1 0x0 DUP1 MLOAD PUSH1 0x20 PUSH2 0x245A DUP4 CODECOPY DUP2 MLOAD SWAP2 MSTORE SWAP1 DUP4 SWAP1 LOG3 PUSH1 0x0 DUP1 SLOAD PUSH1 0x1 PUSH1 0x1 PUSH1 0xA0 SHL SUB NOT AND SWAP1 SSTORE JUMP JUMPDEST PUSH1 0x60 PUSH1 0xE DUP1 SLOAD PUSH2 0x7D0 SWAP1 PUSH2 0x2376 JUMP JUMPDEST PUSH1 0x0 PUSH2 0x860 CALLER DUP5 PUSH2 0x9DE DUP6 PUSH1 0x40 MLOAD DUP1 PUSH1 0x60 ADD PUSH1 0x40 MSTORE DUP1 PUSH1 0x24 DUP2 MSTORE PUSH1 0x20 ADD PUSH2 0x2436 PUSH1 0x24 SWAP2 CODECOPY CALLER PUSH1 0x0 SWAP1 DUP2 MSTORE PUSH1 0x5 PUSH1 0x20 SWAP1 DUP2 MSTORE PUSH1 0x40 DUP1 DUP4 KECCAK256 PUSH1 0x1 PUSH1 0x1 PUSH1 0xA0 SHL SUB DUP14 AND DUP5 MSTORE SWAP1 SWAP2 MSTORE SWAP1 KECCAK256 SLOAD SWAP2 SWAP1 PUSH2 0x1864 JUMP JUMPDEST PUSH1 0x1 SLOAD PUSH1 0x1 PUSH1 0x1 PUSH1 0xA0 SHL SUB AND CALLER EQ PUSH2 0x10FB JUMPI PUSH1 0x40 MLOAD PUSH3 0x461BCD PUSH1 0xE5 SHL DUP2 MSTORE PUSH1 0x20 PUSH1 0x4 DUP3 ADD MSTORE PUSH1 0x23 PUSH1 0x24 DUP3 ADD MSTORE PUSH32 0x596F7520646F6E27742068617665207065726D697373696F6E20746F20756E6C PUSH1 0x44 DUP3 ADD MSTORE PUSH3 0x6F636B PUSH1 0xE8 SHL PUSH1 0x64 DUP3 ADD MSTORE PUSH1 0x84 ADD PUSH2 0x7B3 JUMP JUMPDEST PUSH1 0x2 SLOAD TIMESTAMP GT PUSH2 0x114C JUMPI PUSH1 0x40 MLOAD PUSH3 0x461BCD PUSH1 0xE5 SHL DUP2 MSTORE PUSH1 0x20 PUSH1 0x4 DUP3 ADD MSTORE PUSH1 0x1F PUSH1 0x24 DUP3 ADD MSTORE PUSH32 0x436F6E7472616374206973206C6F636B656420756E74696C2037206461797300 PUSH1 0x44 DUP3 ADD MSTORE PUSH1 0x64 ADD PUSH2 0x7B3 JUMP JUMPDEST PUSH1 0x1 SLOAD PUSH1 0x0 DUP1 SLOAD PUSH1 0x40 MLOAD PUSH1 0x1 PUSH1 0x1 PUSH1 0xA0 SHL SUB SWAP4 DUP5 AND SWAP4 SWAP1 SWAP2 AND SWAP2 PUSH1 0x0 DUP1 MLOAD PUSH1 0x20 PUSH2 0x245A DUP4 CODECOPY DUP2 MLOAD SWAP2 MSTORE SWAP2 LOG3 PUSH1 0x1 SLOAD PUSH1 0x0 DUP1 SLOAD PUSH1 0x1 PUSH1 0x1 PUSH1 0xA0 SHL SUB NOT AND PUSH1 0x1 PUSH1 0x1 PUSH1 0xA0 SHL SUB SWAP1 SWAP3 AND SWAP2 SWAP1 SWAP2 OR SWAP1 SSTORE JUMP JUMPDEST PUSH1 0x0 PUSH2 0x860 CALLER DUP5 DUP5 PUSH2 0x1601 JUMP JUMPDEST PUSH1 0x0 SLOAD PUSH1 0x1 PUSH1 0x1 PUSH1 0xA0 SHL SUB AND CALLER EQ PUSH2 0x11D2 JUMPI PUSH1 0x40 MLOAD PUSH3 0x461BCD PUSH1 0xE5 SHL DUP2 MSTORE PUSH1 0x4 ADD PUSH2 0x7B3 SWAP1 PUSH2 0x22D1 JUMP JUMPDEST PUSH1 0x10 SSTORE JUMP JUMPDEST PUSH1 0x0 SLOAD PUSH1 0x1 PUSH1 0x1 PUSH1 0xA0 SHL SUB AND CALLER EQ PUSH2 0x1201 JUMPI PUSH1 0x40 MLOAD PUSH3 0x461BCD PUSH1 0xE5 SHL DUP2 MSTORE PUSH1 0x4 ADD PUSH2 0x7B3 SWAP1 PUSH2 0x22D1 JUMP JUMPDEST PUSH2 0x1221 PUSH1 0x64 PUSH2 0x121B DUP4 PUSH1 0xA SLOAD PUSH2 0x141D SWAP1 SWAP2 SWAP1 PUSH4 0xFFFFFFFF AND JUMP JUMPDEST SWAP1 PUSH2 0x149C JUMP JUMPDEST PUSH1 0x15 SSTORE POP JUMP JUMPDEST PUSH1 0x0 SLOAD PUSH1 0x1 PUSH1 0x1 PUSH1 0xA0 SHL SUB AND CALLER EQ PUSH2 0x1251 JUMPI PUSH1 0x40 MLOAD PUSH3 0x461BCD PUSH1 0xE5 SHL DUP2 MSTORE PUSH1 0x4 ADD PUSH2 0x7B3 SWAP1 PUSH2 0x22D1 JUMP JUMPDEST PUSH1 0x1 PUSH1 0x1 PUSH1 0xA0 SHL SUB AND PUSH1 0x0 SWAP1 DUP2 MSTORE PUSH1 0x8 PUSH1 0x20 MSTORE PUSH1 0x40 SWAP1 KECCAK256 DUP1 SLOAD PUSH1 0xFF NOT AND PUSH1 0x1 OR SWAP1 SSTORE JUMP JUMPDEST PUSH1 0x0 SLOAD PUSH1 0x1 PUSH1 0x1 PUSH1 0xA0 SHL SUB AND CALLER EQ PUSH2 0x129F JUMPI PUSH1 0x40 MLOAD PUSH3 0x461BCD PUSH1 0xE5 SHL DUP2 MSTORE PUSH1 0x4 ADD PUSH2 0x7B3 SWAP1 PUSH2 0x22D1 JUMP JUMPDEST PUSH1 0x0 DUP1 SLOAD PUSH1 0x1 DUP1 SLOAD PUSH1 0x1 PUSH1 0x1 PUSH1 0xA0 SHL SUB NOT SWAP1 DUP2 AND PUSH1 0x1 PUSH1 0x1 PUSH1 0xA0 SHL SUB DUP5 AND OR SWAP1 SWAP2 SSTORE AND SWAP1 SSTORE PUSH2 0x12CE DUP2 TIMESTAMP PUSH2 0x2306 JUMP JUMPDEST PUSH1 0x2 SSTORE PUSH1 0x0 DUP1 SLOAD PUSH1 0x40 MLOAD PUSH1 0x1 PUSH1 0x1 PUSH1 0xA0 SHL SUB SWAP1 SWAP2 AND SWAP1 PUSH1 0x0 DUP1 MLOAD PUSH1 0x20 PUSH2 0x245A DUP4 CODECOPY DUP2 MLOAD SWAP2 MSTORE SWAP1 DUP4 SWAP1 LOG3 POP JUMP JUMPDEST PUSH1 0x0 SLOAD PUSH1 0x1 PUSH1 0x1 PUSH1 0xA0 SHL SUB AND CALLER EQ PUSH2 0x1324 JUMPI PUSH1 0x40 MLOAD PUSH3 0x461BCD PUSH1 0xE5 SHL DUP2 MSTORE PUSH1 0x4 ADD PUSH2 0x7B3 SWAP1 PUSH2 0x22D1 JUMP JUMPDEST PUSH1 0x1 PUSH1 0x1 PUSH1 0xA0 SHL SUB AND PUSH1 0x0 SWAP1 DUP2 MSTORE PUSH1 0x6 PUSH1 0x20 MSTORE PUSH1 0x40 SWAP1 KECCAK256 DUP1 SLOAD PUSH1 0xFF NOT AND SWAP1 SSTORE JUMP JUMPDEST PUSH1 0x0 SLOAD PUSH1 0x1 PUSH1 0x1 PUSH1 0xA0 SHL SUB AND CALLER EQ PUSH2 0x136F JUMPI PUSH1 0x40 MLOAD PUSH3 0x461BCD PUSH1 0xE5 SHL DUP2 MSTORE PUSH1 0x4 ADD PUSH2 0x7B3 SWAP1 PUSH2 0x22D1 JUMP JUMPDEST PUSH1 0x1 PUSH1 0x1 PUSH1 0xA0 SHL SUB DUP2 AND PUSH2 0x13D4 JUMPI PUSH1 0x40 MLOAD PUSH3 0x461BCD PUSH1 0xE5 SHL DUP2 MSTORE PUSH1 0x20 PUSH1 0x4 DUP3 ADD MSTORE PUSH1 0x26 PUSH1 0x24 DUP3 ADD MSTORE PUSH32 0x4F776E61626C653A206E6577206F776E657220697320746865207A65726F2061 PUSH1 0x44 DUP3 ADD MSTORE PUSH6 0x646472657373 PUSH1 0xD0 SHL PUSH1 0x64 DUP3 ADD MSTORE PUSH1 0x84 ADD PUSH2 0x7B3 JUMP JUMPDEST PUSH1 0x0 DUP1 SLOAD PUSH1 0x40 MLOAD PUSH1 0x1 PUSH1 0x1 PUSH1 0xA0 SHL SUB DUP1 DUP6 AND SWAP4 SWAP3 AND SWAP2 PUSH1 0x0 DUP1 MLOAD PUSH1 0x20 PUSH2 0x245A DUP4 CODECOPY DUP2 MLOAD SWAP2 MSTORE SWAP2 LOG3 PUSH1 0x0 DUP1 SLOAD PUSH1 0x1 PUSH1 0x1 PUSH1 0xA0 SHL SUB NOT AND PUSH1 0x1 PUSH1 0x1 PUSH1 0xA0 SHL SUB SWAP3 SWAP1 SWAP3 AND SWAP2 SWAP1 SWAP2 OR SWAP1 SSTORE JUMP JUMPDEST PUSH1 0x0 DUP3 PUSH2 0x142C JUMPI POP PUSH1 0x0 PUSH2 0x864 JUMP JUMPDEST PUSH1 0x0 PUSH2 0x1438 DUP4 DUP6 PUSH2 0x2340 JUMP JUMPDEST SWAP1 POP DUP3 PUSH2 0x1445 DUP6 DUP4 PUSH2 0x231E JUMP JUMPDEST EQ PUSH2 0xA6A JUMPI PUSH1 0x40 MLOAD PUSH3 0x461BCD PUSH1 0xE5 SHL DUP2 MSTORE PUSH1 0x20 PUSH1 0x4 DUP3 ADD MSTORE PUSH1 0x21 PUSH1 0x24 DUP3 ADD MSTORE PUSH32 0x536166654D6174683A206D756C7469706C69636174696F6E206F766572666C6F PUSH1 0x44 DUP3 ADD MSTORE PUSH1 0x77 PUSH1 0xF8 SHL PUSH1 0x64 DUP3 ADD MSTORE PUSH1 0x84 ADD PUSH2 0x7B3 JUMP JUMPDEST PUSH1 0x0 PUSH2 0xA6A DUP4 DUP4 PUSH1 0x40 MLOAD DUP1 PUSH1 0x40 ADD PUSH1 0x40 MSTORE DUP1 PUSH1 0x1A DUP2 MSTORE PUSH1 0x20 ADD PUSH32 0x536166654D6174683A206469766973696F6E206279207A65726F000000000000 DUP2 MSTORE POP PUSH2 0x19B1 JUMP JUMPDEST PUSH1 0x1 PUSH1 0x1 PUSH1 0xA0 SHL SUB DUP4 AND PUSH2 0x1540 JUMPI PUSH1 0x40 MLOAD PUSH3 0x461BCD PUSH1 0xE5 SHL DUP2 MSTORE PUSH1 0x20 PUSH1 0x4 DUP3 ADD MSTORE PUSH1 0x23 PUSH1 0x24 DUP3 ADD MSTORE PUSH32 0x474F4C443A20617070726F76652066726F6D20746865207A65726F2061646472 PUSH1 0x44 DUP3 ADD MSTORE PUSH3 0x657373 PUSH1 0xE8 SHL PUSH1 0x64 DUP3 ADD MSTORE PUSH1 0x84 ADD PUSH2 0x7B3 JUMP JUMPDEST PUSH1 0x1 PUSH1 0x1 PUSH1 0xA0 SHL SUB DUP3 AND PUSH2 0x15A0 JUMPI PUSH1 0x40 MLOAD PUSH3 0x461BCD PUSH1 0xE5 SHL DUP2 MSTORE PUSH1 0x20 PUSH1 0x4 DUP3 ADD MSTORE PUSH1 0x21 PUSH1 0x24 DUP3 ADD MSTORE PUSH32 0x474F4C443A20617070726F766520746F20746865207A65726F20616464726573 PUSH1 0x44 DUP3 ADD MSTORE PUSH1 0x73 PUSH1 0xF8 SHL PUSH1 0x64 DUP3 ADD MSTORE PUSH1 0x84 ADD PUSH2 0x7B3 JUMP JUMPDEST PUSH1 0x1 PUSH1 0x1 PUSH1 0xA0 SHL SUB DUP4 DUP2 AND PUSH1 0x0 DUP2 DUP2 MSTORE PUSH1 0x5 PUSH1 0x20 SWAP1 DUP2 MSTORE PUSH1 0x40 DUP1 DUP4 KECCAK256 SWAP5 DUP8 AND DUP1 DUP5 MSTORE SWAP5 DUP3 MSTORE SWAP2 DUP3 SWAP1 KECCAK256 DUP6 SWAP1 SSTORE SWAP1 MLOAD DUP5 DUP2 MSTORE PUSH32 0x8C5BE1E5EBEC7D5BD14F71427D1E84F3DD0314C0F7B2291E5B200AC8C7C3B925 SWAP2 ADD PUSH1 0x40 MLOAD DUP1 SWAP2 SUB SWAP1 LOG3 POP POP POP JUMP JUMPDEST PUSH1 0x1 PUSH1 0x1 PUSH1 0xA0 SHL SUB DUP4 AND PUSH2 0x1663 JUMPI PUSH1 0x40 MLOAD PUSH3 0x461BCD PUSH1 0xE5 SHL DUP2 MSTORE PUSH1 0x20 PUSH1 0x4 DUP3 ADD MSTORE PUSH1 0x24 DUP1 DUP3 ADD MSTORE PUSH32 0x474F4C443A207472616E736665722066726F6D20746865207A65726F20616464 PUSH1 0x44 DUP3 ADD MSTORE PUSH4 0x72657373 PUSH1 0xE0 SHL PUSH1 0x64 DUP3 ADD MSTORE PUSH1 0x84 ADD PUSH2 0x7B3 JUMP JUMPDEST PUSH1 0x1 PUSH1 0x1 PUSH1 0xA0 SHL SUB DUP3 AND PUSH2 0x16C4 JUMPI PUSH1 0x40 MLOAD PUSH3 0x461BCD PUSH1 0xE5 SHL DUP2 MSTORE PUSH1 0x20 PUSH1 0x4 DUP3 ADD MSTORE PUSH1 0x22 PUSH1 0x24 DUP3 ADD MSTORE PUSH32 0x474F4C443A207472616E7366657220746F20746865207A65726F206164647265 PUSH1 0x44 DUP3 ADD MSTORE PUSH2 0x7373 PUSH1 0xF0 SHL PUSH1 0x64 DUP3 ADD MSTORE PUSH1 0x84 ADD PUSH2 0x7B3 JUMP JUMPDEST PUSH1 0x0 DUP2 GT PUSH2 0x1726 JUMPI PUSH1 0x40 MLOAD PUSH3 0x461BCD PUSH1 0xE5 SHL DUP2 MSTORE PUSH1 0x20 PUSH1 0x4 DUP3 ADD MSTORE PUSH1 0x29 PUSH1 0x24 DUP3 ADD MSTORE PUSH32 0x5472616E7366657220616D6F756E74206D757374206265206772656174657220 PUSH1 0x44 DUP3 ADD MSTORE PUSH9 0x7468616E207A65726F PUSH1 0xB8 SHL PUSH1 0x64 DUP3 ADD MSTORE PUSH1 0x84 ADD PUSH2 0x7B3 JUMP JUMPDEST PUSH1 0x0 SLOAD PUSH1 0x1 PUSH1 0x1 PUSH1 0xA0 SHL SUB DUP5 DUP2 AND SWAP2 AND EQ DUP1 ISZERO SWAP1 PUSH2 0x1752 JUMPI POP PUSH1 0x0 SLOAD PUSH1 0x1 PUSH1 0x1 PUSH1 0xA0 SHL SUB DUP4 DUP2 AND SWAP2 AND EQ ISZERO JUMPDEST ISZERO PUSH2 0x1807 JUMPI PUSH1 0x1 PUSH1 0x1 PUSH1 0xA0 SHL SUB DUP4 AND PUSH1 0x0 SWAP1 DUP2 MSTORE PUSH1 0x8 PUSH1 0x20 MSTORE PUSH1 0x40 SWAP1 KECCAK256 SLOAD PUSH1 0xFF AND ISZERO DUP1 ISZERO PUSH2 0x1799 JUMPI POP PUSH1 0x1 PUSH1 0x1 PUSH1 0xA0 SHL SUB DUP3 AND PUSH1 0x0 SWAP1 DUP2 MSTORE PUSH1 0x8 PUSH1 0x20 MSTORE PUSH1 0x40 SWAP1 KECCAK256 SLOAD PUSH1 0xFF AND ISZERO JUMPDEST ISZERO PUSH2 0x1807 JUMPI PUSH1 0x15 SLOAD DUP2 GT ISZERO PUSH2 0x1807 JUMPI PUSH1 0x40 MLOAD PUSH3 0x461BCD PUSH1 0xE5 SHL DUP2 MSTORE PUSH1 0x20 PUSH1 0x4 DUP3 ADD MSTORE PUSH1 0x2E PUSH1 0x24 DUP3 ADD MSTORE PUSH32 0x474F4C443A205472616E7366657220616D6F756E742065786365656473207468 PUSH1 0x44 DUP3 ADD MSTORE PUSH14 0x329036B0BC2A3C20B6B7BAB73A17 PUSH1 0x91 SHL PUSH1 0x64 DUP3 ADD MSTORE PUSH1 0x84 ADD PUSH2 0x7B3 JUMP JUMPDEST PUSH1 0x1 PUSH1 0x1 PUSH1 0xA0 SHL SUB DUP4 AND PUSH1 0x0 SWAP1 DUP2 MSTORE PUSH1 0x6 PUSH1 0x20 MSTORE PUSH1 0x40 SWAP1 KECCAK256 SLOAD PUSH1 0x1 SWAP1 PUSH1 0xFF AND DUP1 PUSH2 0x1849 JUMPI POP PUSH1 0x1 PUSH1 0x1 PUSH1 0xA0 SHL SUB DUP4 AND PUSH1 0x0 SWAP1 DUP2 MSTORE PUSH1 0x6 PUSH1 0x20 MSTORE PUSH1 0x40 SWAP1 KECCAK256 SLOAD PUSH1 0xFF AND JUMPDEST ISZERO PUSH2 0x1852 JUMPI POP PUSH1 0x0 JUMPDEST PUSH2 0x185E DUP5 DUP5 DUP5 DUP5 PUSH2 0x19DF JUMP JUMPDEST POP POP POP POP JUMP JUMPDEST PUSH1 0x0 DUP2 DUP5 DUP5 GT ISZERO PUSH2 0x1888 JUMPI PUSH1 0x40 MLOAD PUSH3 0x461BCD PUSH1 0xE5 SHL DUP2 MSTORE PUSH1 0x4 ADD PUSH2 0x7B3 SWAP2 SWAP1 PUSH2 0x227C JUMP JUMPDEST POP PUSH1 0x0 PUSH2 0x1895 DUP5 DUP7 PUSH2 0x235F JUMP JUMPDEST SWAP6 SWAP5 POP POP POP POP POP JUMP JUMPDEST PUSH1 0x0 DUP1 PUSH1 0x0 PUSH2 0x18AB PUSH2 0x1B56 JUMP JUMPDEST SWAP1 SWAP3 POP SWAP1 POP PUSH2 0x18BA DUP3 DUP3 PUSH2 0x149C JUMP JUMPDEST SWAP3 POP POP POP SWAP1 JUMP JUMPDEST PUSH1 0x0 DUP1 PUSH2 0x18CE DUP4 DUP6 PUSH2 0x2306 JUMP JUMPDEST SWAP1 POP DUP4 DUP2 LT ISZERO PUSH2 0xA6A JUMPI PUSH1 0x40 MLOAD PUSH3 0x461BCD PUSH1 0xE5 SHL DUP2 MSTORE PUSH1 0x20 PUSH1 0x4 DUP3 ADD MSTORE PUSH1 0x1B PUSH1 0x24 DUP3 ADD MSTORE PUSH32 0x536166654D6174683A206164646974696F6E206F766572666C6F770000000000 PUSH1 0x44 DUP3 ADD MSTORE PUSH1 0x64 ADD PUSH2 0x7B3 JUMP JUMPDEST PUSH1 0x0 DUP1 PUSH1 0x0 DUP1 PUSH1 0x0 DUP1 PUSH1 0x0 DUP1 PUSH1 0x0 PUSH2 0x1937 DUP11 PUSH2 0x1CD8 JUMP JUMPDEST SWAP3 POP SWAP3 POP SWAP3 POP PUSH1 0x0 DUP1 PUSH1 0x0 PUSH2 0x1955 DUP14 DUP7 DUP7 PUSH2 0x1950 PUSH2 0x189E JUMP JUMPDEST PUSH2 0x1D1A JUMP JUMPDEST SWAP2 SWAP16 SWAP1 SWAP15 POP SWAP1 SWAP13 POP SWAP6 SWAP11 POP SWAP4 SWAP9 POP SWAP2 SWAP7 POP SWAP3 SWAP5 POP POP POP POP POP JUMP JUMPDEST PUSH1 0x0 PUSH2 0xA6A DUP4 DUP4 PUSH1 0x40 MLOAD DUP1 PUSH1 0x40 ADD PUSH1 0x40 MSTORE DUP1 PUSH1 0x1E DUP2 MSTORE PUSH1 0x20 ADD PUSH32 0x536166654D6174683A207375627472616374696F6E206F766572666C6F770000 DUP2 MSTORE POP PUSH2 0x1864 JUMP JUMPDEST PUSH1 0x0 DUP2 DUP4 PUSH2 0x19D2 JUMPI PUSH1 0x40 MLOAD PUSH3 0x461BCD PUSH1 0xE5 SHL DUP2 MSTORE PUSH1 0x4 ADD PUSH2 0x7B3 SWAP2 SWAP1 PUSH2 0x227C JUMP JUMPDEST POP PUSH1 0x0 PUSH2 0x1895 DUP5 DUP7 PUSH2 0x231E JUMP JUMPDEST DUP1 PUSH2 0x19EC JUMPI PUSH2 0x19EC PUSH2 0x1D6A JUMP JUMPDEST PUSH1 0x1 PUSH1 0x1 PUSH1 0xA0 SHL SUB DUP5 AND PUSH1 0x0 SWAP1 DUP2 MSTORE PUSH1 0x7 PUSH1 0x20 MSTORE PUSH1 0x40 SWAP1 KECCAK256 SLOAD PUSH1 0xFF AND DUP1 ISZERO PUSH2 0x1A2D JUMPI POP PUSH1 0x1 PUSH1 0x1 PUSH1 0xA0 SHL SUB DUP4 AND PUSH1 0x0 SWAP1 DUP2 MSTORE PUSH1 0x7 PUSH1 0x20 MSTORE PUSH1 0x40 SWAP1 KECCAK256 SLOAD PUSH1 0xFF AND ISZERO JUMPDEST ISZERO PUSH2 0x1A42 JUMPI PUSH2 0x1A3D DUP5 DUP5 DUP5 PUSH2 0x1D98 JUMP JUMPDEST PUSH2 0x1B40 JUMP JUMPDEST PUSH1 0x1 PUSH1 0x1 PUSH1 0xA0 SHL SUB DUP5 AND PUSH1 0x0 SWAP1 DUP2 MSTORE PUSH1 0x7 PUSH1 0x20 MSTORE PUSH1 0x40 SWAP1 KECCAK256 SLOAD PUSH1 0xFF AND ISZERO DUP1 ISZERO PUSH2 0x1A83 JUMPI POP PUSH1 0x1 PUSH1 0x1 PUSH1 0xA0 SHL SUB DUP4 AND PUSH1 0x0 SWAP1 DUP2 MSTORE PUSH1 0x7 PUSH1 0x20 MSTORE PUSH1 0x40 SWAP1 KECCAK256 SLOAD PUSH1 0xFF AND JUMPDEST ISZERO PUSH2 0x1A93 JUMPI PUSH2 0x1A3D DUP5 DUP5 DUP5 PUSH2 0x1EBE JUMP JUMPDEST PUSH1 0x1 PUSH1 0x1 PUSH1 0xA0 SHL SUB DUP5 AND PUSH1 0x0 SWAP1 DUP2 MSTORE PUSH1 0x7 PUSH1 0x20 MSTORE PUSH1 0x40 SWAP1 KECCAK256 SLOAD PUSH1 0xFF AND ISZERO DUP1 ISZERO PUSH2 0x1AD5 JUMPI POP PUSH1 0x1 PUSH1 0x1 PUSH1 0xA0 SHL SUB DUP4 AND PUSH1 0x0 SWAP1 DUP2 MSTORE PUSH1 0x7 PUSH1 0x20 MSTORE PUSH1 0x40 SWAP1 KECCAK256 SLOAD PUSH1 0xFF AND ISZERO JUMPDEST ISZERO PUSH2 0x1AE5 JUMPI PUSH2 0x1A3D DUP5 DUP5 DUP5 PUSH2 0x1F67 JUMP JUMPDEST PUSH1 0x1 PUSH1 0x1 PUSH1 0xA0 SHL SUB DUP5 AND PUSH1 0x0 SWAP1 DUP2 MSTORE PUSH1 0x7 PUSH1 0x20 MSTORE PUSH1 0x40 SWAP1 KECCAK256 SLOAD PUSH1 0xFF AND DUP1 ISZERO PUSH2 0x1B25 JUMPI POP PUSH1 0x1 PUSH1 0x1 PUSH1 0xA0 SHL SUB DUP4 AND PUSH1 0x0 SWAP1 DUP2 MSTORE PUSH1 0x7 PUSH1 0x20 MSTORE PUSH1 0x40 SWAP1 KECCAK256 SLOAD PUSH1 0xFF AND JUMPDEST ISZERO PUSH2 0x1B35 JUMPI PUSH2 0x1A3D DUP5 DUP5 DUP5 PUSH2 0x1FAB JUMP JUMPDEST PUSH2 0x1B40 DUP5 DUP5 DUP5 PUSH2 0x1F67 JUMP JUMPDEST DUP1 PUSH2 0x185E JUMPI PUSH2 0x185E PUSH1 0x14 SLOAD PUSH1 0x13 SSTORE PUSH1 0x11 SLOAD PUSH1 0x10 SSTORE JUMP JUMPDEST PUSH1 0xB SLOAD PUSH1 0xA SLOAD PUSH1 0x0 SWAP2 DUP3 SWAP2 DUP3 JUMPDEST PUSH1 0x9 SLOAD DUP2 LT ISZERO PUSH2 0x1CA8 JUMPI DUP3 PUSH1 0x3 PUSH1 0x0 PUSH1 0x9 DUP5 DUP2 SLOAD DUP2 LT PUSH2 0x1B85 JUMPI PUSH2 0x1B85 PUSH2 0x23F8 JUMP JUMPDEST PUSH1 0x0 SWAP2 DUP3 MSTORE PUSH1 0x20 DUP1 DUP4 KECCAK256 SWAP1 SWAP2 ADD SLOAD PUSH1 0x1 PUSH1 0x1 PUSH1 0xA0 SHL SUB AND DUP4 MSTORE DUP3 ADD SWAP3 SWAP1 SWAP3 MSTORE PUSH1 0x40 ADD SWAP1 KECCAK256 SLOAD GT DUP1 PUSH2 0x1BF0 JUMPI POP DUP2 PUSH1 0x4 PUSH1 0x0 PUSH1 0x9 DUP5 DUP2 SLOAD DUP2 LT PUSH2 0x1BC9 JUMPI PUSH2 0x1BC9 PUSH2 0x23F8 JUMP JUMPDEST PUSH1 0x0 SWAP2 DUP3 MSTORE PUSH1 0x20 DUP1 DUP4 KECCAK256 SWAP1 SWAP2 ADD SLOAD PUSH1 0x1 PUSH1 0x1 PUSH1 0xA0 SHL SUB AND DUP4 MSTORE DUP3 ADD SWAP3 SWAP1 SWAP3 MSTORE PUSH1 0x40 ADD SWAP1 KECCAK256 SLOAD GT JUMPDEST ISZERO PUSH2 0x1C06 JUMPI PUSH1 0xB SLOAD PUSH1 0xA SLOAD SWAP5 POP SWAP5 POP POP POP POP SWAP1 SWAP2 JUMP JUMPDEST PUSH2 0x1C4C PUSH1 0x3 PUSH1 0x0 PUSH1 0x9 DUP5 DUP2 SLOAD DUP2 LT PUSH2 0x1C20 JUMPI PUSH2 0x1C20 PUSH2 0x23F8 JUMP JUMPDEST PUSH1 0x0 SWAP2 DUP3 MSTORE PUSH1 0x20 DUP1 DUP4 KECCAK256 SWAP1 SWAP2 ADD SLOAD PUSH1 0x1 PUSH1 0x1 PUSH1 0xA0 SHL SUB AND DUP4 MSTORE DUP3 ADD SWAP3 SWAP1 SWAP3 MSTORE PUSH1 0x40 ADD SWAP1 KECCAK256 SLOAD DUP5 SWAP1 PUSH2 0x196F JUMP JUMPDEST SWAP3 POP PUSH2 0x1C94 PUSH1 0x4 PUSH1 0x0 PUSH1 0x9 DUP5 DUP2 SLOAD DUP2 LT PUSH2 0x1C68 JUMPI PUSH2 0x1C68 PUSH2 0x23F8 JUMP JUMPDEST PUSH1 0x0 SWAP2 DUP3 MSTORE PUSH1 0x20 DUP1 DUP4 KECCAK256 SWAP1 SWAP2 ADD SLOAD PUSH1 0x1 PUSH1 0x1 PUSH1 0xA0 SHL SUB AND DUP4 MSTORE DUP3 ADD SWAP3 SWAP1 SWAP3 MSTORE PUSH1 0x40 ADD SWAP1 KECCAK256 SLOAD DUP4 SWAP1 PUSH2 0x196F JUMP JUMPDEST SWAP2 POP DUP1 PUSH2 0x1CA0 DUP2 PUSH2 0x23B1 JUMP JUMPDEST SWAP2 POP POP PUSH2 0x1B63 JUMP JUMPDEST POP PUSH1 0xA SLOAD PUSH1 0xB SLOAD PUSH2 0x1CB8 SWAP2 PUSH2 0x149C JUMP JUMPDEST DUP3 LT ISZERO PUSH2 0x1CCF JUMPI PUSH1 0xB SLOAD PUSH1 0xA SLOAD SWAP4 POP SWAP4 POP POP POP SWAP1 SWAP2 JUMP JUMPDEST SWAP1 SWAP4 SWAP1 SWAP3 POP SWAP1 POP JUMP JUMPDEST PUSH1 0x0 DUP1 PUSH1 0x0 DUP1 PUSH2 0x1CE7 DUP6 PUSH2 0x201E JUMP JUMPDEST SWAP1 POP PUSH1 0x0 PUSH2 0x1CF4 DUP7 PUSH2 0x203B JUMP JUMPDEST SWAP1 POP PUSH1 0x0 PUSH2 0x1D0C DUP3 PUSH2 0x1D06 DUP10 DUP7 PUSH2 0x196F JUMP JUMPDEST SWAP1 PUSH2 0x196F JUMP JUMPDEST SWAP8 SWAP3 SWAP7 POP SWAP1 SWAP5 POP SWAP1 SWAP3 POP POP POP JUMP JUMPDEST PUSH1 0x0 DUP1 DUP1 DUP1 PUSH2 0x1D29 DUP9 DUP7 PUSH2 0x141D JUMP JUMPDEST SWAP1 POP PUSH1 0x0 PUSH2 0x1D37 DUP9 DUP8 PUSH2 0x141D JUMP JUMPDEST SWAP1 POP PUSH1 0x0 PUSH2 0x1D45 DUP9 DUP9 PUSH2 0x141D JUMP JUMPDEST SWAP1 POP PUSH1 0x0 PUSH2 0x1D57 DUP3 PUSH2 0x1D06 DUP7 DUP7 PUSH2 0x196F JUMP JUMPDEST SWAP4 SWAP12 SWAP4 SWAP11 POP SWAP2 SWAP9 POP SWAP2 SWAP7 POP POP POP POP POP POP POP JUMP JUMPDEST PUSH1 0x13 SLOAD ISZERO DUP1 ISZERO PUSH2 0x1D7A JUMPI POP PUSH1 0x10 SLOAD ISZERO JUMPDEST ISZERO PUSH2 0x1D81 JUMPI JUMP JUMPDEST PUSH1 0x13 DUP1 SLOAD PUSH1 0x14 SSTORE PUSH1 0x10 DUP1 SLOAD PUSH1 0x11 SSTORE PUSH1 0x0 SWAP2 DUP3 SWAP1 SSTORE SSTORE JUMP JUMPDEST PUSH1 0x0 DUP1 PUSH1 0x0 DUP1 PUSH1 0x0 DUP1 PUSH2 0x1DAA DUP8 PUSH2 0x1920 JUMP JUMPDEST PUSH1 0x1 PUSH1 0x1 PUSH1 0xA0 SHL SUB DUP16 AND PUSH1 0x0 SWAP1 DUP2 MSTORE PUSH1 0x4 PUSH1 0x20 MSTORE PUSH1 0x40 SWAP1 KECCAK256 SLOAD SWAP6 SWAP12 POP SWAP4 SWAP10 POP SWAP2 SWAP8 POP SWAP6 POP SWAP4 POP SWAP2 POP PUSH2 0x1DDC SWAP1 DUP9 PUSH2 0x196F JUMP JUMPDEST PUSH1 0x1 PUSH1 0x1 PUSH1 0xA0 SHL SUB DUP11 AND PUSH1 0x0 SWAP1 DUP2 MSTORE PUSH1 0x4 PUSH1 0x20 SWAP1 DUP2 MSTORE PUSH1 0x40 DUP1 DUP4 KECCAK256 SWAP4 SWAP1 SWAP4 SSTORE PUSH1 0x3 SWAP1 MSTORE KECCAK256 SLOAD PUSH2 0x1E0B SWAP1 DUP8 PUSH2 0x196F JUMP JUMPDEST PUSH1 0x1 PUSH1 0x1 PUSH1 0xA0 SHL SUB DUP1 DUP12 AND PUSH1 0x0 SWAP1 DUP2 MSTORE PUSH1 0x3 PUSH1 0x20 MSTORE PUSH1 0x40 DUP1 DUP3 KECCAK256 SWAP4 SWAP1 SWAP4 SSTORE SWAP1 DUP11 AND DUP2 MSTORE KECCAK256 SLOAD PUSH2 0x1E3A SWAP1 DUP7 PUSH2 0x18C1 JUMP JUMPDEST PUSH1 0x1 PUSH1 0x1 PUSH1 0xA0 SHL SUB DUP10 AND PUSH1 0x0 SWAP1 DUP2 MSTORE PUSH1 0x3 PUSH1 0x20 MSTORE PUSH1 0x40 SWAP1 KECCAK256 SSTORE PUSH2 0x1E5C DUP2 PUSH2 0x2058 JUMP JUMPDEST PUSH2 0x1E66 DUP5 DUP4 PUSH2 0x2118 JUMP JUMPDEST DUP8 PUSH1 0x1 PUSH1 0x1 PUSH1 0xA0 SHL SUB AND DUP10 PUSH1 0x1 PUSH1 0x1 PUSH1 0xA0 SHL SUB AND PUSH32 0xDDF252AD1BE2C89B69C2B068FC378DAA952BA7F163C4A11628F55A4DF523B3EF DUP6 PUSH1 0x40 MLOAD PUSH2 0x1EAB SWAP2 DUP2 MSTORE PUSH1 0x20 ADD SWAP1 JUMP JUMPDEST PUSH1 0x40 MLOAD DUP1 SWAP2 SUB SWAP1 LOG3 POP POP POP POP POP POP POP POP POP JUMP JUMPDEST PUSH1 0x0 DUP1 PUSH1 0x0 DUP1 PUSH1 0x0 DUP1 PUSH2 0x1ED0 DUP8 PUSH2 0x1920 JUMP JUMPDEST PUSH1 0x1 PUSH1 0x1 PUSH1 0xA0 SHL SUB DUP16 AND PUSH1 0x0 SWAP1 DUP2 MSTORE PUSH1 0x3 PUSH1 0x20 MSTORE PUSH1 0x40 SWAP1 KECCAK256 SLOAD SWAP6 SWAP12 POP SWAP4 SWAP10 POP SWAP2 SWAP8 POP SWAP6 POP SWAP4 POP SWAP2 POP PUSH2 0x1F02 SWAP1 DUP8 PUSH2 0x196F JUMP JUMPDEST PUSH1 0x1 PUSH1 0x1 PUSH1 0xA0 SHL SUB DUP1 DUP12 AND PUSH1 0x0 SWAP1 DUP2 MSTORE PUSH1 0x3 PUSH1 0x20 SWAP1 DUP2 MSTORE PUSH1 0x40 DUP1 DUP4 KECCAK256 SWAP5 SWAP1 SWAP5 SSTORE SWAP2 DUP12 AND DUP2 MSTORE PUSH1 0x4 SWAP1 SWAP2 MSTORE KECCAK256 SLOAD PUSH2 0x1F38 SWAP1 DUP5 PUSH2 0x18C1 JUMP JUMPDEST PUSH1 0x1 PUSH1 0x1 PUSH1 0xA0 SHL SUB DUP10 AND PUSH1 0x0 SWAP1 DUP2 MSTORE PUSH1 0x4 PUSH1 0x20 SWAP1 DUP2 MSTORE PUSH1 0x40 DUP1 DUP4 KECCAK256 SWAP4 SWAP1 SWAP4 SSTORE PUSH1 0x3 SWAP1 MSTORE KECCAK256 SLOAD PUSH2 0x1E3A SWAP1 DUP7 PUSH2 0x18C1 JUMP JUMPDEST PUSH1 0x0 DUP1 PUSH1 0x0 DUP1 PUSH1 0x0 DUP1 PUSH2 0x1F79 DUP8 PUSH2 0x1920 JUMP JUMPDEST PUSH1 0x1 PUSH1 0x1 PUSH1 0xA0 SHL SUB DUP16 AND PUSH1 0x0 SWAP1 DUP2 MSTORE PUSH1 0x3 PUSH1 0x20 MSTORE PUSH1 0x40 SWAP1 KECCAK256 SLOAD SWAP6 SWAP12 POP SWAP4 SWAP10 POP SWAP2 SWAP8 POP SWAP6 POP SWAP4 POP SWAP2 POP PUSH2 0x1E0B SWAP1 DUP8 PUSH2 0x196F JUMP JUMPDEST PUSH1 0x0 DUP1 PUSH1 0x0 DUP1 PUSH1 0x0 DUP1 PUSH2 0x1FBD DUP8 PUSH2 0x1920 JUMP JUMPDEST PUSH1 0x1 PUSH1 0x1 PUSH1 0xA0 SHL SUB DUP16 AND PUSH1 0x0 SWAP1 DUP2 MSTORE PUSH1 0x4 PUSH1 0x20 MSTORE PUSH1 0x40 SWAP1 KECCAK256 SLOAD SWAP6 SWAP12 POP SWAP4 SWAP10 POP SWAP2 SWAP8 POP SWAP6 POP SWAP4 POP SWAP2 POP PUSH2 0x1FEF SWAP1 DUP9 PUSH2 0x196F JUMP JUMPDEST PUSH1 0x1 PUSH1 0x1 PUSH1 0xA0 SHL SUB DUP11 AND PUSH1 0x0 SWAP1 DUP2 MSTORE PUSH1 0x4 PUSH1 0x20 SWAP1 DUP2 MSTORE PUSH1 0x40 DUP1 DUP4 KECCAK256 SWAP4 SWAP1 SWAP4 SSTORE PUSH1 0x3 SWAP1 MSTORE KECCAK256 SLOAD PUSH2 0x1F02 SWAP1 DUP8 PUSH2 0x196F JUMP JUMPDEST PUSH1 0x0 PUSH2 0x864 PUSH2 0x3E8 PUSH2 0x121B PUSH1 0x13 SLOAD DUP6 PUSH2 0x141D SWAP1 SWAP2 SWAP1 PUSH4 0xFFFFFFFF AND JUMP JUMPDEST PUSH1 0x0 PUSH2 0x864 PUSH2 0x3E8 PUSH2 0x121B PUSH1 0x10 SLOAD DUP6 PUSH2 0x141D SWAP1 SWAP2 SWAP1 PUSH4 0xFFFFFFFF AND JUMP JUMPDEST PUSH1 0x0 PUSH2 0x2062 PUSH2 0x189E JUMP JUMPDEST SWAP1 POP PUSH1 0x0 PUSH2 0x2070 DUP4 DUP4 PUSH2 0x141D JUMP JUMPDEST PUSH1 0x12 SLOAD PUSH1 0x1 PUSH1 0x1 PUSH1 0xA0 SHL SUB AND PUSH1 0x0 SWAP1 DUP2 MSTORE PUSH1 0x3 PUSH1 0x20 MSTORE PUSH1 0x40 SWAP1 KECCAK256 SLOAD SWAP1 SWAP2 POP PUSH2 0x2098 SWAP1 DUP3 PUSH2 0x18C1 JUMP JUMPDEST PUSH1 0x12 DUP1 SLOAD PUSH1 0x1 PUSH1 0x1 PUSH1 0xA0 SHL SUB SWAP1 DUP2 AND PUSH1 0x0 SWAP1 DUP2 MSTORE PUSH1 0x3 PUSH1 0x20 SWAP1 DUP2 MSTORE PUSH1 0x40 DUP1 DUP4 KECCAK256 SWAP6 SWAP1 SWAP6 SSTORE SWAP3 SLOAD SWAP1 SWAP2 AND DUP2 MSTORE PUSH1 0x7 SWAP1 SWAP2 MSTORE KECCAK256 SLOAD PUSH1 0xFF AND ISZERO PUSH2 0x2113 JUMPI PUSH1 0x12 SLOAD PUSH1 0x1 PUSH1 0x1 PUSH1 0xA0 SHL SUB AND PUSH1 0x0 SWAP1 DUP2 MSTORE PUSH1 0x4 PUSH1 0x20 MSTORE PUSH1 0x40 SWAP1 KECCAK256 SLOAD PUSH2 0x20F7 SWAP1 DUP5 PUSH2 0x18C1 JUMP JUMPDEST PUSH1 0x12 SLOAD PUSH1 0x1 PUSH1 0x1 PUSH1 0xA0 SHL SUB AND PUSH1 0x0 SWAP1 DUP2 MSTORE PUSH1 0x4 PUSH1 0x20 MSTORE PUSH1 0x40 SWAP1 KECCAK256 SSTORE JUMPDEST POP POP POP JUMP JUMPDEST PUSH1 0xB SLOAD PUSH2 0x2125 SWAP1 DUP4 PUSH2 0x196F JUMP JUMPDEST PUSH1 0xB SSTORE PUSH1 0xC SLOAD PUSH2 0x2135 SWAP1 DUP3 PUSH2 0x18C1 JUMP JUMPDEST PUSH1 0xC SSTORE POP POP JUMP JUMPDEST DUP1 CALLDATALOAD PUSH1 0x1 PUSH1 0x1 PUSH1 0xA0 SHL SUB DUP2 AND DUP2 EQ PUSH2 0x2153 JUMPI PUSH1 0x0 DUP1 REVERT JUMPDEST SWAP2 SWAP1 POP JUMP JUMPDEST PUSH1 0x0 PUSH1 0x20 DUP3 DUP5 SUB SLT ISZERO PUSH2 0x216A JUMPI PUSH1 0x0 DUP1 REVERT JUMPDEST PUSH2 0xA6A DUP3 PUSH2 0x213C JUMP JUMPDEST PUSH1 0x0 DUP1 PUSH1 0x40 DUP4 DUP6 SUB SLT ISZERO PUSH2 0x2186 JUMPI PUSH1 0x0 DUP1 REVERT JUMPDEST PUSH2 0x218F DUP4 PUSH2 0x213C JUMP JUMPDEST SWAP2 POP PUSH2 0x219D PUSH1 0x20 DUP5 ADD PUSH2 0x213C JUMP JUMPDEST SWAP1 POP SWAP3 POP SWAP3 SWAP1 POP JUMP JUMPDEST PUSH1 0x0 DUP1 PUSH1 0x0 PUSH1 0x60 DUP5 DUP7 SUB SLT ISZERO PUSH2 0x21BB JUMPI PUSH1 0x0 DUP1 REVERT JUMPDEST PUSH2 0x21C4 DUP5 PUSH2 0x213C JUMP JUMPDEST SWAP3 POP PUSH2 0x21D2 PUSH1 0x20 DUP6 ADD PUSH2 0x213C JUMP JUMPDEST SWAP2 POP PUSH1 0x40 DUP5 ADD CALLDATALOAD SWAP1 POP SWAP3 POP SWAP3 POP SWAP3 JUMP JUMPDEST PUSH1 0x0 DUP1 PUSH1 0x40 DUP4 DUP6 SUB SLT ISZERO PUSH2 0x21F5 JUMPI PUSH1 0x0 DUP1 REVERT JUMPDEST PUSH2 0x21FE DUP4 PUSH2 0x213C JUMP JUMPDEST SWAP5 PUSH1 0x20 SWAP4 SWAP1 SWAP4 ADD CALLDATALOAD SWAP4 POP POP POP JUMP JUMPDEST PUSH1 0x0 PUSH1 0x20 DUP3 DUP5 SUB SLT ISZERO PUSH2 0x221E JUMPI PUSH1 0x0 DUP1 REVERT JUMPDEST POP CALLDATALOAD SWAP2 SWAP1 POP JUMP JUMPDEST PUSH1 0x0 DUP1 PUSH1 0x40 DUP4 DUP6 SUB SLT ISZERO PUSH2 0x2238 JUMPI PUSH1 0x0 DUP1 REVERT JUMPDEST DUP3 CALLDATALOAD SWAP2 POP PUSH1 0x20 DUP4 ADD CALLDATALOAD DUP1 ISZERO ISZERO DUP2 EQ PUSH2 0x224F JUMPI PUSH1 0x0 DUP1 REVERT JUMPDEST DUP1 SWAP2 POP POP SWAP3 POP SWAP3 SWAP1 POP JUMP JUMPDEST PUSH1 0x0 DUP1 PUSH1 0x40 DUP4 DUP6 SUB SLT ISZERO PUSH2 0x226D JUMPI PUSH1 0x0 DUP1 REVERT JUMPDEST POP POP DUP1 CALLDATALOAD SWAP3 PUSH1 0x20 SWAP1 SWAP2 ADD CALLDATALOAD SWAP2 POP JUMP JUMPDEST PUSH1 0x0 PUSH1 0x20 DUP1 DUP4 MSTORE DUP4 MLOAD DUP1 DUP3 DUP6 ADD MSTORE PUSH1 0x0 JUMPDEST DUP2 DUP2 LT ISZERO PUSH2 0x22A9 JUMPI DUP6 DUP2 ADD DUP4 ADD MLOAD DUP6 DUP3 ADD PUSH1 0x40 ADD MSTORE DUP3 ADD PUSH2 0x228D JUMP JUMPDEST DUP2 DUP2 GT ISZERO PUSH2 0x22BB JUMPI PUSH1 0x0 PUSH1 0x40 DUP4 DUP8 ADD ADD MSTORE JUMPDEST POP PUSH1 0x1F ADD PUSH1 0x1F NOT AND SWAP3 SWAP1 SWAP3 ADD PUSH1 0x40 ADD SWAP4 SWAP3 POP POP POP JUMP JUMPDEST PUSH1 0x20 DUP1 DUP3 MSTORE DUP2 DUP2 ADD MSTORE PUSH32 0x4F776E61626C653A2063616C6C6572206973206E6F7420746865206F776E6572 PUSH1 0x40 DUP3 ADD MSTORE PUSH1 0x60 ADD SWAP1 JUMP JUMPDEST PUSH1 0x0 DUP3 NOT DUP3 GT ISZERO PUSH2 0x2319 JUMPI PUSH2 0x2319 PUSH2 0x23CC JUMP JUMPDEST POP ADD SWAP1 JUMP JUMPDEST PUSH1 0x0 DUP3 PUSH2 0x233B JUMPI PUSH4 0x4E487B71 PUSH1 0xE0 SHL PUSH1 0x0 MSTORE PUSH1 0x12 PUSH1 0x4 MSTORE PUSH1 0x24 PUSH1 0x0 REVERT JUMPDEST POP DIV SWAP1 JUMP JUMPDEST PUSH1 0x0 DUP2 PUSH1 0x0 NOT DIV DUP4 GT DUP3 ISZERO ISZERO AND ISZERO PUSH2 0x235A JUMPI PUSH2 0x235A PUSH2 0x23CC JUMP JUMPDEST POP MUL SWAP1 JUMP JUMPDEST PUSH1 0x0 DUP3 DUP3 LT ISZERO PUSH2 0x2371 JUMPI PUSH2 0x2371 PUSH2 0x23CC JUMP JUMPDEST POP SUB SWAP1 JUMP JUMPDEST PUSH1 0x1 DUP2 DUP2 SHR SWAP1 DUP3 AND DUP1 PUSH2 0x238A JUMPI PUSH1 0x7F DUP3 AND SWAP2 POP JUMPDEST PUSH1 0x20 DUP3 LT DUP2 EQ ISZERO PUSH2 0x23AB JUMPI PUSH4 0x4E487B71 PUSH1 0xE0 SHL PUSH1 0x0 MSTORE PUSH1 0x22 PUSH1 0x4 MSTORE PUSH1 0x24 PUSH1 0x0 REVERT JUMPDEST POP SWAP2 SWAP1 POP JUMP JUMPDEST PUSH1 0x0 PUSH1 0x0 NOT DUP3 EQ ISZERO PUSH2 0x23C5 JUMPI PUSH2 0x23C5 PUSH2 0x23CC JUMP JUMPDEST POP PUSH1 0x1 ADD SWAP1 JUMP JUMPDEST PUSH4 0x4E487B71 PUSH1 0xE0 SHL PUSH1 0x0 MSTORE PUSH1 0x11 PUSH1 0x4 MSTORE PUSH1 0x24 PUSH1 0x0 REVERT JUMPDEST PUSH4 0x4E487B71 PUSH1 0xE0 SHL PUSH1 0x0 MSTORE PUSH1 0x31 PUSH1 0x4 MSTORE PUSH1 0x24 PUSH1 0x0 REVERT JUMPDEST PUSH4 0x4E487B71 PUSH1 0xE0 SHL PUSH1 0x0 MSTORE PUSH1 0x32 PUSH1 0x4 MSTORE PUSH1 0x24 PUSH1 0x0 REVERT INVALID SELFBALANCE 0x4F 0x4C DIFFICULTY GASPRICE KECCAK256 PUSH21 0x72616E7366657220616D6F756E7420657863656564 PUSH20 0x20616C6C6F77616E6365474F4C443A2064656372 PUSH6 0x617365642061 PUSH13 0x6C6F77616E63652062656C6F77 KECCAK256 PUSH27 0x65726F8BE0079C531659141344CD1FD0A4F28419497F9722A3DAAF 0xE3 0xB4 XOR PUSH16 0x6B6457E0A264697066735822122086FA BALANCE 0xFB 0xB2 0xBE PUSH25 0xE782D6B08B39838B7B13F0A1E8CD7E16274E51AF5ADA8D58E0 PUSH5 0x736F6C6343 STOP ADDMOD SMOD STOP CALLER "
				},
				"gasEstimates": {
					"creation": {
						"codeDepositCost": "1878200",
						"executionCost": "infinite",
						"totalCost": "infinite"
					},
					"external": {
						"_maxTxAmount()": "2340",
						"allowance(address,address)": "infinite",
						"approve(address,uint256)": "24688",
						"balanceOf(address)": "infinite",
						"changeFees(uint256,uint256)": "95197",
						"decimals()": "2379",
						"decreaseAllowance(address,uint256)": "infinite",
						"deliver(uint256)": "infinite",
						"excludeFromFee(address)": "26817",
						"excludeFromMaxTx(address)": "26794",
						"excludeFromReward(address)": "infinite",
						"feeDetails()": "4519",
						"geUnlockTime()": "2403",
						"includeInFee(address)": "26854",
						"includeInMaxTx(address)": "26834",
						"includeInReward(address)": "infinite",
						"increaseAllowance(address,uint256)": "27145",
						"isExcludedFromFee(address)": "2595",
						"isExcludedFromReward(address)": "2616",
						"isExludedFromMaxTx(address)": "2617",
						"lock(uint256)": "76760",
						"name()": "infinite",
						"owner()": "2420",
						"reflectionFromToken(uint256,bool)": "infinite",
						"renounceOwnership()": "30310",
						"setMaxTxPercent(uint256)": "infinite",
						"setPlayToEarnFeePercent(uint256)": "24553",
						"setTaxFeePercent(uint256)": "24511",
						"symbol()": "infinite",
						"tokenFromReflection(uint256)": "infinite",
						"totalFees()": "2394",
						"totalSupply()": "2360",
						"transfer(address,uint256)": "infinite",
						"transferFrom(address,address,uint256)": "infinite",
						"transferOwnership(address)": "30565",
						"uniswapV2Pair()": "infinite",
						"uniswapV2Router()": "infinite",
						"unlock()": "36613"
					},
					"internal": {
						"_approve(address,address,uint256)": "infinite",
						"_getCurrentSupply()": "infinite",
						"_getRValues(uint256,uint256,uint256,uint256)": "infinite",
						"_getRate()": "infinite",
						"_getTValues(uint256)": "infinite",
						"_getValues(uint256)": "infinite",
						"_reflectFee(uint256,uint256)": "infinite",
						"_takePlayToEarn(uint256)": "infinite",
						"_tokenTransfer(address,address,uint256,bool)": "infinite",
						"_transfer(address,address,uint256)": "infinite",
						"_transferBothExcluded(address,address,uint256)": "infinite",
						"_transferFromExcluded(address,address,uint256)": "infinite",
						"_transferStandard(address,address,uint256)": "infinite",
						"_transferToExcluded(address,address,uint256)": "infinite",
						"calculatePlayToEarn(uint256)": "infinite",
						"calculateTaxFee(uint256)": "infinite",
						"removeAllFee()": "62690",
						"restoreAllFee()": "infinite",
						"setExcludes()": "infinite"
					}
				},
				"methodIdentifiers": {
					"_maxTxAmount()": "7d1db4a5",
					"allowance(address,address)": "dd62ed3e",
					"approve(address,uint256)": "095ea7b3",
					"balanceOf(address)": "70a08231",
					"changeFees(uint256,uint256)": "21ecff5b",
					"decimals()": "313ce567",
					"decreaseAllowance(address,uint256)": "a457c2d7",
					"deliver(uint256)": "3bd5d173",
					"excludeFromFee(address)": "437823ec",
					"excludeFromMaxTx(address)": "db4cf1e0",
					"excludeFromReward(address)": "52390c02",
					"feeDetails()": "1f2c5443",
					"geUnlockTime()": "b6c52324",
					"includeInFee(address)": "ea2f0b37",
					"includeInMaxTx(address)": "18621fe5",
					"includeInReward(address)": "3685d419",
					"increaseAllowance(address,uint256)": "39509351",
					"isExcludedFromFee(address)": "5342acb4",
					"isExcludedFromReward(address)": "88f82020",
					"isExludedFromMaxTx(address)": "53b5693a",
					"lock(uint256)": "dd467064",
					"name()": "06fdde03",
					"owner()": "8da5cb5b",
					"reflectionFromToken(uint256,bool)": "4549b039",
					"renounceOwnership()": "715018a6",
					"setMaxTxPercent(uint256)": "d543dbeb",
					"setPlayToEarnFeePercent(uint256)": "b5208d7d",
					"setTaxFeePercent(uint256)": "061c82d0",
					"symbol()": "95d89b41",
					"tokenFromReflection(uint256)": "2d838119",
					"totalFees()": "13114a9d",
					"totalSupply()": "18160ddd",
					"transfer(address,uint256)": "a9059cbb",
					"transferFrom(address,address,uint256)": "23b872dd",
					"transferOwnership(address)": "f2fde38b",
					"uniswapV2Pair()": "49bd5a5e",
					"uniswapV2Router()": "1694505e",
					"unlock()": "a69df4b5"
				}
			},
			"userdoc": {
				"kind": "user",
				"methods": {},
				"version": 1
			}
		}
	}
}