{
	"contracts/GetSchiffyAirdrop.sol": {
		"Ownable": {
			"abi": [
				{
					"inputs": [],
					"stateMutability": "nonpayable",
					"type": "constructor"
				},
				{
					"anonymous": false,
					"inputs": [
						{
							"indexed": true,
							"internalType": "address",
							"name": "previousOwner",
							"type": "address"
						},
						{
							"indexed": true,
							"internalType": "address",
							"name": "newOwner",
							"type": "address"
						}
					],
					"name": "OwnershipTransferred",
					"type": "event"
				},
				{
					"inputs": [],
					"name": "geUnlockTime",
					"outputs": [
						{
							"internalType": "uint256",
							"name": "",
							"type": "uint256"
						}
					],
					"stateMutability": "view",
					"type": "function"
				},
				{
					"inputs": [
						{
							"internalType": "uint256",
							"name": "time",
							"type": "uint256"
						}
					],
					"name": "lock",
					"outputs": [],
					"stateMutability": "nonpayable",
					"type": "function"
				},
				{
					"inputs": [],
					"name": "owner",
					"outputs": [
						{
							"internalType": "address",
							"name": "",
							"type": "address"
						}
					],
					"stateMutability": "view",
					"type": "function"
				},
				{
					"inputs": [],
					"name": "renounceOwnership",
					"outputs": [],
					"stateMutability": "nonpayable",
					"type": "function"
				},
				{
					"inputs": [
						{
							"internalType": "address",
							"name": "newOwner",
							"type": "address"
						}
					],
					"name": "transferOwnership",
					"outputs": [],
					"stateMutability": "nonpayable",
					"type": "function"
				},
				{
					"inputs": [],
					"name": "unlock",
					"outputs": [],
					"stateMutability": "nonpayable",
					"type": "function"
				}
			],
			"devdoc": {
				"kind": "dev",
				"methods": {
					"constructor": {
						"details": "Initializes the contract setting the deployer as the initial owner."
					},
					"owner()": {
						"details": "Returns the address of the current owner."
					},
					"renounceOwnership()": {
						"details": "Leaves the contract without owner. It will not be possible to call `onlyOwner` functions anymore. Can only be called by the current owner. NOTE: Renouncing ownership will leave the contract without an owner, thereby removing any functionality that is only available to the owner."
					},
					"transferOwnership(address)": {
						"details": "Transfers ownership of the contract to a new account (`newOwner`). Can only be called by the current owner."
					}
				},
				"version": 1
			},
			"evm": {
				"assembly": "    /* \"contracts/GetSchiffyAirdrop.sol\":4807:7305  contract Ownable is Context {... */\n  mstore(0x40, 0x80)\n    /* \"contracts/GetSchiffyAirdrop.sol\":5123:5309  constructor () {... */\n  callvalue\n  dup1\n  iszero\n  tag_1\n  jumpi\n  0x00\n  dup1\n  revert\ntag_1:\n  pop\n    /* \"contracts/GetSchiffyAirdrop.sol\":5148:5165  address msgSender */\n  0x00\n    /* \"contracts/GetSchiffyAirdrop.sol\":5190:5208  _owner = msgSender */\n  dup1\n  sload\n    /* \"contracts/GetSchiffyAirdrop.sol\":4668:4678  msg.sender */\n  caller\n  not(sub(shl(0xa0, 0x01), 0x01))\n    /* \"contracts/GetSchiffyAirdrop.sol\":5190:5208  _owner = msgSender */\n  swap2\n  dup3\n  and\n  dup2\n  or\n  dup4\n  sstore\n  0x01\n    /* \"contracts/GetSchiffyAirdrop.sol\":5218:5244  _previousOwner = msgSender */\n  dup1\n  sload\n  swap1\n  swap3\n  and\n  dup2\n  or\n  swap1\n  swap2\n  sstore\n    /* \"contracts/GetSchiffyAirdrop.sol\":5259:5302  OwnershipTransferred(address(0), msgSender) */\n  mload(0x40)\n    /* \"contracts/GetSchiffyAirdrop.sol\":4668:4678  msg.sender */\n  swap1\n  swap2\n  dup3\n  swap2\n    /* \"contracts/GetSchiffyAirdrop.sol\":5259:5302  OwnershipTransferred(address(0), msgSender) */\n  0x8be0079c531659141344cd1fd0a4f28419497f9722a3daafe3b4186f6b6457e0\n  swap1\n    /* \"contracts/GetSchiffyAirdrop.sol\":5148:5165  address msgSender */\n  dup3\n  swap1\n    /* \"contracts/GetSchiffyAirdrop.sol\":5259:5302  OwnershipTransferred(address(0), msgSender) */\n  log3\n    /* \"contracts/GetSchiffyAirdrop.sol\":5138:5309  {... */\n  pop\n    /* \"contracts/GetSchiffyAirdrop.sol\":4807:7305  contract Ownable is Context {... */\n  dataSize(sub_0)\n  dup1\n  dataOffset(sub_0)\n  0x00\n  codecopy\n  0x00\n  return\nstop\n\nsub_0: assembly {\n        /* \"contracts/GetSchiffyAirdrop.sol\":4807:7305  contract Ownable is Context {... */\n      mstore(0x40, 0x80)\n      callvalue\n      dup1\n      iszero\n      tag_1\n      jumpi\n      0x00\n      dup1\n      revert\n    tag_1:\n      pop\n      jumpi(tag_2, lt(calldatasize, 0x04))\n      shr(0xe0, calldataload(0x00))\n      dup1\n      0x715018a6\n      eq\n      tag_3\n      jumpi\n      dup1\n      0x8da5cb5b\n      eq\n      tag_4\n      jumpi\n      dup1\n      0xa69df4b5\n      eq\n      tag_5\n      jumpi\n      dup1\n      0xb6c52324\n      eq\n      tag_6\n      jumpi\n      dup1\n      0xdd467064\n      eq\n      tag_7\n      jumpi\n      dup1\n      0xf2fde38b\n      eq\n      tag_8\n      jumpi\n    tag_2:\n      0x00\n      dup1\n      revert\n        /* \"contracts/GetSchiffyAirdrop.sol\":6009:6154  function renounceOwnership() public virtual onlyOwner {... */\n    tag_3:\n      tag_9\n      tag_10\n      jump\t// in\n    tag_9:\n      stop\n        /* \"contracts/GetSchiffyAirdrop.sol\":5385:5462  function owner() public view returns (address) {... */\n    tag_4:\n        /* \"contracts/GetSchiffyAirdrop.sol\":5423:5430  address */\n      0x00\n        /* \"contracts/GetSchiffyAirdrop.sol\":5449:5455  _owner */\n      sload\n        /* \"contracts/GetSchiffyAirdrop.sol\":5385:5462  function owner() public view returns (address) {... */\n      mload(0x40)\n      sub(shl(0xa0, 0x01), 0x01)\n        /* \"contracts/GetSchiffyAirdrop.sol\":5449:5455  _owner */\n      swap1\n      swap2\n      and\n        /* \"#utility.yul\":636:687   */\n      dup2\n      mstore\n        /* \"#utility.yul\":624:626   */\n      0x20\n        /* \"#utility.yul\":609:627   */\n      add\n        /* \"contracts/GetSchiffyAirdrop.sol\":5385:5462  function owner() public view returns (address) {... */\n    tag_13:\n      mload(0x40)\n      dup1\n      swap2\n      sub\n      swap1\n      return\n        /* \"contracts/GetSchiffyAirdrop.sol\":7003:7303  function unlock() public virtual {... */\n    tag_5:\n      tag_9\n      tag_16\n      jump\t// in\n        /* \"contracts/GetSchiffyAirdrop.sol\":6582:6669  function geUnlockTime() public view returns (uint256) {... */\n    tag_6:\n        /* \"contracts/GetSchiffyAirdrop.sol\":6653:6662  _lockTime */\n      sload(0x02)\n        /* \"contracts/GetSchiffyAirdrop.sol\":6582:6669  function geUnlockTime() public view returns (uint256) {... */\n      mload(0x40)\n        /* \"#utility.yul\":2376:2401   */\n      swap1\n      dup2\n      mstore\n        /* \"#utility.yul\":2364:2366   */\n      0x20\n        /* \"#utility.yul\":2349:2367   */\n      add\n        /* \"contracts/GetSchiffyAirdrop.sol\":6582:6669  function geUnlockTime() public view returns (uint256) {... */\n      tag_13\n        /* \"#utility.yul\":2230:2407   */\n      jump\n        /* \"contracts/GetSchiffyAirdrop.sol\":6742:6930  function lock(uint256 time) public virtual onlyOwner {... */\n    tag_7:\n      tag_9\n      tag_22\n      calldatasize\n      0x04\n      tag_23\n      jump\t// in\n    tag_22:\n      tag_24\n      jump\t// in\n        /* \"contracts/GetSchiffyAirdrop.sol\":6303:6576  function transferOwnership(address newOwner) public virtual onlyOwner {... */\n    tag_8:\n      tag_9\n      tag_26\n      calldatasize\n      0x04\n      tag_27\n      jump\t// in\n    tag_26:\n      tag_28\n      jump\t// in\n        /* \"contracts/GetSchiffyAirdrop.sol\":6009:6154  function renounceOwnership() public virtual onlyOwner {... */\n    tag_10:\n        /* \"contracts/GetSchiffyAirdrop.sol\":5589:5595  _owner */\n      and(sub(shl(0xa0, 0x01), 0x01), sload(0x00))\n        /* \"contracts/GetSchiffyAirdrop.sol\":4668:4678  msg.sender */\n      caller\n        /* \"contracts/GetSchiffyAirdrop.sol\":5589:5611  _owner == _msgSender() */\n      eq\n        /* \"contracts/GetSchiffyAirdrop.sol\":5581:5648  require(_owner == _msgSender(), \"Ownable: caller is not the owner\") */\n      tag_32\n      jumpi\n      mload(0x40)\n      shl(0xe5, 0x461bcd)\n      dup2\n      mstore\n      0x04\n      add\n      tag_33\n      swap1\n      tag_34\n      jump\t// in\n    tag_33:\n      mload(0x40)\n      dup1\n      swap2\n      sub\n      swap1\n      revert\n    tag_32:\n        /* \"contracts/GetSchiffyAirdrop.sol\":6115:6116  0 */\n      0x00\n        /* \"contracts/GetSchiffyAirdrop.sol\":6099:6105  _owner */\n      dup1\n      sload\n        /* \"contracts/GetSchiffyAirdrop.sol\":6078:6118  OwnershipTransferred(_owner, address(0)) */\n      mload(0x40)\n      sub(shl(0xa0, 0x01), 0x01)\n        /* \"contracts/GetSchiffyAirdrop.sol\":6099:6105  _owner */\n      swap1\n      swap2\n      and\n      swap1\n      0x00\n      dup1\n      mload\n      0x20\n      data_9c064737b570a74c2bac5d21056d93ac53115214216cd14d4a0fc9b60be81231\n      dup4\n      codecopy\n      dup2\n      mload\n      swap2\n      mstore\n        /* \"contracts/GetSchiffyAirdrop.sol\":6078:6118  OwnershipTransferred(_owner, address(0)) */\n      swap1\n        /* \"contracts/GetSchiffyAirdrop.sol\":6115:6116  0 */\n      dup4\n      swap1\n        /* \"contracts/GetSchiffyAirdrop.sol\":6078:6118  OwnershipTransferred(_owner, address(0)) */\n      log3\n        /* \"contracts/GetSchiffyAirdrop.sol\":6145:6146  0 */\n      0x00\n        /* \"contracts/GetSchiffyAirdrop.sol\":6128:6147  _owner = address(0) */\n      dup1\n      sload\n      not(sub(shl(0xa0, 0x01), 0x01))\n      and\n      swap1\n      sstore\n        /* \"contracts/GetSchiffyAirdrop.sol\":6009:6154  function renounceOwnership() public virtual onlyOwner {... */\n      jump\t// out\n        /* \"contracts/GetSchiffyAirdrop.sol\":7003:7303  function unlock() public virtual {... */\n    tag_16:\n        /* \"contracts/GetSchiffyAirdrop.sol\":7054:7068  _previousOwner */\n      and(sub(shl(0xa0, 0x01), 0x01), sload(0x01))\n        /* \"contracts/GetSchiffyAirdrop.sol\":7072:7082  msg.sender */\n      caller\n        /* \"contracts/GetSchiffyAirdrop.sol\":7054:7082  _previousOwner == msg.sender */\n      eq\n        /* \"contracts/GetSchiffyAirdrop.sol\":7046:7122  require(_previousOwner == msg.sender, \"You don't have permission to unlock\") */\n      tag_38\n      jumpi\n      mload(0x40)\n      shl(0xe5, 0x461bcd)\n      dup2\n      mstore\n        /* \"#utility.yul\":2028:2030   */\n      0x20\n        /* \"contracts/GetSchiffyAirdrop.sol\":7046:7122  require(_previousOwner == msg.sender, \"You don't have permission to unlock\") */\n      0x04\n      dup3\n      add\n        /* \"#utility.yul\":2010:2031   */\n      mstore\n        /* \"#utility.yul\":2067:2069   */\n      0x23\n        /* \"#utility.yul\":2047:2065   */\n      0x24\n      dup3\n      add\n        /* \"#utility.yul\":2040:2070   */\n      mstore\n        /* \"#utility.yul\":2106:2140   */\n      0x596f7520646f6e27742068617665207065726d697373696f6e20746f20756e6c\n        /* \"#utility.yul\":2086:2104   */\n      0x44\n      dup3\n      add\n        /* \"#utility.yul\":2079:2141   */\n      mstore\n      shl(0xe8, 0x6f636b)\n        /* \"#utility.yul\":2157:2175   */\n      0x64\n      dup3\n      add\n        /* \"#utility.yul\":2150:2183   */\n      mstore\n        /* \"#utility.yul\":2200:2219   */\n      0x84\n      add\n        /* \"contracts/GetSchiffyAirdrop.sol\":7046:7122  require(_previousOwner == msg.sender, \"You don't have permission to unlock\") */\n      tag_33\n        /* \"#utility.yul\":1826:2225   */\n      jump\n        /* \"contracts/GetSchiffyAirdrop.sol\":7046:7122  require(_previousOwner == msg.sender, \"You don't have permission to unlock\") */\n    tag_38:\n        /* \"contracts/GetSchiffyAirdrop.sol\":7158:7167  _lockTime */\n      sload(0x02)\n        /* \"contracts/GetSchiffyAirdrop.sol\":7140:7155  block.timestamp */\n      timestamp\n        /* \"contracts/GetSchiffyAirdrop.sol\":7140:7167  block.timestamp > _lockTime */\n      gt\n        /* \"contracts/GetSchiffyAirdrop.sol\":7132:7204  require(block.timestamp > _lockTime , \"Contract is locked until 7 days\") */\n      tag_41\n      jumpi\n      mload(0x40)\n      shl(0xe5, 0x461bcd)\n      dup2\n      mstore\n        /* \"#utility.yul\":1668:1670   */\n      0x20\n        /* \"contracts/GetSchiffyAirdrop.sol\":7132:7204  require(block.timestamp > _lockTime , \"Contract is locked until 7 days\") */\n      0x04\n      dup3\n      add\n        /* \"#utility.yul\":1650:1671   */\n      mstore\n        /* \"#utility.yul\":1707:1709   */\n      0x1f\n        /* \"#utility.yul\":1687:1705   */\n      0x24\n      dup3\n      add\n        /* \"#utility.yul\":1680:1710   */\n      mstore\n        /* \"#utility.yul\":1746:1779   */\n      0x436f6e7472616374206973206c6f636b656420756e74696c2037206461797300\n        /* \"#utility.yul\":1726:1744   */\n      0x44\n      dup3\n      add\n        /* \"#utility.yul\":1719:1780   */\n      mstore\n        /* \"#utility.yul\":1797:1815   */\n      0x64\n      add\n        /* \"contracts/GetSchiffyAirdrop.sol\":7132:7204  require(block.timestamp > _lockTime , \"Contract is locked until 7 days\") */\n      tag_33\n        /* \"#utility.yul\":1466:1821   */\n      jump\n        /* \"contracts/GetSchiffyAirdrop.sol\":7132:7204  require(block.timestamp > _lockTime , \"Contract is locked until 7 days\") */\n    tag_41:\n        /* \"contracts/GetSchiffyAirdrop.sol\":7248:7262  _previousOwner */\n      sload(0x01)\n      0x00\n        /* \"contracts/GetSchiffyAirdrop.sol\":7240:7246  _owner */\n      dup1\n      sload\n        /* \"contracts/GetSchiffyAirdrop.sol\":7219:7263  OwnershipTransferred(_owner, _previousOwner) */\n      mload(0x40)\n      sub(shl(0xa0, 0x01), 0x01)\n        /* \"contracts/GetSchiffyAirdrop.sol\":7248:7262  _previousOwner */\n      swap4\n      dup5\n      and\n      swap4\n        /* \"contracts/GetSchiffyAirdrop.sol\":7240:7246  _owner */\n      swap1\n      swap2\n      and\n      swap2\n      0x00\n      dup1\n      mload\n      0x20\n      data_9c064737b570a74c2bac5d21056d93ac53115214216cd14d4a0fc9b60be81231\n      dup4\n      codecopy\n      dup2\n      mload\n      swap2\n      mstore\n        /* \"contracts/GetSchiffyAirdrop.sol\":7219:7263  OwnershipTransferred(_owner, _previousOwner) */\n      swap2\n      log3\n        /* \"contracts/GetSchiffyAirdrop.sol\":7282:7296  _previousOwner */\n      sload(0x01)\n      0x00\n        /* \"contracts/GetSchiffyAirdrop.sol\":7273:7296  _owner = _previousOwner */\n      dup1\n      sload\n      not(sub(shl(0xa0, 0x01), 0x01))\n      and\n      sub(shl(0xa0, 0x01), 0x01)\n        /* \"contracts/GetSchiffyAirdrop.sol\":7282:7296  _previousOwner */\n      swap1\n      swap3\n      and\n        /* \"contracts/GetSchiffyAirdrop.sol\":7273:7296  _owner = _previousOwner */\n      swap2\n      swap1\n      swap2\n      or\n      swap1\n      sstore\n        /* \"contracts/GetSchiffyAirdrop.sol\":7003:7303  function unlock() public virtual {... */\n      jump\t// out\n        /* \"contracts/GetSchiffyAirdrop.sol\":6742:6930  function lock(uint256 time) public virtual onlyOwner {... */\n    tag_24:\n        /* \"contracts/GetSchiffyAirdrop.sol\":5589:5595  _owner */\n      and(sub(shl(0xa0, 0x01), 0x01), sload(0x00))\n        /* \"contracts/GetSchiffyAirdrop.sol\":4668:4678  msg.sender */\n      caller\n        /* \"contracts/GetSchiffyAirdrop.sol\":5589:5611  _owner == _msgSender() */\n      eq\n        /* \"contracts/GetSchiffyAirdrop.sol\":5581:5648  require(_owner == _msgSender(), \"Ownable: caller is not the owner\") */\n      tag_47\n      jumpi\n      mload(0x40)\n      shl(0xe5, 0x461bcd)\n      dup2\n      mstore\n      0x04\n      add\n      tag_33\n      swap1\n      tag_34\n      jump\t// in\n    tag_47:\n        /* \"contracts/GetSchiffyAirdrop.sol\":6822:6823  0 */\n      0x00\n        /* \"contracts/GetSchiffyAirdrop.sol\":6805:6824  _owner = address(0) */\n      dup1\n      sload\n      not(sub(shl(0xa0, 0x01), 0x01))\n      and\n      swap1\n      sstore\n        /* \"contracts/GetSchiffyAirdrop.sol\":6846:6868  block.timestamp + time */\n      tag_50\n        /* \"contracts/GetSchiffyAirdrop.sol\":6864:6868  time */\n      dup2\n        /* \"contracts/GetSchiffyAirdrop.sol\":6846:6861  block.timestamp */\n      timestamp\n        /* \"contracts/GetSchiffyAirdrop.sol\":6846:6868  block.timestamp + time */\n      tag_51\n      jump\t// in\n    tag_50:\n        /* \"contracts/GetSchiffyAirdrop.sol\":6834:6843  _lockTime */\n      0x02\n        /* \"contracts/GetSchiffyAirdrop.sol\":6834:6868  _lockTime = block.timestamp + time */\n      sstore\n        /* \"contracts/GetSchiffyAirdrop.sol\":6920:6921  0 */\n      0x00\n        /* \"contracts/GetSchiffyAirdrop.sol\":6904:6910  _owner */\n      dup1\n      sload\n        /* \"contracts/GetSchiffyAirdrop.sol\":6883:6923  OwnershipTransferred(_owner, address(0)) */\n      mload(0x40)\n      sub(shl(0xa0, 0x01), 0x01)\n        /* \"contracts/GetSchiffyAirdrop.sol\":6904:6910  _owner */\n      swap1\n      swap2\n      and\n      swap1\n      0x00\n      dup1\n      mload\n      0x20\n      data_9c064737b570a74c2bac5d21056d93ac53115214216cd14d4a0fc9b60be81231\n      dup4\n      codecopy\n      dup2\n      mload\n      swap2\n      mstore\n        /* \"contracts/GetSchiffyAirdrop.sol\":6883:6923  OwnershipTransferred(_owner, address(0)) */\n      swap1\n        /* \"contracts/GetSchiffyAirdrop.sol\":6920:6921  0 */\n      dup4\n      swap1\n        /* \"contracts/GetSchiffyAirdrop.sol\":6883:6923  OwnershipTransferred(_owner, address(0)) */\n      log3\n        /* \"contracts/GetSchiffyAirdrop.sol\":6742:6930  function lock(uint256 time) public virtual onlyOwner {... */\n      pop\n      jump\t// out\n        /* \"contracts/GetSchiffyAirdrop.sol\":6303:6576  function transferOwnership(address newOwner) public virtual onlyOwner {... */\n    tag_28:\n        /* \"contracts/GetSchiffyAirdrop.sol\":5589:5595  _owner */\n      and(sub(shl(0xa0, 0x01), 0x01), sload(0x00))\n        /* \"contracts/GetSchiffyAirdrop.sol\":4668:4678  msg.sender */\n      caller\n        /* \"contracts/GetSchiffyAirdrop.sol\":5589:5611  _owner == _msgSender() */\n      eq\n        /* \"contracts/GetSchiffyAirdrop.sol\":5581:5648  require(_owner == _msgSender(), \"Ownable: caller is not the owner\") */\n      tag_54\n      jumpi\n      mload(0x40)\n      shl(0xe5, 0x461bcd)\n      dup2\n      mstore\n      0x04\n      add\n      tag_33\n      swap1\n      tag_34\n      jump\t// in\n    tag_54:\n      sub(shl(0xa0, 0x01), 0x01)\n        /* \"contracts/GetSchiffyAirdrop.sol\":6391:6413  newOwner != address(0) */\n      dup2\n      and\n        /* \"contracts/GetSchiffyAirdrop.sol\":6383:6456  require(newOwner != address(0), \"Ownable: new owner is the zero address\") */\n      tag_57\n      jumpi\n      mload(0x40)\n      shl(0xe5, 0x461bcd)\n      dup2\n      mstore\n        /* \"#utility.yul\":900:902   */\n      0x20\n        /* \"contracts/GetSchiffyAirdrop.sol\":6383:6456  require(newOwner != address(0), \"Ownable: new owner is the zero address\") */\n      0x04\n      dup3\n      add\n        /* \"#utility.yul\":882:903   */\n      mstore\n        /* \"#utility.yul\":939:941   */\n      0x26\n        /* \"#utility.yul\":919:937   */\n      0x24\n      dup3\n      add\n        /* \"#utility.yul\":912:942   */\n      mstore\n        /* \"#utility.yul\":978:1012   */\n      0x4f776e61626c653a206e6577206f776e657220697320746865207a65726f2061\n        /* \"#utility.yul\":958:976   */\n      0x44\n      dup3\n      add\n        /* \"#utility.yul\":951:1013   */\n      mstore\n      shl(0xd0, 0x646472657373)\n        /* \"#utility.yul\":1029:1047   */\n      0x64\n      dup3\n      add\n        /* \"#utility.yul\":1022:1058   */\n      mstore\n        /* \"#utility.yul\":1075:1094   */\n      0x84\n      add\n        /* \"contracts/GetSchiffyAirdrop.sol\":6383:6456  require(newOwner != address(0), \"Ownable: new owner is the zero address\") */\n      tag_33\n        /* \"#utility.yul\":698:1100   */\n      jump\n        /* \"contracts/GetSchiffyAirdrop.sol\":6383:6456  require(newOwner != address(0), \"Ownable: new owner is the zero address\") */\n    tag_57:\n        /* \"contracts/GetSchiffyAirdrop.sol\":6492:6498  _owner */\n      0x00\n      dup1\n      sload\n        /* \"contracts/GetSchiffyAirdrop.sol\":6471:6509  OwnershipTransferred(_owner, newOwner) */\n      mload(0x40)\n      sub(shl(0xa0, 0x01), 0x01)\n      dup1\n      dup6\n      and\n      swap4\n        /* \"contracts/GetSchiffyAirdrop.sol\":6492:6498  _owner */\n      swap3\n      and\n      swap2\n      0x00\n      dup1\n      mload\n      0x20\n      data_9c064737b570a74c2bac5d21056d93ac53115214216cd14d4a0fc9b60be81231\n      dup4\n      codecopy\n      dup2\n      mload\n      swap2\n      mstore\n        /* \"contracts/GetSchiffyAirdrop.sol\":6471:6509  OwnershipTransferred(_owner, newOwner) */\n      swap2\n      log3\n        /* \"contracts/GetSchiffyAirdrop.sol\":6536:6542  _owner */\n      0x00\n      dup1\n      sload\n      0x01\n        /* \"contracts/GetSchiffyAirdrop.sol\":6519:6542  _previousOwner = _owner */\n      dup1\n      sload\n      sub(shl(0xa0, 0x01), 0x01)\n        /* \"contracts/GetSchiffyAirdrop.sol\":6536:6542  _owner */\n      dup1\n      dup5\n      and\n      not(sub(shl(0xa0, 0x01), 0x01))\n        /* \"contracts/GetSchiffyAirdrop.sol\":6519:6542  _previousOwner = _owner */\n      swap3\n      dup4\n      and\n      or\n      swap1\n      swap3\n      sstore\n        /* \"contracts/GetSchiffyAirdrop.sol\":6552:6569  _owner = newOwner */\n      swap1\n      swap2\n      and\n      swap3\n      and\n      swap2\n      swap1\n      swap2\n      or\n      swap1\n      sstore\n        /* \"contracts/GetSchiffyAirdrop.sol\":6303:6576  function transferOwnership(address newOwner) public virtual onlyOwner {... */\n      jump\t// out\n        /* \"#utility.yul\":14:300   */\n    tag_27:\n        /* \"#utility.yul\":73:79   */\n      0x00\n        /* \"#utility.yul\":126:128   */\n      0x20\n        /* \"#utility.yul\":114:123   */\n      dup3\n        /* \"#utility.yul\":105:112   */\n      dup5\n        /* \"#utility.yul\":101:124   */\n      sub\n        /* \"#utility.yul\":97:129   */\n      slt\n        /* \"#utility.yul\":94:146   */\n      iszero\n      tag_63\n      jumpi\n        /* \"#utility.yul\":142:143   */\n      0x00\n        /* \"#utility.yul\":139:140   */\n      dup1\n        /* \"#utility.yul\":132:144   */\n      revert\n        /* \"#utility.yul\":94:146   */\n    tag_63:\n        /* \"#utility.yul\":168:191   */\n      dup2\n      calldataload\n      sub(shl(0xa0, 0x01), 0x01)\n        /* \"#utility.yul\":220:251   */\n      dup2\n      and\n        /* \"#utility.yul\":210:252   */\n      dup2\n      eq\n        /* \"#utility.yul\":200:270   */\n      tag_64\n      jumpi\n        /* \"#utility.yul\":266:267   */\n      0x00\n        /* \"#utility.yul\":263:264   */\n      dup1\n        /* \"#utility.yul\":256:268   */\n      revert\n        /* \"#utility.yul\":200:270   */\n    tag_64:\n        /* \"#utility.yul\":289:294   */\n      swap4\n        /* \"#utility.yul\":14:300   */\n      swap3\n      pop\n      pop\n      pop\n      jump\t// out\n        /* \"#utility.yul\":305:485   */\n    tag_23:\n        /* \"#utility.yul\":364:370   */\n      0x00\n        /* \"#utility.yul\":417:419   */\n      0x20\n        /* \"#utility.yul\":405:414   */\n      dup3\n        /* \"#utility.yul\":396:403   */\n      dup5\n        /* \"#utility.yul\":392:415   */\n      sub\n        /* \"#utility.yul\":388:420   */\n      slt\n        /* \"#utility.yul\":385:437   */\n      iszero\n      tag_66\n      jumpi\n        /* \"#utility.yul\":433:434   */\n      0x00\n        /* \"#utility.yul\":430:431   */\n      dup1\n        /* \"#utility.yul\":423:435   */\n      revert\n        /* \"#utility.yul\":385:437   */\n    tag_66:\n      pop\n        /* \"#utility.yul\":456:479   */\n      calldataload\n      swap2\n        /* \"#utility.yul\":305:485   */\n      swap1\n      pop\n      jump\t// out\n        /* \"#utility.yul\":1105:1461   */\n    tag_34:\n        /* \"#utility.yul\":1307:1309   */\n      0x20\n        /* \"#utility.yul\":1289:1310   */\n      dup1\n      dup3\n      mstore\n        /* \"#utility.yul\":1326:1344   */\n      dup2\n      dup2\n      add\n        /* \"#utility.yul\":1319:1349   */\n      mstore\n        /* \"#utility.yul\":1385:1419   */\n      0x4f776e61626c653a2063616c6c6572206973206e6f7420746865206f776e6572\n        /* \"#utility.yul\":1380:1382   */\n      0x40\n        /* \"#utility.yul\":1365:1383   */\n      dup3\n      add\n        /* \"#utility.yul\":1358:1420   */\n      mstore\n        /* \"#utility.yul\":1452:1454   */\n      0x60\n        /* \"#utility.yul\":1437:1455   */\n      add\n      swap1\n        /* \"#utility.yul\":1105:1461   */\n      jump\t// out\n        /* \"#utility.yul\":2412:2637   */\n    tag_51:\n        /* \"#utility.yul\":2452:2455   */\n      0x00\n        /* \"#utility.yul\":2483:2484   */\n      dup3\n        /* \"#utility.yul\":2479:2485   */\n      not\n        /* \"#utility.yul\":2476:2477   */\n      dup3\n        /* \"#utility.yul\":2473:2486   */\n      gt\n        /* \"#utility.yul\":2470:2606   */\n      iszero\n      tag_74\n      jumpi\n        /* \"#utility.yul\":2528:2538   */\n      0x4e487b71\n        /* \"#utility.yul\":2523:2526   */\n      0xe0\n        /* \"#utility.yul\":2519:2539   */\n      shl\n        /* \"#utility.yul\":2516:2517   */\n      0x00\n        /* \"#utility.yul\":2509:2540   */\n      mstore\n        /* \"#utility.yul\":2563:2567   */\n      0x11\n        /* \"#utility.yul\":2560:2561   */\n      0x04\n        /* \"#utility.yul\":2553:2568   */\n      mstore\n        /* \"#utility.yul\":2591:2595   */\n      0x24\n        /* \"#utility.yul\":2588:2589   */\n      0x00\n        /* \"#utility.yul\":2581:2596   */\n      revert\n        /* \"#utility.yul\":2470:2606   */\n    tag_74:\n      pop\n        /* \"#utility.yul\":2622:2631   */\n      add\n      swap1\n        /* \"#utility.yul\":2412:2637   */\n      jump\t// out\n    stop\n    data_9c064737b570a74c2bac5d21056d93ac53115214216cd14d4a0fc9b60be81231 8be0079c531659141344cd1fd0a4f28419497f9722a3daafe3b4186f6b6457e0\n\n    auxdata: 0xa2646970667358221220ba774b9f46f7a6c29152047762a845ab6327d9853975dbf6606a172628810f7b64736f6c63430008070033\n}\n",
				"bytecode": {
					"linkReferences": {},
					"object": "608060405234801561001057600080fd5b5060008054336001600160a01b031991821681178355600180549092168117909155604051909182917f8be0079c531659141344cd1fd0a4f28419497f9722a3daafe3b4186f6b6457e0908290a3506104918061006e6000396000f3fe608060405234801561001057600080fd5b50600436106100625760003560e01c8063715018a6146100675780638da5cb5b14610071578063a69df4b514610091578063b6c5232414610099578063dd467064146100aa578063f2fde38b146100bd575b600080fd5b61006f6100d0565b005b6000546040516001600160a01b0390911681526020015b60405180910390f35b61006f61013b565b600254604051908152602001610088565b61006f6100b83660046103c7565b610241565b61006f6100cb366004610397565b6102b1565b6000546001600160a01b031633146101035760405162461bcd60e51b81526004016100fa906103e0565b60405180910390fd5b600080546040516001600160a01b039091169060008051602061043c833981519152908390a3600080546001600160a01b0319169055565b6001546001600160a01b031633146101a15760405162461bcd60e51b815260206004820152602360248201527f596f7520646f6e27742068617665207065726d697373696f6e20746f20756e6c6044820152626f636b60e81b60648201526084016100fa565b60025442116101f25760405162461bcd60e51b815260206004820152601f60248201527f436f6e7472616374206973206c6f636b656420756e74696c203720646179730060448201526064016100fa565b600154600080546040516001600160a01b03938416939091169160008051602061043c83398151915291a3600154600080546001600160a01b0319166001600160a01b03909216919091179055565b6000546001600160a01b0316331461026b5760405162461bcd60e51b81526004016100fa906103e0565b600080546001600160a01b03191690556102858142610415565b600255600080546040516001600160a01b039091169060008051602061043c833981519152908390a350565b6000546001600160a01b031633146102db5760405162461bcd60e51b81526004016100fa906103e0565b6001600160a01b0381166103405760405162461bcd60e51b815260206004820152602660248201527f4f776e61626c653a206e6577206f776e657220697320746865207a65726f206160448201526564647265737360d01b60648201526084016100fa565b600080546040516001600160a01b038085169392169160008051602061043c83398151915291a360008054600180546001600160a01b038084166001600160a01b0319928316179092559091169216919091179055565b6000602082840312156103a957600080fd5b81356001600160a01b03811681146103c057600080fd5b9392505050565b6000602082840312156103d957600080fd5b5035919050565b6020808252818101527f4f776e61626c653a2063616c6c6572206973206e6f7420746865206f776e6572604082015260600190565b6000821982111561043657634e487b7160e01b600052601160045260246000fd5b50019056fe8be0079c531659141344cd1fd0a4f28419497f9722a3daafe3b4186f6b6457e0a2646970667358221220ba774b9f46f7a6c29152047762a845ab6327d9853975dbf6606a172628810f7b64736f6c63430008070033",
					"opcodes": "PUSH1 0x80 PUSH1 0x40 MSTORE CALLVALUE DUP1 ISZERO PUSH2 0x10 JUMPI PUSH1 0x0 DUP1 REVERT JUMPDEST POP PUSH1 0x0 DUP1 SLOAD CALLER PUSH1 0x1 PUSH1 0x1 PUSH1 0xA0 SHL SUB NOT SWAP2 DUP3 AND DUP2 OR DUP4 SSTORE PUSH1 0x1 DUP1 SLOAD SWAP1 SWAP3 AND DUP2 OR SWAP1 SWAP2 SSTORE PUSH1 0x40 MLOAD SWAP1 SWAP2 DUP3 SWAP2 PUSH32 0x8BE0079C531659141344CD1FD0A4F28419497F9722A3DAAFE3B4186F6B6457E0 SWAP1 DUP3 SWAP1 LOG3 POP PUSH2 0x491 DUP1 PUSH2 0x6E PUSH1 0x0 CODECOPY PUSH1 0x0 RETURN INVALID PUSH1 0x80 PUSH1 0x40 MSTORE CALLVALUE DUP1 ISZERO PUSH2 0x10 JUMPI PUSH1 0x0 DUP1 REVERT JUMPDEST POP PUSH1 0x4 CALLDATASIZE LT PUSH2 0x62 JUMPI PUSH1 0x0 CALLDATALOAD PUSH1 0xE0 SHR DUP1 PUSH4 0x715018A6 EQ PUSH2 0x67 JUMPI DUP1 PUSH4 0x8DA5CB5B EQ PUSH2 0x71 JUMPI DUP1 PUSH4 0xA69DF4B5 EQ PUSH2 0x91 JUMPI DUP1 PUSH4 0xB6C52324 EQ PUSH2 0x99 JUMPI DUP1 PUSH4 0xDD467064 EQ PUSH2 0xAA JUMPI DUP1 PUSH4 0xF2FDE38B EQ PUSH2 0xBD JUMPI JUMPDEST PUSH1 0x0 DUP1 REVERT JUMPDEST PUSH2 0x6F PUSH2 0xD0 JUMP JUMPDEST STOP JUMPDEST PUSH1 0x0 SLOAD PUSH1 0x40 MLOAD PUSH1 0x1 PUSH1 0x1 PUSH1 0xA0 SHL SUB SWAP1 SWAP2 AND DUP2 MSTORE PUSH1 0x20 ADD JUMPDEST PUSH1 0x40 MLOAD DUP1 SWAP2 SUB SWAP1 RETURN JUMPDEST PUSH2 0x6F PUSH2 0x13B JUMP JUMPDEST PUSH1 0x2 SLOAD PUSH1 0x40 MLOAD SWAP1 DUP2 MSTORE PUSH1 0x20 ADD PUSH2 0x88 JUMP JUMPDEST PUSH2 0x6F PUSH2 0xB8 CALLDATASIZE PUSH1 0x4 PUSH2 0x3C7 JUMP JUMPDEST PUSH2 0x241 JUMP JUMPDEST PUSH2 0x6F PUSH2 0xCB CALLDATASIZE PUSH1 0x4 PUSH2 0x397 JUMP JUMPDEST PUSH2 0x2B1 JUMP JUMPDEST PUSH1 0x0 SLOAD PUSH1 0x1 PUSH1 0x1 PUSH1 0xA0 SHL SUB AND CALLER EQ PUSH2 0x103 JUMPI PUSH1 0x40 MLOAD PUSH3 0x461BCD PUSH1 0xE5 SHL DUP2 MSTORE PUSH1 0x4 ADD PUSH2 0xFA SWAP1 PUSH2 0x3E0 JUMP JUMPDEST PUSH1 0x40 MLOAD DUP1 SWAP2 SUB SWAP1 REVERT JUMPDEST PUSH1 0x0 DUP1 SLOAD PUSH1 0x40 MLOAD PUSH1 0x1 PUSH1 0x1 PUSH1 0xA0 SHL SUB SWAP1 SWAP2 AND SWAP1 PUSH1 0x0 DUP1 MLOAD PUSH1 0x20 PUSH2 0x43C DUP4 CODECOPY DUP2 MLOAD SWAP2 MSTORE SWAP1 DUP4 SWAP1 LOG3 PUSH1 0x0 DUP1 SLOAD PUSH1 0x1 PUSH1 0x1 PUSH1 0xA0 SHL SUB NOT AND SWAP1 SSTORE JUMP JUMPDEST PUSH1 0x1 SLOAD PUSH1 0x1 PUSH1 0x1 PUSH1 0xA0 SHL SUB AND CALLER EQ PUSH2 0x1A1 JUMPI PUSH1 0x40 MLOAD PUSH3 0x461BCD PUSH1 0xE5 SHL DUP2 MSTORE PUSH1 0x20 PUSH1 0x4 DUP3 ADD MSTORE PUSH1 0x23 PUSH1 0x24 DUP3 ADD MSTORE PUSH32 0x596F7520646F6E27742068617665207065726D697373696F6E20746F20756E6C PUSH1 0x44 DUP3 ADD MSTORE PUSH3 0x6F636B PUSH1 0xE8 SHL PUSH1 0x64 DUP3 ADD MSTORE PUSH1 0x84 ADD PUSH2 0xFA JUMP JUMPDEST PUSH1 0x2 SLOAD TIMESTAMP GT PUSH2 0x1F2 JUMPI PUSH1 0x40 MLOAD PUSH3 0x461BCD PUSH1 0xE5 SHL DUP2 MSTORE PUSH1 0x20 PUSH1 0x4 DUP3 ADD MSTORE PUSH1 0x1F PUSH1 0x24 DUP3 ADD MSTORE PUSH32 0x436F6E7472616374206973206C6F636B656420756E74696C2037206461797300 PUSH1 0x44 DUP3 ADD MSTORE PUSH1 0x64 ADD PUSH2 0xFA JUMP JUMPDEST PUSH1 0x1 SLOAD PUSH1 0x0 DUP1 SLOAD PUSH1 0x40 MLOAD PUSH1 0x1 PUSH1 0x1 PUSH1 0xA0 SHL SUB SWAP4 DUP5 AND SWAP4 SWAP1 SWAP2 AND SWAP2 PUSH1 0x0 DUP1 MLOAD PUSH1 0x20 PUSH2 0x43C DUP4 CODECOPY DUP2 MLOAD SWAP2 MSTORE SWAP2 LOG3 PUSH1 0x1 SLOAD PUSH1 0x0 DUP1 SLOAD PUSH1 0x1 PUSH1 0x1 PUSH1 0xA0 SHL SUB NOT AND PUSH1 0x1 PUSH1 0x1 PUSH1 0xA0 SHL SUB SWAP1 SWAP3 AND SWAP2 SWAP1 SWAP2 OR SWAP1 SSTORE JUMP JUMPDEST PUSH1 0x0 SLOAD PUSH1 0x1 PUSH1 0x1 PUSH1 0xA0 SHL SUB AND CALLER EQ PUSH2 0x26B JUMPI PUSH1 0x40 MLOAD PUSH3 0x461BCD PUSH1 0xE5 SHL DUP2 MSTORE PUSH1 0x4 ADD PUSH2 0xFA SWAP1 PUSH2 0x3E0 JUMP JUMPDEST PUSH1 0x0 DUP1 SLOAD PUSH1 0x1 PUSH1 0x1 PUSH1 0xA0 SHL SUB NOT AND SWAP1 SSTORE PUSH2 0x285 DUP2 TIMESTAMP PUSH2 0x415 JUMP JUMPDEST PUSH1 0x2 SSTORE PUSH1 0x0 DUP1 SLOAD PUSH1 0x40 MLOAD PUSH1 0x1 PUSH1 0x1 PUSH1 0xA0 SHL SUB SWAP1 SWAP2 AND SWAP1 PUSH1 0x0 DUP1 MLOAD PUSH1 0x20 PUSH2 0x43C DUP4 CODECOPY DUP2 MLOAD SWAP2 MSTORE SWAP1 DUP4 SWAP1 LOG3 POP JUMP JUMPDEST PUSH1 0x0 SLOAD PUSH1 0x1 PUSH1 0x1 PUSH1 0xA0 SHL SUB AND CALLER EQ PUSH2 0x2DB JUMPI PUSH1 0x40 MLOAD PUSH3 0x461BCD PUSH1 0xE5 SHL DUP2 MSTORE PUSH1 0x4 ADD PUSH2 0xFA SWAP1 PUSH2 0x3E0 JUMP JUMPDEST PUSH1 0x1 PUSH1 0x1 PUSH1 0xA0 SHL SUB DUP2 AND PUSH2 0x340 JUMPI PUSH1 0x40 MLOAD PUSH3 0x461BCD PUSH1 0xE5 SHL DUP2 MSTORE PUSH1 0x20 PUSH1 0x4 DUP3 ADD MSTORE PUSH1 0x26 PUSH1 0x24 DUP3 ADD MSTORE PUSH32 0x4F776E61626C653A206E6577206F776E657220697320746865207A65726F2061 PUSH1 0x44 DUP3 ADD MSTORE PUSH6 0x646472657373 PUSH1 0xD0 SHL PUSH1 0x64 DUP3 ADD MSTORE PUSH1 0x84 ADD PUSH2 0xFA JUMP JUMPDEST PUSH1 0x0 DUP1 SLOAD PUSH1 0x40 MLOAD PUSH1 0x1 PUSH1 0x1 PUSH1 0xA0 SHL SUB DUP1 DUP6 AND SWAP4 SWAP3 AND SWAP2 PUSH1 0x0 DUP1 MLOAD PUSH1 0x20 PUSH2 0x43C DUP4 CODECOPY DUP2 MLOAD SWAP2 MSTORE SWAP2 LOG3 PUSH1 0x0 DUP1 SLOAD PUSH1 0x1 DUP1 SLOAD PUSH1 0x1 PUSH1 0x1 PUSH1 0xA0 SHL SUB DUP1 DUP5 AND PUSH1 0x1 PUSH1 0x1 PUSH1 0xA0 SHL SUB NOT SWAP3 DUP4 AND OR SWAP1 SWAP3 SSTORE SWAP1 SWAP2 AND SWAP3 AND SWAP2 SWAP1 SWAP2 OR SWAP1 SSTORE JUMP JUMPDEST PUSH1 0x0 PUSH1 0x20 DUP3 DUP5 SUB SLT ISZERO PUSH2 0x3A9 JUMPI PUSH1 0x0 DUP1 REVERT JUMPDEST DUP2 CALLDATALOAD PUSH1 0x1 PUSH1 0x1 PUSH1 0xA0 SHL SUB DUP2 AND DUP2 EQ PUSH2 0x3C0 JUMPI PUSH1 0x0 DUP1 REVERT JUMPDEST SWAP4 SWAP3 POP POP POP JUMP JUMPDEST PUSH1 0x0 PUSH1 0x20 DUP3 DUP5 SUB SLT ISZERO PUSH2 0x3D9 JUMPI PUSH1 0x0 DUP1 REVERT JUMPDEST POP CALLDATALOAD SWAP2 SWAP1 POP JUMP JUMPDEST PUSH1 0x20 DUP1 DUP3 MSTORE DUP2 DUP2 ADD MSTORE PUSH32 0x4F776E61626C653A2063616C6C6572206973206E6F7420746865206F776E6572 PUSH1 0x40 DUP3 ADD MSTORE PUSH1 0x60 ADD SWAP1 JUMP JUMPDEST PUSH1 0x0 DUP3 NOT DUP3 GT ISZERO PUSH2 0x436 JUMPI PUSH4 0x4E487B71 PUSH1 0xE0 SHL PUSH1 0x0 MSTORE PUSH1 0x11 PUSH1 0x4 MSTORE PUSH1 0x24 PUSH1 0x0 REVERT JUMPDEST POP ADD SWAP1 JUMP INVALID DUP12 0xE0 SMOD SWAP13 MSTORE8 AND MSIZE EQ SGT DIFFICULTY 0xCD 0x1F 0xD0 LOG4 CALLCODE DUP5 NOT 0x49 PUSH32 0x9722A3DAAFE3B4186F6B6457E0A2646970667358221220BA774B9F46F7A6C291 MSTORE DIV PUSH24 0x62A845AB6327D9853975DBF6606A172628810F7B64736F6C PUSH4 0x43000807 STOP CALLER "
				},
				"gasEstimates": {
					"creation": {
						"codeDepositCost": "233800",
						"executionCost": "50278",
						"totalCost": "284078"
					},
					"external": {
						"geUnlockTime()": "2324",
						"lock(uint256)": "52515",
						"owner()": "2290",
						"renounceOwnership()": "30176",
						"transferOwnership(address)": "54719",
						"unlock()": "36590"
					}
				},
				"methodIdentifiers": {
					"geUnlockTime()": "b6c52324",
					"lock(uint256)": "dd467064",
					"owner()": "8da5cb5b",
					"renounceOwnership()": "715018a6",
					"transferOwnership(address)": "f2fde38b",
					"unlock()": "a69df4b5"
				}
			},
			"userdoc": {
				"kind": "user",
				"methods": {},
				"version": 1
			}
		}
	}
}