{
	"contracts/GetSchiffyAirdrop.sol": {
		"GetSchiffyAirdrop": {
			"abi": [
				{
					"inputs": [
						{
							"internalType": "address",
							"name": "walletAddress",
							"type": "address"
						},
						{
							"internalType": "contract IERC20",
							"name": "tokenAddress",
							"type": "address"
						},
						{
							"internalType": "contract IERC20",
							"name": "busdAddress",
							"type": "address"
						}
					],
					"stateMutability": "nonpayable",
					"type": "constructor"
				},
				{
					"anonymous": false,
					"inputs": [
						{
							"indexed": true,
							"internalType": "address",
							"name": "account",
							"type": "address"
						},
						{
							"indexed": false,
							"internalType": "uint256",
							"name": "amount",
							"type": "uint256"
						}
					],
					"name": "ClaimedAirdrop",
					"type": "event"
				},
				{
					"anonymous": false,
					"inputs": [
						{
							"indexed": true,
							"internalType": "address",
							"name": "previousOwner",
							"type": "address"
						},
						{
							"indexed": true,
							"internalType": "address",
							"name": "newOwner",
							"type": "address"
						}
					],
					"name": "OwnershipTransferred",
					"type": "event"
				},
				{
					"anonymous": false,
					"inputs": [
						{
							"indexed": true,
							"internalType": "address",
							"name": "account",
							"type": "address"
						},
						{
							"indexed": false,
							"internalType": "uint256",
							"name": "amount",
							"type": "uint256"
						}
					],
					"name": "TokenPurchased",
					"type": "event"
				},
				{
					"inputs": [],
					"name": "adminClaimTokens",
					"outputs": [],
					"stateMutability": "nonpayable",
					"type": "function"
				},
				{
					"inputs": [],
					"name": "airdropAmount",
					"outputs": [
						{
							"internalType": "uint256",
							"name": "",
							"type": "uint256"
						}
					],
					"stateMutability": "view",
					"type": "function"
				},
				{
					"inputs": [],
					"name": "airdropRate",
					"outputs": [
						{
							"internalType": "uint256",
							"name": "",
							"type": "uint256"
						}
					],
					"stateMutability": "view",
					"type": "function"
				},
				{
					"inputs": [],
					"name": "busdToken",
					"outputs": [
						{
							"internalType": "contract IERC20",
							"name": "",
							"type": "address"
						}
					],
					"stateMutability": "view",
					"type": "function"
				},
				{
					"inputs": [
						{
							"internalType": "address",
							"name": "",
							"type": "address"
						}
					],
					"name": "buyCount",
					"outputs": [
						{
							"internalType": "uint256",
							"name": "",
							"type": "uint256"
						}
					],
					"stateMutability": "view",
					"type": "function"
				},
				{
					"inputs": [],
					"name": "buyRate",
					"outputs": [
						{
							"internalType": "uint256",
							"name": "",
							"type": "uint256"
						}
					],
					"stateMutability": "view",
					"type": "function"
				},
				{
					"inputs": [
						{
							"internalType": "uint256",
							"name": "amount",
							"type": "uint256"
						}
					],
					"name": "buyToken",
					"outputs": [],
					"stateMutability": "nonpayable",
					"type": "function"
				},
				{
					"inputs": [],
					"name": "claimAirdrop",
					"outputs": [],
					"stateMutability": "nonpayable",
					"type": "function"
				},
				{
					"inputs": [
						{
							"internalType": "contract IERC20",
							"name": "tokenAdd",
							"type": "address"
						},
						{
							"internalType": "address",
							"name": "receiver",
							"type": "address"
						}
					],
					"name": "claimAnyTokens",
					"outputs": [],
					"stateMutability": "nonpayable",
					"type": "function"
				},
				{
					"inputs": [],
					"name": "geUnlockTime",
					"outputs": [
						{
							"internalType": "uint256",
							"name": "",
							"type": "uint256"
						}
					],
					"stateMutability": "view",
					"type": "function"
				},
				{
					"inputs": [
						{
							"internalType": "address",
							"name": "",
							"type": "address"
						}
					],
					"name": "hasClaimedAirdrop",
					"outputs": [
						{
							"internalType": "bool",
							"name": "",
							"type": "bool"
						}
					],
					"stateMutability": "view",
					"type": "function"
				},
				{
					"inputs": [
						{
							"internalType": "uint256",
							"name": "time",
							"type": "uint256"
						}
					],
					"name": "lock",
					"outputs": [],
					"stateMutability": "nonpayable",
					"type": "function"
				},
				{
					"inputs": [],
					"name": "owner",
					"outputs": [
						{
							"internalType": "address",
							"name": "",
							"type": "address"
						}
					],
					"stateMutability": "view",
					"type": "function"
				},
				{
					"inputs": [],
					"name": "rate1",
					"outputs": [
						{
							"internalType": "uint256",
							"name": "",
							"type": "uint256"
						}
					],
					"stateMutability": "view",
					"type": "function"
				},
				{
					"inputs": [],
					"name": "rate2",
					"outputs": [
						{
							"internalType": "uint256",
							"name": "",
							"type": "uint256"
						}
					],
					"stateMutability": "view",
					"type": "function"
				},
				{
					"inputs": [],
					"name": "rate3",
					"outputs": [
						{
							"internalType": "uint256",
							"name": "",
							"type": "uint256"
						}
					],
					"stateMutability": "view",
					"type": "function"
				},
				{
					"inputs": [],
					"name": "renounceOwnership",
					"outputs": [],
					"stateMutability": "nonpayable",
					"type": "function"
				},
				{
					"inputs": [],
					"name": "token",
					"outputs": [
						{
							"internalType": "contract IERC20",
							"name": "",
							"type": "address"
						}
					],
					"stateMutability": "view",
					"type": "function"
				},
				{
					"inputs": [],
					"name": "totalAirdropWalletCount",
					"outputs": [
						{
							"internalType": "uint256",
							"name": "",
							"type": "uint256"
						}
					],
					"stateMutability": "view",
					"type": "function"
				},
				{
					"inputs": [],
					"name": "totalAirdropped",
					"outputs": [
						{
							"internalType": "uint256",
							"name": "",
							"type": "uint256"
						}
					],
					"stateMutability": "view",
					"type": "function"
				},
				{
					"inputs": [],
					"name": "totalAvailbleBuyCount",
					"outputs": [
						{
							"internalType": "uint256",
							"name": "",
							"type": "uint256"
						}
					],
					"stateMutability": "view",
					"type": "function"
				},
				{
					"inputs": [],
					"name": "totalBuyCount",
					"outputs": [
						{
							"internalType": "uint256",
							"name": "",
							"type": "uint256"
						}
					],
					"stateMutability": "view",
					"type": "function"
				},
				{
					"inputs": [],
					"name": "totalSold",
					"outputs": [
						{
							"internalType": "uint256",
							"name": "",
							"type": "uint256"
						}
					],
					"stateMutability": "view",
					"type": "function"
				},
				{
					"inputs": [
						{
							"internalType": "address",
							"name": "newOwner",
							"type": "address"
						}
					],
					"name": "transferOwnership",
					"outputs": [],
					"stateMutability": "nonpayable",
					"type": "function"
				},
				{
					"inputs": [],
					"name": "unlock",
					"outputs": [],
					"stateMutability": "nonpayable",
					"type": "function"
				},
				{
					"inputs": [
						{
							"internalType": "uint256",
							"name": "newAirdropRate",
							"type": "uint256"
						}
					],
					"name": "updateAirdropRate",
					"outputs": [],
					"stateMutability": "nonpayable",
					"type": "function"
				},
				{
					"inputs": [
						{
							"internalType": "uint256",
							"name": "newRate1",
							"type": "uint256"
						},
						{
							"internalType": "uint256",
							"name": "newRate2",
							"type": "uint256"
						},
						{
							"internalType": "uint256",
							"name": "newRate3",
							"type": "uint256"
						}
					],
					"name": "updateSellRates",
					"outputs": [],
					"stateMutability": "nonpayable",
					"type": "function"
				},
				{
					"inputs": [
						{
							"internalType": "contract IERC20",
							"name": "newToken",
							"type": "address"
						},
						{
							"internalType": "contract IERC20",
							"name": "newBusdToken",
							"type": "address"
						}
					],
					"name": "updateTokens",
					"outputs": [],
					"stateMutability": "nonpayable",
					"type": "function"
				},
				{
					"inputs": [
						{
							"internalType": "uint256",
							"name": "newAirdropAmount",
							"type": "uint256"
						}
					],
					"name": "updateTotalAirdropAmount",
					"outputs": [],
					"stateMutability": "nonpayable",
					"type": "function"
				},
				{
					"inputs": [
						{
							"internalType": "uint256",
							"name": "newCount",
							"type": "uint256"
						}
					],
					"name": "updateTotalAvailableBuyCount",
					"outputs": [],
					"stateMutability": "nonpayable",
					"type": "function"
				},
				{
					"inputs": [],
					"name": "wallet",
					"outputs": [
						{
							"internalType": "address",
							"name": "",
							"type": "address"
						}
					],
					"stateMutability": "view",
					"type": "function"
				}
			],
			"devdoc": {
				"kind": "dev",
				"methods": {
					"owner()": {
						"details": "Returns the address of the current owner."
					},
					"renounceOwnership()": {
						"details": "Leaves the contract without owner. It will not be possible to call `onlyOwner` functions anymore. Can only be called by the current owner. NOTE: Renouncing ownership will leave the contract without an owner, thereby removing any functionality that is only available to the owner."
					},
					"transferOwnership(address)": {
						"details": "Transfers ownership of the contract to a new account (`newOwner`). Can only be called by the current owner."
					}
				},
				"version": 1
			},
			"evm": {
				"assembly": "    /* \"contracts/GetSchiffyAirdrop.sol\":19189:22767  contract GetSchiffyAirdrop is Context, Ownable{... */\n  mstore(0x40, 0x80)\n    /* \"contracts/GetSchiffyAirdrop.sol\":19419:19442  20 * 2 * 10**6 * 10**18 */\n  0x2116545850052128000000\n    /* \"contracts/GetSchiffyAirdrop.sol\":19388:19442  uint256 public airdropAmount = 20 * 2 * 10**6 * 10**18 */\n  0x06\n  sstore\n    /* \"contracts/GetSchiffyAirdrop.sol\":19477:19496  20 * 10**6 * 10**18 */\n  0x108b2a2c28029094000000\n    /* \"contracts/GetSchiffyAirdrop.sol\":19448:19496  uint256 public airdropRate = 20 * 10**6 * 10**18 */\n  0x07\n  sstore\n    /* \"contracts/GetSchiffyAirdrop.sol\":19526:19535  2 * 10**6 */\n  0x1e8480\n    /* \"contracts/GetSchiffyAirdrop.sol\":19503:19535  uint256 public rate1 = 2 * 10**6 */\n  0x08\n  sstore\n    /* \"contracts/GetSchiffyAirdrop.sol\":19564:19574  15 * 10**5 */\n  0x16e360\n    /* \"contracts/GetSchiffyAirdrop.sol\":19541:19574  uint256 public rate2 = 15 * 10**5 */\n  0x09\n  sstore\n    /* \"contracts/GetSchiffyAirdrop.sol\":19603:19613  12 * 10**5 */\n  0x124f80\n    /* \"contracts/GetSchiffyAirdrop.sol\":19580:19613  uint256 public rate3 = 12 * 10**5 */\n  0x0a\n  sstore\n    /* \"contracts/GetSchiffyAirdrop.sol\":19739:19742  650 */\n  0x028a\n    /* \"contracts/GetSchiffyAirdrop.sol\":19700:19742  uint256 public totalAvailbleBuyCount = 650 */\n  0x0d\n  sstore\n    /* \"contracts/GetSchiffyAirdrop.sol\":20050:20228  constructor(address walletAddress, IERC20 tokenAddress, IERC20 busdAddress) {... */\n  callvalue\n  dup1\n  iszero\n  tag_1\n  jumpi\n  0x00\n  dup1\n  revert\ntag_1:\n  pop\n  mload(0x40)\n  sub(codesize, bytecodeSize)\n  dup1\n  bytecodeSize\n  dup4\n  codecopy\n  dup2\n  add\n  0x40\n  dup2\n  swap1\n  mstore\n  tag_2\n  swap2\n  tag_3\n  jump\t// in\ntag_2:\n    /* \"contracts/GetSchiffyAirdrop.sol\":5148:5165  address msgSender */\n  0x00\n    /* \"contracts/GetSchiffyAirdrop.sol\":5190:5208  _owner = msgSender */\n  dup1\n  sload\n    /* \"contracts/GetSchiffyAirdrop.sol\":4668:4678  msg.sender */\n  caller\n  not(sub(shl(0xa0, 0x01), 0x01))\n    /* \"contracts/GetSchiffyAirdrop.sol\":5190:5208  _owner = msgSender */\n  swap2\n  dup3\n  and\n  dup2\n  or\n  dup4\n  sstore\n  0x01\n    /* \"contracts/GetSchiffyAirdrop.sol\":5218:5244  _previousOwner = msgSender */\n  dup1\n  sload\n  swap1\n  swap3\n  and\n  dup2\n  or\n  swap1\n  swap2\n  sstore\n    /* \"contracts/GetSchiffyAirdrop.sol\":5259:5302  OwnershipTransferred(address(0), msgSender) */\n  mload(0x40)\n    /* \"contracts/GetSchiffyAirdrop.sol\":4668:4678  msg.sender */\n  swap1\n  swap2\n  dup3\n  swap2\n    /* \"contracts/GetSchiffyAirdrop.sol\":5259:5302  OwnershipTransferred(address(0), msgSender) */\n  0x8be0079c531659141344cd1fd0a4f28419497f9722a3daafe3b4186f6b6457e0\n  swap1\n    /* \"contracts/GetSchiffyAirdrop.sol\":5148:5165  address msgSender */\n  dup3\n  swap1\n    /* \"contracts/GetSchiffyAirdrop.sol\":5259:5302  OwnershipTransferred(address(0), msgSender) */\n  log3\n  pop\n    /* \"contracts/GetSchiffyAirdrop.sol\":20136:20142  wallet */\n  0x05\n    /* \"contracts/GetSchiffyAirdrop.sol\":20136:20158  wallet = walletAddress */\n  dup1\n  sload\n  sub(shl(0xa0, 0x01), 0x01)\n  swap5\n  dup6\n  and\n  not(sub(shl(0xa0, 0x01), 0x01))\n  swap2\n  dup3\n  and\n  or\n  swap1\n  swap2\n  sstore\n    /* \"contracts/GetSchiffyAirdrop.sol\":20168:20173  token */\n  0x03\n    /* \"contracts/GetSchiffyAirdrop.sol\":20168:20188  token = tokenAddress */\n  dup1\n  sload\n  swap4\n  dup6\n  and\n  swap4\n  dup3\n  and\n  swap4\n  swap1\n  swap4\n  or\n  swap1\n  swap3\n  sstore\n    /* \"contracts/GetSchiffyAirdrop.sol\":20198:20207  busdToken */\n  0x04\n    /* \"contracts/GetSchiffyAirdrop.sol\":20198:20221  busdToken = busdAddress */\n  dup1\n  sload\n  swap2\n  swap1\n  swap4\n  and\n  swap2\n  and\n  or\n  swap1\n  sstore\n    /* \"contracts/GetSchiffyAirdrop.sol\":19189:22767  contract GetSchiffyAirdrop is Context, Ownable{... */\n  jump(tag_12)\n    /* \"#utility.yul\":14:559   */\ntag_3:\n    /* \"#utility.yul\":128:134   */\n  0x00\n    /* \"#utility.yul\":136:142   */\n  dup1\n    /* \"#utility.yul\":144:150   */\n  0x00\n    /* \"#utility.yul\":197:199   */\n  0x60\n    /* \"#utility.yul\":185:194   */\n  dup5\n    /* \"#utility.yul\":176:183   */\n  dup7\n    /* \"#utility.yul\":172:195   */\n  sub\n    /* \"#utility.yul\":168:200   */\n  slt\n    /* \"#utility.yul\":165:217   */\n  iszero\n  tag_14\n  jumpi\n    /* \"#utility.yul\":213:214   */\n  0x00\n    /* \"#utility.yul\":210:211   */\n  dup1\n    /* \"#utility.yul\":203:215   */\n  revert\n    /* \"#utility.yul\":165:217   */\ntag_14:\n    /* \"#utility.yul\":245:254   */\n  dup4\n    /* \"#utility.yul\":239:255   */\n  mload\n    /* \"#utility.yul\":264:295   */\n  tag_15\n    /* \"#utility.yul\":289:294   */\n  dup2\n    /* \"#utility.yul\":264:295   */\n  tag_16\n  jump\t// in\ntag_15:\n    /* \"#utility.yul\":364:366   */\n  0x20\n    /* \"#utility.yul\":349:367   */\n  dup6\n  add\n    /* \"#utility.yul\":343:368   */\n  mload\n    /* \"#utility.yul\":314:319   */\n  swap1\n  swap4\n  pop\n    /* \"#utility.yul\":377:410   */\n  tag_17\n    /* \"#utility.yul\":343:368   */\n  dup2\n    /* \"#utility.yul\":377:410   */\n  tag_16\n  jump\t// in\ntag_17:\n    /* \"#utility.yul\":481:483   */\n  0x40\n    /* \"#utility.yul\":466:484   */\n  dup6\n  add\n    /* \"#utility.yul\":460:485   */\n  mload\n    /* \"#utility.yul\":429:436   */\n  swap1\n  swap3\n  pop\n    /* \"#utility.yul\":494:527   */\n  tag_18\n    /* \"#utility.yul\":460:485   */\n  dup2\n    /* \"#utility.yul\":494:527   */\n  tag_16\n  jump\t// in\ntag_18:\n    /* \"#utility.yul\":546:553   */\n  dup1\n    /* \"#utility.yul\":536:553   */\n  swap2\n  pop\n  pop\n    /* \"#utility.yul\":14:559   */\n  swap3\n  pop\n  swap3\n  pop\n  swap3\n  jump\t// out\n    /* \"#utility.yul\":564:695   */\ntag_16:\n  sub(shl(0xa0, 0x01), 0x01)\n    /* \"#utility.yul\":639:670   */\n  dup2\n  and\n    /* \"#utility.yul\":629:671   */\n  dup2\n  eq\n    /* \"#utility.yul\":619:689   */\n  tag_20\n  jumpi\n    /* \"#utility.yul\":685:686   */\n  0x00\n    /* \"#utility.yul\":682:683   */\n  dup1\n    /* \"#utility.yul\":675:687   */\n  revert\n    /* \"#utility.yul\":619:689   */\ntag_20:\n    /* \"#utility.yul\":564:695   */\n  pop\n  jump\t// out\ntag_12:\n    /* \"contracts/GetSchiffyAirdrop.sol\":19189:22767  contract GetSchiffyAirdrop is Context, Ownable{... */\n  dataSize(sub_0)\n  dup1\n  dataOffset(sub_0)\n  0x00\n  codecopy\n  0x00\n  return\nstop\n\nsub_0: assembly {\n        /* \"contracts/GetSchiffyAirdrop.sol\":19189:22767  contract GetSchiffyAirdrop is Context, Ownable{... */\n      mstore(0x40, 0x80)\n      callvalue\n      dup1\n      iszero\n      tag_1\n      jumpi\n      0x00\n      dup1\n      revert\n    tag_1:\n      pop\n      jumpi(tag_2, lt(calldatasize, 0x04))\n      shr(0xe0, calldataload(0x00))\n      dup1\n      0xa9d1ff2e\n      gt\n      tag_34\n      jumpi\n      dup1\n      0xef719a16\n      gt\n      tag_35\n      jumpi\n      dup1\n      0xf61101bd\n      gt\n      tag_36\n      jumpi\n      dup1\n      0xf61101bd\n      eq\n      tag_30\n      jumpi\n      dup1\n      0xfc0c546a\n      eq\n      tag_31\n      jumpi\n      dup1\n      0xfc2ea8a5\n      eq\n      tag_32\n      jumpi\n      dup1\n      0xfc37987b\n      eq\n      tag_33\n      jumpi\n      0x00\n      dup1\n      revert\n    tag_36:\n      dup1\n      0xef719a16\n      eq\n      tag_26\n      jumpi\n      dup1\n      0xf2fde38b\n      eq\n      tag_27\n      jumpi\n      dup1\n      0xf4cdda36\n      eq\n      tag_28\n      jumpi\n      dup1\n      0xf555b815\n      eq\n      tag_29\n      jumpi\n      0x00\n      dup1\n      revert\n    tag_35:\n      dup1\n      0xcf854969\n      gt\n      tag_37\n      jumpi\n      dup1\n      0xcf854969\n      eq\n      tag_22\n      jumpi\n      dup1\n      0xdd467064\n      eq\n      tag_23\n      jumpi\n      dup1\n      0xde0e7014\n      eq\n      tag_24\n      jumpi\n      dup1\n      0xe7aa29e3\n      eq\n      tag_25\n      jumpi\n      0x00\n      dup1\n      revert\n    tag_37:\n      dup1\n      0xa9d1ff2e\n      eq\n      tag_18\n      jumpi\n      dup1\n      0xaff1f15f\n      eq\n      tag_19\n      jumpi\n      dup1\n      0xb6c52324\n      eq\n      tag_20\n      jumpi\n      dup1\n      0xce678580\n      eq\n      tag_21\n      jumpi\n      0x00\n      dup1\n      revert\n    tag_34:\n      dup1\n      0x64142e99\n      gt\n      tag_38\n      jumpi\n      dup1\n      0x9106d7ba\n      gt\n      tag_39\n      jumpi\n      dup1\n      0x9106d7ba\n      eq\n      tag_14\n      jumpi\n      dup1\n      0x972a040a\n      eq\n      tag_15\n      jumpi\n      dup1\n      0x9fefe7f4\n      eq\n      tag_16\n      jumpi\n      dup1\n      0xa69df4b5\n      eq\n      tag_17\n      jumpi\n      0x00\n      dup1\n      revert\n    tag_39:\n      dup1\n      0x64142e99\n      eq\n      tag_10\n      jumpi\n      dup1\n      0x715018a6\n      eq\n      tag_11\n      jumpi\n      dup1\n      0x8891cf0d\n      eq\n      tag_12\n      jumpi\n      dup1\n      0x8da5cb5b\n      eq\n      tag_13\n      jumpi\n      0x00\n      dup1\n      revert\n    tag_38:\n      dup1\n      0x36e820c2\n      gt\n      tag_40\n      jumpi\n      dup1\n      0x36e820c2\n      eq\n      tag_6\n      jumpi\n      dup1\n      0x521eb273\n      eq\n      tag_7\n      jumpi\n      dup1\n      0x5b88349d\n      eq\n      tag_8\n      jumpi\n      dup1\n      0x639d739a\n      eq\n      tag_9\n      jumpi\n      0x00\n      dup1\n      revert\n    tag_40:\n      dup1\n      0x01d891\n      eq\n      tag_3\n      jumpi\n      dup1\n      0x0f04cf24\n      eq\n      tag_4\n      jumpi\n      dup1\n      0x2d296bf1\n      eq\n      tag_5\n      jumpi\n    tag_2:\n      0x00\n      dup1\n      revert\n        /* \"contracts/GetSchiffyAirdrop.sol\":20938:21064  function updateTotalAirdropAmount(uint256 newAirdropAmount) external onlyOwner{... */\n    tag_3:\n      tag_41\n      tag_42\n      calldatasize\n      0x04\n      tag_43\n      jump\t// in\n    tag_42:\n      tag_44\n      jump\t// in\n    tag_41:\n      stop\n        /* \"contracts/GetSchiffyAirdrop.sol\":22603:22760  function claimAnyTokens(IERC20 tokenAdd, address receiver) external onlyOwner {... */\n    tag_4:\n      tag_41\n      tag_46\n      calldatasize\n      0x04\n      tag_47\n      jump\t// in\n    tag_46:\n      tag_48\n      jump\t// in\n        /* \"contracts/GetSchiffyAirdrop.sol\":21737:22467  function buyToken(uint256 amount) external {... */\n    tag_5:\n      tag_41\n      tag_50\n      calldatasize\n      0x04\n      tag_43\n      jump\t// in\n    tag_50:\n      tag_51\n      jump\t// in\n        /* \"contracts/GetSchiffyAirdrop.sol\":20818:20932  function updateAirdropRate(uint256 newAirdropRate) external onlyOwner{... */\n    tag_6:\n      tag_41\n      tag_53\n      calldatasize\n      0x04\n      tag_43\n      jump\t// in\n    tag_53:\n      tag_54\n      jump\t// in\n        /* \"contracts/GetSchiffyAirdrop.sol\":19360:19381  address public wallet */\n    tag_7:\n      sload(0x05)\n      tag_55\n      swap1\n      sub(shl(0xa0, 0x01), 0x01)\n      and\n      dup2\n      jump\n    tag_55:\n      mload(0x40)\n      sub(shl(0xa0, 0x01), 0x01)\n        /* \"#utility.yul\":2232:2264   */\n      swap1\n      swap2\n      and\n        /* \"#utility.yul\":2214:2265   */\n      dup2\n      mstore\n        /* \"#utility.yul\":2202:2204   */\n      0x20\n        /* \"#utility.yul\":2187:2205   */\n      add\n        /* \"contracts/GetSchiffyAirdrop.sol\":19360:19381  address public wallet */\n    tag_57:\n      mload(0x40)\n      dup1\n      swap2\n      sub\n      swap1\n      return\n        /* \"contracts/GetSchiffyAirdrop.sol\":20234:20812  function claimAirdrop() external {... */\n    tag_8:\n      tag_41\n      tag_60\n      jump\t// in\n        /* \"contracts/GetSchiffyAirdrop.sol\":21409:21533  function updateTotalAvailableBuyCount(uint256 newCount) external onlyOwner {... */\n    tag_9:\n      tag_41\n      tag_62\n      calldatasize\n      0x04\n      tag_43\n      jump\t// in\n    tag_62:\n      tag_63\n      jump\t// in\n        /* \"contracts/GetSchiffyAirdrop.sol\":19666:19694  uint256 public totalBuyCount */\n    tag_10:\n      tag_64\n      sload(0x0c)\n      dup2\n      jump\n    tag_64:\n      mload(0x40)\n        /* \"#utility.yul\":8666:8691   */\n      swap1\n      dup2\n      mstore\n        /* \"#utility.yul\":8654:8656   */\n      0x20\n        /* \"#utility.yul\":8639:8657   */\n      add\n        /* \"contracts/GetSchiffyAirdrop.sol\":19666:19694  uint256 public totalBuyCount */\n      tag_57\n        /* \"#utility.yul\":8520:8697   */\n      jump\n        /* \"contracts/GetSchiffyAirdrop.sol\":6009:6154  function renounceOwnership() public virtual onlyOwner {... */\n    tag_11:\n      tag_41\n      tag_69\n      jump\t// in\n        /* \"contracts/GetSchiffyAirdrop.sol\":19448:19496  uint256 public airdropRate = 20 * 10**6 * 10**18 */\n    tag_12:\n      tag_64\n      sload(0x07)\n      dup2\n      jump\n        /* \"contracts/GetSchiffyAirdrop.sol\":5385:5462  function owner() public view returns (address) {... */\n    tag_13:\n        /* \"contracts/GetSchiffyAirdrop.sol\":5423:5430  address */\n      0x00\n        /* \"contracts/GetSchiffyAirdrop.sol\":5449:5455  _owner */\n      sload\n      sub(shl(0xa0, 0x01), 0x01)\n      and\n        /* \"contracts/GetSchiffyAirdrop.sol\":5385:5462  function owner() public view returns (address) {... */\n      jump(tag_55)\n        /* \"contracts/GetSchiffyAirdrop.sol\":19748:19772  uint256 public totalSold */\n    tag_14:\n      tag_64\n      sload(0x0e)\n      dup2\n      jump\n        /* \"contracts/GetSchiffyAirdrop.sol\":19700:19742  uint256 public totalAvailbleBuyCount = 650 */\n    tag_15:\n      tag_64\n      sload(0x0d)\n      dup2\n      jump\n        /* \"contracts/GetSchiffyAirdrop.sol\":19620:19660  mapping(address => uint) public buyCount */\n    tag_16:\n      tag_64\n      tag_83\n      calldatasize\n      0x04\n      tag_84\n      jump\t// in\n    tag_83:\n      mstore(0x20, 0x0b)\n      0x00\n      swap1\n      dup2\n      mstore\n      0x40\n      swap1\n      keccak256\n      sload\n      dup2\n      jump\n        /* \"contracts/GetSchiffyAirdrop.sol\":7003:7303  function unlock() public virtual {... */\n    tag_17:\n      tag_41\n      tag_88\n      jump\t// in\n        /* \"contracts/GetSchiffyAirdrop.sol\":21221:21403  function updateSellRates(uint256 newRate1, uint256 newRate2, uint256 newRate3) external onlyOwner{... */\n    tag_18:\n      tag_41\n      tag_90\n      calldatasize\n      0x04\n      tag_91\n      jump\t// in\n    tag_90:\n      tag_92\n      jump\t// in\n        /* \"contracts/GetSchiffyAirdrop.sol\":19580:19613  uint256 public rate3 = 12 * 10**5 */\n    tag_19:\n      tag_64\n      sload(0x0a)\n      dup2\n      jump\n        /* \"contracts/GetSchiffyAirdrop.sol\":6582:6669  function geUnlockTime() public view returns (uint256) {... */\n    tag_20:\n        /* \"contracts/GetSchiffyAirdrop.sol\":6653:6662  _lockTime */\n      sload(0x02)\n        /* \"contracts/GetSchiffyAirdrop.sol\":6582:6669  function geUnlockTime() public view returns (uint256) {... */\n      jump(tag_64)\n        /* \"contracts/GetSchiffyAirdrop.sol\":19779:19809  uint256 public totalAirdropped */\n    tag_21:\n      tag_64\n      sload(0x0f)\n      dup2\n      jump\n        /* \"contracts/GetSchiffyAirdrop.sol\":19503:19535  uint256 public rate1 = 2 * 10**6 */\n    tag_22:\n      tag_64\n      sload(0x08)\n      dup2\n      jump\n        /* \"contracts/GetSchiffyAirdrop.sol\":6742:6930  function lock(uint256 time) public virtual onlyOwner {... */\n    tag_23:\n      tag_41\n      tag_106\n      calldatasize\n      0x04\n      tag_43\n      jump\t// in\n    tag_106:\n      tag_107\n      jump\t// in\n        /* \"contracts/GetSchiffyAirdrop.sol\":19331:19354  IERC20 public busdToken */\n    tag_24:\n      sload(0x04)\n      tag_55\n      swap1\n      sub(shl(0xa0, 0x01), 0x01)\n      and\n      dup2\n      jump\n        /* \"contracts/GetSchiffyAirdrop.sol\":21070:21215  function updateTokens(IERC20 newToken, IERC20 newBusdToken) external onlyOwner{... */\n    tag_25:\n      tag_41\n      tag_113\n      calldatasize\n      0x04\n      tag_47\n      jump\t// in\n    tag_113:\n      tag_115\n      jump\t// in\n        /* \"contracts/GetSchiffyAirdrop.sol\":22473:22597  function adminClaimTokens() external onlyOwner {... */\n    tag_26:\n      tag_41\n      tag_117\n      jump\t// in\n        /* \"contracts/GetSchiffyAirdrop.sol\":6303:6576  function transferOwnership(address newOwner) public virtual onlyOwner {... */\n    tag_27:\n      tag_41\n      tag_119\n      calldatasize\n      0x04\n      tag_84\n      jump\t// in\n    tag_119:\n      tag_120\n      jump\t// in\n        /* \"contracts/GetSchiffyAirdrop.sol\":19859:19908  mapping(address => bool) public hasClaimedAirdrop */\n    tag_28:\n      tag_121\n      tag_122\n      calldatasize\n      0x04\n      tag_84\n      jump\t// in\n    tag_122:\n      mstore(0x20, 0x11)\n      0x00\n      swap1\n      dup2\n      mstore\n      0x40\n      swap1\n      keccak256\n      sload\n      0xff\n      and\n      dup2\n      jump\n    tag_121:\n      mload(0x40)\n        /* \"#utility.yul\":3712:3726   */\n      swap1\n      iszero\n        /* \"#utility.yul\":3705:3727   */\n      iszero\n        /* \"#utility.yul\":3687:3728   */\n      dup2\n      mstore\n        /* \"#utility.yul\":3675:3677   */\n      0x20\n        /* \"#utility.yul\":3660:3678   */\n      add\n        /* \"contracts/GetSchiffyAirdrop.sol\":19859:19908  mapping(address => bool) public hasClaimedAirdrop */\n      tag_57\n        /* \"#utility.yul\":3547:3734   */\n      jump\n        /* \"contracts/GetSchiffyAirdrop.sol\":19541:19574  uint256 public rate2 = 15 * 10**5 */\n    tag_29:\n      tag_64\n      sload(0x09)\n      dup2\n      jump\n        /* \"contracts/GetSchiffyAirdrop.sol\":19815:19853  uint256 public totalAirdropWalletCount */\n    tag_30:\n      tag_64\n      sload(0x10)\n      dup2\n      jump\n        /* \"contracts/GetSchiffyAirdrop.sol\":19306:19325  IERC20 public token */\n    tag_31:\n      sload(0x03)\n      tag_55\n      swap1\n      sub(shl(0xa0, 0x01), 0x01)\n      and\n      dup2\n      jump\n        /* \"contracts/GetSchiffyAirdrop.sol\":19388:19442  uint256 public airdropAmount = 20 * 2 * 10**6 * 10**18 */\n    tag_32:\n      tag_64\n      sload(0x06)\n      dup2\n      jump\n        /* \"contracts/GetSchiffyAirdrop.sol\":21539:21731  function buyRate() public view returns(uint256) {... */\n    tag_33:\n      tag_64\n      tag_139\n      jump\t// in\n        /* \"contracts/GetSchiffyAirdrop.sol\":20938:21064  function updateTotalAirdropAmount(uint256 newAirdropAmount) external onlyOwner{... */\n    tag_44:\n        /* \"contracts/GetSchiffyAirdrop.sol\":5589:5595  _owner */\n      and(sub(shl(0xa0, 0x01), 0x01), sload(0x00))\n        /* \"contracts/GetSchiffyAirdrop.sol\":4668:4678  msg.sender */\n      caller\n        /* \"contracts/GetSchiffyAirdrop.sol\":5589:5611  _owner == _msgSender() */\n      eq\n        /* \"contracts/GetSchiffyAirdrop.sol\":5581:5648  require(_owner == _msgSender(), \"Ownable: caller is not the owner\") */\n      tag_144\n      jumpi\n      mload(0x40)\n      shl(0xe5, 0x461bcd)\n      dup2\n      mstore\n      0x04\n      add\n      tag_145\n      swap1\n      tag_146\n      jump\t// in\n    tag_145:\n      mload(0x40)\n      dup1\n      swap2\n      sub\n      swap1\n      revert\n    tag_144:\n        /* \"contracts/GetSchiffyAirdrop.sol\":21026:21039  airdropAmount */\n      0x06\n        /* \"contracts/GetSchiffyAirdrop.sol\":21026:21057  airdropAmount =newAirdropAmount */\n      sstore\n        /* \"contracts/GetSchiffyAirdrop.sol\":20938:21064  function updateTotalAirdropAmount(uint256 newAirdropAmount) external onlyOwner{... */\n      jump\t// out\n        /* \"contracts/GetSchiffyAirdrop.sol\":22603:22760  function claimAnyTokens(IERC20 tokenAdd, address receiver) external onlyOwner {... */\n    tag_48:\n        /* \"contracts/GetSchiffyAirdrop.sol\":5589:5595  _owner */\n      and(sub(shl(0xa0, 0x01), 0x01), sload(0x00))\n        /* \"contracts/GetSchiffyAirdrop.sol\":4668:4678  msg.sender */\n      caller\n        /* \"contracts/GetSchiffyAirdrop.sol\":5589:5611  _owner == _msgSender() */\n      eq\n        /* \"contracts/GetSchiffyAirdrop.sol\":5581:5648  require(_owner == _msgSender(), \"Ownable: caller is not the owner\") */\n      tag_150\n      jumpi\n      mload(0x40)\n      shl(0xe5, 0x461bcd)\n      dup2\n      mstore\n      0x04\n      add\n      tag_145\n      swap1\n      tag_146\n      jump\t// in\n    tag_150:\n        /* \"contracts/GetSchiffyAirdrop.sol\":22719:22752  tokenAdd.balanceOf(address(this)) */\n      mload(0x40)\n      shl(0xe0, 0x70a08231)\n      dup2\n      mstore\n        /* \"contracts/GetSchiffyAirdrop.sol\":22746:22750  this */\n      address\n        /* \"contracts/GetSchiffyAirdrop.sol\":22719:22752  tokenAdd.balanceOf(address(this)) */\n      0x04\n      dup3\n      add\n        /* \"#utility.yul\":2214:2265   */\n      mstore\n      sub(shl(0xa0, 0x01), 0x01)\n        /* \"contracts/GetSchiffyAirdrop.sol\":22691:22708  tokenAdd.transfer */\n      dup4\n      and\n      swap1\n      0xa9059cbb\n      swap1\n        /* \"contracts/GetSchiffyAirdrop.sol\":22709:22717  receiver */\n      dup4\n      swap1\n        /* \"contracts/GetSchiffyAirdrop.sol\":22691:22708  tokenAdd.transfer */\n      dup4\n      swap1\n        /* \"contracts/GetSchiffyAirdrop.sol\":22719:22737  tokenAdd.balanceOf */\n      0x70a08231\n      swap1\n        /* \"#utility.yul\":2187:2205   */\n      0x24\n      add\n        /* \"contracts/GetSchiffyAirdrop.sol\":22719:22752  tokenAdd.balanceOf(address(this)) */\n      0x20\n      mload(0x40)\n      dup1\n      dup4\n      sub\n      dup2\n      dup7\n      dup1\n      extcodesize\n      iszero\n      dup1\n      iszero\n      tag_154\n      jumpi\n      0x00\n      dup1\n      revert\n    tag_154:\n      pop\n      gas\n      staticcall\n      iszero\n      dup1\n      iszero\n      tag_156\n      jumpi\n      returndatasize\n      0x00\n      dup1\n      returndatacopy\n      revert(0x00, returndatasize)\n    tag_156:\n      pop\n      pop\n      pop\n      pop\n      mload(0x40)\n      returndatasize\n      not(0x1f)\n      0x1f\n      dup3\n      add\n      and\n      dup3\n      add\n      dup1\n      0x40\n      mstore\n      pop\n      dup2\n      add\n      swap1\n      tag_157\n      swap2\n      swap1\n      tag_158\n      jump\t// in\n    tag_157:\n        /* \"contracts/GetSchiffyAirdrop.sol\":22691:22753  tokenAdd.transfer(receiver, tokenAdd.balanceOf(address(this))) */\n      mload(0x40)\n      not(sub(shl(0xe0, 0x01), 0x01))\n      0xe0\n      dup6\n      swap1\n      shl\n      and\n      dup2\n      mstore\n      sub(shl(0xa0, 0x01), 0x01)\n        /* \"#utility.yul\":3181:3213   */\n      swap1\n      swap3\n      and\n        /* \"contracts/GetSchiffyAirdrop.sol\":22691:22753  tokenAdd.transfer(receiver, tokenAdd.balanceOf(address(this))) */\n      0x04\n      dup4\n      add\n        /* \"#utility.yul\":3163:3214   */\n      mstore\n        /* \"#utility.yul\":3230:3248   */\n      0x24\n      dup3\n      add\n        /* \"#utility.yul\":3223:3257   */\n      mstore\n        /* \"#utility.yul\":3136:3154   */\n      0x44\n      add\n        /* \"contracts/GetSchiffyAirdrop.sol\":22691:22753  tokenAdd.transfer(receiver, tokenAdd.balanceOf(address(this))) */\n      0x20\n      mload(0x40)\n      dup1\n      dup4\n      sub\n      dup2\n      0x00\n      dup8\n      dup1\n      extcodesize\n      iszero\n      dup1\n      iszero\n      tag_161\n      jumpi\n      0x00\n      dup1\n      revert\n    tag_161:\n      pop\n      gas\n      call\n      iszero\n      dup1\n      iszero\n      tag_163\n      jumpi\n      returndatasize\n      0x00\n      dup1\n      returndatacopy\n      revert(0x00, returndatasize)\n    tag_163:\n      pop\n      pop\n      pop\n      pop\n      mload(0x40)\n      returndatasize\n      not(0x1f)\n      0x1f\n      dup3\n      add\n      and\n      dup3\n      add\n      dup1\n      0x40\n      mstore\n      pop\n      dup2\n      add\n      swap1\n      tag_164\n      swap2\n      swap1\n      tag_165\n      jump\t// in\n    tag_164:\n      pop\n        /* \"contracts/GetSchiffyAirdrop.sol\":22603:22760  function claimAnyTokens(IERC20 tokenAdd, address receiver) external onlyOwner {... */\n      pop\n      pop\n      jump\t// out\n        /* \"contracts/GetSchiffyAirdrop.sol\":21737:22467  function buyToken(uint256 amount) external {... */\n    tag_51:\n        /* \"contracts/GetSchiffyAirdrop.sol\":21814:21835  totalAvailbleBuyCount */\n      sload(0x0d)\n        /* \"contracts/GetSchiffyAirdrop.sol\":21798:21811  totalBuyCount */\n      sload(0x0c)\n        /* \"contracts/GetSchiffyAirdrop.sol\":21798:21835  totalBuyCount < totalAvailbleBuyCount */\n      lt\n        /* \"contracts/GetSchiffyAirdrop.sol\":21790:21859  require(totalBuyCount < totalAvailbleBuyCount, \"Buy quote complete.\") */\n      tag_167\n      jumpi\n      mload(0x40)\n      shl(0xe5, 0x461bcd)\n      dup2\n      mstore\n        /* \"#utility.yul\":4162:4164   */\n      0x20\n        /* \"contracts/GetSchiffyAirdrop.sol\":21790:21859  require(totalBuyCount < totalAvailbleBuyCount, \"Buy quote complete.\") */\n      0x04\n      dup3\n      add\n        /* \"#utility.yul\":4144:4165   */\n      mstore\n        /* \"#utility.yul\":4201:4203   */\n      0x13\n        /* \"#utility.yul\":4181:4199   */\n      0x24\n      dup3\n      add\n        /* \"#utility.yul\":4174:4204   */\n      mstore\n      shl(0x69, 0x213abc9038bab7ba329031b7b6b83632ba3297)\n        /* \"#utility.yul\":4220:4238   */\n      0x44\n      dup3\n      add\n        /* \"#utility.yul\":4213:4262   */\n      mstore\n        /* \"#utility.yul\":4279:4297   */\n      0x64\n      add\n        /* \"contracts/GetSchiffyAirdrop.sol\":21790:21859  require(totalBuyCount < totalAvailbleBuyCount, \"Buy quote complete.\") */\n      tag_145\n        /* \"#utility.yul\":3960:4303   */\n      jump\n        /* \"contracts/GetSchiffyAirdrop.sol\":21790:21859  require(totalBuyCount < totalAvailbleBuyCount, \"Buy quote complete.\") */\n    tag_167:\n        /* \"contracts/GetSchiffyAirdrop.sol\":21877:21886  busdToken */\n      sload(0x04)\n        /* \"contracts/GetSchiffyAirdrop.sol\":21929:21935  amount */\n      dup2\n      swap1\n      sub(shl(0xa0, 0x01), 0x01)\n        /* \"contracts/GetSchiffyAirdrop.sol\":21877:21886  busdToken */\n      and\n        /* \"contracts/GetSchiffyAirdrop.sol\":21877:21896  busdToken.allowance */\n      0xdd62ed3e\n        /* \"contracts/GetSchiffyAirdrop.sol\":4668:4678  msg.sender */\n      caller\n        /* \"contracts/GetSchiffyAirdrop.sol\":21877:21925  busdToken.allowance(_msgSender(), address(this)) */\n      mload(0x40)\n      not(sub(shl(0xe0, 0x01), 0x01))\n      0xe0\n      dup5\n      swap1\n      shl\n      and\n      dup2\n      mstore\n      sub(shl(0xa0, 0x01), 0x01)\n        /* \"#utility.yul\":2514:2529   */\n      swap1\n      swap2\n      and\n        /* \"contracts/GetSchiffyAirdrop.sol\":21877:21925  busdToken.allowance(_msgSender(), address(this)) */\n      0x04\n      dup3\n      add\n        /* \"#utility.yul\":2496:2530   */\n      mstore\n        /* \"contracts/GetSchiffyAirdrop.sol\":21919:21923  this */\n      address\n        /* \"#utility.yul\":2546:2564   */\n      0x24\n      dup3\n      add\n        /* \"#utility.yul\":2539:2582   */\n      mstore\n        /* \"#utility.yul\":2431:2449   */\n      0x44\n      add\n        /* \"contracts/GetSchiffyAirdrop.sol\":21877:21925  busdToken.allowance(_msgSender(), address(this)) */\n      0x20\n      mload(0x40)\n      dup1\n      dup4\n      sub\n      dup2\n      dup7\n      dup1\n      extcodesize\n      iszero\n      dup1\n      iszero\n      tag_173\n      jumpi\n      0x00\n      dup1\n      revert\n    tag_173:\n      pop\n      gas\n      staticcall\n      iszero\n      dup1\n      iszero\n      tag_175\n      jumpi\n      returndatasize\n      0x00\n      dup1\n      returndatacopy\n      revert(0x00, returndatasize)\n    tag_175:\n      pop\n      pop\n      pop\n      pop\n      mload(0x40)\n      returndatasize\n      not(0x1f)\n      0x1f\n      dup3\n      add\n      and\n      dup3\n      add\n      dup1\n      0x40\n      mstore\n      pop\n      dup2\n      add\n      swap1\n      tag_176\n      swap2\n      swap1\n      tag_158\n      jump\t// in\n    tag_176:\n        /* \"contracts/GetSchiffyAirdrop.sol\":21877:21935  busdToken.allowance(_msgSender(), address(this)) >= amount */\n      lt\n      iszero\n        /* \"contracts/GetSchiffyAirdrop.sol\":21869:21975  require(busdToken.allowance(_msgSender(), address(this)) >= amount, \"Not enough allowance to spend busd.\") */\n      tag_177\n      jumpi\n      mload(0x40)\n      shl(0xe5, 0x461bcd)\n      dup2\n      mstore\n        /* \"#utility.yul\":7150:7152   */\n      0x20\n        /* \"contracts/GetSchiffyAirdrop.sol\":21869:21975  require(busdToken.allowance(_msgSender(), address(this)) >= amount, \"Not enough allowance to spend busd.\") */\n      0x04\n      dup3\n      add\n        /* \"#utility.yul\":7132:7153   */\n      mstore\n        /* \"#utility.yul\":7189:7191   */\n      0x23\n        /* \"#utility.yul\":7169:7187   */\n      0x24\n      dup3\n      add\n        /* \"#utility.yul\":7162:7192   */\n      mstore\n        /* \"#utility.yul\":7228:7262   */\n      0x4e6f7420656e6f75676820616c6c6f77616e636520746f207370656e64206275\n        /* \"#utility.yul\":7208:7226   */\n      0x44\n      dup3\n      add\n        /* \"#utility.yul\":7201:7263   */\n      mstore\n      shl(0xe9, 0x39b217)\n        /* \"#utility.yul\":7279:7297   */\n      0x64\n      dup3\n      add\n        /* \"#utility.yul\":7272:7305   */\n      mstore\n        /* \"#utility.yul\":7322:7341   */\n      0x84\n      add\n        /* \"contracts/GetSchiffyAirdrop.sol\":21869:21975  require(busdToken.allowance(_msgSender(), address(this)) >= amount, \"Not enough allowance to spend busd.\") */\n      tag_145\n        /* \"#utility.yul\":6948:7347   */\n      jump\n        /* \"contracts/GetSchiffyAirdrop.sol\":21869:21975  require(busdToken.allowance(_msgSender(), address(this)) >= amount, \"Not enough allowance to spend busd.\") */\n    tag_177:\n        /* \"contracts/GetSchiffyAirdrop.sol\":4668:4678  msg.sender */\n      caller\n        /* \"contracts/GetSchiffyAirdrop.sol\":21993:22015  buyCount[_msgSender()] */\n      0x00\n      swap1\n      dup2\n      mstore\n        /* \"contracts/GetSchiffyAirdrop.sol\":21993:22001  buyCount */\n      0x0b\n        /* \"contracts/GetSchiffyAirdrop.sol\":21993:22015  buyCount[_msgSender()] */\n      0x20\n      mstore\n      0x40\n      swap1\n      keccak256\n      sload\n        /* \"contracts/GetSchiffyAirdrop.sol\":22018:22019  3 */\n      0x03\n      gt\n        /* \"contracts/GetSchiffyAirdrop.sol\":21985:22050  require(buyCount[_msgSender()] < 3, \"Wallet buy quote finished.\") */\n      tag_181\n      jumpi\n      mload(0x40)\n      shl(0xe5, 0x461bcd)\n      dup2\n      mstore\n        /* \"#utility.yul\":4917:4919   */\n      0x20\n        /* \"contracts/GetSchiffyAirdrop.sol\":21985:22050  require(buyCount[_msgSender()] < 3, \"Wallet buy quote finished.\") */\n      0x04\n      dup3\n      add\n        /* \"#utility.yul\":4899:4920   */\n      mstore\n        /* \"#utility.yul\":4956:4958   */\n      0x1a\n        /* \"#utility.yul\":4936:4954   */\n      0x24\n      dup3\n      add\n        /* \"#utility.yul\":4929:4959   */\n      mstore\n        /* \"#utility.yul\":4995:5023   */\n      0x57616c6c6574206275792071756f74652066696e69736865642e000000000000\n        /* \"#utility.yul\":4975:4993   */\n      0x44\n      dup3\n      add\n        /* \"#utility.yul\":4968:5024   */\n      mstore\n        /* \"#utility.yul\":5041:5059   */\n      0x64\n      add\n        /* \"contracts/GetSchiffyAirdrop.sol\":21985:22050  require(buyCount[_msgSender()] < 3, \"Wallet buy quote finished.\") */\n      tag_145\n        /* \"#utility.yul\":4715:5065   */\n      jump\n        /* \"contracts/GetSchiffyAirdrop.sol\":21985:22050  require(buyCount[_msgSender()] < 3, \"Wallet buy quote finished.\") */\n    tag_181:\n        /* \"contracts/GetSchiffyAirdrop.sol\":22060:22086  uint256 amountTransferable */\n      0x00\n        /* \"contracts/GetSchiffyAirdrop.sol\":22089:22110  amount.mul(buyRate()) */\n      tag_184\n        /* \"contracts/GetSchiffyAirdrop.sol\":22100:22109  buyRate() */\n      tag_185\n        /* \"contracts/GetSchiffyAirdrop.sol\":22100:22107  buyRate */\n      tag_139\n        /* \"contracts/GetSchiffyAirdrop.sol\":22100:22109  buyRate() */\n      jump\t// in\n    tag_185:\n        /* \"contracts/GetSchiffyAirdrop.sol\":22089:22095  amount */\n      dup4\n      swap1\n        /* \"contracts/GetSchiffyAirdrop.sol\":22089:22099  amount.mul */\n      tag_186\n        /* \"contracts/GetSchiffyAirdrop.sol\":22089:22110  amount.mul(buyRate()) */\n      jump\t// in\n    tag_184:\n        /* \"contracts/GetSchiffyAirdrop.sol\":22137:22150  totalBuyCount */\n      sload(0x0c)\n        /* \"contracts/GetSchiffyAirdrop.sol\":22060:22110  uint256 amountTransferable = amount.mul(buyRate()) */\n      swap1\n      swap2\n      pop\n        /* \"contracts/GetSchiffyAirdrop.sol\":22137:22157  totalBuyCount.add(1) */\n      tag_187\n      swap1\n        /* \"contracts/GetSchiffyAirdrop.sol\":22155:22156  1 */\n      0x01\n        /* \"contracts/GetSchiffyAirdrop.sol\":22137:22154  totalBuyCount.add */\n      tag_188\n        /* \"contracts/GetSchiffyAirdrop.sol\":22137:22157  totalBuyCount.add(1) */\n      jump\t// in\n    tag_187:\n        /* \"contracts/GetSchiffyAirdrop.sol\":22121:22134  totalBuyCount */\n      0x0c\n        /* \"contracts/GetSchiffyAirdrop.sol\":22121:22157  totalBuyCount = totalBuyCount.add(1) */\n      sstore\n        /* \"contracts/GetSchiffyAirdrop.sol\":4668:4678  msg.sender */\n      caller\n        /* \"contracts/GetSchiffyAirdrop.sol\":22192:22214  buyCount[_msgSender()] */\n      0x00\n      swap1\n      dup2\n      mstore\n        /* \"contracts/GetSchiffyAirdrop.sol\":22192:22200  buyCount */\n      0x0b\n        /* \"contracts/GetSchiffyAirdrop.sol\":22192:22214  buyCount[_msgSender()] */\n      0x20\n      mstore\n      0x40\n      swap1\n      keccak256\n      sload\n        /* \"contracts/GetSchiffyAirdrop.sol\":22192:22221  buyCount[_msgSender()].add(1) */\n      tag_189\n      swap1\n        /* \"contracts/GetSchiffyAirdrop.sol\":22219:22220  1 */\n      0x01\n        /* \"contracts/GetSchiffyAirdrop.sol\":22192:22218  buyCount[_msgSender()].add */\n      tag_188\n        /* \"contracts/GetSchiffyAirdrop.sol\":22192:22221  buyCount[_msgSender()].add(1) */\n      jump\t// in\n    tag_189:\n        /* \"contracts/GetSchiffyAirdrop.sol\":4668:4678  msg.sender */\n      caller\n        /* \"contracts/GetSchiffyAirdrop.sol\":22167:22189  buyCount[_msgSender()] */\n      0x00\n      swap1\n      dup2\n      mstore\n        /* \"contracts/GetSchiffyAirdrop.sol\":22167:22175  buyCount */\n      0x0b\n        /* \"contracts/GetSchiffyAirdrop.sol\":22167:22189  buyCount[_msgSender()] */\n      0x20\n      mstore\n      0x40\n      swap1\n      keccak256\n        /* \"contracts/GetSchiffyAirdrop.sol\":22167:22221  buyCount[_msgSender()] = buyCount[_msgSender()].add(1) */\n      sstore\n        /* \"contracts/GetSchiffyAirdrop.sol\":22243:22252  totalSold */\n      sload(0x0e)\n        /* \"contracts/GetSchiffyAirdrop.sol\":22243:22276  totalSold.add(amountTransferable) */\n      tag_192\n      swap1\n        /* \"contracts/GetSchiffyAirdrop.sol\":22257:22275  amountTransferable */\n      dup3\n        /* \"contracts/GetSchiffyAirdrop.sol\":22243:22256  totalSold.add */\n      tag_188\n        /* \"contracts/GetSchiffyAirdrop.sol\":22243:22276  totalSold.add(amountTransferable) */\n      jump\t// in\n    tag_192:\n        /* \"contracts/GetSchiffyAirdrop.sol\":22231:22240  totalSold */\n      0x0e\n        /* \"contracts/GetSchiffyAirdrop.sol\":22231:22276  totalSold = totalSold.add(amountTransferable) */\n      sstore\n        /* \"contracts/GetSchiffyAirdrop.sol\":22286:22295  busdToken */\n      and(sub(shl(0xa0, 0x01), 0x01), sload(0x04))\n        /* \"contracts/GetSchiffyAirdrop.sol\":22286:22308  busdToken.transferFrom */\n      0x23b872dd\n        /* \"contracts/GetSchiffyAirdrop.sol\":4668:4678  msg.sender */\n      caller\n        /* \"contracts/GetSchiffyAirdrop.sol\":22323:22329  wallet */\n      sload(0x05)\n        /* \"contracts/GetSchiffyAirdrop.sol\":22286:22338  busdToken.transferFrom(_msgSender(), wallet, amount) */\n      mload(0x40)\n      0xe0\n      dup5\n      swap1\n      shl\n      not(sub(shl(0xe0, 0x01), 0x01))\n      and\n      dup2\n      mstore\n      sub(shl(0xa0, 0x01), 0x01)\n        /* \"#utility.yul\":2859:2874   */\n      swap3\n      dup4\n      and\n        /* \"contracts/GetSchiffyAirdrop.sol\":22286:22338  busdToken.transferFrom(_msgSender(), wallet, amount) */\n      0x04\n      dup3\n      add\n        /* \"#utility.yul\":2841:2875   */\n      mstore\n        /* \"contracts/GetSchiffyAirdrop.sol\":22323:22329  wallet */\n      swap2\n      and\n        /* \"#utility.yul\":2891:2909   */\n      0x24\n      dup3\n      add\n        /* \"#utility.yul\":2884:2927   */\n      mstore\n        /* \"#utility.yul\":2943:2961   */\n      0x44\n      dup2\n      add\n        /* \"#utility.yul\":2936:2970   */\n      dup6\n      swap1\n      mstore\n        /* \"#utility.yul\":2776:2794   */\n      0x64\n      add\n        /* \"contracts/GetSchiffyAirdrop.sol\":22286:22338  busdToken.transferFrom(_msgSender(), wallet, amount) */\n      0x20\n      mload(0x40)\n      dup1\n      dup4\n      sub\n      dup2\n      0x00\n      dup8\n      dup1\n      extcodesize\n      iszero\n      dup1\n      iszero\n      tag_196\n      jumpi\n      0x00\n      dup1\n      revert\n    tag_196:\n      pop\n      gas\n      call\n      iszero\n      dup1\n      iszero\n      tag_198\n      jumpi\n      returndatasize\n      0x00\n      dup1\n      returndatacopy\n      revert(0x00, returndatasize)\n    tag_198:\n      pop\n      pop\n      pop\n      pop\n      mload(0x40)\n      returndatasize\n      not(0x1f)\n      0x1f\n      dup3\n      add\n      and\n      dup3\n      add\n      dup1\n      0x40\n      mstore\n      pop\n      dup2\n      add\n      swap1\n      tag_199\n      swap2\n      swap1\n      tag_165\n      jump\t// in\n    tag_199:\n      pop\n        /* \"contracts/GetSchiffyAirdrop.sol\":22348:22353  token */\n      and(sub(shl(0xa0, 0x01), 0x01), sload(0x03))\n        /* \"contracts/GetSchiffyAirdrop.sol\":22348:22362  token.transfer */\n      0xa9059cbb\n        /* \"contracts/GetSchiffyAirdrop.sol\":4668:4678  msg.sender */\n      caller\n        /* \"contracts/GetSchiffyAirdrop.sol\":22348:22396  token.transfer(_msgSender(), amountTransferable) */\n      mload(0x40)\n      not(sub(shl(0xe0, 0x01), 0x01))\n      0xe0\n      dup5\n      swap1\n      shl\n      and\n      dup2\n      mstore\n      sub(shl(0xa0, 0x01), 0x01)\n        /* \"#utility.yul\":3181:3213   */\n      swap1\n      swap2\n      and\n        /* \"contracts/GetSchiffyAirdrop.sol\":22348:22396  token.transfer(_msgSender(), amountTransferable) */\n      0x04\n      dup3\n      add\n        /* \"#utility.yul\":3163:3214   */\n      mstore\n        /* \"#utility.yul\":3230:3248   */\n      0x24\n      dup2\n      add\n        /* \"#utility.yul\":3223:3257   */\n      dup5\n      swap1\n      mstore\n        /* \"#utility.yul\":3136:3154   */\n      0x44\n      add\n        /* \"contracts/GetSchiffyAirdrop.sol\":22348:22396  token.transfer(_msgSender(), amountTransferable) */\n      0x20\n      mload(0x40)\n      dup1\n      dup4\n      sub\n      dup2\n      0x00\n      dup8\n      dup1\n      extcodesize\n      iszero\n      dup1\n      iszero\n      tag_203\n      jumpi\n      0x00\n      dup1\n      revert\n    tag_203:\n      pop\n      gas\n      call\n      iszero\n      dup1\n      iszero\n      tag_205\n      jumpi\n      returndatasize\n      0x00\n      dup1\n      returndatacopy\n      revert(0x00, returndatasize)\n    tag_205:\n      pop\n      pop\n      pop\n      pop\n      mload(0x40)\n      returndatasize\n      not(0x1f)\n      0x1f\n      dup3\n      add\n      and\n      dup3\n      add\n      dup1\n      0x40\n      mstore\n      pop\n      dup2\n      add\n      swap1\n      tag_206\n      swap2\n      swap1\n      tag_165\n      jump\t// in\n    tag_206:\n      pop\n        /* \"contracts/GetSchiffyAirdrop.sol\":22412:22460  TokenPurchased(_msgSender(), amountTransferable) */\n      mload(0x40)\n        /* \"#utility.yul\":8666:8691   */\n      dup2\n      dup2\n      mstore\n        /* \"contracts/GetSchiffyAirdrop.sol\":4668:4678  msg.sender */\n      caller\n      swap1\n        /* \"contracts/GetSchiffyAirdrop.sol\":22412:22460  TokenPurchased(_msgSender(), amountTransferable) */\n      0x55c18555197c6574627cf460c66073d10aa05d412468800b7b71feeaf82ea92d\n      swap1\n        /* \"#utility.yul\":8654:8656   */\n      0x20\n        /* \"#utility.yul\":8639:8657   */\n      add\n        /* \"contracts/GetSchiffyAirdrop.sol\":22412:22460  TokenPurchased(_msgSender(), amountTransferable) */\n      mload(0x40)\n      dup1\n      swap2\n      sub\n      swap1\n      log2\n        /* \"contracts/GetSchiffyAirdrop.sol\":21780:22467  {... */\n      pop\n        /* \"contracts/GetSchiffyAirdrop.sol\":21737:22467  function buyToken(uint256 amount) external {... */\n      pop\n      jump\t// out\n        /* \"contracts/GetSchiffyAirdrop.sol\":20818:20932  function updateAirdropRate(uint256 newAirdropRate) external onlyOwner{... */\n    tag_54:\n        /* \"contracts/GetSchiffyAirdrop.sol\":5589:5595  _owner */\n      and(sub(shl(0xa0, 0x01), 0x01), sload(0x00))\n        /* \"contracts/GetSchiffyAirdrop.sol\":4668:4678  msg.sender */\n      caller\n        /* \"contracts/GetSchiffyAirdrop.sol\":5589:5611  _owner == _msgSender() */\n      eq\n        /* \"contracts/GetSchiffyAirdrop.sol\":5581:5648  require(_owner == _msgSender(), \"Ownable: caller is not the owner\") */\n      tag_211\n      jumpi\n      mload(0x40)\n      shl(0xe5, 0x461bcd)\n      dup2\n      mstore\n      0x04\n      add\n      tag_145\n      swap1\n      tag_146\n      jump\t// in\n    tag_211:\n        /* \"contracts/GetSchiffyAirdrop.sol\":20897:20908  airdropRate */\n      0x07\n        /* \"contracts/GetSchiffyAirdrop.sol\":20897:20925  airdropRate = newAirdropRate */\n      sstore\n        /* \"contracts/GetSchiffyAirdrop.sol\":20818:20932  function updateAirdropRate(uint256 newAirdropRate) external onlyOwner{... */\n      jump\t// out\n        /* \"contracts/GetSchiffyAirdrop.sol\":20234:20812  function claimAirdrop() external {... */\n    tag_60:\n        /* \"contracts/GetSchiffyAirdrop.sol\":20303:20316  airdropAmount */\n      sload(0x06)\n        /* \"contracts/GetSchiffyAirdrop.sol\":20285:20300  totalAirdropped */\n      sload(0x0f)\n        /* \"contracts/GetSchiffyAirdrop.sol\":20285:20316  totalAirdropped < airdropAmount */\n      lt\n        /* \"contracts/GetSchiffyAirdrop.sol\":20277:20356  require(totalAirdropped < airdropAmount, \"Not enough airdrop token available.\") */\n      tag_215\n      jumpi\n      mload(0x40)\n      shl(0xe5, 0x461bcd)\n      dup2\n      mstore\n        /* \"#utility.yul\":6746:6748   */\n      0x20\n        /* \"contracts/GetSchiffyAirdrop.sol\":20277:20356  require(totalAirdropped < airdropAmount, \"Not enough airdrop token available.\") */\n      0x04\n      dup3\n      add\n        /* \"#utility.yul\":6728:6749   */\n      mstore\n        /* \"#utility.yul\":6785:6787   */\n      0x23\n        /* \"#utility.yul\":6765:6783   */\n      0x24\n      dup3\n      add\n        /* \"#utility.yul\":6758:6788   */\n      mstore\n        /* \"#utility.yul\":6824:6858   */\n      0x4e6f7420656e6f7567682061697264726f7020746f6b656e20617661696c6162\n        /* \"#utility.yul\":6804:6822   */\n      0x44\n      dup3\n      add\n        /* \"#utility.yul\":6797:6859   */\n      mstore\n      shl(0xe9, 0x363297)\n        /* \"#utility.yul\":6875:6893   */\n      0x64\n      dup3\n      add\n        /* \"#utility.yul\":6868:6901   */\n      mstore\n        /* \"#utility.yul\":6918:6937   */\n      0x84\n      add\n        /* \"contracts/GetSchiffyAirdrop.sol\":20277:20356  require(totalAirdropped < airdropAmount, \"Not enough airdrop token available.\") */\n      tag_145\n        /* \"#utility.yul\":6544:6943   */\n      jump\n        /* \"contracts/GetSchiffyAirdrop.sol\":20277:20356  require(totalAirdropped < airdropAmount, \"Not enough airdrop token available.\") */\n    tag_215:\n        /* \"contracts/GetSchiffyAirdrop.sol\":20400:20403  500 */\n      0x01f4\n        /* \"contracts/GetSchiffyAirdrop.sol\":20374:20397  totalAirdropWalletCount */\n      sload(0x10)\n        /* \"contracts/GetSchiffyAirdrop.sol\":20374:20403  totalAirdropWalletCount < 500 */\n      lt\n        /* \"contracts/GetSchiffyAirdrop.sol\":20366:20434  require(totalAirdropWalletCount < 500, \"No airdrop spot ramaining.\") */\n      tag_218\n      jumpi\n      mload(0x40)\n      shl(0xe5, 0x461bcd)\n      dup2\n      mstore\n        /* \"#utility.yul\":5628:5630   */\n      0x20\n        /* \"contracts/GetSchiffyAirdrop.sol\":20366:20434  require(totalAirdropWalletCount < 500, \"No airdrop spot ramaining.\") */\n      0x04\n      dup3\n      add\n        /* \"#utility.yul\":5610:5631   */\n      mstore\n        /* \"#utility.yul\":5667:5669   */\n      0x1a\n        /* \"#utility.yul\":5647:5665   */\n      0x24\n      dup3\n      add\n        /* \"#utility.yul\":5640:5670   */\n      mstore\n        /* \"#utility.yul\":5706:5734   */\n      0x4e6f2061697264726f702073706f742072616d61696e696e672e000000000000\n        /* \"#utility.yul\":5686:5704   */\n      0x44\n      dup3\n      add\n        /* \"#utility.yul\":5679:5735   */\n      mstore\n        /* \"#utility.yul\":5752:5770   */\n      0x64\n      add\n        /* \"contracts/GetSchiffyAirdrop.sol\":20366:20434  require(totalAirdropWalletCount < 500, \"No airdrop spot ramaining.\") */\n      tag_145\n        /* \"#utility.yul\":5426:5776   */\n      jump\n        /* \"contracts/GetSchiffyAirdrop.sol\":20366:20434  require(totalAirdropWalletCount < 500, \"No airdrop spot ramaining.\") */\n    tag_218:\n        /* \"contracts/GetSchiffyAirdrop.sol\":4668:4678  msg.sender */\n      caller\n        /* \"contracts/GetSchiffyAirdrop.sol\":20453:20484  hasClaimedAirdrop[_msgSender()] */\n      0x00\n      swap1\n      dup2\n      mstore\n        /* \"contracts/GetSchiffyAirdrop.sol\":20453:20470  hasClaimedAirdrop */\n      0x11\n        /* \"contracts/GetSchiffyAirdrop.sol\":20453:20484  hasClaimedAirdrop[_msgSender()] */\n      0x20\n      mstore\n      0x40\n      swap1\n      keccak256\n      sload\n      0xff\n      and\n        /* \"contracts/GetSchiffyAirdrop.sol\":20452:20484  !hasClaimedAirdrop[_msgSender()] */\n      iszero\n        /* \"contracts/GetSchiffyAirdrop.sol\":20444:20524  require(!hasClaimedAirdrop[_msgSender()], \"Wallet has already claimed airdrop.\") */\n      tag_222\n      jumpi\n      mload(0x40)\n      shl(0xe5, 0x461bcd)\n      dup2\n      mstore\n        /* \"#utility.yul\":7914:7916   */\n      0x20\n        /* \"contracts/GetSchiffyAirdrop.sol\":20444:20524  require(!hasClaimedAirdrop[_msgSender()], \"Wallet has already claimed airdrop.\") */\n      0x04\n      dup3\n      add\n        /* \"#utility.yul\":7896:7917   */\n      mstore\n        /* \"#utility.yul\":7953:7955   */\n      0x23\n        /* \"#utility.yul\":7933:7951   */\n      0x24\n      dup3\n      add\n        /* \"#utility.yul\":7926:7956   */\n      mstore\n        /* \"#utility.yul\":7992:8026   */\n      0x57616c6c65742068617320616c726561647920636c61696d6564206169726472\n        /* \"#utility.yul\":7972:7990   */\n      0x44\n      dup3\n      add\n        /* \"#utility.yul\":7965:8027   */\n      mstore\n      shl(0xe9, 0x37b817)\n        /* \"#utility.yul\":8043:8061   */\n      0x64\n      dup3\n      add\n        /* \"#utility.yul\":8036:8069   */\n      mstore\n        /* \"#utility.yul\":8086:8105   */\n      0x84\n      add\n        /* \"contracts/GetSchiffyAirdrop.sol\":20444:20524  require(!hasClaimedAirdrop[_msgSender()], \"Wallet has already claimed airdrop.\") */\n      tag_145\n        /* \"#utility.yul\":7712:8111   */\n      jump\n        /* \"contracts/GetSchiffyAirdrop.sol\":20444:20524  require(!hasClaimedAirdrop[_msgSender()], \"Wallet has already claimed airdrop.\") */\n    tag_222:\n        /* \"contracts/GetSchiffyAirdrop.sol\":4668:4678  msg.sender */\n      caller\n        /* \"contracts/GetSchiffyAirdrop.sol\":20534:20565  hasClaimedAirdrop[_msgSender()] */\n      0x00\n      swap1\n      dup2\n      mstore\n        /* \"contracts/GetSchiffyAirdrop.sol\":20534:20551  hasClaimedAirdrop */\n      0x11\n        /* \"contracts/GetSchiffyAirdrop.sol\":20534:20565  hasClaimedAirdrop[_msgSender()] */\n      0x20\n      mstore\n      0x40\n      swap1\n      keccak256\n        /* \"contracts/GetSchiffyAirdrop.sol\":20534:20572  hasClaimedAirdrop[_msgSender()] = true */\n      dup1\n      sload\n      not(0xff)\n      and\n        /* \"contracts/GetSchiffyAirdrop.sol\":20568:20572  true */\n      0x01\n        /* \"contracts/GetSchiffyAirdrop.sol\":20534:20572  hasClaimedAirdrop[_msgSender()] = true */\n      or\n      swap1\n      sstore\n        /* \"contracts/GetSchiffyAirdrop.sol\":20620:20631  airdropRate */\n      sload(0x07)\n        /* \"contracts/GetSchiffyAirdrop.sol\":20600:20615  totalAirdropped */\n      sload(0x0f)\n        /* \"contracts/GetSchiffyAirdrop.sol\":20600:20632  totalAirdropped.add(airdropRate) */\n      tag_226\n      swap2\n        /* \"contracts/GetSchiffyAirdrop.sol\":20600:20619  totalAirdropped.add */\n      tag_188\n        /* \"contracts/GetSchiffyAirdrop.sol\":20600:20632  totalAirdropped.add(airdropRate) */\n      jump\t// in\n    tag_226:\n        /* \"contracts/GetSchiffyAirdrop.sol\":20582:20597  totalAirdropped */\n      0x0f\n        /* \"contracts/GetSchiffyAirdrop.sol\":20582:20632  totalAirdropped = totalAirdropped.add(airdropRate) */\n      sstore\n        /* \"contracts/GetSchiffyAirdrop.sol\":20668:20691  totalAirdropWalletCount */\n      sload(0x10)\n        /* \"contracts/GetSchiffyAirdrop.sol\":20668:20698  totalAirdropWalletCount.add(1) */\n      tag_227\n      swap1\n        /* \"contracts/GetSchiffyAirdrop.sol\":20696:20697  1 */\n      0x01\n        /* \"contracts/GetSchiffyAirdrop.sol\":20668:20695  totalAirdropWalletCount.add */\n      tag_188\n        /* \"contracts/GetSchiffyAirdrop.sol\":20668:20698  totalAirdropWalletCount.add(1) */\n      jump\t// in\n    tag_227:\n        /* \"contracts/GetSchiffyAirdrop.sol\":20642:20665  totalAirdropWalletCount */\n      0x10\n        /* \"contracts/GetSchiffyAirdrop.sol\":20642:20698  totalAirdropWalletCount = totalAirdropWalletCount.add(1) */\n      sstore\n        /* \"contracts/GetSchiffyAirdrop.sol\":20708:20713  token */\n      and(sub(shl(0xa0, 0x01), 0x01), sload(0x03))\n        /* \"contracts/GetSchiffyAirdrop.sol\":20708:20722  token.transfer */\n      0xa9059cbb\n        /* \"contracts/GetSchiffyAirdrop.sol\":4668:4678  msg.sender */\n      caller\n        /* \"contracts/GetSchiffyAirdrop.sol\":20737:20748  airdropRate */\n      sload(0x07)\n        /* \"contracts/GetSchiffyAirdrop.sol\":20708:20749  token.transfer(_msgSender(), airdropRate) */\n      mload(0x40)\n      not(sub(shl(0xe0, 0x01), 0x01))\n      0xe0\n      dup6\n      swap1\n      shl\n      and\n      dup2\n      mstore\n      sub(shl(0xa0, 0x01), 0x01)\n        /* \"#utility.yul\":3181:3213   */\n      swap1\n      swap3\n      and\n        /* \"contracts/GetSchiffyAirdrop.sol\":20708:20749  token.transfer(_msgSender(), airdropRate) */\n      0x04\n      dup4\n      add\n        /* \"#utility.yul\":3163:3214   */\n      mstore\n        /* \"#utility.yul\":3230:3248   */\n      0x24\n      dup3\n      add\n        /* \"#utility.yul\":3223:3257   */\n      mstore\n        /* \"#utility.yul\":3136:3154   */\n      0x44\n      add\n        /* \"contracts/GetSchiffyAirdrop.sol\":20708:20749  token.transfer(_msgSender(), airdropRate) */\n      0x20\n      mload(0x40)\n      dup1\n      dup4\n      sub\n      dup2\n      0x00\n      dup8\n      dup1\n      extcodesize\n      iszero\n      dup1\n      iszero\n      tag_230\n      jumpi\n      0x00\n      dup1\n      revert\n    tag_230:\n      pop\n      gas\n      call\n      iszero\n      dup1\n      iszero\n      tag_232\n      jumpi\n      returndatasize\n      0x00\n      dup1\n      returndatacopy\n      revert(0x00, returndatasize)\n    tag_232:\n      pop\n      pop\n      pop\n      pop\n      mload(0x40)\n      returndatasize\n      not(0x1f)\n      0x1f\n      dup3\n      add\n      and\n      dup3\n      add\n      dup1\n      0x40\n      mstore\n      pop\n      dup2\n      add\n      swap1\n      tag_233\n      swap2\n      swap1\n      tag_165\n      jump\t// in\n    tag_233:\n      pop\n        /* \"contracts/GetSchiffyAirdrop.sol\":20793:20804  airdropRate */\n      sload(0x07)\n        /* \"contracts/GetSchiffyAirdrop.sol\":20764:20805  ClaimedAirdrop(_msgSender(), airdropRate) */\n      mload(0x40)\n        /* \"#utility.yul\":8666:8691   */\n      swap1\n      dup2\n      mstore\n        /* \"contracts/GetSchiffyAirdrop.sol\":4668:4678  msg.sender */\n      caller\n      swap1\n        /* \"contracts/GetSchiffyAirdrop.sol\":20764:20805  ClaimedAirdrop(_msgSender(), airdropRate) */\n      0x83265b23c474cc19d093563d55ac9f2ed482ac7bf0b34628271110c11db9f9e6\n      swap1\n        /* \"#utility.yul\":8654:8656   */\n      0x20\n        /* \"#utility.yul\":8639:8657   */\n      add\n        /* \"contracts/GetSchiffyAirdrop.sol\":20764:20805  ClaimedAirdrop(_msgSender(), airdropRate) */\n      mload(0x40)\n      dup1\n      swap2\n      sub\n      swap1\n      log2\n        /* \"contracts/GetSchiffyAirdrop.sol\":20234:20812  function claimAirdrop() external {... */\n      jump\t// out\n        /* \"contracts/GetSchiffyAirdrop.sol\":21409:21533  function updateTotalAvailableBuyCount(uint256 newCount) external onlyOwner {... */\n    tag_63:\n        /* \"contracts/GetSchiffyAirdrop.sol\":5589:5595  _owner */\n      and(sub(shl(0xa0, 0x01), 0x01), sload(0x00))\n        /* \"contracts/GetSchiffyAirdrop.sol\":4668:4678  msg.sender */\n      caller\n        /* \"contracts/GetSchiffyAirdrop.sol\":5589:5611  _owner == _msgSender() */\n      eq\n        /* \"contracts/GetSchiffyAirdrop.sol\":5581:5648  require(_owner == _msgSender(), \"Ownable: caller is not the owner\") */\n      tag_238\n      jumpi\n      mload(0x40)\n      shl(0xe5, 0x461bcd)\n      dup2\n      mstore\n      0x04\n      add\n      tag_145\n      swap1\n      tag_146\n      jump\t// in\n    tag_238:\n        /* \"contracts/GetSchiffyAirdrop.sol\":21494:21515  totalAvailbleBuyCount */\n      0x0d\n        /* \"contracts/GetSchiffyAirdrop.sol\":21494:21526  totalAvailbleBuyCount = newCount */\n      sstore\n        /* \"contracts/GetSchiffyAirdrop.sol\":21409:21533  function updateTotalAvailableBuyCount(uint256 newCount) external onlyOwner {... */\n      jump\t// out\n        /* \"contracts/GetSchiffyAirdrop.sol\":6009:6154  function renounceOwnership() public virtual onlyOwner {... */\n    tag_69:\n        /* \"contracts/GetSchiffyAirdrop.sol\":5589:5595  _owner */\n      and(sub(shl(0xa0, 0x01), 0x01), sload(0x00))\n        /* \"contracts/GetSchiffyAirdrop.sol\":4668:4678  msg.sender */\n      caller\n        /* \"contracts/GetSchiffyAirdrop.sol\":5589:5611  _owner == _msgSender() */\n      eq\n        /* \"contracts/GetSchiffyAirdrop.sol\":5581:5648  require(_owner == _msgSender(), \"Ownable: caller is not the owner\") */\n      tag_243\n      jumpi\n      mload(0x40)\n      shl(0xe5, 0x461bcd)\n      dup2\n      mstore\n      0x04\n      add\n      tag_145\n      swap1\n      tag_146\n      jump\t// in\n    tag_243:\n        /* \"contracts/GetSchiffyAirdrop.sol\":6115:6116  0 */\n      0x00\n        /* \"contracts/GetSchiffyAirdrop.sol\":6099:6105  _owner */\n      dup1\n      sload\n        /* \"contracts/GetSchiffyAirdrop.sol\":6078:6118  OwnershipTransferred(_owner, address(0)) */\n      mload(0x40)\n      sub(shl(0xa0, 0x01), 0x01)\n        /* \"contracts/GetSchiffyAirdrop.sol\":6099:6105  _owner */\n      swap1\n      swap2\n      and\n      swap1\n      0x00\n      dup1\n      mload\n      0x20\n      data_9c064737b570a74c2bac5d21056d93ac53115214216cd14d4a0fc9b60be81231\n      dup4\n      codecopy\n      dup2\n      mload\n      swap2\n      mstore\n        /* \"contracts/GetSchiffyAirdrop.sol\":6078:6118  OwnershipTransferred(_owner, address(0)) */\n      swap1\n        /* \"contracts/GetSchiffyAirdrop.sol\":6115:6116  0 */\n      dup4\n      swap1\n        /* \"contracts/GetSchiffyAirdrop.sol\":6078:6118  OwnershipTransferred(_owner, address(0)) */\n      log3\n        /* \"contracts/GetSchiffyAirdrop.sol\":6145:6146  0 */\n      0x00\n        /* \"contracts/GetSchiffyAirdrop.sol\":6128:6147  _owner = address(0) */\n      dup1\n      sload\n      not(sub(shl(0xa0, 0x01), 0x01))\n      and\n      swap1\n      sstore\n        /* \"contracts/GetSchiffyAirdrop.sol\":6009:6154  function renounceOwnership() public virtual onlyOwner {... */\n      jump\t// out\n        /* \"contracts/GetSchiffyAirdrop.sol\":7003:7303  function unlock() public virtual {... */\n    tag_88:\n        /* \"contracts/GetSchiffyAirdrop.sol\":7054:7068  _previousOwner */\n      and(sub(shl(0xa0, 0x01), 0x01), sload(0x01))\n        /* \"contracts/GetSchiffyAirdrop.sol\":7072:7082  msg.sender */\n      caller\n        /* \"contracts/GetSchiffyAirdrop.sol\":7054:7082  _previousOwner == msg.sender */\n      eq\n        /* \"contracts/GetSchiffyAirdrop.sol\":7046:7122  require(_previousOwner == msg.sender, \"You don't have permission to unlock\") */\n      tag_248\n      jumpi\n      mload(0x40)\n      shl(0xe5, 0x461bcd)\n      dup2\n      mstore\n        /* \"#utility.yul\":8318:8320   */\n      0x20\n        /* \"contracts/GetSchiffyAirdrop.sol\":7046:7122  require(_previousOwner == msg.sender, \"You don't have permission to unlock\") */\n      0x04\n      dup3\n      add\n        /* \"#utility.yul\":8300:8321   */\n      mstore\n        /* \"#utility.yul\":8357:8359   */\n      0x23\n        /* \"#utility.yul\":8337:8355   */\n      0x24\n      dup3\n      add\n        /* \"#utility.yul\":8330:8360   */\n      mstore\n        /* \"#utility.yul\":8396:8430   */\n      0x596f7520646f6e27742068617665207065726d697373696f6e20746f20756e6c\n        /* \"#utility.yul\":8376:8394   */\n      0x44\n      dup3\n      add\n        /* \"#utility.yul\":8369:8431   */\n      mstore\n      shl(0xe8, 0x6f636b)\n        /* \"#utility.yul\":8447:8465   */\n      0x64\n      dup3\n      add\n        /* \"#utility.yul\":8440:8473   */\n      mstore\n        /* \"#utility.yul\":8490:8509   */\n      0x84\n      add\n        /* \"contracts/GetSchiffyAirdrop.sol\":7046:7122  require(_previousOwner == msg.sender, \"You don't have permission to unlock\") */\n      tag_145\n        /* \"#utility.yul\":8116:8515   */\n      jump\n        /* \"contracts/GetSchiffyAirdrop.sol\":7046:7122  require(_previousOwner == msg.sender, \"You don't have permission to unlock\") */\n    tag_248:\n        /* \"contracts/GetSchiffyAirdrop.sol\":7158:7167  _lockTime */\n      sload(0x02)\n        /* \"contracts/GetSchiffyAirdrop.sol\":7140:7155  block.timestamp */\n      timestamp\n        /* \"contracts/GetSchiffyAirdrop.sol\":7140:7167  block.timestamp > _lockTime */\n      gt\n        /* \"contracts/GetSchiffyAirdrop.sol\":7132:7204  require(block.timestamp > _lockTime , \"Contract is locked until 7 days\") */\n      tag_251\n      jumpi\n      mload(0x40)\n      shl(0xe5, 0x461bcd)\n      dup2\n      mstore\n        /* \"#utility.yul\":7554:7556   */\n      0x20\n        /* \"contracts/GetSchiffyAirdrop.sol\":7132:7204  require(block.timestamp > _lockTime , \"Contract is locked until 7 days\") */\n      0x04\n      dup3\n      add\n        /* \"#utility.yul\":7536:7557   */\n      mstore\n        /* \"#utility.yul\":7593:7595   */\n      0x1f\n        /* \"#utility.yul\":7573:7591   */\n      0x24\n      dup3\n      add\n        /* \"#utility.yul\":7566:7596   */\n      mstore\n        /* \"#utility.yul\":7632:7665   */\n      0x436f6e7472616374206973206c6f636b656420756e74696c2037206461797300\n        /* \"#utility.yul\":7612:7630   */\n      0x44\n      dup3\n      add\n        /* \"#utility.yul\":7605:7666   */\n      mstore\n        /* \"#utility.yul\":7683:7701   */\n      0x64\n      add\n        /* \"contracts/GetSchiffyAirdrop.sol\":7132:7204  require(block.timestamp > _lockTime , \"Contract is locked until 7 days\") */\n      tag_145\n        /* \"#utility.yul\":7352:7707   */\n      jump\n        /* \"contracts/GetSchiffyAirdrop.sol\":7132:7204  require(block.timestamp > _lockTime , \"Contract is locked until 7 days\") */\n    tag_251:\n        /* \"contracts/GetSchiffyAirdrop.sol\":7248:7262  _previousOwner */\n      sload(0x01)\n      0x00\n        /* \"contracts/GetSchiffyAirdrop.sol\":7240:7246  _owner */\n      dup1\n      sload\n        /* \"contracts/GetSchiffyAirdrop.sol\":7219:7263  OwnershipTransferred(_owner, _previousOwner) */\n      mload(0x40)\n      sub(shl(0xa0, 0x01), 0x01)\n        /* \"contracts/GetSchiffyAirdrop.sol\":7248:7262  _previousOwner */\n      swap4\n      dup5\n      and\n      swap4\n        /* \"contracts/GetSchiffyAirdrop.sol\":7240:7246  _owner */\n      swap1\n      swap2\n      and\n      swap2\n      0x00\n      dup1\n      mload\n      0x20\n      data_9c064737b570a74c2bac5d21056d93ac53115214216cd14d4a0fc9b60be81231\n      dup4\n      codecopy\n      dup2\n      mload\n      swap2\n      mstore\n        /* \"contracts/GetSchiffyAirdrop.sol\":7219:7263  OwnershipTransferred(_owner, _previousOwner) */\n      swap2\n      log3\n        /* \"contracts/GetSchiffyAirdrop.sol\":7282:7296  _previousOwner */\n      sload(0x01)\n      0x00\n        /* \"contracts/GetSchiffyAirdrop.sol\":7273:7296  _owner = _previousOwner */\n      dup1\n      sload\n      not(sub(shl(0xa0, 0x01), 0x01))\n      and\n      sub(shl(0xa0, 0x01), 0x01)\n        /* \"contracts/GetSchiffyAirdrop.sol\":7282:7296  _previousOwner */\n      swap1\n      swap3\n      and\n        /* \"contracts/GetSchiffyAirdrop.sol\":7273:7296  _owner = _previousOwner */\n      swap2\n      swap1\n      swap2\n      or\n      swap1\n      sstore\n        /* \"contracts/GetSchiffyAirdrop.sol\":7003:7303  function unlock() public virtual {... */\n      jump\t// out\n        /* \"contracts/GetSchiffyAirdrop.sol\":21221:21403  function updateSellRates(uint256 newRate1, uint256 newRate2, uint256 newRate3) external onlyOwner{... */\n    tag_92:\n        /* \"contracts/GetSchiffyAirdrop.sol\":5589:5595  _owner */\n      and(sub(shl(0xa0, 0x01), 0x01), sload(0x00))\n        /* \"contracts/GetSchiffyAirdrop.sol\":4668:4678  msg.sender */\n      caller\n        /* \"contracts/GetSchiffyAirdrop.sol\":5589:5611  _owner == _msgSender() */\n      eq\n        /* \"contracts/GetSchiffyAirdrop.sol\":5581:5648  require(_owner == _msgSender(), \"Ownable: caller is not the owner\") */\n      tag_256\n      jumpi\n      mload(0x40)\n      shl(0xe5, 0x461bcd)\n      dup2\n      mstore\n      0x04\n      add\n      tag_145\n      swap1\n      tag_146\n      jump\t// in\n    tag_256:\n        /* \"contracts/GetSchiffyAirdrop.sol\":21328:21333  rate1 */\n      0x08\n        /* \"contracts/GetSchiffyAirdrop.sol\":21328:21344  rate1 = newRate1 */\n      swap3\n      swap1\n      swap3\n      sstore\n        /* \"contracts/GetSchiffyAirdrop.sol\":21354:21359  rate2 */\n      0x09\n        /* \"contracts/GetSchiffyAirdrop.sol\":21354:21370  rate2 = newRate2 */\n      sstore\n        /* \"contracts/GetSchiffyAirdrop.sol\":21380:21385  rate3 */\n      0x0a\n        /* \"contracts/GetSchiffyAirdrop.sol\":21380:21396  rate3 = newRate3 */\n      sstore\n        /* \"contracts/GetSchiffyAirdrop.sol\":21221:21403  function updateSellRates(uint256 newRate1, uint256 newRate2, uint256 newRate3) external onlyOwner{... */\n      jump\t// out\n        /* \"contracts/GetSchiffyAirdrop.sol\":6742:6930  function lock(uint256 time) public virtual onlyOwner {... */\n    tag_107:\n        /* \"contracts/GetSchiffyAirdrop.sol\":5589:5595  _owner */\n      and(sub(shl(0xa0, 0x01), 0x01), sload(0x00))\n        /* \"contracts/GetSchiffyAirdrop.sol\":4668:4678  msg.sender */\n      caller\n        /* \"contracts/GetSchiffyAirdrop.sol\":5589:5611  _owner == _msgSender() */\n      eq\n        /* \"contracts/GetSchiffyAirdrop.sol\":5581:5648  require(_owner == _msgSender(), \"Ownable: caller is not the owner\") */\n      tag_262\n      jumpi\n      mload(0x40)\n      shl(0xe5, 0x461bcd)\n      dup2\n      mstore\n      0x04\n      add\n      tag_145\n      swap1\n      tag_146\n      jump\t// in\n    tag_262:\n        /* \"contracts/GetSchiffyAirdrop.sol\":6822:6823  0 */\n      0x00\n        /* \"contracts/GetSchiffyAirdrop.sol\":6805:6824  _owner = address(0) */\n      dup1\n      sload\n      not(sub(shl(0xa0, 0x01), 0x01))\n      and\n      swap1\n      sstore\n        /* \"contracts/GetSchiffyAirdrop.sol\":6846:6868  block.timestamp + time */\n      tag_265\n        /* \"contracts/GetSchiffyAirdrop.sol\":6864:6868  time */\n      dup2\n        /* \"contracts/GetSchiffyAirdrop.sol\":6846:6861  block.timestamp */\n      timestamp\n        /* \"contracts/GetSchiffyAirdrop.sol\":6846:6868  block.timestamp + time */\n      tag_266\n      jump\t// in\n    tag_265:\n        /* \"contracts/GetSchiffyAirdrop.sol\":6834:6843  _lockTime */\n      0x02\n        /* \"contracts/GetSchiffyAirdrop.sol\":6834:6868  _lockTime = block.timestamp + time */\n      sstore\n        /* \"contracts/GetSchiffyAirdrop.sol\":6920:6921  0 */\n      0x00\n        /* \"contracts/GetSchiffyAirdrop.sol\":6904:6910  _owner */\n      dup1\n      sload\n        /* \"contracts/GetSchiffyAirdrop.sol\":6883:6923  OwnershipTransferred(_owner, address(0)) */\n      mload(0x40)\n      sub(shl(0xa0, 0x01), 0x01)\n        /* \"contracts/GetSchiffyAirdrop.sol\":6904:6910  _owner */\n      swap1\n      swap2\n      and\n      swap1\n      0x00\n      dup1\n      mload\n      0x20\n      data_9c064737b570a74c2bac5d21056d93ac53115214216cd14d4a0fc9b60be81231\n      dup4\n      codecopy\n      dup2\n      mload\n      swap2\n      mstore\n        /* \"contracts/GetSchiffyAirdrop.sol\":6883:6923  OwnershipTransferred(_owner, address(0)) */\n      swap1\n        /* \"contracts/GetSchiffyAirdrop.sol\":6920:6921  0 */\n      dup4\n      swap1\n        /* \"contracts/GetSchiffyAirdrop.sol\":6883:6923  OwnershipTransferred(_owner, address(0)) */\n      log3\n        /* \"contracts/GetSchiffyAirdrop.sol\":6742:6930  function lock(uint256 time) public virtual onlyOwner {... */\n      pop\n      jump\t// out\n        /* \"contracts/GetSchiffyAirdrop.sol\":21070:21215  function updateTokens(IERC20 newToken, IERC20 newBusdToken) external onlyOwner{... */\n    tag_115:\n        /* \"contracts/GetSchiffyAirdrop.sol\":5589:5595  _owner */\n      and(sub(shl(0xa0, 0x01), 0x01), sload(0x00))\n        /* \"contracts/GetSchiffyAirdrop.sol\":4668:4678  msg.sender */\n      caller\n        /* \"contracts/GetSchiffyAirdrop.sol\":5589:5611  _owner == _msgSender() */\n      eq\n        /* \"contracts/GetSchiffyAirdrop.sol\":5581:5648  require(_owner == _msgSender(), \"Ownable: caller is not the owner\") */\n      tag_269\n      jumpi\n      mload(0x40)\n      shl(0xe5, 0x461bcd)\n      dup2\n      mstore\n      0x04\n      add\n      tag_145\n      swap1\n      tag_146\n      jump\t// in\n    tag_269:\n        /* \"contracts/GetSchiffyAirdrop.sol\":21158:21163  token */\n      0x03\n        /* \"contracts/GetSchiffyAirdrop.sol\":21158:21174  token = newToken */\n      dup1\n      sload\n      sub(shl(0xa0, 0x01), 0x01)\n      swap4\n      dup5\n      and\n      not(sub(shl(0xa0, 0x01), 0x01))\n      swap2\n      dup3\n      and\n      or\n      swap1\n      swap2\n      sstore\n        /* \"contracts/GetSchiffyAirdrop.sol\":21184:21193  busdToken */\n      0x04\n        /* \"contracts/GetSchiffyAirdrop.sol\":21184:21208  busdToken = newBusdToken */\n      dup1\n      sload\n      swap3\n      swap1\n      swap4\n      and\n      swap2\n      and\n      or\n      swap1\n      sstore\n        /* \"contracts/GetSchiffyAirdrop.sol\":21070:21215  function updateTokens(IERC20 newToken, IERC20 newBusdToken) external onlyOwner{... */\n      jump\t// out\n        /* \"contracts/GetSchiffyAirdrop.sol\":22473:22597  function adminClaimTokens() external onlyOwner {... */\n    tag_117:\n        /* \"contracts/GetSchiffyAirdrop.sol\":5589:5595  _owner */\n      and(sub(shl(0xa0, 0x01), 0x01), sload(0x00))\n        /* \"contracts/GetSchiffyAirdrop.sol\":4668:4678  msg.sender */\n      caller\n        /* \"contracts/GetSchiffyAirdrop.sol\":5589:5611  _owner == _msgSender() */\n      eq\n        /* \"contracts/GetSchiffyAirdrop.sol\":5581:5648  require(_owner == _msgSender(), \"Ownable: caller is not the owner\") */\n      tag_274\n      jumpi\n      mload(0x40)\n      shl(0xe5, 0x461bcd)\n      dup2\n      mstore\n      0x04\n      add\n      tag_145\n      swap1\n      tag_146\n      jump\t// in\n    tag_274:\n        /* \"contracts/GetSchiffyAirdrop.sol\":22530:22535  token */\n      and(sub(shl(0xa0, 0x01), 0x01), sload(0x03))\n        /* \"contracts/GetSchiffyAirdrop.sol\":22530:22544  token.transfer */\n      0xa9059cbb\n        /* \"contracts/GetSchiffyAirdrop.sol\":4668:4678  msg.sender */\n      caller\n        /* \"contracts/GetSchiffyAirdrop.sol\":22559:22564  token */\n      sload(0x03)\n        /* \"contracts/GetSchiffyAirdrop.sol\":22559:22589  token.balanceOf(address(this)) */\n      mload(0x40)\n      shl(0xe0, 0x70a08231)\n      dup2\n      mstore\n        /* \"contracts/GetSchiffyAirdrop.sol\":22583:22587  this */\n      address\n        /* \"contracts/GetSchiffyAirdrop.sol\":22559:22589  token.balanceOf(address(this)) */\n      0x04\n      dup3\n      add\n        /* \"#utility.yul\":2214:2265   */\n      mstore\n      sub(shl(0xa0, 0x01), 0x01)\n        /* \"contracts/GetSchiffyAirdrop.sol\":22559:22564  token */\n      swap1\n      swap2\n      and\n      swap1\n        /* \"contracts/GetSchiffyAirdrop.sol\":22559:22574  token.balanceOf */\n      0x70a08231\n      swap1\n        /* \"#utility.yul\":2187:2205   */\n      0x24\n      add\n        /* \"contracts/GetSchiffyAirdrop.sol\":22559:22589  token.balanceOf(address(this)) */\n      0x20\n      mload(0x40)\n      dup1\n      dup4\n      sub\n      dup2\n      dup7\n      dup1\n      extcodesize\n      iszero\n      dup1\n      iszero\n      tag_279\n      jumpi\n      0x00\n      dup1\n      revert\n    tag_279:\n      pop\n      gas\n      staticcall\n      iszero\n      dup1\n      iszero\n      tag_281\n      jumpi\n      returndatasize\n      0x00\n      dup1\n      returndatacopy\n      revert(0x00, returndatasize)\n    tag_281:\n      pop\n      pop\n      pop\n      pop\n      mload(0x40)\n      returndatasize\n      not(0x1f)\n      0x1f\n      dup3\n      add\n      and\n      dup3\n      add\n      dup1\n      0x40\n      mstore\n      pop\n      dup2\n      add\n      swap1\n      tag_282\n      swap2\n      swap1\n      tag_158\n      jump\t// in\n    tag_282:\n        /* \"contracts/GetSchiffyAirdrop.sol\":22530:22590  token.transfer(_msgSender(), token.balanceOf(address(this))) */\n      mload(0x40)\n      not(sub(shl(0xe0, 0x01), 0x01))\n      0xe0\n      dup6\n      swap1\n      shl\n      and\n      dup2\n      mstore\n      sub(shl(0xa0, 0x01), 0x01)\n        /* \"#utility.yul\":3181:3213   */\n      swap1\n      swap3\n      and\n        /* \"contracts/GetSchiffyAirdrop.sol\":22530:22590  token.transfer(_msgSender(), token.balanceOf(address(this))) */\n      0x04\n      dup4\n      add\n        /* \"#utility.yul\":3163:3214   */\n      mstore\n        /* \"#utility.yul\":3230:3248   */\n      0x24\n      dup3\n      add\n        /* \"#utility.yul\":3223:3257   */\n      mstore\n        /* \"#utility.yul\":3136:3154   */\n      0x44\n      add\n        /* \"contracts/GetSchiffyAirdrop.sol\":22530:22590  token.transfer(_msgSender(), token.balanceOf(address(this))) */\n      0x20\n      mload(0x40)\n      dup1\n      dup4\n      sub\n      dup2\n      0x00\n      dup8\n      dup1\n      extcodesize\n      iszero\n      dup1\n      iszero\n      tag_284\n      jumpi\n      0x00\n      dup1\n      revert\n    tag_284:\n      pop\n      gas\n      call\n      iszero\n      dup1\n      iszero\n      tag_286\n      jumpi\n      returndatasize\n      0x00\n      dup1\n      returndatacopy\n      revert(0x00, returndatasize)\n    tag_286:\n      pop\n      pop\n      pop\n      pop\n      mload(0x40)\n      returndatasize\n      not(0x1f)\n      0x1f\n      dup3\n      add\n      and\n      dup3\n      add\n      dup1\n      0x40\n      mstore\n      pop\n      dup2\n      add\n      swap1\n      tag_287\n      swap2\n      swap1\n      tag_165\n      jump\t// in\n    tag_287:\n      pop\n        /* \"contracts/GetSchiffyAirdrop.sol\":22473:22597  function adminClaimTokens() external onlyOwner {... */\n      jump\t// out\n        /* \"contracts/GetSchiffyAirdrop.sol\":6303:6576  function transferOwnership(address newOwner) public virtual onlyOwner {... */\n    tag_120:\n        /* \"contracts/GetSchiffyAirdrop.sol\":5589:5595  _owner */\n      and(sub(shl(0xa0, 0x01), 0x01), sload(0x00))\n        /* \"contracts/GetSchiffyAirdrop.sol\":4668:4678  msg.sender */\n      caller\n        /* \"contracts/GetSchiffyAirdrop.sol\":5589:5611  _owner == _msgSender() */\n      eq\n        /* \"contracts/GetSchiffyAirdrop.sol\":5581:5648  require(_owner == _msgSender(), \"Ownable: caller is not the owner\") */\n      tag_290\n      jumpi\n      mload(0x40)\n      shl(0xe5, 0x461bcd)\n      dup2\n      mstore\n      0x04\n      add\n      tag_145\n      swap1\n      tag_146\n      jump\t// in\n    tag_290:\n      sub(shl(0xa0, 0x01), 0x01)\n        /* \"contracts/GetSchiffyAirdrop.sol\":6391:6413  newOwner != address(0) */\n      dup2\n      and\n        /* \"contracts/GetSchiffyAirdrop.sol\":6383:6456  require(newOwner != address(0), \"Ownable: new owner is the zero address\") */\n      tag_293\n      jumpi\n      mload(0x40)\n      shl(0xe5, 0x461bcd)\n      dup2\n      mstore\n        /* \"#utility.yul\":4510:4512   */\n      0x20\n        /* \"contracts/GetSchiffyAirdrop.sol\":6383:6456  require(newOwner != address(0), \"Ownable: new owner is the zero address\") */\n      0x04\n      dup3\n      add\n        /* \"#utility.yul\":4492:4513   */\n      mstore\n        /* \"#utility.yul\":4549:4551   */\n      0x26\n        /* \"#utility.yul\":4529:4547   */\n      0x24\n      dup3\n      add\n        /* \"#utility.yul\":4522:4552   */\n      mstore\n        /* \"#utility.yul\":4588:4622   */\n      0x4f776e61626c653a206e6577206f776e657220697320746865207a65726f2061\n        /* \"#utility.yul\":4568:4586   */\n      0x44\n      dup3\n      add\n        /* \"#utility.yul\":4561:4623   */\n      mstore\n      shl(0xd0, 0x646472657373)\n        /* \"#utility.yul\":4639:4657   */\n      0x64\n      dup3\n      add\n        /* \"#utility.yul\":4632:4668   */\n      mstore\n        /* \"#utility.yul\":4685:4704   */\n      0x84\n      add\n        /* \"contracts/GetSchiffyAirdrop.sol\":6383:6456  require(newOwner != address(0), \"Ownable: new owner is the zero address\") */\n      tag_145\n        /* \"#utility.yul\":4308:4710   */\n      jump\n        /* \"contracts/GetSchiffyAirdrop.sol\":6383:6456  require(newOwner != address(0), \"Ownable: new owner is the zero address\") */\n    tag_293:\n        /* \"contracts/GetSchiffyAirdrop.sol\":6492:6498  _owner */\n      0x00\n      dup1\n      sload\n        /* \"contracts/GetSchiffyAirdrop.sol\":6471:6509  OwnershipTransferred(_owner, newOwner) */\n      mload(0x40)\n      sub(shl(0xa0, 0x01), 0x01)\n      dup1\n      dup6\n      and\n      swap4\n        /* \"contracts/GetSchiffyAirdrop.sol\":6492:6498  _owner */\n      swap3\n      and\n      swap2\n      0x00\n      dup1\n      mload\n      0x20\n      data_9c064737b570a74c2bac5d21056d93ac53115214216cd14d4a0fc9b60be81231\n      dup4\n      codecopy\n      dup2\n      mload\n      swap2\n      mstore\n        /* \"contracts/GetSchiffyAirdrop.sol\":6471:6509  OwnershipTransferred(_owner, newOwner) */\n      swap2\n      log3\n        /* \"contracts/GetSchiffyAirdrop.sol\":6536:6542  _owner */\n      0x00\n      dup1\n      sload\n      0x01\n        /* \"contracts/GetSchiffyAirdrop.sol\":6519:6542  _previousOwner = _owner */\n      dup1\n      sload\n      sub(shl(0xa0, 0x01), 0x01)\n        /* \"contracts/GetSchiffyAirdrop.sol\":6536:6542  _owner */\n      dup1\n      dup5\n      and\n      not(sub(shl(0xa0, 0x01), 0x01))\n        /* \"contracts/GetSchiffyAirdrop.sol\":6519:6542  _previousOwner = _owner */\n      swap3\n      dup4\n      and\n      or\n      swap1\n      swap3\n      sstore\n        /* \"contracts/GetSchiffyAirdrop.sol\":6552:6569  _owner = newOwner */\n      swap1\n      swap2\n      and\n      swap3\n      and\n      swap2\n      swap1\n      swap2\n      or\n      swap1\n      sstore\n        /* \"contracts/GetSchiffyAirdrop.sol\":6303:6576  function transferOwnership(address newOwner) public virtual onlyOwner {... */\n      jump\t// out\n        /* \"contracts/GetSchiffyAirdrop.sol\":21539:21731  function buyRate() public view returns(uint256) {... */\n    tag_139:\n        /* \"contracts/GetSchiffyAirdrop.sol\":21578:21585  uint256 */\n      0x00\n        /* \"contracts/GetSchiffyAirdrop.sol\":21617:21620  150 */\n      0x96\n        /* \"contracts/GetSchiffyAirdrop.sol\":21600:21613  totalBuyCount */\n      sload(0x0c)\n        /* \"contracts/GetSchiffyAirdrop.sol\":21600:21620  totalBuyCount >= 150 */\n      lt\n        /* \"contracts/GetSchiffyAirdrop.sol\":21597:21634  if(totalBuyCount >= 150) return rate3 */\n      tag_297\n      jumpi\n      pop\n        /* \"contracts/GetSchiffyAirdrop.sol\":21629:21634  rate3 */\n      sload(0x0a)\n      swap1\n        /* \"contracts/GetSchiffyAirdrop.sol\":21539:21731  function buyRate() public view returns(uint256) {... */\n      jump\t// out\n        /* \"contracts/GetSchiffyAirdrop.sol\":21597:21634  if(totalBuyCount >= 150) return rate3 */\n    tag_297:\n        /* \"contracts/GetSchiffyAirdrop.sol\":21663:21665  50 */\n      0x32\n        /* \"contracts/GetSchiffyAirdrop.sol\":21647:21660  totalBuyCount */\n      sload(0x0c)\n        /* \"contracts/GetSchiffyAirdrop.sol\":21647:21665  totalBuyCount >=50 */\n      lt\n      iszero\n        /* \"contracts/GetSchiffyAirdrop.sol\":21647:21688  totalBuyCount >=50 && totalBuyCount < 150 */\n      dup1\n      iszero\n      tag_298\n      jumpi\n      pop\n        /* \"contracts/GetSchiffyAirdrop.sol\":21685:21688  150 */\n      0x96\n        /* \"contracts/GetSchiffyAirdrop.sol\":21669:21682  totalBuyCount */\n      sload(0x0c)\n        /* \"contracts/GetSchiffyAirdrop.sol\":21669:21688  totalBuyCount < 150 */\n      lt\n        /* \"contracts/GetSchiffyAirdrop.sol\":21647:21688  totalBuyCount >=50 && totalBuyCount < 150 */\n    tag_298:\n        /* \"contracts/GetSchiffyAirdrop.sol\":21644:21702  if(totalBuyCount >=50 && totalBuyCount < 150) return rate2 */\n      iszero\n      tag_299\n      jumpi\n      pop\n        /* \"contracts/GetSchiffyAirdrop.sol\":21697:21702  rate2 */\n      sload(0x09)\n      swap1\n        /* \"contracts/GetSchiffyAirdrop.sol\":21539:21731  function buyRate() public view returns(uint256) {... */\n      jump\t// out\n        /* \"contracts/GetSchiffyAirdrop.sol\":21644:21702  if(totalBuyCount >=50 && totalBuyCount < 150) return rate2 */\n    tag_299:\n      pop\n        /* \"contracts/GetSchiffyAirdrop.sol\":21719:21724  rate1 */\n      sload(0x08)\n      swap1\n        /* \"contracts/GetSchiffyAirdrop.sol\":21539:21731  function buyRate() public view returns(uint256) {... */\n      jump\t// out\n        /* \"contracts/GetSchiffyAirdrop.sol\":1459:1918  function mul(uint256 a, uint256 b) internal pure returns (uint256) {... */\n    tag_186:\n        /* \"contracts/GetSchiffyAirdrop.sol\":1517:1524  uint256 */\n      0x00\n        /* \"contracts/GetSchiffyAirdrop.sol\":1758:1764  a == 0 */\n      dup3\n        /* \"contracts/GetSchiffyAirdrop.sol\":1754:1799  if (a == 0) {... */\n      tag_302\n      jumpi\n      pop\n        /* \"contracts/GetSchiffyAirdrop.sol\":1787:1788  0 */\n      0x00\n        /* \"contracts/GetSchiffyAirdrop.sol\":1780:1788  return 0 */\n      jump(tag_301)\n        /* \"contracts/GetSchiffyAirdrop.sol\":1754:1799  if (a == 0) {... */\n    tag_302:\n        /* \"contracts/GetSchiffyAirdrop.sol\":1809:1818  uint256 c */\n      0x00\n        /* \"contracts/GetSchiffyAirdrop.sol\":1821:1826  a * b */\n      tag_303\n        /* \"contracts/GetSchiffyAirdrop.sol\":1825:1826  b */\n      dup4\n        /* \"contracts/GetSchiffyAirdrop.sol\":1821:1822  a */\n      dup6\n        /* \"contracts/GetSchiffyAirdrop.sol\":1821:1826  a * b */\n      tag_304\n      jump\t// in\n    tag_303:\n        /* \"contracts/GetSchiffyAirdrop.sol\":1809:1826  uint256 c = a * b */\n      swap1\n      pop\n        /* \"contracts/GetSchiffyAirdrop.sol\":1853:1854  b */\n      dup3\n        /* \"contracts/GetSchiffyAirdrop.sol\":1844:1849  c / a */\n      tag_305\n        /* \"contracts/GetSchiffyAirdrop.sol\":1848:1849  a */\n      dup6\n        /* \"contracts/GetSchiffyAirdrop.sol\":1809:1826  uint256 c = a * b */\n      dup4\n        /* \"contracts/GetSchiffyAirdrop.sol\":1844:1849  c / a */\n      tag_306\n      jump\t// in\n    tag_305:\n        /* \"contracts/GetSchiffyAirdrop.sol\":1844:1854  c / a == b */\n      eq\n        /* \"contracts/GetSchiffyAirdrop.sol\":1836:1892  require(c / a == b, \"SafeMath: multiplication overflow\") */\n      tag_307\n      jumpi\n      mload(0x40)\n      shl(0xe5, 0x461bcd)\n      dup2\n      mstore\n        /* \"#utility.yul\":5983:5985   */\n      0x20\n        /* \"contracts/GetSchiffyAirdrop.sol\":1836:1892  require(c / a == b, \"SafeMath: multiplication overflow\") */\n      0x04\n      dup3\n      add\n        /* \"#utility.yul\":5965:5986   */\n      mstore\n        /* \"#utility.yul\":6022:6024   */\n      0x21\n        /* \"#utility.yul\":6002:6020   */\n      0x24\n      dup3\n      add\n        /* \"#utility.yul\":5995:6025   */\n      mstore\n        /* \"#utility.yul\":6061:6095   */\n      0x536166654d6174683a206d756c7469706c69636174696f6e206f766572666c6f\n        /* \"#utility.yul\":6041:6059   */\n      0x44\n      dup3\n      add\n        /* \"#utility.yul\":6034:6096   */\n      mstore\n      shl(0xf8, 0x77)\n        /* \"#utility.yul\":6112:6130   */\n      0x64\n      dup3\n      add\n        /* \"#utility.yul\":6105:6136   */\n      mstore\n        /* \"#utility.yul\":6153:6172   */\n      0x84\n      add\n        /* \"contracts/GetSchiffyAirdrop.sol\":1836:1892  require(c / a == b, \"SafeMath: multiplication overflow\") */\n      tag_145\n        /* \"#utility.yul\":5781:6178   */\n      jump\n        /* \"contracts/GetSchiffyAirdrop.sol\":1836:1892  require(c / a == b, \"SafeMath: multiplication overflow\") */\n    tag_307:\n        /* \"contracts/GetSchiffyAirdrop.sol\":1910:1911  c */\n      swap1\n      pop\n        /* \"contracts/GetSchiffyAirdrop.sol\":1459:1918  function mul(uint256 a, uint256 b) internal pure returns (uint256) {... */\n    tag_301:\n      swap3\n      swap2\n      pop\n      pop\n      jump\t// out\n        /* \"contracts/GetSchiffyAirdrop.sol\":914:1090  function add(uint256 a, uint256 b) internal pure returns (uint256) {... */\n    tag_188:\n        /* \"contracts/GetSchiffyAirdrop.sol\":972:979  uint256 */\n      0x00\n      dup1\n        /* \"contracts/GetSchiffyAirdrop.sol\":1003:1008  a + b */\n      tag_311\n        /* \"contracts/GetSchiffyAirdrop.sol\":1007:1008  b */\n      dup4\n        /* \"contracts/GetSchiffyAirdrop.sol\":1003:1004  a */\n      dup6\n        /* \"contracts/GetSchiffyAirdrop.sol\":1003:1008  a + b */\n      tag_266\n      jump\t// in\n    tag_311:\n        /* \"contracts/GetSchiffyAirdrop.sol\":991:1008  uint256 c = a + b */\n      swap1\n      pop\n        /* \"contracts/GetSchiffyAirdrop.sol\":1031:1032  a */\n      dup4\n        /* \"contracts/GetSchiffyAirdrop.sol\":1026:1027  c */\n      dup2\n        /* \"contracts/GetSchiffyAirdrop.sol\":1026:1032  c >= a */\n      lt\n      iszero\n        /* \"contracts/GetSchiffyAirdrop.sol\":1018:1064  require(c >= a, \"SafeMath: addition overflow\") */\n      tag_307\n      jumpi\n      mload(0x40)\n      shl(0xe5, 0x461bcd)\n      dup2\n      mstore\n        /* \"#utility.yul\":5272:5274   */\n      0x20\n        /* \"contracts/GetSchiffyAirdrop.sol\":1018:1064  require(c >= a, \"SafeMath: addition overflow\") */\n      0x04\n      dup3\n      add\n        /* \"#utility.yul\":5254:5275   */\n      mstore\n        /* \"#utility.yul\":5311:5313   */\n      0x1b\n        /* \"#utility.yul\":5291:5309   */\n      0x24\n      dup3\n      add\n        /* \"#utility.yul\":5284:5314   */\n      mstore\n        /* \"#utility.yul\":5350:5379   */\n      0x536166654d6174683a206164646974696f6e206f766572666c6f770000000000\n        /* \"#utility.yul\":5330:5348   */\n      0x44\n      dup3\n      add\n        /* \"#utility.yul\":5323:5380   */\n      mstore\n        /* \"#utility.yul\":5397:5415   */\n      0x64\n      add\n        /* \"contracts/GetSchiffyAirdrop.sol\":1018:1064  require(c >= a, \"SafeMath: addition overflow\") */\n      tag_145\n        /* \"#utility.yul\":5070:5421   */\n      jump\n        /* \"#utility.yul\":14:261   */\n    tag_84:\n        /* \"#utility.yul\":73:79   */\n      0x00\n        /* \"#utility.yul\":126:128   */\n      0x20\n        /* \"#utility.yul\":114:123   */\n      dup3\n        /* \"#utility.yul\":105:112   */\n      dup5\n        /* \"#utility.yul\":101:124   */\n      sub\n        /* \"#utility.yul\":97:129   */\n      slt\n        /* \"#utility.yul\":94:146   */\n      iszero\n      tag_317\n      jumpi\n        /* \"#utility.yul\":142:143   */\n      0x00\n        /* \"#utility.yul\":139:140   */\n      dup1\n        /* \"#utility.yul\":132:144   */\n      revert\n        /* \"#utility.yul\":94:146   */\n    tag_317:\n        /* \"#utility.yul\":181:190   */\n      dup2\n        /* \"#utility.yul\":168:191   */\n      calldataload\n        /* \"#utility.yul\":200:231   */\n      tag_307\n        /* \"#utility.yul\":225:230   */\n      dup2\n        /* \"#utility.yul\":200:231   */\n      tag_319\n      jump\t// in\n        /* \"#utility.yul\":266:543   */\n    tag_165:\n        /* \"#utility.yul\":333:339   */\n      0x00\n        /* \"#utility.yul\":386:388   */\n      0x20\n        /* \"#utility.yul\":374:383   */\n      dup3\n        /* \"#utility.yul\":365:372   */\n      dup5\n        /* \"#utility.yul\":361:384   */\n      sub\n        /* \"#utility.yul\":357:389   */\n      slt\n        /* \"#utility.yul\":354:406   */\n      iszero\n      tag_321\n      jumpi\n        /* \"#utility.yul\":402:403   */\n      0x00\n        /* \"#utility.yul\":399:400   */\n      dup1\n        /* \"#utility.yul\":392:404   */\n      revert\n        /* \"#utility.yul\":354:406   */\n    tag_321:\n        /* \"#utility.yul\":434:443   */\n      dup2\n        /* \"#utility.yul\":428:444   */\n      mload\n        /* \"#utility.yul\":487:492   */\n      dup1\n        /* \"#utility.yul\":480:493   */\n      iszero\n        /* \"#utility.yul\":473:494   */\n      iszero\n        /* \"#utility.yul\":466:471   */\n      dup2\n        /* \"#utility.yul\":463:495   */\n      eq\n        /* \"#utility.yul\":453:513   */\n      tag_307\n      jumpi\n        /* \"#utility.yul\":509:510   */\n      0x00\n        /* \"#utility.yul\":506:507   */\n      dup1\n        /* \"#utility.yul\":499:511   */\n      revert\n        /* \"#utility.yul\":548:949   */\n    tag_47:\n        /* \"#utility.yul\":629:635   */\n      0x00\n        /* \"#utility.yul\":637:643   */\n      dup1\n        /* \"#utility.yul\":690:692   */\n      0x40\n        /* \"#utility.yul\":678:687   */\n      dup4\n        /* \"#utility.yul\":669:676   */\n      dup6\n        /* \"#utility.yul\":665:688   */\n      sub\n        /* \"#utility.yul\":661:693   */\n      slt\n        /* \"#utility.yul\":658:710   */\n      iszero\n      tag_324\n      jumpi\n        /* \"#utility.yul\":706:707   */\n      0x00\n        /* \"#utility.yul\":703:704   */\n      dup1\n        /* \"#utility.yul\":696:708   */\n      revert\n        /* \"#utility.yul\":658:710   */\n    tag_324:\n        /* \"#utility.yul\":745:754   */\n      dup3\n        /* \"#utility.yul\":732:755   */\n      calldataload\n        /* \"#utility.yul\":764:795   */\n      tag_325\n        /* \"#utility.yul\":789:794   */\n      dup2\n        /* \"#utility.yul\":764:795   */\n      tag_319\n      jump\t// in\n    tag_325:\n        /* \"#utility.yul\":814:819   */\n      swap2\n      pop\n        /* \"#utility.yul\":871:873   */\n      0x20\n        /* \"#utility.yul\":856:874   */\n      dup4\n      add\n        /* \"#utility.yul\":843:875   */\n      calldataload\n        /* \"#utility.yul\":884:917   */\n      tag_326\n        /* \"#utility.yul\":843:875   */\n      dup2\n        /* \"#utility.yul\":884:917   */\n      tag_319\n      jump\t// in\n    tag_326:\n        /* \"#utility.yul\":936:943   */\n      dup1\n        /* \"#utility.yul\":926:943   */\n      swap2\n      pop\n      pop\n        /* \"#utility.yul\":548:949   */\n      swap3\n      pop\n      swap3\n      swap1\n      pop\n      jump\t// out\n        /* \"#utility.yul\":1373:1553   */\n    tag_43:\n        /* \"#utility.yul\":1432:1438   */\n      0x00\n        /* \"#utility.yul\":1485:1487   */\n      0x20\n        /* \"#utility.yul\":1473:1482   */\n      dup3\n        /* \"#utility.yul\":1464:1471   */\n      dup5\n        /* \"#utility.yul\":1460:1483   */\n      sub\n        /* \"#utility.yul\":1456:1488   */\n      slt\n        /* \"#utility.yul\":1453:1505   */\n      iszero\n      tag_332\n      jumpi\n        /* \"#utility.yul\":1501:1502   */\n      0x00\n        /* \"#utility.yul\":1498:1499   */\n      dup1\n        /* \"#utility.yul\":1491:1503   */\n      revert\n        /* \"#utility.yul\":1453:1505   */\n    tag_332:\n      pop\n        /* \"#utility.yul\":1524:1547   */\n      calldataload\n      swap2\n        /* \"#utility.yul\":1373:1553   */\n      swap1\n      pop\n      jump\t// out\n        /* \"#utility.yul\":1558:1742   */\n    tag_158:\n        /* \"#utility.yul\":1628:1634   */\n      0x00\n        /* \"#utility.yul\":1681:1683   */\n      0x20\n        /* \"#utility.yul\":1669:1678   */\n      dup3\n        /* \"#utility.yul\":1660:1667   */\n      dup5\n        /* \"#utility.yul\":1656:1679   */\n      sub\n        /* \"#utility.yul\":1652:1684   */\n      slt\n        /* \"#utility.yul\":1649:1701   */\n      iszero\n      tag_334\n      jumpi\n        /* \"#utility.yul\":1697:1698   */\n      0x00\n        /* \"#utility.yul\":1694:1695   */\n      dup1\n        /* \"#utility.yul\":1687:1699   */\n      revert\n        /* \"#utility.yul\":1649:1701   */\n    tag_334:\n      pop\n        /* \"#utility.yul\":1720:1736   */\n      mload\n      swap2\n        /* \"#utility.yul\":1558:1742   */\n      swap1\n      pop\n      jump\t// out\n        /* \"#utility.yul\":1747:2063   */\n    tag_91:\n        /* \"#utility.yul\":1824:1830   */\n      0x00\n        /* \"#utility.yul\":1832:1838   */\n      dup1\n        /* \"#utility.yul\":1840:1846   */\n      0x00\n        /* \"#utility.yul\":1893:1895   */\n      0x60\n        /* \"#utility.yul\":1881:1890   */\n      dup5\n        /* \"#utility.yul\":1872:1879   */\n      dup7\n        /* \"#utility.yul\":1868:1891   */\n      sub\n        /* \"#utility.yul\":1864:1896   */\n      slt\n        /* \"#utility.yul\":1861:1913   */\n      iszero\n      tag_336\n      jumpi\n        /* \"#utility.yul\":1909:1910   */\n      0x00\n        /* \"#utility.yul\":1906:1907   */\n      dup1\n        /* \"#utility.yul\":1899:1911   */\n      revert\n        /* \"#utility.yul\":1861:1913   */\n    tag_336:\n      pop\n      pop\n        /* \"#utility.yul\":1932:1955   */\n      dup2\n      calldataload\n      swap4\n        /* \"#utility.yul\":2002:2004   */\n      0x20\n        /* \"#utility.yul\":1987:2005   */\n      dup4\n      add\n        /* \"#utility.yul\":1974:2006   */\n      calldataload\n      swap4\n      pop\n        /* \"#utility.yul\":2053:2055   */\n      0x40\n        /* \"#utility.yul\":2038:2056   */\n      swap1\n      swap3\n      add\n        /* \"#utility.yul\":2025:2057   */\n      calldataload\n      swap2\n        /* \"#utility.yul\":1747:2063   */\n      swap1\n      pop\n      jump\t// out\n        /* \"#utility.yul\":6183:6539   */\n    tag_146:\n        /* \"#utility.yul\":6385:6387   */\n      0x20\n        /* \"#utility.yul\":6367:6388   */\n      dup1\n      dup3\n      mstore\n        /* \"#utility.yul\":6404:6422   */\n      dup2\n      dup2\n      add\n        /* \"#utility.yul\":6397:6427   */\n      mstore\n        /* \"#utility.yul\":6463:6497   */\n      0x4f776e61626c653a2063616c6c6572206973206e6f7420746865206f776e6572\n        /* \"#utility.yul\":6458:6460   */\n      0x40\n        /* \"#utility.yul\":6443:6461   */\n      dup3\n      add\n        /* \"#utility.yul\":6436:6498   */\n      mstore\n        /* \"#utility.yul\":6530:6532   */\n      0x60\n        /* \"#utility.yul\":6515:6533   */\n      add\n      swap1\n        /* \"#utility.yul\":6183:6539   */\n      jump\t// out\n        /* \"#utility.yul\":8702:8830   */\n    tag_266:\n        /* \"#utility.yul\":8742:8745   */\n      0x00\n        /* \"#utility.yul\":8773:8774   */\n      dup3\n        /* \"#utility.yul\":8769:8775   */\n      not\n        /* \"#utility.yul\":8766:8767   */\n      dup3\n        /* \"#utility.yul\":8763:8776   */\n      gt\n        /* \"#utility.yul\":8760:8799   */\n      iszero\n      tag_359\n      jumpi\n        /* \"#utility.yul\":8779:8797   */\n      tag_359\n      tag_360\n      jump\t// in\n    tag_359:\n      pop\n        /* \"#utility.yul\":8815:8824   */\n      add\n      swap1\n        /* \"#utility.yul\":8702:8830   */\n      jump\t// out\n        /* \"#utility.yul\":8835:9052   */\n    tag_306:\n        /* \"#utility.yul\":8875:8876   */\n      0x00\n        /* \"#utility.yul\":8901:8902   */\n      dup3\n        /* \"#utility.yul\":8891:9023   */\n      tag_362\n      jumpi\n        /* \"#utility.yul\":8945:8955   */\n      0x4e487b71\n        /* \"#utility.yul\":8940:8943   */\n      0xe0\n        /* \"#utility.yul\":8936:8956   */\n      shl\n        /* \"#utility.yul\":8933:8934   */\n      0x00\n        /* \"#utility.yul\":8926:8957   */\n      mstore\n        /* \"#utility.yul\":8980:8984   */\n      0x12\n        /* \"#utility.yul\":8977:8978   */\n      0x04\n        /* \"#utility.yul\":8970:8985   */\n      mstore\n        /* \"#utility.yul\":9008:9012   */\n      0x24\n        /* \"#utility.yul\":9005:9006   */\n      0x00\n        /* \"#utility.yul\":8998:9013   */\n      revert\n        /* \"#utility.yul\":8891:9023   */\n    tag_362:\n      pop\n        /* \"#utility.yul\":9037:9046   */\n      div\n      swap1\n        /* \"#utility.yul\":8835:9052   */\n      jump\t// out\n        /* \"#utility.yul\":9057:9225   */\n    tag_304:\n        /* \"#utility.yul\":9097:9104   */\n      0x00\n        /* \"#utility.yul\":9163:9164   */\n      dup2\n        /* \"#utility.yul\":9159:9160   */\n      0x00\n        /* \"#utility.yul\":9155:9161   */\n      not\n        /* \"#utility.yul\":9151:9165   */\n      div\n        /* \"#utility.yul\":9148:9149   */\n      dup4\n        /* \"#utility.yul\":9145:9166   */\n      gt\n        /* \"#utility.yul\":9140:9141   */\n      dup3\n        /* \"#utility.yul\":9133:9142   */\n      iszero\n        /* \"#utility.yul\":9126:9143   */\n      iszero\n        /* \"#utility.yul\":9122:9167   */\n      and\n        /* \"#utility.yul\":9119:9190   */\n      iszero\n      tag_365\n      jumpi\n        /* \"#utility.yul\":9170:9188   */\n      tag_365\n      tag_360\n      jump\t// in\n    tag_365:\n      pop\n        /* \"#utility.yul\":9210:9219   */\n      mul\n      swap1\n        /* \"#utility.yul\":9057:9225   */\n      jump\t// out\n        /* \"#utility.yul\":9230:9357   */\n    tag_360:\n        /* \"#utility.yul\":9291:9301   */\n      0x4e487b71\n        /* \"#utility.yul\":9286:9289   */\n      0xe0\n        /* \"#utility.yul\":9282:9302   */\n      shl\n        /* \"#utility.yul\":9279:9280   */\n      0x00\n        /* \"#utility.yul\":9272:9303   */\n      mstore\n        /* \"#utility.yul\":9322:9326   */\n      0x11\n        /* \"#utility.yul\":9319:9320   */\n      0x04\n        /* \"#utility.yul\":9312:9327   */\n      mstore\n        /* \"#utility.yul\":9346:9350   */\n      0x24\n        /* \"#utility.yul\":9343:9344   */\n      0x00\n        /* \"#utility.yul\":9336:9351   */\n      revert\n        /* \"#utility.yul\":9362:9493   */\n    tag_319:\n      sub(shl(0xa0, 0x01), 0x01)\n        /* \"#utility.yul\":9437:9468   */\n      dup2\n      and\n        /* \"#utility.yul\":9427:9469   */\n      dup2\n      eq\n        /* \"#utility.yul\":9417:9487   */\n      tag_287\n      jumpi\n        /* \"#utility.yul\":9483:9484   */\n      0x00\n        /* \"#utility.yul\":9480:9481   */\n      dup1\n        /* \"#utility.yul\":9473:9485   */\n      revert\n    stop\n    data_9c064737b570a74c2bac5d21056d93ac53115214216cd14d4a0fc9b60be81231 8be0079c531659141344cd1fd0a4f28419497f9722a3daafe3b4186f6b6457e0\n\n    auxdata: 0xa2646970667358221220e447058e16a373711cce18c6142850627e0a95cb519d23966145f5bacc30df7964736f6c63430008070033\n}\n",
				"bytecode": {
					"linkReferences": {},
					"object": "60806040526a21165458500521280000006006556a108b2a2c28029094000000600755621e84806008556216e36060095562124f80600a5561028a600d5534801561004957600080fd5b50604051620014303803806200143083398101604081905261006a916100fa565b60008054336001600160a01b031991821681178355600180549092168117909155604051909182917f8be0079c531659141344cd1fd0a4f28419497f9722a3daafe3b4186f6b6457e0908290a350600580546001600160a01b039485166001600160a01b03199182161790915560038054938516938216939093179092556004805491909316911617905561015f565b60008060006060848603121561010f57600080fd5b835161011a81610147565b602085015190935061012b81610147565b604085015190925061013c81610147565b809150509250925092565b6001600160a01b038116811461015c57600080fd5b50565b6112c1806200016f6000396000f3fe608060405234801561001057600080fd5b50600436106101e45760003560e01c8063a9d1ff2e1161010f578063ef719a16116100a2578063f61101bd11610071578063f61101bd146103bb578063fc0c546a146103c4578063fc2ea8a5146103d7578063fc37987b146103e057600080fd5b8063ef719a1614610364578063f2fde38b1461036c578063f4cdda361461037f578063f555b815146103b257600080fd5b8063cf854969116100de578063cf85496914610322578063dd4670641461032b578063de0e70141461033e578063e7aa29e31461035157600080fd5b8063a9d1ff2e146102f5578063aff1f15f14610308578063b6c5232414610311578063ce6785801461031957600080fd5b806364142e99116101875780639106d7ba116101565780639106d7ba146102bb578063972a040a146102c45780639fefe7f4146102cd578063a69df4b5146102ed57600080fd5b806364142e9914610282578063715018a6146102995780638891cf0d146102a15780638da5cb5b146102aa57600080fd5b806336e820c2116101c357806336e820c214610224578063521eb273146102375780635b88349d14610267578063639d739a1461026f57600080fd5b806201d891146101e95780630f04cf24146101fe5780632d296bf114610211575b600080fd5b6101fc6101f7366004611154565b6103e8565b005b6101fc61020c36600461111b565b610420565b6101fc61021f366004611154565b61054e565b6101fc610232366004611154565b6108ad565b60055461024a906001600160a01b031681565b6040516001600160a01b0390911681526020015b60405180910390f35b6101fc6108dc565b6101fc61027d366004611154565b610b05565b61028b600c5481565b60405190815260200161025e565b6101fc610b34565b61028b60075481565b6000546001600160a01b031661024a565b61028b600e5481565b61028b600d5481565b61028b6102db3660046110dc565b600b6020526000908152604090205481565b6101fc610b96565b6101fc610303366004611186565b610c9c565b61028b600a5481565b60025461028b565b61028b600f5481565b61028b60085481565b6101fc610339366004611154565b610cd4565b60045461024a906001600160a01b031681565b6101fc61035f36600461111b565b610d44565b6101fc610d9c565b6101fc61037a3660046110dc565b610ed4565b6103a261038d3660046110dc565b60116020526000908152604090205460ff1681565b604051901515815260200161025e565b61028b60095481565b61028b60105481565b60035461024a906001600160a01b031681565b61028b60065481565b61028b610fba565b6000546001600160a01b0316331461041b5760405162461bcd60e51b8152600401610412906111b2565b60405180910390fd5b600655565b6000546001600160a01b0316331461044a5760405162461bcd60e51b8152600401610412906111b2565b6040516370a0823160e01b81523060048201526001600160a01b0383169063a9059cbb90839083906370a082319060240160206040518083038186803b15801561049357600080fd5b505afa1580156104a7573d6000803e3d6000fd5b505050506040513d601f19601f820116820180604052508101906104cb919061116d565b6040516001600160e01b031960e085901b1681526001600160a01b0390921660048301526024820152604401602060405180830381600087803b15801561051157600080fd5b505af1158015610525573d6000803e3d6000fd5b505050506040513d601f19601f8201168201806040525081019061054991906110f9565b505050565b600d54600c54106105975760405162461bcd60e51b8152602060048201526013602482015272213abc9038bab7ba329031b7b6b83632ba329760691b6044820152606401610412565b60045481906001600160a01b031663dd62ed3e336040516001600160e01b031960e084901b1681526001600160a01b03909116600482015230602482015260440160206040518083038186803b1580156105f057600080fd5b505afa158015610604573d6000803e3d6000fd5b505050506040513d601f19601f82011682018060405250810190610628919061116d565b10156106825760405162461bcd60e51b815260206004820152602360248201527f4e6f7420656e6f75676820616c6c6f77616e636520746f207370656e6420627560448201526239b21760e91b6064820152608401610412565b336000908152600b60205260409020546003116106e15760405162461bcd60e51b815260206004820152601a60248201527f57616c6c6574206275792071756f74652066696e69736865642e0000000000006044820152606401610412565b60006106f56106ee610fba565b8390610ff5565b600c5490915061070690600161107d565b600c55336000908152600b602052604090205461072490600161107d565b336000908152600b6020526040902055600e54610741908261107d565b600e556004546001600160a01b03166323b872dd3360055460405160e084901b6001600160e01b03191681526001600160a01b0392831660048201529116602482015260448101859052606401602060405180830381600087803b1580156107a857600080fd5b505af11580156107bc573d6000803e3d6000fd5b505050506040513d601f19601f820116820180604052508101906107e091906110f9565b506003546001600160a01b031663a9059cbb336040516001600160e01b031960e084901b1681526001600160a01b03909116600482015260248101849052604401602060405180830381600087803b15801561083b57600080fd5b505af115801561084f573d6000803e3d6000fd5b505050506040513d601f19601f8201168201806040525081019061087391906110f9565b5060405181815233907f55c18555197c6574627cf460c66073d10aa05d412468800b7b71feeaf82ea92d9060200160405180910390a25050565b6000546001600160a01b031633146108d75760405162461bcd60e51b8152600401610412906111b2565b600755565b600654600f541061093b5760405162461bcd60e51b815260206004820152602360248201527f4e6f7420656e6f7567682061697264726f7020746f6b656e20617661696c616260448201526236329760e91b6064820152608401610412565b6101f46010541061098e5760405162461bcd60e51b815260206004820152601a60248201527f4e6f2061697264726f702073706f742072616d61696e696e672e0000000000006044820152606401610412565b3360009081526011602052604090205460ff16156109fa5760405162461bcd60e51b815260206004820152602360248201527f57616c6c65742068617320616c726561647920636c61696d656420616972647260448201526237b81760e91b6064820152608401610412565b336000908152601160205260409020805460ff19166001179055600754600f54610a239161107d565b600f55601054610a3490600161107d565b6010556003546001600160a01b031663a9059cbb336007546040516001600160e01b031960e085901b1681526001600160a01b0390921660048301526024820152604401602060405180830381600087803b158015610a9257600080fd5b505af1158015610aa6573d6000803e3d6000fd5b505050506040513d601f19601f82011682018060405250810190610aca91906110f9565b5060075460405190815233907f83265b23c474cc19d093563d55ac9f2ed482ac7bf0b34628271110c11db9f9e69060200160405180910390a2565b6000546001600160a01b03163314610b2f5760405162461bcd60e51b8152600401610412906111b2565b600d55565b6000546001600160a01b03163314610b5e5760405162461bcd60e51b8152600401610412906111b2565b600080546040516001600160a01b039091169060008051602061126c833981519152908390a3600080546001600160a01b0319169055565b6001546001600160a01b03163314610bfc5760405162461bcd60e51b815260206004820152602360248201527f596f7520646f6e27742068617665207065726d697373696f6e20746f20756e6c6044820152626f636b60e81b6064820152608401610412565b6002544211610c4d5760405162461bcd60e51b815260206004820152601f60248201527f436f6e7472616374206973206c6f636b656420756e74696c20372064617973006044820152606401610412565b600154600080546040516001600160a01b03938416939091169160008051602061126c83398151915291a3600154600080546001600160a01b0319166001600160a01b03909216919091179055565b6000546001600160a01b03163314610cc65760405162461bcd60e51b8152600401610412906111b2565b600892909255600955600a55565b6000546001600160a01b03163314610cfe5760405162461bcd60e51b8152600401610412906111b2565b600080546001600160a01b0319169055610d1881426111e7565b600255600080546040516001600160a01b039091169060008051602061126c833981519152908390a350565b6000546001600160a01b03163314610d6e5760405162461bcd60e51b8152600401610412906111b2565b600380546001600160a01b039384166001600160a01b03199182161790915560048054929093169116179055565b6000546001600160a01b03163314610dc65760405162461bcd60e51b8152600401610412906111b2565b6003546001600160a01b031663a9059cbb336003546040516370a0823160e01b81523060048201526001600160a01b03909116906370a082319060240160206040518083038186803b158015610e1b57600080fd5b505afa158015610e2f573d6000803e3d6000fd5b505050506040513d601f19601f82011682018060405250810190610e53919061116d565b6040516001600160e01b031960e085901b1681526001600160a01b0390921660048301526024820152604401602060405180830381600087803b158015610e9957600080fd5b505af1158015610ead573d6000803e3d6000fd5b505050506040513d601f19601f82011682018060405250810190610ed191906110f9565b50565b6000546001600160a01b03163314610efe5760405162461bcd60e51b8152600401610412906111b2565b6001600160a01b038116610f635760405162461bcd60e51b815260206004820152602660248201527f4f776e61626c653a206e6577206f776e657220697320746865207a65726f206160448201526564647265737360d01b6064820152608401610412565b600080546040516001600160a01b038085169392169160008051602061126c83398151915291a360008054600180546001600160a01b038084166001600160a01b0319928316179092559091169216919091179055565b60006096600c5410610fcd5750600a5490565b6032600c5410158015610fe257506096600c54105b15610fee575060095490565b5060085490565b60008261100457506000611077565b60006110108385611221565b90508261101d85836111ff565b146110745760405162461bcd60e51b815260206004820152602160248201527f536166654d6174683a206d756c7469706c69636174696f6e206f766572666c6f6044820152607760f81b6064820152608401610412565b90505b92915050565b60008061108a83856111e7565b9050838110156110745760405162461bcd60e51b815260206004820152601b60248201527f536166654d6174683a206164646974696f6e206f766572666c6f7700000000006044820152606401610412565b6000602082840312156110ee57600080fd5b813561107481611256565b60006020828403121561110b57600080fd5b8151801515811461107457600080fd5b6000806040838503121561112e57600080fd5b823561113981611256565b9150602083013561114981611256565b809150509250929050565b60006020828403121561116657600080fd5b5035919050565b60006020828403121561117f57600080fd5b5051919050565b60008060006060848603121561119b57600080fd5b505081359360208301359350604090920135919050565b6020808252818101527f4f776e61626c653a2063616c6c6572206973206e6f7420746865206f776e6572604082015260600190565b600082198211156111fa576111fa611240565b500190565b60008261121c57634e487b7160e01b600052601260045260246000fd5b500490565b600081600019048311821515161561123b5761123b611240565b500290565b634e487b7160e01b600052601160045260246000fd5b6001600160a01b0381168114610ed157600080fdfe8be0079c531659141344cd1fd0a4f28419497f9722a3daafe3b4186f6b6457e0a2646970667358221220e447058e16a373711cce18c6142850627e0a95cb519d23966145f5bacc30df7964736f6c63430008070033",
					"opcodes": "PUSH1 0x80 PUSH1 0x40 MSTORE PUSH11 0x2116545850052128000000 PUSH1 0x6 SSTORE PUSH11 0x108B2A2C28029094000000 PUSH1 0x7 SSTORE PUSH3 0x1E8480 PUSH1 0x8 SSTORE PUSH3 0x16E360 PUSH1 0x9 SSTORE PUSH3 0x124F80 PUSH1 0xA SSTORE PUSH2 0x28A PUSH1 0xD SSTORE CALLVALUE DUP1 ISZERO PUSH2 0x49 JUMPI PUSH1 0x0 DUP1 REVERT JUMPDEST POP PUSH1 0x40 MLOAD PUSH3 0x1430 CODESIZE SUB DUP1 PUSH3 0x1430 DUP4 CODECOPY DUP2 ADD PUSH1 0x40 DUP2 SWAP1 MSTORE PUSH2 0x6A SWAP2 PUSH2 0xFA JUMP JUMPDEST PUSH1 0x0 DUP1 SLOAD CALLER PUSH1 0x1 PUSH1 0x1 PUSH1 0xA0 SHL SUB NOT SWAP2 DUP3 AND DUP2 OR DUP4 SSTORE PUSH1 0x1 DUP1 SLOAD SWAP1 SWAP3 AND DUP2 OR SWAP1 SWAP2 SSTORE PUSH1 0x40 MLOAD SWAP1 SWAP2 DUP3 SWAP2 PUSH32 0x8BE0079C531659141344CD1FD0A4F28419497F9722A3DAAFE3B4186F6B6457E0 SWAP1 DUP3 SWAP1 LOG3 POP PUSH1 0x5 DUP1 SLOAD PUSH1 0x1 PUSH1 0x1 PUSH1 0xA0 SHL SUB SWAP5 DUP6 AND PUSH1 0x1 PUSH1 0x1 PUSH1 0xA0 SHL SUB NOT SWAP2 DUP3 AND OR SWAP1 SWAP2 SSTORE PUSH1 0x3 DUP1 SLOAD SWAP4 DUP6 AND SWAP4 DUP3 AND SWAP4 SWAP1 SWAP4 OR SWAP1 SWAP3 SSTORE PUSH1 0x4 DUP1 SLOAD SWAP2 SWAP1 SWAP4 AND SWAP2 AND OR SWAP1 SSTORE PUSH2 0x15F JUMP JUMPDEST PUSH1 0x0 DUP1 PUSH1 0x0 PUSH1 0x60 DUP5 DUP7 SUB SLT ISZERO PUSH2 0x10F JUMPI PUSH1 0x0 DUP1 REVERT JUMPDEST DUP4 MLOAD PUSH2 0x11A DUP2 PUSH2 0x147 JUMP JUMPDEST PUSH1 0x20 DUP6 ADD MLOAD SWAP1 SWAP4 POP PUSH2 0x12B DUP2 PUSH2 0x147 JUMP JUMPDEST PUSH1 0x40 DUP6 ADD MLOAD SWAP1 SWAP3 POP PUSH2 0x13C DUP2 PUSH2 0x147 JUMP JUMPDEST DUP1 SWAP2 POP POP SWAP3 POP SWAP3 POP SWAP3 JUMP JUMPDEST PUSH1 0x1 PUSH1 0x1 PUSH1 0xA0 SHL SUB DUP2 AND DUP2 EQ PUSH2 0x15C JUMPI PUSH1 0x0 DUP1 REVERT JUMPDEST POP JUMP JUMPDEST PUSH2 0x12C1 DUP1 PUSH3 0x16F PUSH1 0x0 CODECOPY PUSH1 0x0 RETURN INVALID PUSH1 0x80 PUSH1 0x40 MSTORE CALLVALUE DUP1 ISZERO PUSH2 0x10 JUMPI PUSH1 0x0 DUP1 REVERT JUMPDEST POP PUSH1 0x4 CALLDATASIZE LT PUSH2 0x1E4 JUMPI PUSH1 0x0 CALLDATALOAD PUSH1 0xE0 SHR DUP1 PUSH4 0xA9D1FF2E GT PUSH2 0x10F JUMPI DUP1 PUSH4 0xEF719A16 GT PUSH2 0xA2 JUMPI DUP1 PUSH4 0xF61101BD GT PUSH2 0x71 JUMPI DUP1 PUSH4 0xF61101BD EQ PUSH2 0x3BB JUMPI DUP1 PUSH4 0xFC0C546A EQ PUSH2 0x3C4 JUMPI DUP1 PUSH4 0xFC2EA8A5 EQ PUSH2 0x3D7 JUMPI DUP1 PUSH4 0xFC37987B EQ PUSH2 0x3E0 JUMPI PUSH1 0x0 DUP1 REVERT JUMPDEST DUP1 PUSH4 0xEF719A16 EQ PUSH2 0x364 JUMPI DUP1 PUSH4 0xF2FDE38B EQ PUSH2 0x36C JUMPI DUP1 PUSH4 0xF4CDDA36 EQ PUSH2 0x37F JUMPI DUP1 PUSH4 0xF555B815 EQ PUSH2 0x3B2 JUMPI PUSH1 0x0 DUP1 REVERT JUMPDEST DUP1 PUSH4 0xCF854969 GT PUSH2 0xDE JUMPI DUP1 PUSH4 0xCF854969 EQ PUSH2 0x322 JUMPI DUP1 PUSH4 0xDD467064 EQ PUSH2 0x32B JUMPI DUP1 PUSH4 0xDE0E7014 EQ PUSH2 0x33E JUMPI DUP1 PUSH4 0xE7AA29E3 EQ PUSH2 0x351 JUMPI PUSH1 0x0 DUP1 REVERT JUMPDEST DUP1 PUSH4 0xA9D1FF2E EQ PUSH2 0x2F5 JUMPI DUP1 PUSH4 0xAFF1F15F EQ PUSH2 0x308 JUMPI DUP1 PUSH4 0xB6C52324 EQ PUSH2 0x311 JUMPI DUP1 PUSH4 0xCE678580 EQ PUSH2 0x319 JUMPI PUSH1 0x0 DUP1 REVERT JUMPDEST DUP1 PUSH4 0x64142E99 GT PUSH2 0x187 JUMPI DUP1 PUSH4 0x9106D7BA GT PUSH2 0x156 JUMPI DUP1 PUSH4 0x9106D7BA EQ PUSH2 0x2BB JUMPI DUP1 PUSH4 0x972A040A EQ PUSH2 0x2C4 JUMPI DUP1 PUSH4 0x9FEFE7F4 EQ PUSH2 0x2CD JUMPI DUP1 PUSH4 0xA69DF4B5 EQ PUSH2 0x2ED JUMPI PUSH1 0x0 DUP1 REVERT JUMPDEST DUP1 PUSH4 0x64142E99 EQ PUSH2 0x282 JUMPI DUP1 PUSH4 0x715018A6 EQ PUSH2 0x299 JUMPI DUP1 PUSH4 0x8891CF0D EQ PUSH2 0x2A1 JUMPI DUP1 PUSH4 0x8DA5CB5B EQ PUSH2 0x2AA JUMPI PUSH1 0x0 DUP1 REVERT JUMPDEST DUP1 PUSH4 0x36E820C2 GT PUSH2 0x1C3 JUMPI DUP1 PUSH4 0x36E820C2 EQ PUSH2 0x224 JUMPI DUP1 PUSH4 0x521EB273 EQ PUSH2 0x237 JUMPI DUP1 PUSH4 0x5B88349D EQ PUSH2 0x267 JUMPI DUP1 PUSH4 0x639D739A EQ PUSH2 0x26F JUMPI PUSH1 0x0 DUP1 REVERT JUMPDEST DUP1 PUSH3 0x1D891 EQ PUSH2 0x1E9 JUMPI DUP1 PUSH4 0xF04CF24 EQ PUSH2 0x1FE JUMPI DUP1 PUSH4 0x2D296BF1 EQ PUSH2 0x211 JUMPI JUMPDEST PUSH1 0x0 DUP1 REVERT JUMPDEST PUSH2 0x1FC PUSH2 0x1F7 CALLDATASIZE PUSH1 0x4 PUSH2 0x1154 JUMP JUMPDEST PUSH2 0x3E8 JUMP JUMPDEST STOP JUMPDEST PUSH2 0x1FC PUSH2 0x20C CALLDATASIZE PUSH1 0x4 PUSH2 0x111B JUMP JUMPDEST PUSH2 0x420 JUMP JUMPDEST PUSH2 0x1FC PUSH2 0x21F CALLDATASIZE PUSH1 0x4 PUSH2 0x1154 JUMP JUMPDEST PUSH2 0x54E JUMP JUMPDEST PUSH2 0x1FC PUSH2 0x232 CALLDATASIZE PUSH1 0x4 PUSH2 0x1154 JUMP JUMPDEST PUSH2 0x8AD JUMP JUMPDEST PUSH1 0x5 SLOAD PUSH2 0x24A SWAP1 PUSH1 0x1 PUSH1 0x1 PUSH1 0xA0 SHL SUB AND DUP2 JUMP JUMPDEST PUSH1 0x40 MLOAD PUSH1 0x1 PUSH1 0x1 PUSH1 0xA0 SHL SUB SWAP1 SWAP2 AND DUP2 MSTORE PUSH1 0x20 ADD JUMPDEST PUSH1 0x40 MLOAD DUP1 SWAP2 SUB SWAP1 RETURN JUMPDEST PUSH2 0x1FC PUSH2 0x8DC JUMP JUMPDEST PUSH2 0x1FC PUSH2 0x27D CALLDATASIZE PUSH1 0x4 PUSH2 0x1154 JUMP JUMPDEST PUSH2 0xB05 JUMP JUMPDEST PUSH2 0x28B PUSH1 0xC SLOAD DUP2 JUMP JUMPDEST PUSH1 0x40 MLOAD SWAP1 DUP2 MSTORE PUSH1 0x20 ADD PUSH2 0x25E JUMP JUMPDEST PUSH2 0x1FC PUSH2 0xB34 JUMP JUMPDEST PUSH2 0x28B PUSH1 0x7 SLOAD DUP2 JUMP JUMPDEST PUSH1 0x0 SLOAD PUSH1 0x1 PUSH1 0x1 PUSH1 0xA0 SHL SUB AND PUSH2 0x24A JUMP JUMPDEST PUSH2 0x28B PUSH1 0xE SLOAD DUP2 JUMP JUMPDEST PUSH2 0x28B PUSH1 0xD SLOAD DUP2 JUMP JUMPDEST PUSH2 0x28B PUSH2 0x2DB CALLDATASIZE PUSH1 0x4 PUSH2 0x10DC JUMP JUMPDEST PUSH1 0xB PUSH1 0x20 MSTORE PUSH1 0x0 SWAP1 DUP2 MSTORE PUSH1 0x40 SWAP1 KECCAK256 SLOAD DUP2 JUMP JUMPDEST PUSH2 0x1FC PUSH2 0xB96 JUMP JUMPDEST PUSH2 0x1FC PUSH2 0x303 CALLDATASIZE PUSH1 0x4 PUSH2 0x1186 JUMP JUMPDEST PUSH2 0xC9C JUMP JUMPDEST PUSH2 0x28B PUSH1 0xA SLOAD DUP2 JUMP JUMPDEST PUSH1 0x2 SLOAD PUSH2 0x28B JUMP JUMPDEST PUSH2 0x28B PUSH1 0xF SLOAD DUP2 JUMP JUMPDEST PUSH2 0x28B PUSH1 0x8 SLOAD DUP2 JUMP JUMPDEST PUSH2 0x1FC PUSH2 0x339 CALLDATASIZE PUSH1 0x4 PUSH2 0x1154 JUMP JUMPDEST PUSH2 0xCD4 JUMP JUMPDEST PUSH1 0x4 SLOAD PUSH2 0x24A SWAP1 PUSH1 0x1 PUSH1 0x1 PUSH1 0xA0 SHL SUB AND DUP2 JUMP JUMPDEST PUSH2 0x1FC PUSH2 0x35F CALLDATASIZE PUSH1 0x4 PUSH2 0x111B JUMP JUMPDEST PUSH2 0xD44 JUMP JUMPDEST PUSH2 0x1FC PUSH2 0xD9C JUMP JUMPDEST PUSH2 0x1FC PUSH2 0x37A CALLDATASIZE PUSH1 0x4 PUSH2 0x10DC JUMP JUMPDEST PUSH2 0xED4 JUMP JUMPDEST PUSH2 0x3A2 PUSH2 0x38D CALLDATASIZE PUSH1 0x4 PUSH2 0x10DC JUMP JUMPDEST PUSH1 0x11 PUSH1 0x20 MSTORE PUSH1 0x0 SWAP1 DUP2 MSTORE PUSH1 0x40 SWAP1 KECCAK256 SLOAD PUSH1 0xFF AND DUP2 JUMP JUMPDEST PUSH1 0x40 MLOAD SWAP1 ISZERO ISZERO DUP2 MSTORE PUSH1 0x20 ADD PUSH2 0x25E JUMP JUMPDEST PUSH2 0x28B PUSH1 0x9 SLOAD DUP2 JUMP JUMPDEST PUSH2 0x28B PUSH1 0x10 SLOAD DUP2 JUMP JUMPDEST PUSH1 0x3 SLOAD PUSH2 0x24A SWAP1 PUSH1 0x1 PUSH1 0x1 PUSH1 0xA0 SHL SUB AND DUP2 JUMP JUMPDEST PUSH2 0x28B PUSH1 0x6 SLOAD DUP2 JUMP JUMPDEST PUSH2 0x28B PUSH2 0xFBA JUMP JUMPDEST PUSH1 0x0 SLOAD PUSH1 0x1 PUSH1 0x1 PUSH1 0xA0 SHL SUB AND CALLER EQ PUSH2 0x41B JUMPI PUSH1 0x40 MLOAD PUSH3 0x461BCD PUSH1 0xE5 SHL DUP2 MSTORE PUSH1 0x4 ADD PUSH2 0x412 SWAP1 PUSH2 0x11B2 JUMP JUMPDEST PUSH1 0x40 MLOAD DUP1 SWAP2 SUB SWAP1 REVERT JUMPDEST PUSH1 0x6 SSTORE JUMP JUMPDEST PUSH1 0x0 SLOAD PUSH1 0x1 PUSH1 0x1 PUSH1 0xA0 SHL SUB AND CALLER EQ PUSH2 0x44A JUMPI PUSH1 0x40 MLOAD PUSH3 0x461BCD PUSH1 0xE5 SHL DUP2 MSTORE PUSH1 0x4 ADD PUSH2 0x412 SWAP1 PUSH2 0x11B2 JUMP JUMPDEST PUSH1 0x40 MLOAD PUSH4 0x70A08231 PUSH1 0xE0 SHL DUP2 MSTORE ADDRESS PUSH1 0x4 DUP3 ADD MSTORE PUSH1 0x1 PUSH1 0x1 PUSH1 0xA0 SHL SUB DUP4 AND SWAP1 PUSH4 0xA9059CBB SWAP1 DUP4 SWAP1 DUP4 SWAP1 PUSH4 0x70A08231 SWAP1 PUSH1 0x24 ADD PUSH1 0x20 PUSH1 0x40 MLOAD DUP1 DUP4 SUB DUP2 DUP7 DUP1 EXTCODESIZE ISZERO DUP1 ISZERO PUSH2 0x493 JUMPI PUSH1 0x0 DUP1 REVERT JUMPDEST POP GAS STATICCALL ISZERO DUP1 ISZERO PUSH2 0x4A7 JUMPI RETURNDATASIZE PUSH1 0x0 DUP1 RETURNDATACOPY RETURNDATASIZE PUSH1 0x0 REVERT JUMPDEST POP POP POP POP PUSH1 0x40 MLOAD RETURNDATASIZE PUSH1 0x1F NOT PUSH1 0x1F DUP3 ADD AND DUP3 ADD DUP1 PUSH1 0x40 MSTORE POP DUP2 ADD SWAP1 PUSH2 0x4CB SWAP2 SWAP1 PUSH2 0x116D JUMP JUMPDEST PUSH1 0x40 MLOAD PUSH1 0x1 PUSH1 0x1 PUSH1 0xE0 SHL SUB NOT PUSH1 0xE0 DUP6 SWAP1 SHL AND DUP2 MSTORE PUSH1 0x1 PUSH1 0x1 PUSH1 0xA0 SHL SUB SWAP1 SWAP3 AND PUSH1 0x4 DUP4 ADD MSTORE PUSH1 0x24 DUP3 ADD MSTORE PUSH1 0x44 ADD PUSH1 0x20 PUSH1 0x40 MLOAD DUP1 DUP4 SUB DUP2 PUSH1 0x0 DUP8 DUP1 EXTCODESIZE ISZERO DUP1 ISZERO PUSH2 0x511 JUMPI PUSH1 0x0 DUP1 REVERT JUMPDEST POP GAS CALL ISZERO DUP1 ISZERO PUSH2 0x525 JUMPI RETURNDATASIZE PUSH1 0x0 DUP1 RETURNDATACOPY RETURNDATASIZE PUSH1 0x0 REVERT JUMPDEST POP POP POP POP PUSH1 0x40 MLOAD RETURNDATASIZE PUSH1 0x1F NOT PUSH1 0x1F DUP3 ADD AND DUP3 ADD DUP1 PUSH1 0x40 MSTORE POP DUP2 ADD SWAP1 PUSH2 0x549 SWAP2 SWAP1 PUSH2 0x10F9 JUMP JUMPDEST POP POP POP JUMP JUMPDEST PUSH1 0xD SLOAD PUSH1 0xC SLOAD LT PUSH2 0x597 JUMPI PUSH1 0x40 MLOAD PUSH3 0x461BCD PUSH1 0xE5 SHL DUP2 MSTORE PUSH1 0x20 PUSH1 0x4 DUP3 ADD MSTORE PUSH1 0x13 PUSH1 0x24 DUP3 ADD MSTORE PUSH19 0x213ABC9038BAB7BA329031B7B6B83632BA3297 PUSH1 0x69 SHL PUSH1 0x44 DUP3 ADD MSTORE PUSH1 0x64 ADD PUSH2 0x412 JUMP JUMPDEST PUSH1 0x4 SLOAD DUP2 SWAP1 PUSH1 0x1 PUSH1 0x1 PUSH1 0xA0 SHL SUB AND PUSH4 0xDD62ED3E CALLER PUSH1 0x40 MLOAD PUSH1 0x1 PUSH1 0x1 PUSH1 0xE0 SHL SUB NOT PUSH1 0xE0 DUP5 SWAP1 SHL AND DUP2 MSTORE PUSH1 0x1 PUSH1 0x1 PUSH1 0xA0 SHL SUB SWAP1 SWAP2 AND PUSH1 0x4 DUP3 ADD MSTORE ADDRESS PUSH1 0x24 DUP3 ADD MSTORE PUSH1 0x44 ADD PUSH1 0x20 PUSH1 0x40 MLOAD DUP1 DUP4 SUB DUP2 DUP7 DUP1 EXTCODESIZE ISZERO DUP1 ISZERO PUSH2 0x5F0 JUMPI PUSH1 0x0 DUP1 REVERT JUMPDEST POP GAS STATICCALL ISZERO DUP1 ISZERO PUSH2 0x604 JUMPI RETURNDATASIZE PUSH1 0x0 DUP1 RETURNDATACOPY RETURNDATASIZE PUSH1 0x0 REVERT JUMPDEST POP POP POP POP PUSH1 0x40 MLOAD RETURNDATASIZE PUSH1 0x1F NOT PUSH1 0x1F DUP3 ADD AND DUP3 ADD DUP1 PUSH1 0x40 MSTORE POP DUP2 ADD SWAP1 PUSH2 0x628 SWAP2 SWAP1 PUSH2 0x116D JUMP JUMPDEST LT ISZERO PUSH2 0x682 JUMPI PUSH1 0x40 MLOAD PUSH3 0x461BCD PUSH1 0xE5 SHL DUP2 MSTORE PUSH1 0x20 PUSH1 0x4 DUP3 ADD MSTORE PUSH1 0x23 PUSH1 0x24 DUP3 ADD MSTORE PUSH32 0x4E6F7420656E6F75676820616C6C6F77616E636520746F207370656E64206275 PUSH1 0x44 DUP3 ADD MSTORE PUSH3 0x39B217 PUSH1 0xE9 SHL PUSH1 0x64 DUP3 ADD MSTORE PUSH1 0x84 ADD PUSH2 0x412 JUMP JUMPDEST CALLER PUSH1 0x0 SWAP1 DUP2 MSTORE PUSH1 0xB PUSH1 0x20 MSTORE PUSH1 0x40 SWAP1 KECCAK256 SLOAD PUSH1 0x3 GT PUSH2 0x6E1 JUMPI PUSH1 0x40 MLOAD PUSH3 0x461BCD PUSH1 0xE5 SHL DUP2 MSTORE PUSH1 0x20 PUSH1 0x4 DUP3 ADD MSTORE PUSH1 0x1A PUSH1 0x24 DUP3 ADD MSTORE PUSH32 0x57616C6C6574206275792071756F74652066696E69736865642E000000000000 PUSH1 0x44 DUP3 ADD MSTORE PUSH1 0x64 ADD PUSH2 0x412 JUMP JUMPDEST PUSH1 0x0 PUSH2 0x6F5 PUSH2 0x6EE PUSH2 0xFBA JUMP JUMPDEST DUP4 SWAP1 PUSH2 0xFF5 JUMP JUMPDEST PUSH1 0xC SLOAD SWAP1 SWAP2 POP PUSH2 0x706 SWAP1 PUSH1 0x1 PUSH2 0x107D JUMP JUMPDEST PUSH1 0xC SSTORE CALLER PUSH1 0x0 SWAP1 DUP2 MSTORE PUSH1 0xB PUSH1 0x20 MSTORE PUSH1 0x40 SWAP1 KECCAK256 SLOAD PUSH2 0x724 SWAP1 PUSH1 0x1 PUSH2 0x107D JUMP JUMPDEST CALLER PUSH1 0x0 SWAP1 DUP2 MSTORE PUSH1 0xB PUSH1 0x20 MSTORE PUSH1 0x40 SWAP1 KECCAK256 SSTORE PUSH1 0xE SLOAD PUSH2 0x741 SWAP1 DUP3 PUSH2 0x107D JUMP JUMPDEST PUSH1 0xE SSTORE PUSH1 0x4 SLOAD PUSH1 0x1 PUSH1 0x1 PUSH1 0xA0 SHL SUB AND PUSH4 0x23B872DD CALLER PUSH1 0x5 SLOAD PUSH1 0x40 MLOAD PUSH1 0xE0 DUP5 SWAP1 SHL PUSH1 0x1 PUSH1 0x1 PUSH1 0xE0 SHL SUB NOT AND DUP2 MSTORE PUSH1 0x1 PUSH1 0x1 PUSH1 0xA0 SHL SUB SWAP3 DUP4 AND PUSH1 0x4 DUP3 ADD MSTORE SWAP2 AND PUSH1 0x24 DUP3 ADD MSTORE PUSH1 0x44 DUP2 ADD DUP6 SWAP1 MSTORE PUSH1 0x64 ADD PUSH1 0x20 PUSH1 0x40 MLOAD DUP1 DUP4 SUB DUP2 PUSH1 0x0 DUP8 DUP1 EXTCODESIZE ISZERO DUP1 ISZERO PUSH2 0x7A8 JUMPI PUSH1 0x0 DUP1 REVERT JUMPDEST POP GAS CALL ISZERO DUP1 ISZERO PUSH2 0x7BC JUMPI RETURNDATASIZE PUSH1 0x0 DUP1 RETURNDATACOPY RETURNDATASIZE PUSH1 0x0 REVERT JUMPDEST POP POP POP POP PUSH1 0x40 MLOAD RETURNDATASIZE PUSH1 0x1F NOT PUSH1 0x1F DUP3 ADD AND DUP3 ADD DUP1 PUSH1 0x40 MSTORE POP DUP2 ADD SWAP1 PUSH2 0x7E0 SWAP2 SWAP1 PUSH2 0x10F9 JUMP JUMPDEST POP PUSH1 0x3 SLOAD PUSH1 0x1 PUSH1 0x1 PUSH1 0xA0 SHL SUB AND PUSH4 0xA9059CBB CALLER PUSH1 0x40 MLOAD PUSH1 0x1 PUSH1 0x1 PUSH1 0xE0 SHL SUB NOT PUSH1 0xE0 DUP5 SWAP1 SHL AND DUP2 MSTORE PUSH1 0x1 PUSH1 0x1 PUSH1 0xA0 SHL SUB SWAP1 SWAP2 AND PUSH1 0x4 DUP3 ADD MSTORE PUSH1 0x24 DUP2 ADD DUP5 SWAP1 MSTORE PUSH1 0x44 ADD PUSH1 0x20 PUSH1 0x40 MLOAD DUP1 DUP4 SUB DUP2 PUSH1 0x0 DUP8 DUP1 EXTCODESIZE ISZERO DUP1 ISZERO PUSH2 0x83B JUMPI PUSH1 0x0 DUP1 REVERT JUMPDEST POP GAS CALL ISZERO DUP1 ISZERO PUSH2 0x84F JUMPI RETURNDATASIZE PUSH1 0x0 DUP1 RETURNDATACOPY RETURNDATASIZE PUSH1 0x0 REVERT JUMPDEST POP POP POP POP PUSH1 0x40 MLOAD RETURNDATASIZE PUSH1 0x1F NOT PUSH1 0x1F DUP3 ADD AND DUP3 ADD DUP1 PUSH1 0x40 MSTORE POP DUP2 ADD SWAP1 PUSH2 0x873 SWAP2 SWAP1 PUSH2 0x10F9 JUMP JUMPDEST POP PUSH1 0x40 MLOAD DUP2 DUP2 MSTORE CALLER SWAP1 PUSH32 0x55C18555197C6574627CF460C66073D10AA05D412468800B7B71FEEAF82EA92D SWAP1 PUSH1 0x20 ADD PUSH1 0x40 MLOAD DUP1 SWAP2 SUB SWAP1 LOG2 POP POP JUMP JUMPDEST PUSH1 0x0 SLOAD PUSH1 0x1 PUSH1 0x1 PUSH1 0xA0 SHL SUB AND CALLER EQ PUSH2 0x8D7 JUMPI PUSH1 0x40 MLOAD PUSH3 0x461BCD PUSH1 0xE5 SHL DUP2 MSTORE PUSH1 0x4 ADD PUSH2 0x412 SWAP1 PUSH2 0x11B2 JUMP JUMPDEST PUSH1 0x7 SSTORE JUMP JUMPDEST PUSH1 0x6 SLOAD PUSH1 0xF SLOAD LT PUSH2 0x93B JUMPI PUSH1 0x40 MLOAD PUSH3 0x461BCD PUSH1 0xE5 SHL DUP2 MSTORE PUSH1 0x20 PUSH1 0x4 DUP3 ADD MSTORE PUSH1 0x23 PUSH1 0x24 DUP3 ADD MSTORE PUSH32 0x4E6F7420656E6F7567682061697264726F7020746F6B656E20617661696C6162 PUSH1 0x44 DUP3 ADD MSTORE PUSH3 0x363297 PUSH1 0xE9 SHL PUSH1 0x64 DUP3 ADD MSTORE PUSH1 0x84 ADD PUSH2 0x412 JUMP JUMPDEST PUSH2 0x1F4 PUSH1 0x10 SLOAD LT PUSH2 0x98E JUMPI PUSH1 0x40 MLOAD PUSH3 0x461BCD PUSH1 0xE5 SHL DUP2 MSTORE PUSH1 0x20 PUSH1 0x4 DUP3 ADD MSTORE PUSH1 0x1A PUSH1 0x24 DUP3 ADD MSTORE PUSH32 0x4E6F2061697264726F702073706F742072616D61696E696E672E000000000000 PUSH1 0x44 DUP3 ADD MSTORE PUSH1 0x64 ADD PUSH2 0x412 JUMP JUMPDEST CALLER PUSH1 0x0 SWAP1 DUP2 MSTORE PUSH1 0x11 PUSH1 0x20 MSTORE PUSH1 0x40 SWAP1 KECCAK256 SLOAD PUSH1 0xFF AND ISZERO PUSH2 0x9FA JUMPI PUSH1 0x40 MLOAD PUSH3 0x461BCD PUSH1 0xE5 SHL DUP2 MSTORE PUSH1 0x20 PUSH1 0x4 DUP3 ADD MSTORE PUSH1 0x23 PUSH1 0x24 DUP3 ADD MSTORE PUSH32 0x57616C6C65742068617320616C726561647920636C61696D6564206169726472 PUSH1 0x44 DUP3 ADD MSTORE PUSH3 0x37B817 PUSH1 0xE9 SHL PUSH1 0x64 DUP3 ADD MSTORE PUSH1 0x84 ADD PUSH2 0x412 JUMP JUMPDEST CALLER PUSH1 0x0 SWAP1 DUP2 MSTORE PUSH1 0x11 PUSH1 0x20 MSTORE PUSH1 0x40 SWAP1 KECCAK256 DUP1 SLOAD PUSH1 0xFF NOT AND PUSH1 0x1 OR SWAP1 SSTORE PUSH1 0x7 SLOAD PUSH1 0xF SLOAD PUSH2 0xA23 SWAP2 PUSH2 0x107D JUMP JUMPDEST PUSH1 0xF SSTORE PUSH1 0x10 SLOAD PUSH2 0xA34 SWAP1 PUSH1 0x1 PUSH2 0x107D JUMP JUMPDEST PUSH1 0x10 SSTORE PUSH1 0x3 SLOAD PUSH1 0x1 PUSH1 0x1 PUSH1 0xA0 SHL SUB AND PUSH4 0xA9059CBB CALLER PUSH1 0x7 SLOAD PUSH1 0x40 MLOAD PUSH1 0x1 PUSH1 0x1 PUSH1 0xE0 SHL SUB NOT PUSH1 0xE0 DUP6 SWAP1 SHL AND DUP2 MSTORE PUSH1 0x1 PUSH1 0x1 PUSH1 0xA0 SHL SUB SWAP1 SWAP3 AND PUSH1 0x4 DUP4 ADD MSTORE PUSH1 0x24 DUP3 ADD MSTORE PUSH1 0x44 ADD PUSH1 0x20 PUSH1 0x40 MLOAD DUP1 DUP4 SUB DUP2 PUSH1 0x0 DUP8 DUP1 EXTCODESIZE ISZERO DUP1 ISZERO PUSH2 0xA92 JUMPI PUSH1 0x0 DUP1 REVERT JUMPDEST POP GAS CALL ISZERO DUP1 ISZERO PUSH2 0xAA6 JUMPI RETURNDATASIZE PUSH1 0x0 DUP1 RETURNDATACOPY RETURNDATASIZE PUSH1 0x0 REVERT JUMPDEST POP POP POP POP PUSH1 0x40 MLOAD RETURNDATASIZE PUSH1 0x1F NOT PUSH1 0x1F DUP3 ADD AND DUP3 ADD DUP1 PUSH1 0x40 MSTORE POP DUP2 ADD SWAP1 PUSH2 0xACA SWAP2 SWAP1 PUSH2 0x10F9 JUMP JUMPDEST POP PUSH1 0x7 SLOAD PUSH1 0x40 MLOAD SWAP1 DUP2 MSTORE CALLER SWAP1 PUSH32 0x83265B23C474CC19D093563D55AC9F2ED482AC7BF0B34628271110C11DB9F9E6 SWAP1 PUSH1 0x20 ADD PUSH1 0x40 MLOAD DUP1 SWAP2 SUB SWAP1 LOG2 JUMP JUMPDEST PUSH1 0x0 SLOAD PUSH1 0x1 PUSH1 0x1 PUSH1 0xA0 SHL SUB AND CALLER EQ PUSH2 0xB2F JUMPI PUSH1 0x40 MLOAD PUSH3 0x461BCD PUSH1 0xE5 SHL DUP2 MSTORE PUSH1 0x4 ADD PUSH2 0x412 SWAP1 PUSH2 0x11B2 JUMP JUMPDEST PUSH1 0xD SSTORE JUMP JUMPDEST PUSH1 0x0 SLOAD PUSH1 0x1 PUSH1 0x1 PUSH1 0xA0 SHL SUB AND CALLER EQ PUSH2 0xB5E JUMPI PUSH1 0x40 MLOAD PUSH3 0x461BCD PUSH1 0xE5 SHL DUP2 MSTORE PUSH1 0x4 ADD PUSH2 0x412 SWAP1 PUSH2 0x11B2 JUMP JUMPDEST PUSH1 0x0 DUP1 SLOAD PUSH1 0x40 MLOAD PUSH1 0x1 PUSH1 0x1 PUSH1 0xA0 SHL SUB SWAP1 SWAP2 AND SWAP1 PUSH1 0x0 DUP1 MLOAD PUSH1 0x20 PUSH2 0x126C DUP4 CODECOPY DUP2 MLOAD SWAP2 MSTORE SWAP1 DUP4 SWAP1 LOG3 PUSH1 0x0 DUP1 SLOAD PUSH1 0x1 PUSH1 0x1 PUSH1 0xA0 SHL SUB NOT AND SWAP1 SSTORE JUMP JUMPDEST PUSH1 0x1 SLOAD PUSH1 0x1 PUSH1 0x1 PUSH1 0xA0 SHL SUB AND CALLER EQ PUSH2 0xBFC JUMPI PUSH1 0x40 MLOAD PUSH3 0x461BCD PUSH1 0xE5 SHL DUP2 MSTORE PUSH1 0x20 PUSH1 0x4 DUP3 ADD MSTORE PUSH1 0x23 PUSH1 0x24 DUP3 ADD MSTORE PUSH32 0x596F7520646F6E27742068617665207065726D697373696F6E20746F20756E6C PUSH1 0x44 DUP3 ADD MSTORE PUSH3 0x6F636B PUSH1 0xE8 SHL PUSH1 0x64 DUP3 ADD MSTORE PUSH1 0x84 ADD PUSH2 0x412 JUMP JUMPDEST PUSH1 0x2 SLOAD TIMESTAMP GT PUSH2 0xC4D JUMPI PUSH1 0x40 MLOAD PUSH3 0x461BCD PUSH1 0xE5 SHL DUP2 MSTORE PUSH1 0x20 PUSH1 0x4 DUP3 ADD MSTORE PUSH1 0x1F PUSH1 0x24 DUP3 ADD MSTORE PUSH32 0x436F6E7472616374206973206C6F636B656420756E74696C2037206461797300 PUSH1 0x44 DUP3 ADD MSTORE PUSH1 0x64 ADD PUSH2 0x412 JUMP JUMPDEST PUSH1 0x1 SLOAD PUSH1 0x0 DUP1 SLOAD PUSH1 0x40 MLOAD PUSH1 0x1 PUSH1 0x1 PUSH1 0xA0 SHL SUB SWAP4 DUP5 AND SWAP4 SWAP1 SWAP2 AND SWAP2 PUSH1 0x0 DUP1 MLOAD PUSH1 0x20 PUSH2 0x126C DUP4 CODECOPY DUP2 MLOAD SWAP2 MSTORE SWAP2 LOG3 PUSH1 0x1 SLOAD PUSH1 0x0 DUP1 SLOAD PUSH1 0x1 PUSH1 0x1 PUSH1 0xA0 SHL SUB NOT AND PUSH1 0x1 PUSH1 0x1 PUSH1 0xA0 SHL SUB SWAP1 SWAP3 AND SWAP2 SWAP1 SWAP2 OR SWAP1 SSTORE JUMP JUMPDEST PUSH1 0x0 SLOAD PUSH1 0x1 PUSH1 0x1 PUSH1 0xA0 SHL SUB AND CALLER EQ PUSH2 0xCC6 JUMPI PUSH1 0x40 MLOAD PUSH3 0x461BCD PUSH1 0xE5 SHL DUP2 MSTORE PUSH1 0x4 ADD PUSH2 0x412 SWAP1 PUSH2 0x11B2 JUMP JUMPDEST PUSH1 0x8 SWAP3 SWAP1 SWAP3 SSTORE PUSH1 0x9 SSTORE PUSH1 0xA SSTORE JUMP JUMPDEST PUSH1 0x0 SLOAD PUSH1 0x1 PUSH1 0x1 PUSH1 0xA0 SHL SUB AND CALLER EQ PUSH2 0xCFE JUMPI PUSH1 0x40 MLOAD PUSH3 0x461BCD PUSH1 0xE5 SHL DUP2 MSTORE PUSH1 0x4 ADD PUSH2 0x412 SWAP1 PUSH2 0x11B2 JUMP JUMPDEST PUSH1 0x0 DUP1 SLOAD PUSH1 0x1 PUSH1 0x1 PUSH1 0xA0 SHL SUB NOT AND SWAP1 SSTORE PUSH2 0xD18 DUP2 TIMESTAMP PUSH2 0x11E7 JUMP JUMPDEST PUSH1 0x2 SSTORE PUSH1 0x0 DUP1 SLOAD PUSH1 0x40 MLOAD PUSH1 0x1 PUSH1 0x1 PUSH1 0xA0 SHL SUB SWAP1 SWAP2 AND SWAP1 PUSH1 0x0 DUP1 MLOAD PUSH1 0x20 PUSH2 0x126C DUP4 CODECOPY DUP2 MLOAD SWAP2 MSTORE SWAP1 DUP4 SWAP1 LOG3 POP JUMP JUMPDEST PUSH1 0x0 SLOAD PUSH1 0x1 PUSH1 0x1 PUSH1 0xA0 SHL SUB AND CALLER EQ PUSH2 0xD6E JUMPI PUSH1 0x40 MLOAD PUSH3 0x461BCD PUSH1 0xE5 SHL DUP2 MSTORE PUSH1 0x4 ADD PUSH2 0x412 SWAP1 PUSH2 0x11B2 JUMP JUMPDEST PUSH1 0x3 DUP1 SLOAD PUSH1 0x1 PUSH1 0x1 PUSH1 0xA0 SHL SUB SWAP4 DUP5 AND PUSH1 0x1 PUSH1 0x1 PUSH1 0xA0 SHL SUB NOT SWAP2 DUP3 AND OR SWAP1 SWAP2 SSTORE PUSH1 0x4 DUP1 SLOAD SWAP3 SWAP1 SWAP4 AND SWAP2 AND OR SWAP1 SSTORE JUMP JUMPDEST PUSH1 0x0 SLOAD PUSH1 0x1 PUSH1 0x1 PUSH1 0xA0 SHL SUB AND CALLER EQ PUSH2 0xDC6 JUMPI PUSH1 0x40 MLOAD PUSH3 0x461BCD PUSH1 0xE5 SHL DUP2 MSTORE PUSH1 0x4 ADD PUSH2 0x412 SWAP1 PUSH2 0x11B2 JUMP JUMPDEST PUSH1 0x3 SLOAD PUSH1 0x1 PUSH1 0x1 PUSH1 0xA0 SHL SUB AND PUSH4 0xA9059CBB CALLER PUSH1 0x3 SLOAD PUSH1 0x40 MLOAD PUSH4 0x70A08231 PUSH1 0xE0 SHL DUP2 MSTORE ADDRESS PUSH1 0x4 DUP3 ADD MSTORE PUSH1 0x1 PUSH1 0x1 PUSH1 0xA0 SHL SUB SWAP1 SWAP2 AND SWAP1 PUSH4 0x70A08231 SWAP1 PUSH1 0x24 ADD PUSH1 0x20 PUSH1 0x40 MLOAD DUP1 DUP4 SUB DUP2 DUP7 DUP1 EXTCODESIZE ISZERO DUP1 ISZERO PUSH2 0xE1B JUMPI PUSH1 0x0 DUP1 REVERT JUMPDEST POP GAS STATICCALL ISZERO DUP1 ISZERO PUSH2 0xE2F JUMPI RETURNDATASIZE PUSH1 0x0 DUP1 RETURNDATACOPY RETURNDATASIZE PUSH1 0x0 REVERT JUMPDEST POP POP POP POP PUSH1 0x40 MLOAD RETURNDATASIZE PUSH1 0x1F NOT PUSH1 0x1F DUP3 ADD AND DUP3 ADD DUP1 PUSH1 0x40 MSTORE POP DUP2 ADD SWAP1 PUSH2 0xE53 SWAP2 SWAP1 PUSH2 0x116D JUMP JUMPDEST PUSH1 0x40 MLOAD PUSH1 0x1 PUSH1 0x1 PUSH1 0xE0 SHL SUB NOT PUSH1 0xE0 DUP6 SWAP1 SHL AND DUP2 MSTORE PUSH1 0x1 PUSH1 0x1 PUSH1 0xA0 SHL SUB SWAP1 SWAP3 AND PUSH1 0x4 DUP4 ADD MSTORE PUSH1 0x24 DUP3 ADD MSTORE PUSH1 0x44 ADD PUSH1 0x20 PUSH1 0x40 MLOAD DUP1 DUP4 SUB DUP2 PUSH1 0x0 DUP8 DUP1 EXTCODESIZE ISZERO DUP1 ISZERO PUSH2 0xE99 JUMPI PUSH1 0x0 DUP1 REVERT JUMPDEST POP GAS CALL ISZERO DUP1 ISZERO PUSH2 0xEAD JUMPI RETURNDATASIZE PUSH1 0x0 DUP1 RETURNDATACOPY RETURNDATASIZE PUSH1 0x0 REVERT JUMPDEST POP POP POP POP PUSH1 0x40 MLOAD RETURNDATASIZE PUSH1 0x1F NOT PUSH1 0x1F DUP3 ADD AND DUP3 ADD DUP1 PUSH1 0x40 MSTORE POP DUP2 ADD SWAP1 PUSH2 0xED1 SWAP2 SWAP1 PUSH2 0x10F9 JUMP JUMPDEST POP JUMP JUMPDEST PUSH1 0x0 SLOAD PUSH1 0x1 PUSH1 0x1 PUSH1 0xA0 SHL SUB AND CALLER EQ PUSH2 0xEFE JUMPI PUSH1 0x40 MLOAD PUSH3 0x461BCD PUSH1 0xE5 SHL DUP2 MSTORE PUSH1 0x4 ADD PUSH2 0x412 SWAP1 PUSH2 0x11B2 JUMP JUMPDEST PUSH1 0x1 PUSH1 0x1 PUSH1 0xA0 SHL SUB DUP2 AND PUSH2 0xF63 JUMPI PUSH1 0x40 MLOAD PUSH3 0x461BCD PUSH1 0xE5 SHL DUP2 MSTORE PUSH1 0x20 PUSH1 0x4 DUP3 ADD MSTORE PUSH1 0x26 PUSH1 0x24 DUP3 ADD MSTORE PUSH32 0x4F776E61626C653A206E6577206F776E657220697320746865207A65726F2061 PUSH1 0x44 DUP3 ADD MSTORE PUSH6 0x646472657373 PUSH1 0xD0 SHL PUSH1 0x64 DUP3 ADD MSTORE PUSH1 0x84 ADD PUSH2 0x412 JUMP JUMPDEST PUSH1 0x0 DUP1 SLOAD PUSH1 0x40 MLOAD PUSH1 0x1 PUSH1 0x1 PUSH1 0xA0 SHL SUB DUP1 DUP6 AND SWAP4 SWAP3 AND SWAP2 PUSH1 0x0 DUP1 MLOAD PUSH1 0x20 PUSH2 0x126C DUP4 CODECOPY DUP2 MLOAD SWAP2 MSTORE SWAP2 LOG3 PUSH1 0x0 DUP1 SLOAD PUSH1 0x1 DUP1 SLOAD PUSH1 0x1 PUSH1 0x1 PUSH1 0xA0 SHL SUB DUP1 DUP5 AND PUSH1 0x1 PUSH1 0x1 PUSH1 0xA0 SHL SUB NOT SWAP3 DUP4 AND OR SWAP1 SWAP3 SSTORE SWAP1 SWAP2 AND SWAP3 AND SWAP2 SWAP1 SWAP2 OR SWAP1 SSTORE JUMP JUMPDEST PUSH1 0x0 PUSH1 0x96 PUSH1 0xC SLOAD LT PUSH2 0xFCD JUMPI POP PUSH1 0xA SLOAD SWAP1 JUMP JUMPDEST PUSH1 0x32 PUSH1 0xC SLOAD LT ISZERO DUP1 ISZERO PUSH2 0xFE2 JUMPI POP PUSH1 0x96 PUSH1 0xC SLOAD LT JUMPDEST ISZERO PUSH2 0xFEE JUMPI POP PUSH1 0x9 SLOAD SWAP1 JUMP JUMPDEST POP PUSH1 0x8 SLOAD SWAP1 JUMP JUMPDEST PUSH1 0x0 DUP3 PUSH2 0x1004 JUMPI POP PUSH1 0x0 PUSH2 0x1077 JUMP JUMPDEST PUSH1 0x0 PUSH2 0x1010 DUP4 DUP6 PUSH2 0x1221 JUMP JUMPDEST SWAP1 POP DUP3 PUSH2 0x101D DUP6 DUP4 PUSH2 0x11FF JUMP JUMPDEST EQ PUSH2 0x1074 JUMPI PUSH1 0x40 MLOAD PUSH3 0x461BCD PUSH1 0xE5 SHL DUP2 MSTORE PUSH1 0x20 PUSH1 0x4 DUP3 ADD MSTORE PUSH1 0x21 PUSH1 0x24 DUP3 ADD MSTORE PUSH32 0x536166654D6174683A206D756C7469706C69636174696F6E206F766572666C6F PUSH1 0x44 DUP3 ADD MSTORE PUSH1 0x77 PUSH1 0xF8 SHL PUSH1 0x64 DUP3 ADD MSTORE PUSH1 0x84 ADD PUSH2 0x412 JUMP JUMPDEST SWAP1 POP JUMPDEST SWAP3 SWAP2 POP POP JUMP JUMPDEST PUSH1 0x0 DUP1 PUSH2 0x108A DUP4 DUP6 PUSH2 0x11E7 JUMP JUMPDEST SWAP1 POP DUP4 DUP2 LT ISZERO PUSH2 0x1074 JUMPI PUSH1 0x40 MLOAD PUSH3 0x461BCD PUSH1 0xE5 SHL DUP2 MSTORE PUSH1 0x20 PUSH1 0x4 DUP3 ADD MSTORE PUSH1 0x1B PUSH1 0x24 DUP3 ADD MSTORE PUSH32 0x536166654D6174683A206164646974696F6E206F766572666C6F770000000000 PUSH1 0x44 DUP3 ADD MSTORE PUSH1 0x64 ADD PUSH2 0x412 JUMP JUMPDEST PUSH1 0x0 PUSH1 0x20 DUP3 DUP5 SUB SLT ISZERO PUSH2 0x10EE JUMPI PUSH1 0x0 DUP1 REVERT JUMPDEST DUP2 CALLDATALOAD PUSH2 0x1074 DUP2 PUSH2 0x1256 JUMP JUMPDEST PUSH1 0x0 PUSH1 0x20 DUP3 DUP5 SUB SLT ISZERO PUSH2 0x110B JUMPI PUSH1 0x0 DUP1 REVERT JUMPDEST DUP2 MLOAD DUP1 ISZERO ISZERO DUP2 EQ PUSH2 0x1074 JUMPI PUSH1 0x0 DUP1 REVERT JUMPDEST PUSH1 0x0 DUP1 PUSH1 0x40 DUP4 DUP6 SUB SLT ISZERO PUSH2 0x112E JUMPI PUSH1 0x0 DUP1 REVERT JUMPDEST DUP3 CALLDATALOAD PUSH2 0x1139 DUP2 PUSH2 0x1256 JUMP JUMPDEST SWAP2 POP PUSH1 0x20 DUP4 ADD CALLDATALOAD PUSH2 0x1149 DUP2 PUSH2 0x1256 JUMP JUMPDEST DUP1 SWAP2 POP POP SWAP3 POP SWAP3 SWAP1 POP JUMP JUMPDEST PUSH1 0x0 PUSH1 0x20 DUP3 DUP5 SUB SLT ISZERO PUSH2 0x1166 JUMPI PUSH1 0x0 DUP1 REVERT JUMPDEST POP CALLDATALOAD SWAP2 SWAP1 POP JUMP JUMPDEST PUSH1 0x0 PUSH1 0x20 DUP3 DUP5 SUB SLT ISZERO PUSH2 0x117F JUMPI PUSH1 0x0 DUP1 REVERT JUMPDEST POP MLOAD SWAP2 SWAP1 POP JUMP JUMPDEST PUSH1 0x0 DUP1 PUSH1 0x0 PUSH1 0x60 DUP5 DUP7 SUB SLT ISZERO PUSH2 0x119B JUMPI PUSH1 0x0 DUP1 REVERT JUMPDEST POP POP DUP2 CALLDATALOAD SWAP4 PUSH1 0x20 DUP4 ADD CALLDATALOAD SWAP4 POP PUSH1 0x40 SWAP1 SWAP3 ADD CALLDATALOAD SWAP2 SWAP1 POP JUMP JUMPDEST PUSH1 0x20 DUP1 DUP3 MSTORE DUP2 DUP2 ADD MSTORE PUSH32 0x4F776E61626C653A2063616C6C6572206973206E6F7420746865206F776E6572 PUSH1 0x40 DUP3 ADD MSTORE PUSH1 0x60 ADD SWAP1 JUMP JUMPDEST PUSH1 0x0 DUP3 NOT DUP3 GT ISZERO PUSH2 0x11FA JUMPI PUSH2 0x11FA PUSH2 0x1240 JUMP JUMPDEST POP ADD SWAP1 JUMP JUMPDEST PUSH1 0x0 DUP3 PUSH2 0x121C JUMPI PUSH4 0x4E487B71 PUSH1 0xE0 SHL PUSH1 0x0 MSTORE PUSH1 0x12 PUSH1 0x4 MSTORE PUSH1 0x24 PUSH1 0x0 REVERT JUMPDEST POP DIV SWAP1 JUMP JUMPDEST PUSH1 0x0 DUP2 PUSH1 0x0 NOT DIV DUP4 GT DUP3 ISZERO ISZERO AND ISZERO PUSH2 0x123B JUMPI PUSH2 0x123B PUSH2 0x1240 JUMP JUMPDEST POP MUL SWAP1 JUMP JUMPDEST PUSH4 0x4E487B71 PUSH1 0xE0 SHL PUSH1 0x0 MSTORE PUSH1 0x11 PUSH1 0x4 MSTORE PUSH1 0x24 PUSH1 0x0 REVERT JUMPDEST PUSH1 0x1 PUSH1 0x1 PUSH1 0xA0 SHL SUB DUP2 AND DUP2 EQ PUSH2 0xED1 JUMPI PUSH1 0x0 DUP1 REVERT INVALID DUP12 0xE0 SMOD SWAP13 MSTORE8 AND MSIZE EQ SGT DIFFICULTY 0xCD 0x1F 0xD0 LOG4 CALLCODE DUP5 NOT 0x49 PUSH32 0x9722A3DAAFE3B4186F6B6457E0A2646970667358221220E447058E16A373711C 0xCE XOR 0xC6 EQ 0x28 POP PUSH3 0x7E0A95 0xCB MLOAD SWAP14 0x23 SWAP7 PUSH2 0x45F5 0xBA 0xCC ADDRESS 0xDF PUSH26 0x64736F6C63430008070033000000000000000000000000000000 "
				},
				"gasEstimates": {
					"creation": {
						"codeDepositCost": "960200",
						"executionCost": "infinite",
						"totalCost": "infinite"
					},
					"external": {
						"adminClaimTokens()": "infinite",
						"airdropAmount()": "2383",
						"airdropRate()": "2385",
						"busdToken()": "2415",
						"buyCount(address)": "2606",
						"buyRate()": "8805",
						"buyToken(uint256)": "infinite",
						"claimAirdrop()": "infinite",
						"claimAnyTokens(address,address)": "infinite",
						"geUnlockTime()": "2382",
						"hasClaimedAirdrop(address)": "2618",
						"lock(uint256)": "52516",
						"owner()": "2432",
						"rate1()": "2340",
						"rate2()": "2406",
						"rate3()": "2363",
						"renounceOwnership()": "30266",
						"token()": "2392",
						"totalAirdropWalletCount()": "2339",
						"totalAirdropped()": "2407",
						"totalAvailbleBuyCount()": "2362",
						"totalBuyCount()": "2341",
						"totalSold()": "2340",
						"transferOwnership(address)": "54731",
						"unlock()": "36679",
						"updateAirdropRate(uint256)": "24510",
						"updateSellRates(uint256,uint256,uint256)": "68771",
						"updateTokens(address,address)": "infinite",
						"updateTotalAirdropAmount(uint256)": "24511",
						"updateTotalAvailableBuyCount(uint256)": "24576",
						"wallet()": "2394"
					}
				},
				"methodIdentifiers": {
					"adminClaimTokens()": "ef719a16",
					"airdropAmount()": "fc2ea8a5",
					"airdropRate()": "8891cf0d",
					"busdToken()": "de0e7014",
					"buyCount(address)": "9fefe7f4",
					"buyRate()": "fc37987b",
					"buyToken(uint256)": "2d296bf1",
					"claimAirdrop()": "5b88349d",
					"claimAnyTokens(address,address)": "0f04cf24",
					"geUnlockTime()": "b6c52324",
					"hasClaimedAirdrop(address)": "f4cdda36",
					"lock(uint256)": "dd467064",
					"owner()": "8da5cb5b",
					"rate1()": "cf854969",
					"rate2()": "f555b815",
					"rate3()": "aff1f15f",
					"renounceOwnership()": "715018a6",
					"token()": "fc0c546a",
					"totalAirdropWalletCount()": "f61101bd",
					"totalAirdropped()": "ce678580",
					"totalAvailbleBuyCount()": "972a040a",
					"totalBuyCount()": "64142e99",
					"totalSold()": "9106d7ba",
					"transferOwnership(address)": "f2fde38b",
					"unlock()": "a69df4b5",
					"updateAirdropRate(uint256)": "36e820c2",
					"updateSellRates(uint256,uint256,uint256)": "a9d1ff2e",
					"updateTokens(address,address)": "e7aa29e3",
					"updateTotalAirdropAmount(uint256)": "0001d891",
					"updateTotalAvailableBuyCount(uint256)": "639d739a",
					"wallet()": "521eb273"
				}
			},
			"userdoc": {
				"kind": "user",
				"methods": {},
				"version": 1
			}
		}
	}
}